:100000000C9467010C9498010C9498010C9498013D
:100010000C9498010C9498010C9498010C949801FC
:100020000C9498010C9498010C9498010C949801EC
:100030000C9498010C9498010C9498010C949801DC
:100040000C9498010C9498010C9498010C949801CC
:100050000C9498010C9498010C9498010C94E20C67
:100060000C9498010C94AC0C0C94820C0C94980198
:100070000C9498010C9498010C9498010C9498019C
:100080000C9498010C9498010C9498010C9498018C
:100090000C944C0C0C94220C0C9498010C942C0D88
:1000A0000C9498010C9498010C9498010C9498016C
:1000B0000C9498010C9498010C9498010C9498015C
:1000C0000C9498010C9498010C9498010C9498014C
:1000D0000C9498010C9498010C9498010C9498013C
:1000E0000C9498010C9457070C944F030C94220322
:1000F0000C94DB050C94C7050C9456070C942C0348
:100100000C9430090C9411090C9419050C94630398
:100110000C94AD070C9437030C9428020C945503EF
:100120000C94B7020C94DC050C9437050C94620314
:100130000C9411050C943D030C9480070C94C101A0
:100140000C9479070C946A020C9441030C94EF060A
:100150000C945D030C9430030C94CF040C94F904BC
:100160000C9431050C9459030C94DD050C94DB0AB6
:100170000C9434030C9428030C9413050C94660718
:100180000C9449090C9467030C941A020C944703CD
:100190000C94500E0C9423050C944B030C94D9042E
:1001A0000C9406020C94E7040C94F7010000210063
:1001B000240027002A002D00300033000101000038
:1001C000040107010A0100002200250028002B007D
:1001D0002E003100340002010000050108010B016E
:1001E000000020002300260029002C002F003200F0
:1001F00000010000030106010901050505050705C9
:1002000008080808020202020A0A08080404040492
:1002100001010101010101010303030303030303BE
:10022000040707070C0C0C0C0C0C0C0C020202024D
:1002300006060606060606060B0B0B0B0B0B0B0B36
:1002400001021020200808102040102040800201E8
:1002500002010804020101020408102040808040CD
:1002600020100804020180040201804020100804CC
:10027000020108040201010204081020408001026A
:1002800004081020408000000A0B02090C0D0E0823
:10029000070304010000000000000000000000004F
:1002A000000000000000000000000000000000004E
:1002B000000012111000000000000000000000000B
:1002C000000000000000000000000000500E11249B
:1002D0001FBECFEFD1E2DEBFCDBF00E00CBF25E0F7
:1002E000A6EFB2E001C01D92A237B207E1F712E01B
:1002F000A0E0B2E0E8EAFEE200E00BBF02C0079037
:100300000D92A63FB107D9F711E0C7E6D1E000E0B2
:1003100006C021970109802FFE010E94F914C636FC
:10032000D10780E00807A9F70E94450F0C945217E7
:100330000C940000FC01A089B18982E08C93A48513
:10034000B5851C92A685B7858FEC8C93108EA489F9
:10035000B58986E08C93A289B3898C9180618C9356
:10036000A289B3898C9188608C93A289B3898C917E
:1003700080688C930288F389E02D80818F7D808353
:100380000895AF92BF92CF92DF92EF92FF920F93B8
:100390001F93CF93DF936C017B018B01040F151F1B
:1003A000EB015E01AE18BF08C017D10759F0699183
:1003B000D601ED91FC910190F081E02DC6011995D7
:1003C000892B79F7C501DF91CF911F910F91FF9094
:1003D000EF90DF90CF90BF90AF900895FC014481E3
:1003E00055816081718181E295E00C94C101FC012D
:1003F000538D448D252F30E0842F90E0821B930B8A
:10040000541710F0CF96089501970895FC01918D2F
:10041000828D981761F0A28DAE0FBF2FB11D5D9632
:100420008C91928D9F5F9F73928F90E008958FEFD4
:100430009FEF0895FC01918D828D981731F0828D88
:10044000E80FF11D858D90E008958FEF9FEF0895DF
:10045000FC01918D228D892F90E0805C9F4F821B43
:1004600091098F73992708958BED93E00E942802DC
:1004700021E0892B09F420E0822F089588E794E099
:100480000E94280221E0892B09F420E0822F0895A0
:10049000FC01A48DA80FB92FB11DA35ABF4F2C91F9
:1004A000848D90E001968F739927848FA689B789F0
:1004B0002C93A089B1898C91837080648C93938DE7
:1004C000848D981306C00288F389E02D80818F7D8A
:1004D00080830895EF92FF920F931F93CF93DF9342
:1004E000EC0181E0888F9B8D8C8D98131AC0E88970
:1004F000F989808185FF15C09FB7F894EE89FF893F
:100500006083E889F98980818370806480839FBFDC
:1005100081E090E0DF91CF911F910F91FF90EF90DC
:100520000895F62E0B8D10E00F5F1F4F0F731127EC
:10053000E02E8C8D8E110CC00FB607FCFACFE88927
:10054000F989808185FFF5CFCE010E944802F1CF65
:10055000EB8DEC0FFD2FF11DE35AFF4FF0829FB79B
:10056000F8940B8FEA89FB8980818062CFCFCF938B
:10057000DF93EC01888D8823B9F0AA89BB89E889CB
:10058000F9898C9185FD03C0808186FD0DC00FB671
:1005900007FCF7CF8C9185FFF2CF808185FFEDCFEF
:1005A000CE010E944802E9CFDF91CF91089580E00B
:1005B00090E0892B29F00E943E0281110E940000E8
:1005C00080E090E0892B29F00E94340281110E9482
:1005D000000080E090E0892B49F080E090E0892BDA
:1005E00029F00E94000081110E94000080E090E04C
:1005F000892B49F080E090E0892B29F00E940000CF
:1006000081110C94000008958150823108F05AC085
:10061000E82FF0E08827E05FFC4F8F4F0C94F9142F
:1006200030033403220328032C03620337033D0302
:10063000410347034B034F035503590362035D0313
:1006400063036703809180008F7780938000089513
:10065000809180008F7DF9CF80918000877FF5CFDA
:1006600084B58F7784BD089584B58F7DFBCF80914D
:10067000B0008F778093B00008958091B0008F7D97
:10068000F9CF809190008F778093900008958091AA
:1006900090008F7DF9CF80919000877FF5CF80917A
:1006A000A0008F778093A00008958091A0008F7D97
:1006B000F9CF8091A000877FF5CF809120018F77BF
:1006C000809320010895809120018F7DF9CF809142
:1006D0002001877FF5CFCF93DF93282F30E0F901FA
:1006E000EA57FD4F8491F901E05CFD4FD491F90187
:1006F000E650FE4FC491CC23A1F081110E94040367
:10070000EC2FF0E0EE0FFF1FE052FE4FA591B491E9
:10071000EC91ED2381E090E009F480E0DF91CF914E
:10072000089580E090E0FACF1F93CF93DF93282FB6
:1007300030E0F901EA57FD4F8491F901E05CFD4F8B
:10074000D491F901E650FE4FC491CC23A9F0162FA5
:1007500081110E940403EC2FF0E0EE0FFF1FEA531B
:10076000FE4FA591B4918FB7F894EC91111108C088
:10077000D095DE23DC938FBFDF91CF911F91089539
:10078000DE2BF8CFCF93DF9390E0FC01E05CFD4FD0
:10079000249186509E4FFC0184918823D1F090E0F3
:1007A000880F991FFC01E455FE4FA591B491FC01FF
:1007B000EA53FE4FC591D49161110EC09FB7F894D2
:1007C0008C91E22FE0958E238C932881E223E8839D
:1007D0009FBFDF91CF9108958FB7F894EC91E22BF2
:1007E000EC938FBFF6CF3FB7F8948091B50390910B
:1007F000B603A091B703B091B80326B5A89B05C076
:100800002F3F19F00196A11DB11D3FBFBA2FA92F8F
:10081000982F8827BC01CD01620F711D811D911D8C
:1008200042E0660F771F881F991F4A95D1F70895F8
:100830008F929F92AF92BF92CF92DF92EF92FF92F0
:100840004B015C010E94F3036B017C010E94F303E6
:100850006C197D098E099F09683E734081059105D9
:10086000A8F321E0821A9108A108B10888EEC80E09
:1008700083E0D81EE11CF11C81149104A104B10491
:1008800029F7FF90EF90DF90CF90BF90AF909F90AF
:100890008F9008950F931F93CF93DF93EC018B01FB
:1008A00088859985029751F46130710509F43AC041
:1008B0006CF560E00115110509F435C0888599854E
:1008C000049751F40130110509F455C00CF035C0FE
:1008D0000115110509F43EC088859985059709F031
:1008E000C8C00A30110508F0C4C0F8018827E458D0
:1008F000FB4F8F4F0C94F914CF04D904E704F9048B
:1009000011051305190523053105370562307105F9
:1009100091F060E00330110589F68C850E94940304
:1009200060E005C061E08C850E94940361E08E85E3
:100930000E949403C3CF61E0F0CF0230110509F1AA
:100940000330110509F0C8CF61E08C850E94940343
:1009500060E01CC061E08C850E94940360E08E859D
:100960000E94940361E088890E94940360E08A8970
:100970000E949403B1CF60E08C850E94940361E0F3
:10098000EECF60E08C850E94940361E08E850E942A
:10099000940360E088890E94940361E0E8CF60E0FE
:1009A0008C850E94940361E08E850E94940361E02F
:1009B00009C060E08C850E94940361E08E850E94EE
:1009C000940360E088890E94940360E00DC060E0B9
:1009D0008C850E94940361E08E850E94940360E000
:1009E00088890E94940361E08A890E94940361E0EF
:1009F00011C060E08C850E94940361E08E850E94A6
:100A0000940360E088890E94940361E08A890E94CF
:100A1000940360E08C89DF91CF911F910F910C942A
:100A2000940361E0E7CF61E08C850E94940360E06D
:100A3000E5CF61E08C850E94940360E08E850E9482
:100A4000940361E0DFCF61E08C850E94940360E055
:100A50008E850E94940361E088890E94940360E07F
:100A6000D5CF61E08C850E94940360E09DCF60E06B
:100A7000F9CFDF91CF911F910F9108954F925F921F
:100A80006F927F928F929F92AF92BF92CF92DF929E
:100A9000EF92FF920F931F93CF93DF93EC018B01A3
:100AA00077FF04C000271127061B170B1616170621
:100AB0000CF04AC081E090E09983888384E0E82EBE
:100AC000F12C9AE0C92ED12C0115110509F44EC064
:100AD0000E94F3038E889F88A88CB98C2B013C015F
:100AE000481859086A087B088A809B80AC80BD80C2
:100AF000481459046A047B0438F36E8B7F8B888F0B
:100B0000998F8A859B85288139812130310511F59E
:100B100001969B878A872E813F818217930711F464
:100B20001B861A86015011098A859B85288539857F
:100B3000B6012530310509F0B7010E94C614BC0189
:100B4000CE010E944A04C0CF672B09F4B7CF1982A7
:100B50001882B4CF892B21F48E819F819B878A874D
:100B60008A859B8501979B878A87DCCFDF91CF9110
:100B70001F910F91FF90EF90DF90CF90BF90AF90BB
:100B80009F908F907F906F905F904F90089521E09D
:100B900001C0220F6A95EAF7DC011C962C931C9782
:100BA0001A965C934E931997ED91FC910484F58508
:100BB000E02D60E0199408950895DC01ED91FC9119
:100BC0000684F785E02D41E0199581E090E00895D5
:100BD000DC01ED91FC910684F785E02D40E019944D
:100BE0000F931F93CF93DF9300D000D01F921F92DB
:100BF000CDB7DEB70091420210914302209144022A
:100C0000309145020D831E832F8338870091460261
:100C100010914702209148023091490209831A83BA
:100C20002B833C8390912805691710F06FEF690FB3
:100C3000262F30E0409129052C0F3D1FF90140314E
:100C400099F4943089F46181680F606881E295E0DD
:100C500028960FB6F894DEBF0FBECDBFDF91CF91BF
:100C60001F910F910C94E8056581EECFEF92FF92F2
:100C70000F931F93CF93DF938B0198E0899FB0016F
:100C80001124606481E295E00E94E80583E790E02A
:100C90000197F1F7E801085F1F4F8BE9E82EF12C6F
:100CA000699181E295E00E94DD05C7010197F1F7A6
:100CB000C017D107A9F7DF91CF911F910F91FF9036
:100CC000EF90089561E00E94E8058BE39FE10197B2
:100CD000F1F708950F931F93CF93DF93EC01423008
:100CE00018F08C8188608C834F836887222329F0D9
:100CF000413019F48C8184608C8364E670E080E07C
:100D000090E00E9418046C8164FD50C0E881F98174
:100D10000684F785E02D42E063E0CE0119950BE4EF
:100D200016E4C8010197F1F7E881F9810684F78597
:100D3000E02D42E063E0CE011995C8010197F1F77B
:100D4000E881F9810684F785E02D42E063E0CE0179
:100D5000199583E592E00197F1F7E881F98106841E
:100D6000F785E02D42E062E0CE0119956C8160626A
:100D7000CE010E94E80584E08D836CE0CE010E94E4
:100D8000E805CE010E94620682E08E8366E0CE0115
:100D90000E94E805E881F9810484F585E02D6FEF74
:100DA000CE01DF91CF911F910F9119946062CE0116
:100DB0000E94E8058BE496E40197F1F76C8160628C
:100DC000CE010E94E80583E592E00197F1F76C817E
:100DD0006062CE010E94E805C9CF08950895089584
:100DE00020911703260F3327331F21323105ECF4EE
:100DF00020918803FC0190E080E0243069F082E0DB
:100E00000895A09117032191AC0149505D4FA40FA3
:100E1000B52FB11D2C930196861798F38091170377
:100E2000680F6093170380E0089581E008951092A1
:100E3000880381E0809387031092820361E084E15C
:100E40000E94940361E085E10E949403E9EBF0E0E5
:100E500080818E7F808380818D7F808388E48093F2
:100E6000B80085E48093BC000895CF93DF9391E0B0
:100E70009093F6028823B9F0C091B800D091BA00DF
:100E80008091BC008A7B8093BC0060E084E10E947A
:100E9000940360E085E10E9494030E941707D093B9
:100EA000BA00C093B800DF91CF9108950895E09102
:100EB0008F0380918E03E81730F4F0E0E057FC4F89
:100EC000808190E008958FEF9FEF089590918F03B8
:100ED00080918E032FEF3FEF981748F4E92FF0E051
:100EE000E057FC4F208130E09F5F90938F03C90152
:100EF000089580918E0390918F03891B990B08951B
:100F0000CF92DF92EF92FF920F931F93CF93DF93D5
:100F10007C01CB018A0120913A03222389F0EB0165
:100F20006B01C40ED51ECC15DD0569F06991D701A2
:100F3000ED91FC910190F081E02DC7011995F3CF5F
:100F4000642F0E94F006C801DF91CF911F910F918D
:100F5000FF90EF90DF90CF900895CF93DF931F9293
:100F6000CDB7DEB7698320913A032223F9F02091AF
:100F70006003203258F021E030E0FC01338322830B
:100F800090E080E00F90DF91CF9108958091610310
:100F9000E82FF0E0E55CFC4F998190838F5F8093B0
:100FA00061038093600381E090E0ECCF61E0CE01CB
:100FB00001960E94F006F7CFCF92DF92EF92FF9258
:100FC0000F931F93CF93DF93FC012381222309F416
:100FD000F1C0262F6181609562236083C28181E028
:100FE00080933A03C0935B031092610310926003F5
:100FF00085E195E00E94AD07D091600321E0D132F8
:1010000008F09AC00E94F3036B017C018091880371
:1010100081116CC082E08093880381E08093870314
:101020008FEF8093860310928503D0938403ABE304
:10103000B3E0E2E6F3E080E0D81394C010928303BB
:1010400080918303CC0FC82BC093830380918203CC
:10105000813009F08BC0109282030E94F3036B0170
:101060007C01809183038093BB0080918A039091DF
:101070008B03A0918C03B0918D03892B8A2B8B2B32
:10108000A1F00E94F30300918A0310918B03209139
:101090008C0330918D036C197D098E099F09061709
:1010A00017072807390708F442C08091BC0083FD68
:1010B000D8CF85EC8093BC000E94F3036B017C01C8
:1010C00080918803823009F453C08091860320E028
:1010D0008F3F91F18091860322E0803269F1809107
:1010E000860324E0803341F523E026C080918A0303
:1010F00090918B03A0918C03B0918D03892B8A2B47
:101100008B2B09F483CF0E94F30300918A03109183
:101110008B0320918C0330918D036C197D098E090E
:101120009F09061717072807390708F06FCF809126
:1011300089030E94350725E0109261031092600335
:1011400010923A0330E081E090E0232B11F090E020
:1011500080E0DF91CF911F910F91FF90EF90DF9092
:10116000CF9008959D9191938F5F66CF85EEA2CF2A
:1011700080918A0390918B03A0918C03B0918D0391
:10118000892B8A2B8B2B09F49BCF0E94F3030091B0
:101190008A0310918B0320918C0330918D036C197D
:1011A0007D098E099F09061717072807390708F0D8
:1011B00087CFBDCF30E020E0C6CFEF92FF920F93F4
:1011C0001F93CF938C01FC0184E0C0E0262F30E018
:1011D00060FF02C09589C92BB9017595679581504B
:1011E00031968111F3CF413011F4F8014489F801AF
:1011F0006585C62BC42B7801FEE0EF0EF11CF801CB
:1012000062896C2BC7010E94DC07F8016289609536
:101210006C23C701CF911F910F91FF90EF900C9419
:10122000DC070F931F93CF93DF93062F0F7042308D
:1012300041F440E0602FDF91CF911F910F910C940A
:10124000DD08142FEC0170E084E0759567958A95B0
:10125000E1F7CE010E94DD08412F602FCE01EBCFD8
:10126000FC0184858823A1F0218532852115310573
:1012700021F4611107C0158606C021303105D9F768
:101280006111F9CF85876585CF010E960C94DC0737
:10129000089590E080E00895FC0101900020E9F7B6
:1012A0003197AF01481B590BBC0181E295E00C94CA
:1012B000C10180913A0290913B0282309105C9F1BF
:1012C0002CF4009759F0019781F00895833091052F
:1012D00009F44AC0049709F46AC0089581E090E0D7
:1012E00090933B0280933A02089581E295E00E9438
:1012F000620660E080E00E94F00582E892E00E94D1
:101300004C0961E080E00E94F00583E992E00E94D0
:101310004C0962E080E00E94F00583EA92E00E94BE
:101320004C0963E080E00E94F00580EB92E00C94B1
:101330004C0981E295E00E94620660E080E00E9434
:10134000F00582E892E00E944C0961E080E00E9492
:10135000F00585E992E00E944C0962E080E00E947D
:10136000F00581EA92E0DBCF81E295E00E9462061F
:1013700060E080E00E94F00582E892E00E944C0963
:1013800061E080E00E94F00585E992E00E944C094E
:1013900062E080E00E94F00583EA92E00E944C093E
:1013A00063E080E00E94F0058EEA92E0C0CF83E027
:1013B00090E096CFCF93DF93682F8BED93E00E9460
:1013C0006A02EC0142E050E069EB72E08BED93E0E1
:1013D0000E94C1018C0F9D1FDF91CF9108950E9443
:1013E0003D170F931F93CF93DF93EC018881998171
:1013F000009759F02A813B812617370730F081E0AA
:10140000DF91CF911F910F9108958B016F5F7F4FF7
:101410000E945C16009759F0998388831B830A8386
:101420002C813D81232B59F7FC011082E8CF80E00D
:10143000E7CFCF93DF93EC0188819981009711F07A
:101440000E94D315198218821D821C821B821A8267
:10145000DF91CF9108950F931F93CF93DF93EC010A
:101460000C811D81075F1F4FB8010E94F10988237D
:1014700091F0288139818C819D816CEB72E0820F23
:10148000931F0E944B171D830C83CE01DF91CF91D8
:101490001F910F910895CE010E94190AF6CFCF92A5
:1014A000DF92EF92FF920F931F93CF93DF93CDB70D
:1014B000DEB762970FB6F894DEBF0FBECDBF8C01CA
:1014C000CB01F801118210821382128215821482DC
:1014D0004AE09E012F5F3F4F6901B9010E949114BC
:1014E000F60101900020E9F731977F01EC18FD0823
:1014F000B701C8010E94F109811112C0C8010E9400
:10150000190A62960FB6F894DEBF0FBECDBFDF9109
:10151000CF911F910F91FF90EF90DF90CF900895A2
:10152000F801F582E482B601808191810E944B1717
:10153000E8CFFC0180819181009711F00C94D315C4
:101540000895EF92FF920F931F93CF93DF93EC01D7
:10155000198218821B821A821D821C8286179707A5
:1015600019F1FB010081118101151105E9F0E480F9
:10157000F580B7010E94F109811109C0CE01DF9108
:10158000CF911F910F91FF90EF900C94190AFD825B
:10159000EC82B80188819981DF91CF911F910F91E1
:1015A000FF90EF900C944B17DF91CF911F910F910B
:1015B000FF90EF9008954F925F926F927F928F927B
:1015C0009F92AF92BF92EF92FF920F931F93CF9390
:1015D000DF93EC01062FF42EE22E8B85888B109280
:1015E0008F0310928E0310926103109260030E9489
:1015F00017078BED95E090935F0380935E038CED6E
:1016000095E090935D0380935C0318890E94F30337
:101610004B015C0180918803811164C081E080935B
:101620008803809387039FEF90938603109285032E
:10163000109284038093830380918303110F182BEE
:101640001093830380918203813009F09DC0109232
:1016500082030E94F3034B015C018091830380931A
:10166000BB0080918A0390918B03A0918C03B09171
:101670008D03892B8A2B8B2BA1F00E94F3034090C2
:101680008A0350908B0360908C0370908D036819CF
:1016900079098A099B09461657066806790608F4EF
:1016A00042C08091BC0083FDD8CF85EC8093BC0004
:1016B0000E94F3034B015C0180918803813009F49F
:1016C00065C080918503811183C080918503E2E626
:1016D000F3E0A0E9B3E090E0981751F121912D9348
:1016E0009F5FFACF80918A0390918B03A0918C0326
:1016F000B0918D03892B8A2B8B2B09F48BCF0E9401
:10170000F30340908A0350908B0360908C03709099
:101710008D03681979098A099B09461657066806D8
:10172000790608F077CF809189030E94350780E021
:1017300010928F0380938E0391E0811101C090E09D
:10174000998B85E195E00E9466078E8789898823B9
:1017500039F01F861C8260E0CE010E960E94DC07E5
:101760002E2D4F2D602FCE01DF91CF911F910F9124
:10177000FF90EF90BF90AF909F908F907F906F9071
:101780005F904F900C946A0685EE90CF80918A030B
:1017900090918B03A0918C03B0918D03892B8A2BA0
:1017A0008B2B09F489CF0E94F30340908A03509059
:1017B0008B0360908C0370908D03681979098A09F6
:1017C0009B09461657066806790608F075CFABCF19
:1017D00081E07DCF85ED8093BC0080918A0390915C
:1017E0008B03A0918C03B0918D030796A11DB11DB1
:1017F00023E0B695A795979587952A95D1F72091DF
:10180000BC0024FD03C010928803089540918A0310
:1018100050918B0360918C0370918D03452B462B67
:10182000472B69F30097A105B10541F02AE22A95FB
:10183000F1F700C00197A109B109E1CF80918903B7
:101840000C9435071F920F920FB60F9211240BB60E
:101850000F922F933F934F935F936F937F938F9349
:101860009F93AF93BF93EF93FF938BED93E00E9411
:101870004802FF91EF91BF91AF919F918F917F911E
:101880006F915F914F913F912F910F900BBE0F90F1
:101890000FBE0F901F9018951F920F920FB60F92C8
:1018A00011240BB60F922F938F939F93EF93FF9377
:1018B000E091EB03F091EC038081E091F103F09172
:1018C000F20382FD1DC090818091F4038F5F8F73BE
:1018D0002091F503821741F0E091F403F0E0E55226
:1018E000FC4F958F8093F403FF91EF919F918F911F
:1018F0002F910F900BBE0F900FBE0F901F90189559
:101900008081F2CF1F920F920FB60F9211240BB667
:101910000F922F933F934F935F936F937F938F9388
:101920009F93AF93BF93EF93FF9388E794E00E9458
:101930004802FF91EF91BF91AF919F918F917F915D
:101940006F915F914F913F912F910F900BBE0F9030
:101950000FBE0F901F9018951F920F920FB60F9207
:1019600011240BB60F922F938F939F93EF93FF93B6
:10197000E0918804F09189048081E0918E04F091D7
:101980008F0482FD1DC09081809191048F5F8F73C1
:1019900020919204821741F0E0919104F0E0E85820
:1019A000FB4F958F80939104FF91EF919F918F91C1
:1019B0002F910F900BBE0F900FBE0F901F90189598
:1019C0008081F2CF1F920F920FB60F9211242F93A6
:1019D0003F938F939F93AF93BF938091B103909167
:1019E000B203A091B303B091B4033091B00323E0EC
:1019F000230F2D3758F50196A11DB11D2093B0037B
:101A00008093B1039093B203A093B303B093B40354
:101A10008091B5039091B603A091B703B091B8033C
:101A20000196A11DB11D8093B5039093B603A093B9
:101A3000B703B093B803BF91AF919F918F913F913E
:101A40002F910F900FBE0F901F90189526E8230F2F
:101A50000296A11DB11DD2CF1F920F920FB60F9209
:101A600011240BB60F922F933F934F935F936F9375
:101A70007F938F939F93AF93BF93EF93FF93809147
:101A8000B900887F803609F44DC008F040C0883224
:101A900009F4A9C028F5803109F49DC0C8F4882351
:101AA00009F4FBC0883009F496C0FF91EF91BF9113
:101AB000AF919F918F917F916F915F914F913F91E6
:101AC0002F910F900BBE0F900FBE0F901F90189587
:101AD000883109F488C0803241F78093860314C0AE
:101AE000803409F49DC040F48033B9F38833E9F6BB
:101AF0008093860385ECB0C0803509F485C08835B5
:101B000009F496C0883489F60E94EA0BCECF883952
:101B100009F48CC038F5883729F050F4883611F074
:101B2000803719F683E0809388031092390357C0F9
:101B3000883809F47BC0803919F0803809F0B5CFB6
:101B400080913903803208F071C0E091390381E05F
:101B50008E0F809339038091BB00F0E0E75EFC4F6D
:101B600080833DC0803B39F0E0F4803A09F479C0CD
:101B7000883A09F09ACF84E0809388031092180382
:101B800010921703E0915E03F0915F031995809125
:101B9000170381110FC081E0809317031092F702A1
:101BA00009C0803C09F4A6CF883C09F4A3CF883B48
:101BB00009F07BCFE091180381E08E0F809318032A
:101BC000F0E0E950FD4F80818093BB0090911803B5
:101BD0008091170329C0809183038093BB0085EC1B
:101BE0008093BC0062CF9091850380918403981705
:101BF00058F5E091850381E08E0F80938503F0E036
:101C0000EE59FC4F8081E9CFE091850381E08E0F92
:101C1000809385038091BB00F0E0EE59FC4F8083F8
:101C200090918503809184039817C8F285E8D8CFF6
:101C3000E091850381E08E0F809385038091BB0046
:101C4000F0E0EE59FC4F80838091870381115CCFD7
:101C500081E08093820384EA8093BC001092880321
:101C600024CF85EC8093BC001092880380913903C7
:101C7000803230F4E0913903F0E0E75EFC4F1082EF
:101C80006091390370E0E0915C03F0915D0389E1BC
:101C900093E019951092390308CF1092860334CF40
:101CA000EF92FF920F931F93CF93DF93EBEDF3E04F
:101CB0001382128288EE93E0A0E0B0E084839583E3
:101CC000A683B7832EE432E0318320834DEC50E0CD
:101CD000558744874CEC50E05787468748EC50E0E6
:101CE000518B408B49EC50E0538B428B4AEC50E0D7
:101CF000558B448B4EEC50E0578B468B118E128ED9
:101D0000138E148EE8E7F4E01382128284839583A5
:101D1000A683B7833183208325EC30E03587248781
:101D200024EC30E03787268720EC30E0318B208BA5
:101D300021EC30E0338B228B22EC30E0358B248B8E
:101D400026EC30E0378B268B118E128E138E148E7C
:101D5000E5E1F5E01382128284839583A683B7833D
:101D600080E692E091838083C4E5D5E01B861A86E5
:101D7000198218821E8A1F8A188E198E82E1E82E17
:101D8000F12CFF82EE8287E390E09D878C8788E3C9
:101D900090E09F878E8789E390E0998B888B8AE318
:101DA00090E09B8B8A8B61E087E30E94C20361E035
:101DB0008E850E94C20361E088890E94C20361E0AF
:101DC0008A890E94C2031D8A1C8A04E010E01987D8
:101DD0000887CAE3D5E01B861A86198218821E8AF4
:101DE0001F8A188E198EFF82EE828BE390E09D870A
:101DF0008C878CE390E09F878E878DE390E0998BB2
:101E0000888B8EE390E09B8B8A8B61E08BE30E9452
:101E1000C20361E08E850E94C20361E088890E944E
:101E2000C20361E08A890E94C2031D8A1C8A198745
:101E30000887E1E2F5E01382128282E792E0918363
:101E40008083108A8FEF87871686118A80E28387C6
:101E5000148615861286118694E0928B92E0938BFD
:101E600091E0948B90E1958B868B80E4878B80E862
:101E7000808F50E040E063E0CF01DF91CF911F9170
:101E80000F91FF90EF900C94C705CF93DF93CDB7E0
:101E9000DEB72C970FB6F894DEBF0FBECDBF789497
:101EA00084B5826084BD84B5816084BD85B582605F
:101EB00085BD85B5816085BD80916E008160809310
:101EC0006E00109281008091810082608093810079
:101ED0008091810081608093810080918000816089
:101EE000809380008091B10084608093B1008091E4
:101EF000B00081608093B0008091910082608093F7
:101F00009100809191008160809391008091900078
:101F10008160809390008091A10082608093A100F5
:101F20008091A10081608093A1008091A0008160D8
:101F30008093A00080912101826080932101809193
:101F40002101816080932101809120018160809333
:101F5000200180917A00846080937A0080917A00D9
:101F6000826080937A0080917A00816080937A0009
:101F700080917A00806880937A001092C10020E0FE
:101F800044E060E181E295E00E94DB0A6FEF81E2CC
:101F900095E00E94300960E080E00E94F00582E850
:101FA00092E00E944C0961E087E00E94C20360E079
:101FB0008DE00E94C20360E08CE00E94C20360E0FA
:101FC0008BE00E94C20361E087E30E94C20361E0EC
:101FD00088E30E94C20361E089E30E94C20361E0DA
:101FE0008AE00E94C20361E08AE30E94C20360E0CB
:101FF00084E30E94C20360E085E30E94C20360E0C4
:1020000085E30E94C20361E089E00E94C20361E0AF
:102010008BE30E94C20361E08CE30E94C20361E093
:102020008DE30E94C20361E08EE30E94C20361E07F
:1020300082E00E94C20316E160E0812F0E94C20389
:102040001F5F1632C9F761E0812F0E94C2031F5F34
:102050001633C9F760E372E080E00E94360668E25A
:1020600072E081E00E94360660E272E082E00E9447
:10207000360668E172E083E00E94360660E172E0B5
:1020800084E00E94360668E072E085E00E94360631
:1020900060E072E086E00E94360688E794E00E94E5
:1020A0009A018BED93E00E949A0186E10E946B03F6
:1020B0008130910521F49093DA038093D90387E16D
:1020C0000E946B038130910521F49093D803809393
:1020D000D70388E10E946B038130910521F490932E
:1020E000D6038093D50389E10E946B03813091056B
:1020F00021F49093D4038093D3038AE10E946B036D
:102100008130910521F49093D2038093D1038BE128
:102110000E946B038130910521F49093D00380934A
:10212000CF038CE10E946B038130910521F49093E1
:10213000CE038093CD038DE10E946B038130910526
:1021400021F49093CC038093CB038EE10E946B0328
:102150008130910521F49093CA038093C9038FE1E4
:102160000E946B038130910521F49093C803809302
:10217000C70380E20E946B038130910521F49093A4
:10218000C6038093C50381E20E946B0381309105F1
:1021900021F49093C4038093C30382E20E946B03F3
:1021A0008130910521F49093C2038093C10383E2AF
:1021B0000E946B038130910521F49093C0038093BA
:1021C000BF0384E20E946B038130910521F4909358
:1021D000BE038093BD0385E20E946B0381309105AD
:1021E00021F49093BC038093BB030E945909412CB6
:1021F00097E8592E93E9692E93E0792E28E2822EF2
:10220000912CA12CB12C30E1232E312C01E010E0D7
:1022100088E794E00E942802181619069CF588E7C2
:1022200094E00E940602813309F0BBC120915A0557
:1022300030915B05032E000C440B550BC301B2011A
:102240000E94DA14CA01B901A50194010E94DA14AE
:1022500020935605309357054093580550935905E0
:1022600064E070E084E595E00E943E0560EA7FE06E
:1022700080E090E00E9418046CEF7FEF84E595E029
:102280000E943E058BED93E00E9428021816190665
:1022900024F461E087E00E9494038DE00E946B03C8
:1022A000019709F0ACC180913A0290913B020196EE
:1022B00090933B0280933A020E94590964E670E0D1
:1022C00080E090E00E9418048DE00E946B03892B4F
:1022D000D9F730923902209238021092BA03109244
:1022E000B90386E1F82E8F2D0E946B03019791F4BC
:1022F000809138029091390201979093390280932E
:1023000038028091B9039091BA0301969093BA0371
:102310008093B903F39486E2F812E5CF86E10E9438
:102320006B032091D9033091DA038217930751F0A0
:10233000232B09F076C281E40E94DA091093DA03B4
:102340000093D90387E10E946B032091D70330915A
:10235000D8038217930751F0232B09F06AC282E455
:102360000E94DA091093D8030093D70388E10E94F2
:102370006B032091D5033091D6038217930751F058
:10238000232B09F05EC283E40E94DA091093D6037E
:102390000093D50389E10E946B032091D303309110
:1023A000D4038217930751F0232B09F052C284E41F
:1023B0000E94DA091093D4030093D3038AE10E94A8
:1023C0006B032091D1033091D2038217930751F010
:1023D000232B09F046C285E40E94DA091093D20348
:1023E0000093D1038BE10E946B032091CF033091C6
:1023F000D0038217930751F0232B09F03AC286E4E9
:102400000E94DA091093D0030093CF038CE10E945D
:102410006B032091CD033091CE038217930751F0C7
:10242000232B09F02EC287E40E94DA091093CE0311
:102430000093CD038DE10E946B032091CB0330917B
:10244000CC038217930751F0232B09F022C288E4B2
:102450000E94DA091093CC030093CB038EE10E9413
:102460006B032091C9033091CA038217930751F07F
:10247000232B09F016C289E40E94DA091093CA03DB
:102480000093C9038FE10E946B032091C703309131
:10249000C8038217930751F0232B09F00AC28AE47C
:1024A0000E94DA091093C8030093C70380E20E94D8
:1024B0006B032091C5033091C6038217930751F037
:1024C000232B09F0FEC18BE40E94DA091093C603A6
:1024D0000093C50381E20E946B032091C3033091F6
:1024E000C4038217930751F0232B09F0F2C18CE447
:1024F0000E94DA091093C4030093C30382E20E948E
:102500006B032091C1033091C2038217930751F0EE
:10251000232B09F0E6C18DE40E94DA091093C2036F
:102520000093C10383E20E946B032091BF033091AB
:10253000C0038217930751F0232B09F0DAC18EE410
:102540000E94DA091093C0030093BF0384E20E9443
:102550006B032091BD033091BE038217930751F0A6
:10256000232B09F0CEC18FE40E94DA091093BE0339
:102570000093BD0385E20E946B032091BB03309161
:10258000BC038217930751F0232B09F0C2C180E5E9
:102590000E94DA091093BC030093BB030E94D70288
:1025A00037CE803309F06ECE209140053091410541
:1025B000032E000C440B550BC301B2010E94DA1428
:1025C000CA01B901A50194010E94DA1420933C05C7
:1025D00030933D0540933E0550933F0564E070E025
:1025E0008AE395E00E943E0560EA7FE080E090E0AB
:1025F0000E9418046CEF7FEF8AE395E041CE8CE0F7
:102600000E946B030197B9F480913A0290913B02CA
:10261000019790933B0280933A020E94590964E625
:1026200070E080E090E00E9418048CE00E946B0350
:10263000892BD9F74ECE8BE00E946B036C0181E0B1
:10264000C816D10409F045CE80913A0290913B0220
:102650008230910509F47BC08330910509F48AC06A
:10266000019709F066C081E295E00E946206FF24AE
:10267000F39481E295E00E94620661E08F2D0E9452
:10268000F00562E081E295E00E94DD05DD24D3944F
:10269000DF0C61E08D2D0E94F00563E081E295E0A2
:1026A0000E94DD0561E08FEF8F0D0E94F00564E070
:1026B00081E295E00E94DD0568EC70E080E090E04A
:1026C0000E941804FD2C8EE0D812D3CF81E295E051
:1026D0000E94620660E080E00E94F00586EC92E0D5
:1026E0000E944C0962E080E00E94F005609138028F
:1026F00070913902CE0107960E944F0ABE01695FB0
:102700007F4FCE0101960E94A10ACE0101960E9440
:102710002B0A0E94EE01CE0101960E94990ACE0179
:1027200007960E94990A60EB74E080E090E00E94B6
:1027300018040E94590964E670E080E090E00E946D
:1027400018048BE00E946B03892BD9F7C2CD81E27C
:1027500095E00E94620660E080E00E94F00587ED4F
:1027600092E00E944C0962E080E00E94F00570E077
:1027700060E0C0CF81E295E00E946206F12C81E228
:1027800095E00E94620661E08C2D0E94F00562E0F7
:1027900081E295E00E94DD0561E082E08F0D0E94FC
:1027A000F00563E081E295E00E94DD0561E08F2D98
:1027B0000E94F00564E081E295E00E94DD0583E07F
:1027C0008F0D61E0C0FC29C00E94F00565E081E248
:1027D00095E00E94DD0568EC70E080E090E00E94EA
:1027E00018048FEFC81AD80AF3948DE0F812C7CFF7
:1027F00081E295E00E94620660E080E00E94F005C0
:1028000087EE92E00E944C0962E080E00E94F005B1
:102810006091B9037091BA036DCF0E94F00566E034
:10282000D6CF81E60E94DA091092DA031092D9031A
:1028300089CD82E60E94DA091092D8031092D7035C
:1028400095CD83E60E94DA091092D6031092D50343
:10285000A1CD84E60E94DA091092D4031092D3032A
:10286000ADCD85E60E94DA091092D2031092D10311
:10287000B9CD86E60E94DA091092D0031092CF03F8
:10288000C5CD87E60E94DA091092CE031092CD03DF
:10289000D1CD88E60E94DA091092CC031092CB03C6
:1028A000DDCD89E60E94DA091092CA031092C903AD
:1028B000E9CD8AE60E94DA091092C8031092C70394
:1028C000F5CD8BE60E94DA091092C6031092C5037B
:1028D00001CE8CE60E94DA091092C4031092C30361
:1028E0000DCE8DE60E94DA091092C2031092C10348
:1028F00019CE8EE60E94DA091092C0031092BF032F
:1029000025CE8FE60E94DA091092BE031092BD0315
:1029100031CE80E70E94DA091092BC031092BB030B
:102920003DCEBB274A3031F4992322F4BDE2909585
:1029300081959F4F0C949D14BB27FB015527AA2717
:10294000880F991FAA1FA41710F0A41B839550513C
:10295000B9F7A05DAA3308F0A95DA193009779F7B4
:10296000B111B1931192CB010C94B614DC01FC01AE
:10297000672F71917723E1F7329704C07C916D93B3
:1029800070836291AE17BF07C8F3089597FB072EB7
:1029900016F4009407D077FD09D00E94011507FCBA
:1029A00005D03EF4909581959F4F0895709561955F
:1029B0007F4F0895052E97FB1EF400940E94F1149A
:1029C00057FD07D00E94151507FC03D04EF40C9458
:1029D000F11450954095309521953F4F4F4F5F4FE3
:1029E000089590958095709561957F4F8F4F9F4F7B
:1029F0000895EE0FFF1F881F8BBF0790F691E02D03
:102A00001994AA1BBB1B51E107C0AA1FBB1FA61725
:102A1000B70710F0A61BB70B881F991F5A95A9F787
:102A200080959095BC01CD010895A1E21A2EAA1BB4
:102A3000BB1BFD010DC0AA1FBB1FEE1FFF1FA2176E
:102A4000B307E407F50720F0A21BB30BE40BF50B6B
:102A5000661F771F881F991F1A9469F760957095F4
:102A6000809590959B01AC01BD01CF0108950F9316
:102A70001F93CF93DF938230910510F482E090E0B2
:102A8000E0917005F091710530E020E0B0E0A0E049
:102A9000309799F42115310509F44AC0281B390BE8
:102AA00024303105D8F58A819B816115710589F142
:102AB000FB0193838283FE0111C040815181028119
:102AC000138148175907E0F04817590799F41097F0
:102AD00061F012960C93129713961C933296CF01C5
:102AE000DF91CF911F910F9108950093700510937E
:102AF0007105F4CF2115310551F04217530738F015
:102B0000A901DB019A01BD01DF01F801C1CFEF018D
:102B1000F9CF9093710580937005CDCFFE01E20F40
:102B2000F31F819391932250310939832883D7CFA2
:102B300020916E0530916F05232B41F420913E02C8
:102B400030913F0230936F0520936E0520913C0237
:102B500030913D022115310541F42DB73EB740912A
:102B6000400250914102241B350BE0916E05F0911B
:102B70006F05E217F307A0F42E1B3F0B2817390748
:102B800078F0AC014E5F5F4F2417350748F04E0FC9
:102B90005F1F50936F0540936E05819391939FCF74
:102BA000F0E0E0E09CCFCF93DF930097E9F0FC01E9
:102BB000329713821282A0917005B0917105ED01D8
:102BC00030E020E01097A1F420813181820F931F23
:102BD00020916E0530916F052817390709F061C003
:102BE000F0936F05E0936E05DF91CF910895EA01B0
:102BF000CE17DF07E8F54A815B819E01411551053B
:102C0000B1F7E901FB83EA8349915991C40FD51FBC
:102C1000EC17FD0761F4808191810296840F951F66
:102C2000E90199838883828193819B838A83F0E081
:102C3000E0E012968D919C9113970097B9F52D9134
:102C40003C911197CD010296820F931F20916E0542
:102C500030916F052817390739F6309751F51092E2
:102C6000710510927005B0936F05A0936E05BCCFEF
:102C7000D383C28340815181840F951FC817D90720
:102C800061F44E5F5F4F88819981480F591F5183CE
:102C900040838A819B81938382832115310509F0CA
:102CA000B0CFF0937105E09370059ECFFD01DC017C
:102CB000C0CF13821282D7CF4F925F926F927F92D2
:102CC0008F929F92AF92BF92CF92DF92EF92FF923C
:102CD0000F931F93CF93DF938C01009799F4CB014F
:102CE000DF91CF911F910F91FF90EF90DF90CF90E8
:102CF000BF90AF909F908F907F906F905F904F901C
:102D00000C943715FC01E60FF71F9C012250310986
:102D1000E217F30708F4AEC0D901CD91DC91119709
:102D2000C617D70720F1C530D10578F0CE0104973A
:102D30008617970750F0C61BD70B2297C193D193E4
:102D40006D937C93CF010E94D315C801DF91CF9181
:102D50001F910F91FF90EF90DF90CF90BF90AF90B9
:102D60009F908F907F906F905F904F9008955B0140
:102D7000AC1ABD0A4C018C0E9D1EA0917005B0913D
:102D80007105512C412CF12CE12C109731F58091DB
:102D90006E0590916F058815990509F05CC046167F
:102DA000570608F058C080913C0290913D02009770
:102DB00041F48DB79EB74091400250914102841B6F
:102DC000950BE817F90708F055C0F0936F05E093ED
:102DD0006E05F90171836083B8CF8D919C91119735
:102DE00012966C90129713967C901397A815B905BC
:102DF00059F56C0142E0C40ED11CCA14DB0420F169
:102E0000AC014A195B09DA011296159780F06282CB
:102E1000738251834083D9016D937C93E114F10453
:102E200071F0D7011396FC93EE9312978ECF2296F2
:102E30008C0F9D1FF90191838083F301EFCFF093F5
:102E40007105E093700581CF4816590608F42C01EE
:102E50007D01D3019ACFCB010E9437157C010097E9
:102E600049F0AE01B8010E944217C8010E94D31573
:102E700087016BCF10E000E068CF81E090E0F8942C
:102E80000C945217FB01DC0102C001900D924150DD
:102E90005040D8F70895FB01DC0101900D9200200D
:082EA000E1F70895F894FFCF5B
:102EA8000E1915130E00000000000E1915130E0060
:102EB800000107070F0F020100101E1D1F1F081039
:102EC8001F1C1C1F1F1F111100000E1F1F0A0000CE
:102ED8000000000E1F1F0A0010000100000072050C
:102EE80080000040145400401050000000006A02A6
:102EF800C101F701B702280206021A020000000009
:102F0800AD07800749095607790766075707000084
:102F18000000DD05C1014909EF06DB0AC7053009D4
:102F280011094D656E7520496E666F726D61636932
:102F38006F6E003E20446973706F6E69626C6573D2
:102F4800003E2052657365727661646F73003E209F
:102F58004F63757061646F73000D0A0020706172B1
:102F68007175656F7300546F74616C206469737058
:102F78006F6E69626C6500546F74616C2072657362
:102F880065727661646F00546F74616C206F63754D
:062F98007061646F00008F
:00000001FF
