:020000040000FA
:100000000C9467010C9498010C9498010C9498013D
:100010000C9498010C9498010C9498010C949801FC
:100020000C9498010C9498010C9498010C949801EC
:100030000C9498010C9498010C9498010C949801DC
:100040000C9498010C9498010C9498010C949801CC
:100050000C9498010C9498010C9498010C94E20C67
:100060000C9498010C94AC0C0C94820C0C94980198
:100070000C9498010C9498010C9498010C9498019C
:100080000C9498010C9498010C9498010C9498018C
:100090000C944C0C0C94220C0C9498010C942C0D88
:1000A0000C9498010C9498010C9498010C9498016C
:1000B0000C9498010C9498010C9498010C9498015C
:1000C0000C9498010C9498010C9498010C9498014C
:1000D0000C9498010C9498010C9498010C9498013C
:1000E0000C9498010C9457070C944F030C94220322
:1000F0000C94DB050C94C7050C9456070C942C0348
:100100000C9430090C9411090C9419050C94630398
:100110000C94AD070C9437030C9428020C945503EF
:100120000C94B7020C94DC050C9437050C94620314
:100130000C9411050C943D030C9480070C94C101A0
:100140000C9479070C946A020C9441030C94EF060A
:100150000C945D030C9430030C94CF040C94F904BC
:100160000C9431050C9459030C94DD050C94DB0AB6
:100170000C9434030C9428030C9413050C94660718
:100180000C9449090C9467030C941A020C944703CD
:100190000C94500E0C9423050C944B030C94D9042E
:1001A0000C9406020C94E7040C94F7010000210063
:1001B000240027002A002D00300033000101000038
:1001C000040107010A0100002200250028002B007D
:1001D0002E003100340002010000050108010B016E
:1001E000000020002300260029002C002F003200F0
:1001F00000010000030106010901050505050705C9
:1002000008080808020202020A0A08080404040492
:1002100001010101010101010303030303030303BE
:10022000040707070C0C0C0C0C0C0C0C020202024D
:1002300006060606060606060B0B0B0B0B0B0B0B36
:1002400001021020200808102040102040800201E8
:1002500002010804020101020408102040808040CD
:1002600020100804020180040201804020100804CC
:10027000020108040201010204081020408001026A
:1002800004081020408000000A0B02090C0D0E0823
:10029000070304010000000000000000000000004F
:1002A000000000000000000000000000000000004E
:1002B000000012111000000000000000000000000B
:1002C000000000000000000000000000500E11249B
:1002D0001FBECFEFD1E2DEBFCDBF00E00CBF25E0F7
:1002E000A6EFB2E001C01D92A237B207E1F712E01B
:1002F000A0E0B2E0E8EAFEE200E00BBF02C0079037
:100300000D92A63FB107D9F711E0C7E6D1E000E0B2
:1003100006C021970109802FFE010E94F914C636FC
:10032000D10780E00807A9F70E94450F0C945217E7
:100330000C940000FC01A089B18982E08C93A48513
:10034000B5851C92A685B7858FEC8C93108EA489F9
:10035000B58986E08C93A289B3898C9180618C9356
:10036000A289B3898C9188608C93A289B3898C917E
:1003700080688C930288F389E02D80818F7D808353
:100380000895AF92BF92CF92DF92EF92FF920F93B8
:100390001F93CF93DF936C017B018B01040F151F1B
:1003A000EB015E01AE18BF08C017D10759F0699183
:1003B000D601ED91FC910190F081E02DC6011995D7
:1003C000892B79F7C501DF91CF911F910F91FF9094
:1003D000EF90DF90CF90BF90AF900895FC014481E3
:1003E00055816081718181E295E00C94C101FC012D
:1003F000538D448D252F30E0842F90E0821B930B8A
:10040000541710F0CF96089501970895FC01918D2F
:10041000828D981761F0A28DAE0FBF2FB11D5D9632
:100420008C91928D9F5F9F73928F90E008958FEFD4
:100430009FEF0895FC01918D828D981731F0828D88
:10044000E80FF11D858D90E008958FEF9FEF0895DF
:10045000FC01918D228D892F90E0805C9F4F821B43
:1004600091098F73992708958BED93E00E942802DC
:1004700021E0892B09F420E0822F089588E794E099
:100480000E94280221E0892B09F420E0822F0895A0
:10049000FC01A48DA80FB92FB11DA35ABF4F2C91F9
:1004A000848D90E001968F739927848FA689B789F0
:1004B0002C93A089B1898C91837080648C93938DE7
:1004C000848D981306C00288F389E02D80818F7D8A
:1004D00080830895EF92FF920F931F93CF93DF9342
:1004E000EC0181E0888F9B8D8C8D98131AC0E88970
:1004F000F989808185FF15C09FB7F894EE89FF893F
:100500006083E889F98980818370806480839FBFDC
:1005100081E090E0DF91CF911F910F91FF90EF90DC
:100520000895F62E0B8D10E00F5F1F4F0F731127EC
:10053000E02E8C8D8E110CC00FB607FCFACFE88927
:10054000F989808185FFF5CFCE010E944802F1CF65
:10055000EB8DEC0FFD2FF11DE35AFF4FF0829FB79B
:10056000F8940B8FEA89FB8980818062CFCFCF938B
:10057000DF93EC01888D8823B9F0AA89BB89E889CB
:10058000F9898C9185FD03C0808186FD0DC00FB671
:1005900007FCF7CF8C9185FFF2CF808185FFEDCFEF
:1005A000CE010E944802E9CFDF91CF91089580E00B
:1005B00090E0892B29F00E943E0281110E940000E8
:1005C00080E090E0892B29F00E94340281110E9482
:1005D000000080E090E0892B49F080E090E0892BDA
:1005E00029F00E94000081110E94000080E090E04C
:1005F000892B49F080E090E0892B29F00E940000CF
:1006000081110C94000008958150823108F05AC085
:10061000E82FF0E08827E05FFC4F8F4F0C94F9142F
:1006200030033403220328032C03620337033D0302
:10063000410347034B034F035503590362035D0313
:1006400063036703809180008F7780938000089513
:10065000809180008F7DF9CF80918000877FF5CFDA
:1006600084B58F7784BD089584B58F7DFBCF80914D
:10067000B0008F778093B00008958091B0008F7D97
:10068000F9CF809190008F778093900008958091AA
:1006900090008F7DF9CF80919000877FF5CF80917A
:1006A000A0008F778093A00008958091A0008F7D97
:1006B000F9CF8091A000877FF5CF809120018F77BF
:1006C000809320010895809120018F7DF9CF809142
:1006D0002001877FF5CFCF93DF93282F30E0F901FA
:1006E000EA57FD4F8491F901E05CFD4FD491F90187
:1006F000E650FE4FC491CC23A1F081110E94040367
:10070000EC2FF0E0EE0FFF1FE052FE4FA591B491E9
:10071000EC91ED2381E090E009F480E0DF91CF914E
:10072000089580E090E0FACF1F93CF93DF93282FB6
:1007300030E0F901EA57FD4F8491F901E05CFD4F8B
:10074000D491F901E650FE4FC491CC23A9F0162FA5
:1007500081110E940403EC2FF0E0EE0FFF1FEA531B
:10076000FE4FA591B4918FB7F894EC91111108C088
:10077000D095DE23DC938FBFDF91CF911F91089539
:10078000DE2BF8CFCF93DF9390E0FC01E05CFD4FD0
:10079000249186509E4FFC0184918823D1F090E0F3
:1007A000880F991FFC01E455FE4FA591B491FC01FF
:1007B000EA53FE4FC591D49161110EC09FB7F894D2
:1007C0008C91E22FE0958E238C932881E223E8839D
:1007D0009FBFDF91CF9108958FB7F894EC91E22BF2
:1007E000EC938FBFF6CF3FB7F8948091B50390910B
:1007F000B603A091B703B091B80326B5A89B05C076
:100800002F3F19F00196A11DB11D3FBFBA2FA92F8F
:10081000982F8827BC01CD01620F711D811D911D8C
:1008200042E0660F771F881F991F4A95D1F70895F8
:100830008F929F92AF92BF92CF92DF92EF92FF92F0
:100840004B015C010E94F3036B017C010E94F303E6
:100850006C197D098E099F09683E734081059105D9
:10086000A8F321E0821A9108A108B10888EEC80E09
:1008700083E0D81EE11CF11C81149104A104B10491
:1008800029F7FF90EF90DF90CF90BF90AF909F90AF
:100890008F9008950F931F93CF93DF93EC018B01FB
:1008A00088859985029751F46130710509F43AC041
:1008B0006CF560E00115110509F435C0888599854E
:1008C000049751F40130110509F455C00CF035C0FE
:1008D0000115110509F43EC088859985059709F031
:1008E000C8C00A30110508F0C4C0F8018827E458D0
:1008F000FB4F8F4F0C94F914CF04D904E704F9048B
:1009000011051305190523053105370562307105F9
:1009100091F060E00330110589F68C850E94940304
:1009200060E005C061E08C850E94940361E08E85E3
:100930000E949403C3CF61E0F0CF0230110509F1AA
:100940000330110509F0C8CF61E08C850E94940343
:1009500060E01CC061E08C850E94940360E08E859D
:100960000E94940361E088890E94940360E08A8970
:100970000E949403B1CF60E08C850E94940361E0F3
:10098000EECF60E08C850E94940361E08E850E942A
:10099000940360E088890E94940361E0E8CF60E0FE
:1009A0008C850E94940361E08E850E94940361E02F
:1009B00009C060E08C850E94940361E08E850E94EE
:1009C000940360E088890E94940360E00DC060E0B9
:1009D0008C850E94940361E08E850E94940360E000
:1009E00088890E94940361E08A890E94940361E0EF
:1009F00011C060E08C850E94940361E08E850E94A6
:100A0000940360E088890E94940361E08A890E94CF
:100A1000940360E08C89DF91CF911F910F910C942A
:100A2000940361E0E7CF61E08C850E94940360E06D
:100A3000E5CF61E08C850E94940360E08E850E9482
:100A4000940361E0DFCF61E08C850E94940360E055
:100A50008E850E94940361E088890E94940360E07F
:100A6000D5CF61E08C850E94940360E09DCF60E06B
:100A7000F9CFDF91CF911F910F9108954F925F921F
:100A80006F927F928F929F92AF92BF92CF92DF929E
:100A9000EF92FF920F931F93CF93DF93EC018B01A3
:100AA00077FF04C000271127061B170B1616170621
:100AB0000CF04AC081E090E09983888384E0E82EBE
:100AC000F12C9AE0C92ED12C0115110509F44EC064
:100AD0000E94F3038E889F88A88CB98C2B013C015F
:100AE000481859086A087B088A809B80AC80BD80C2
:100AF000481459046A047B0438F36E8B7F8B888F0B
:100B0000998F8A859B85288139812130310511F59E
:100B100001969B878A872E813F818217930711F464
:100B20001B861A86015011098A859B85288539857F
:100B3000B6012530310509F0B7010E94C614BC0189
:100B4000CE010E944A04C0CF672B09F4B7CF1982A7
:100B50001882B4CF892B21F48E819F819B878A874D
:100B60008A859B8501979B878A87DCCFDF91CF9110
:100B70001F910F91FF90EF90DF90CF90BF90AF90BB
:100B80009F908F907F906F905F904F90089521E09D
:100B900001C0220F6A95EAF7DC011C962C931C9782
:100BA0001A965C934E931997ED91FC910484F58508
:100BB000E02D60E0199408950895DC01ED91FC9119
:100BC0000684F785E02D41E0199581E090E00895D5
:100BD000DC01ED91FC910684F785E02D40E019944D
:100BE0000F931F93CF93DF9300D000D01F921F92DB
:100BF000CDB7DEB70091420210914302209144022A
:100C0000309145020D831E832F8338870091460261
:100C100010914702209148023091490209831A83BA
:100C20002B833C8390912805691710F06FEF690FB3
:100C3000262F30E0409129052C0F3D1FF90140314E
:100C400099F4943089F46181680F606881E295E0DD
:100C500028960FB6F894DEBF0FBECDBFDF91CF91BF
:100C60001F910F910C94E8056581EECFEF92FF92F2
:100C70000F931F93CF93DF938B0198E0899FB0016F
:100C80001124606481E295E00E94E80583E790E02A
:100C90000197F1F7E801085F1F4F8BE9E82EF12C6F
:100CA000699181E295E00E94DD05C7010197F1F7A6
:100CB000C017D107A9F7DF91CF911F910F91FF9036
:100CC000EF90089561E00E94E8058BE39FE10197B2
:100CD000F1F708950F931F93CF93DF93EC01423008
:100CE00018F08C8188608C834F836887222329F0D9
:100CF000413019F48C8184608C8364E670E080E07C
:100D000090E00E9418046C8164FD50C0E881F98174
:100D10000684F785E02D42E063E0CE0119950BE4EF
:100D200016E4C8010197F1F7E881F9810684F78597
:100D3000E02D42E063E0CE011995C8010197F1F77B
:100D4000E881F9810684F785E02D42E063E0CE0179
:100D5000199583E592E00197F1F7E881F98106841E
:100D6000F785E02D42E062E0CE0119956C8160626A
:100D7000CE010E94E80584E08D836CE0CE010E94E4
:100D8000E805CE010E94620682E08E8366E0CE0115
:100D90000E94E805E881F9810484F585E02D6FEF74
:100DA000CE01DF91CF911F910F9119946062CE0116
:100DB0000E94E8058BE496E40197F1F76C8160628C
:100DC000CE010E94E80583E592E00197F1F76C817E
:100DD0006062CE010E94E805C9CF08950895089584
:100DE00020911703260F3327331F21323105ECF4EE
:100DF00020918803FC0190E080E0243069F082E0DB
:100E00000895A09117032191AC0149505D4FA40FA3
:100E1000B52FB11D2C930196861798F38091170377
:100E2000680F6093170380E0089581E008951092A1
:100E3000880381E0809387031092820361E084E15C
:100E40000E94940361E085E10E949403E9EBF0E0E5
:100E500080818E7F808380818D7F808388E48093F2
:100E6000B80085E48093BC000895CF93DF9391E0B0
:100E70009093F6028823B9F0C091B800D091BA00DF
:100E80008091BC008A7B8093BC0060E084E10E947A
:100E9000940360E085E10E9494030E941707D093B9
:100EA000BA00C093B800DF91CF9108950895E09102
:100EB0008F0380918E03E81730F4F0E0E057FC4F89
:100EC000808190E008958FEF9FEF089590918F03B8
:100ED00080918E032FEF3FEF981748F4E92FF0E051
:100EE000E057FC4F208130E09F5F90938F03C90152
:100EF000089580918E0390918F03891B990B08951B
:100F0000CF92DF92EF92FF920F931F93CF93DF93D5
:100F10007C01CB018A0120913A03222389F0EB0165
:100F20006B01C40ED51ECC15DD0569F06991D701A2
:100F3000ED91FC910190F081E02DC7011995F3CF5F
:100F4000642F0E94F006C801DF91CF911F910F918D
:100F5000FF90EF90DF90CF900895CF93DF931F9293
:100F6000CDB7DEB7698320913A032223F9F02091AF
:100F70006003203258F021E030E0FC01338322830B
:100F800090E080E00F90DF91CF9108958091610310
:100F9000E82FF0E0E55CFC4F998190838F5F8093B0
:100FA00061038093600381E090E0ECCF61E0CE01CB
:100FB00001960E94F006F7CFCF92DF92EF92FF9258
:100FC0000F931F93CF93DF93FC012381222309F416
:100FD000F1C0262F6181609562236083C28181E028
:100FE00080933A03C0935B031092610310926003F5
:100FF00085E195E00E94AD07D091600321E0D132F8
:1010000008F09AC00E94F3036B017C018091880371
:1010100081116CC082E08093880381E08093870314
:101020008FEF8093860310928503D0938403ABE304
:10103000B3E0E2E6F3E080E0D81394C010928303BB
:1010400080918303CC0FC82BC093830380918203CC
:10105000813009F08BC0109282030E94F3036B0170
:101060007C01809183038093BB0080918A039091DF
:101070008B03A0918C03B0918D03892B8A2B8B2B32
:10108000A1F00E94F30300918A0310918B03209139
:101090008C0330918D036C197D098E099F09061709
:1010A00017072807390708F442C08091BC0083FD68
:1010B000D8CF85EC8093BC000E94F3036B017C01C8
:1010C00080918803823009F453C08091860320E028
:1010D0008F3F91F18091860322E0803269F1809107
:1010E000860324E0803341F523E026C080918A0303
:1010F00090918B03A0918C03B0918D03892B8A2B47
:101100008B2B09F483CF0E94F30300918A03109183
:101110008B0320918C0330918D036C197D098E090E
:101120009F09061717072807390708F06FCF809126
:1011300089030E94350725E0109261031092600335
:1011400010923A0330E081E090E0232B11F090E020
:1011500080E0DF91CF911F910F91FF90EF90DF9092
:10116000CF9008959D9191938F5F66CF85EEA2CF2A
:1011700080918A0390918B03A0918C03B0918D0391
:10118000892B8A2B8B2B09F49BCF0E94F3030091B0
:101190008A0310918B0320918C0330918D036C197D
:1011A0007D098E099F09061717072807390708F0D8
:1011B00087CFBDCF30E020E0C6CFEF92FF920F93F4
:1011C0001F93CF938C01FC0184E0C0E0262F30E018
:1011D00060FF02C09589C92BB9017595679581504B
:1011E00031968111F3CF413011F4F8014489F801AF
:1011F0006585C62BC42B7801FEE0EF0EF11CF801CB
:1012000062896C2BC7010E94DC07F8016289609536
:101210006C23C701CF911F910F91FF90EF900C9419
:10122000DC070F931F93CF93DF93062F0F7042308D
:1012300041F440E0602FDF91CF911F910F910C940A
:10124000DD08142FEC0170E084E0759567958A95B0
:10125000E1F7CE010E94DD08412F602FCE01EBCFD8
:10126000FC0184858823A1F0218532852115310573
:1012700021F4611107C0158606C021303105D9F768
:101280006111F9CF85876585CF010E960C94DC0737
:10129000089590E080E00895FC0101900020E9F7B6
:1012A0003197AF01481B590BBC0181E295E00C94CA
:1012B000C10180913A0290913B0282309105C9F1BF
:1012C0002CF4009759F0019781F00895833091052F
:1012D00009F44AC0049709F46AC0089581E090E0D7
:1012E00090933B0280933A02089581E295E00E9438
:1012F000620660E080E00E94F00582E892E00E94D1
:101300004C0961E080E00E94F00583E992E00E94D0
:101310004C0962E080E00E94F00583EA92E00E94BE
:101320004C0963E080E00E94F00580EB92E00C94B1
:101330004C0981E295E00E94620660E080E00E9434
:10134000F00582E892E00E944C0961E080E00E9492
:10135000F00585E992E00E944C0962E080E00E947D
:10136000F00581EA92E0DBCF81E295E00E9462061F
:1013700060E080E00E94F00582E892E00E944C0963
:1013800061E080E00E94F00585E992E00E944C094E
:1013900062E080E00E94F00583EA92E00E944C093E
:1013A00063E080E00E94F0058EEA92E0C0CF83E027
:1013B00090E096CFCF93DF93682F8BED93E00E9460
:1013C0006A02EC0142E050E069EB72E08BED93E0E1
:1013D0000E94C1018C0F9D1FDF91CF9108950E9443
:1013E0003D170F931F93CF93DF93EC018881998171
:1013F000009759F02A813B812617370730F081E0AA
:10140000DF91CF911F910F9108958B016F5F7F4FF7
:101410000E945C16009759F0998388831B830A8386
:101420002C813D81232B59F7FC011082E8CF80E00D
:10143000E7CFCF93DF93EC0188819981009711F07A
:101440000E94D315198218821D821C821B821A8267
:10145000DF91CF9108950F931F93CF93DF93EC010A
:101460000C811D81075F1F4FB8010E94F10988237D
:1014700091F0288139818C819D816CEB72E0820F23
:10148000931F0E944B171D830C83CE01DF91CF91D8
:101490001F910F910895CE010E94190AF6CFCF92A5
:1014A000DF92EF92FF920F931F93CF93DF93CDB70D
:1014B000DEB762970FB6F894DEBF0FBECDBF8C01CA
:1014C000CB01F801118210821382128215821482DC
:1014D0004AE09E012F5F3F4F6901B9010E949114BC
:1014E000F60101900020E9F731977F01EC18FD0823
:1014F000B701C8010E94F109811112C0C8010E9400
:10150000190A62960FB6F894DEBF0FBECDBFDF9109
:10151000CF911F910F91FF90EF90DF90CF900895A2
:10152000F801F582E482B601808191810E944B1717
:10153000E8CFFC0180819181009711F00C94D315C4
:101540000895EF92FF920F931F93CF93DF93EC01D7
:10155000198218821B821A821D821C8286179707A5
:1015600019F1FB010081118101151105E9F0E480F9
:10157000F580B7010E94F109811109C0CE01DF9108
:10158000CF911F910F91FF90EF900C94190AFD825B
:10159000EC82B80188819981DF91CF911F910F91E1
:1015A000FF90EF900C944B17DF91CF911F910F910B
:1015B000FF90EF9008954F925F926F927F928F927B
:1015C0009F92AF92BF92EF92FF920F931F93CF9390
:1015D000DF93EC01062FF42EE22E8B85888B109280
:1015E0008F0310928E0310926103109260030E9489
:1015F00017078BED95E090935F0380935E038CED6E
:1016000095E090935D0380935C0318890E94F30337
:101610004B015C0180918803811164C081E080935B
:101620008803809387039FEF90938603109285032E
:10163000109284038093830380918303110F182BEE
:101640001093830380918203813009F09DC0109232
:1016500082030E94F3034B015C018091830380931A
:10166000BB0080918A0390918B03A0918C03B09171
:101670008D03892B8A2B8B2BA1F00E94F3034090C2
:101680008A0350908B0360908C0370908D036819CF
:1016900079098A099B09461657066806790608F4EF
:1016A00042C08091BC0083FDD8CF85EC8093BC0004
:1016B0000E94F3034B015C0180918803813009F49F
:1016C00065C080918503811183C080918503E2E626
:1016D000F3E0A0E9B3E090E0981751F121912D9348
:1016E0009F5FFACF80918A0390918B03A0918C0326
:1016F000B0918D03892B8A2B8B2B09F48BCF0E9401
:10170000F30340908A0350908B0360908C03709099
:101710008D03681979098A099B09461657066806D8
:10172000790608F077CF809189030E94350780E021
:1017300010928F0380938E0391E0811101C090E09D
:10174000998B85E195E00E9466078E8789898823B9
:1017500039F01F861C8260E0CE010E960E94DC07E5
:101760002E2D4F2D602FCE01DF91CF911F910F9124
:10177000FF90EF90BF90AF909F908F907F906F9071
:101780005F904F900C946A0685EE90CF80918A030B
:1017900090918B03A0918C03B0918D03892B8A2BA0
:1017A0008B2B09F489CF0E94F30340908A03509059
:1017B0008B0360908C0370908D03681979098A09F6
:1017C0009B09461657066806790608F075CFABCF19
:1017D00081E07DCF85ED8093BC0080918A0390915C
:1017E0008B03A0918C03B0918D030796A11DB11DB1
:1017F00023E0B695A795979587952A95D1F72091DF
:10180000BC0024FD03C010928803089540918A0310
:1018100050918B0360918C0370918D03452B462B67
:10182000472B69F30097A105B10541F02AE22A95FB
:10183000F1F700C00197A109B109E1CF80918903B7
:101840000C9435071F920F920FB60F9211240BB60E
:101850000F922F933F934F935F936F937F938F9349
:101860009F93AF93BF93EF93FF938BED93E00E9411
:101870004802FF91EF91BF91AF919F918F917F911E
:101880006F915F914F913F912F910F900BBE0F90F1
:101890000FBE0F901F9018951F920F920FB60F92C8
:1018A00011240BB60F922F938F939F93EF93FF9377
:1018B000E091EB03F091EC038081E091F103F09172
:1018C000F20382FD1DC090818091F4038F5F8F73BE
:1018D0002091F503821741F0E091F403F0E0E55226
:1018E000FC4F958F8093F403FF91EF919F918F911F
:1018F0002F910F900BBE0F900FBE0F901F90189559
:101900008081F2CF1F920F920FB60F9211240BB667
:101910000F922F933F934F935F936F937F938F9388
:101920009F93AF93BF93EF93FF9388E794E00E9458
:101930004802FF91EF91BF91AF919F918F917F915D
:101940006F915F914F913F912F910F900BBE0F9030
:101950000FBE0F901F9018951F920F920FB60F9207
:1019600011240BB60F922F938F939F93EF93FF93B6
:10197000E0918804F09189048081E0918E04F091D7
:101980008F0482FD1DC09081809191048F5F8F73C1
:1019900020919204821741F0E0919104F0E0E85820
:1019A000FB4F958F80939104FF91EF919F918F91C1
:1019B0002F910F900BBE0F900FBE0F901F90189598
:1019C0008081F2CF1F920F920FB60F9211242F93A6
:1019D0003F938F939F93AF93BF938091B103909167
:1019E000B203A091B303B091B4033091B00323E0EC
:1019F000230F2D3758F50196A11DB11D2093B0037B
:101A00008093B1039093B203A093B303B093B40354
:101A10008091B5039091B603A091B703B091B8033C
:101A20000196A11DB11D8093B5039093B603A093B9
:101A3000B703B093B803BF91AF919F918F913F913E
:101A40002F910F900FBE0F901F90189526E8230F2F
:101A50000296A11DB11DD2CF1F920F920FB60F9209
:101A600011240BB60F922F933F934F935F936F9375
:101A70007F938F939F93AF93BF93EF93FF93809147
:101A8000B900887F803609F44DC008F040C0883224
:101A900009F4A9C028F5803109F49DC0C8F4882351
:101AA00009F4FBC0883009F496C0FF91EF91BF9113
:101AB000AF919F918F917F916F915F914F913F91E6
:101AC0002F910F900BBE0F900FBE0F901F90189587
:101AD000883109F488C0803241F78093860314C0AE
:101AE000803409F49DC040F48033B9F38833E9F6BB
:101AF0008093860385ECB0C0803509F485C08835B5
:101B000009F496C0883489F60E94EA0BCECF883952
:101B100009F48CC038F5883729F050F4883611F074
:101B2000803719F683E0809388031092390357C0F9
:101B3000883809F47BC0803919F0803809F0B5CFB6
:101B400080913903803208F071C0E091390381E05F
:101B50008E0F809339038091BB00F0E0E75EFC4F6D
:101B600080833DC0803B39F0E0F4803A09F479C0CD
:101B7000883A09F09ACF84E0809388031092180382
:101B800010921703E0915E03F0915F031995809125
:101B9000170381110FC081E0809317031092F702A1
:101BA00009C0803C09F4A6CF883C09F4A3CF883B48
:101BB00009F07BCFE091180381E08E0F809318032A
:101BC000F0E0E950FD4F80818093BB0090911803B5
:101BD0008091170329C0809183038093BB0085EC1B
:101BE0008093BC0062CF9091850380918403981705
:101BF00058F5E091850381E08E0F80938503F0E036
:101C0000EE59FC4F8081E9CFE091850381E08E0F92
:101C1000809385038091BB00F0E0EE59FC4F8083F8
:101C200090918503809184039817C8F285E8D8CFF6
:101C3000E091850381E08E0F809385038091BB0046
:101C4000F0E0EE59FC4F80838091870381115CCFD7
:101C500081E08093820384EA8093BC001092880321
:101C600024CF85EC8093BC001092880380913903C7
:101C7000803230F4E0913903F0E0E75EFC4F1082EF
:101C80006091390370E0E0915C03F0915D0389E1BC
:101C900093E019951092390308CF1092860334CF40
:101CA000EF92FF920F931F93CF93DF93EBEDF3E04F
:101CB0001382128288EE93E0A0E0B0E084839583E3
:101CC000A683B7832EE432E0318320834DEC50E0CD
:101CD000558744874CEC50E05787468748EC50E0E6
:101CE000518B408B49EC50E0538B428B4AEC50E0D7
:101CF000558B448B4EEC50E0578B468B118E128ED9
:101D0000138E148EE8E7F4E01382128284839583A5
:101D1000A683B7833183208325EC30E03587248781
:101D200024EC30E03787268720EC30E0318B208BA5
:101D300021EC30E0338B228B22EC30E0358B248B8E
:101D400026EC30E0378B268B118E128E138E148E7C
:101D5000E5E1F5E01382128284839583A683B7833D
:101D600080E692E091838083C4E5D5E01B861A86E5
:101D7000198218821E8A1F8A188E198E82E1E82E17
:101D8000F12CFF82EE8287E390E09D878C8788E3C9
:101D900090E09F878E8789E390E0998B888B8AE318
:101DA00090E09B8B8A8B61E087E30E94C20361E035
:101DB0008E850E94C20361E088890E94C20361E0AF
:101DC0008A890E94C2031D8A1C8A04E010E01987D8
:101DD0000887CAE3D5E01B861A86198218821E8AF4
:101DE0001F8A188E198EFF82EE828BE390E09D870A
:101DF0008C878CE390E09F878E878DE390E0998BB2
:101E0000888B8EE390E09B8B8A8B61E08BE30E9452
:101E1000C20361E08E850E94C20361E088890E944E
:101E2000C20361E08A890E94C2031D8A1C8A198745
:101E30000887E1E2F5E01382128282E792E0918363
:101E40008083108A8FEF87871686118A80E28387C6
:101E5000148615861286118694E0928B92E0938BFD
:101E600091E0948B90E1958B868B80E4878B80E862
:101E7000808F50E040E063E0CF01DF91CF911F9170
:101E80000F91FF90EF900C94C705CF93DF93CDB7E0
:101E9000DEB72C970FB6F894DEBF0FBECDBF789497
:101EA00084B5826084BD84B5816084BD85B582605F
:101EB00085BD85B5816085BD80916E008160809310
:101EC0006E00109281008091810082608093810079
:101ED0008091810081608093810080918000816089
:101EE000809380008091B10084608093B1008091E4
:101EF000B00081608093B0008091910082608093F7
:101F00009100809191008160809391008091900078
:101F10008160809390008091A10082608093A100F5
:101F20008091A10081608093A1008091A0008160D8
:101F30008093A00080912101826080932101809193
:101F40002101816080932101809120018160809333
:101F5000200180917A00846080937A0080917A00D9
:101F6000826080937A0080917A00816080937A0009
:101F700080917A00806880937A001092C10020E0FE
:101F800044E060E181E295E00E94DB0A6FEF81E2CC
:101F900095E00E94300960E080E00E94F00582E850
:101FA00092E00E944C0961E087E00E94C20360E079
:101FB0008DE00E94C20360E08CE00E94C20360E0FA
:101FC0008BE00E94C20361E087E30E94C20361E0EC
:101FD00088E30E94C20361E089E30E94C20361E0DA
:101FE0008AE00E94C20361E08AE30E94C20360E0CB
:101FF00084E30E94C20360E085E30E94C20360E0C4
:1020000085E30E94C20361E089E00E94C20361E0AF
:102010008BE30E94C20361E08CE30E94C20361E093
:102020008DE30E94C20361E08EE30E94C20361E07F
:1020300082E00E94C20316E160E0812F0E94C20389
:102040001F5F1632C9F761E0812F0E94C2031F5F34
:102050001633C9F760E372E080E00E94360668E25A
:1020600072E081E00E94360660E272E082E00E9447
:10207000360668E172E083E00E94360660E172E0B5
:1020800084E00E94360668E072E085E00E94360631
:1020900060E072E086E00E94360688E794E00E94E5
:1020A0009A018BED93E00E949A0186E10E946B03F6
:1020B0008130910521F49093DA038093D90387E16D
:1020C0000E946B038130910521F49093D803809393
:1020D000D70388E10E946B038130910521F490932E
:1020E000D6038093D50389E10E946B03813091056B
:1020F00021F49093D4038093D3038AE10E946B036D
:102100008130910521F49093D2038093D1038BE128
:102110000E946B038130910521F49093D00380934A
:10212000CF038CE10E946B038130910521F49093E1
:10213000CE038093CD038DE10E946B038130910526
:1021400021F49093CC038093CB038EE10E946B0328
:102150008130910521F49093CA038093C9038FE1E4
:102160000E946B038130910521F49093C803809302
:10217000C70380E20E946B038130910521F49093A4
:10218000C6038093C50381E20E946B0381309105F1
:1021900021F49093C4038093C30382E20E946B03F3
:1021A0008130910521F49093C2038093C10383E2AF
:1021B0000E946B038130910521F49093C0038093BA
:1021C000BF0384E20E946B038130910521F4909358
:1021D000BE038093BD0385E20E946B0381309105AD
:1021E00021F49093BC038093BB030E945909412CB6
:1021F00097E8592E93E9692E93E0792E28E2822EF2
:10220000912CA12CB12C30E1232E312C01E010E0D7
:1022100088E794E00E942802181619069CF588E7C2
:1022200094E00E940602813309F0BBC120915A0557
:1022300030915B05032E000C440B550BC301B2011A
:102240000E94DA14CA01B901A50194010E94DA14AE
:1022500020935605309357054093580550935905E0
:1022600064E070E084E595E00E943E0560EA7FE06E
:1022700080E090E00E9418046CEF7FEF84E595E029
:102280000E943E058BED93E00E9428021816190665
:1022900024F461E087E00E9494038DE00E946B03C8
:1022A000019709F0ACC180913A0290913B020196EE
:1022B00090933B0280933A020E94590964E670E0D1
:1022C00080E090E00E9418048DE00E946B03892B4F
:1022D000D9F730923902209238021092BA03109244
:1022E000B90386E1F82E8F2D0E946B03019791F4BC
:1022F000809138029091390201979093390280932E
:1023000038028091B9039091BA0301969093BA0371
:102310008093B903F39486E2F812E5CF86E10E9438
:102320006B032091D9033091DA038217930751F0A0
:10233000232B09F076C281E40E94DA091093DA03B4
:102340000093D90387E10E946B032091D70330915A
:10235000D8038217930751F0232B09F06AC282E455
:102360000E94DA091093D8030093D70388E10E94F2
:102370006B032091D5033091D6038217930751F058
:10238000232B09F05EC283E40E94DA091093D6037E
:102390000093D50389E10E946B032091D303309110
:1023A000D4038217930751F0232B09F052C284E41F
:1023B0000E94DA091093D4030093D3038AE10E94A8
:1023C0006B032091D1033091D2038217930751F010
:1023D000232B09F046C285E40E94DA091093D20348
:1023E0000093D1038BE10E946B032091CF033091C6
:1023F000D0038217930751F0232B09F03AC286E4E9
:102400000E94DA091093D0030093CF038CE10E945D
:102410006B032091CD033091CE038217930751F0C7
:10242000232B09F02EC287E40E94DA091093CE0311
:102430000093CD038DE10E946B032091CB0330917B
:10244000CC038217930751F0232B09F022C288E4B2
:102450000E94DA091093CC030093CB038EE10E9413
:102460006B032091C9033091CA038217930751F07F
:10247000232B09F016C289E40E94DA091093CA03DB
:102480000093C9038FE10E946B032091C703309131
:10249000C8038217930751F0232B09F00AC28AE47C
:1024A0000E94DA091093C8030093C70380E20E94D8
:1024B0006B032091C5033091C6038217930751F037
:1024C000232B09F0FEC18BE40E94DA091093C603A6
:1024D0000093C50381E20E946B032091C3033091F6
:1024E000C4038217930751F0232B09F0F2C18CE447
:1024F0000E94DA091093C4030093C30382E20E948E
:102500006B032091C1033091C2038217930751F0EE
:10251000232B09F0E6C18DE40E94DA091093C2036F
:102520000093C10383E20E946B032091BF033091AB
:10253000C0038217930751F0232B09F0DAC18EE410
:102540000E94DA091093C0030093BF0384E20E9443
:102550006B032091BD033091BE038217930751F0A6
:10256000232B09F0CEC18FE40E94DA091093BE0339
:102570000093BD0385E20E946B032091BB03309161
:10258000BC038217930751F0232B09F0C2C180E5E9
:102590000E94DA091093BC030093BB030E94D70288
:1025A00037CE803309F06ECE209140053091410541
:1025B000032E000C440B550BC301B2010E94DA1428
:1025C000CA01B901A50194010E94DA1420933C05C7
:1025D00030933D0540933E0550933F0564E070E025
:1025E0008AE395E00E943E0560EA7FE080E090E0AB
:1025F0000E9418046CEF7FEF8AE395E041CE8CE0F7
:102600000E946B030197B9F480913A0290913B02CA
:10261000019790933B0280933A020E94590964E625
:1026200070E080E090E00E9418048CE00E946B0350
:10263000892BD9F74ECE8BE00E946B036C0181E0B1
:10264000C816D10409F045CE80913A0290913B0220
:102650008230910509F47BC08330910509F48AC06A
:10266000019709F066C081E295E00E946206FF24AE
:10267000F39481E295E00E94620661E08F2D0E9452
:10268000F00562E081E295E00E94DD05DD24D3944F
:10269000DF0C61E08D2D0E94F00563E081E295E0A2
:1026A0000E94DD0561E08FEF8F0D0E94F00564E070
:1026B00081E295E00E94DD0568EC70E080E090E04A
:1026C0000E941804FD2C8EE0D812D3CF81E295E051
:1026D0000E94620660E080E00E94F00586EC92E0D5
:1026E0000E944C0962E080E00E94F005609138028F
:1026F00070913902CE0107960E944F0ABE01695FB0
:102700007F4FCE0101960E94A10ACE0101960E9440
:102710002B0A0E94EE01CE0101960E94990ACE0179
:1027200007960E94990A60EB74E080E090E00E94B6
:1027300018040E94590964E670E080E090E00E946D
:1027400018048BE00E946B03892BD9F7C2CD81E27C
:1027500095E00E94620660E080E00E94F00587ED4F
:1027600092E00E944C0962E080E00E94F00570E077
:1027700060E0C0CF81E295E00E946206F12C81E228
:1027800095E00E94620661E08C2D0E94F00562E0F7
:1027900081E295E00E94DD0561E082E08F0D0E94FC
:1027A000F00563E081E295E00E94DD0561E08F2D98
:1027B0000E94F00564E081E295E00E94DD0583E07F
:1027C0008F0D61E0C0FC29C00E94F00565E081E248
:1027D00095E00E94DD0568EC70E080E090E00E94EA
:1027E00018048FEFC81AD80AF3948DE0F812C7CFF7
:1027F00081E295E00E94620660E080E00E94F005C0
:1028000087EE92E00E944C0962E080E00E94F005B1
:102810006091B9037091BA036DCF0E94F00566E034
:10282000D6CF81E60E94DA091092DA031092D9031A
:1028300089CD82E60E94DA091092D8031092D7035C
:1028400095CD83E60E94DA091092D6031092D50343
:10285000A1CD84E60E94DA091092D4031092D3032A
:10286000ADCD85E60E94DA091092D2031092D10311
:10287000B9CD86E60E94DA091092D0031092CF03F8
:10288000C5CD87E60E94DA091092CE031092CD03DF
:10289000D1CD88E60E94DA091092CC031092CB03C6
:1028A000DDCD89E60E94DA091092CA031092C903AD
:1028B000E9CD8AE60E94DA091092C8031092C70394
:1028C000F5CD8BE60E94DA091092C6031092C5037B
:1028D00001CE8CE60E94DA091092C4031092C30361
:1028E0000DCE8DE60E94DA091092C2031092C10348
:1028F00019CE8EE60E94DA091092C0031092BF032F
:1029000025CE8FE60E94DA091092BE031092BD0315
:1029100031CE80E70E94DA091092BC031092BB030B
:102920003DCEBB274A3031F4992322F4BDE2909585
:1029300081959F4F0C949D14BB27FB015527AA2717
:10294000880F991FAA1FA41710F0A41B839550513C
:10295000B9F7A05DAA3308F0A95DA193009779F7B4
:10296000B111B1931192CB010C94B614DC01FC01AE
:10297000672F71917723E1F7329704C07C916D93B3
:1029800070836291AE17BF07C8F3089597FB072EB7
:1029900016F4009407D077FD09D00E94011507FCBA
:1029A00005D03EF4909581959F4F0895709561955F
:1029B0007F4F0895052E97FB1EF400940E94F1149A
:1029C00057FD07D00E94151507FC03D04EF40C9458
:1029D000F11450954095309521953F4F4F4F5F4FE3
:1029E000089590958095709561957F4F8F4F9F4F7B
:1029F0000895EE0FFF1F881F8BBF0790F691E02D03
:102A00001994AA1BBB1B51E107C0AA1FBB1FA61725
:102A1000B70710F0A61BB70B881F991F5A95A9F787
:102A200080959095BC01CD010895A1E21A2EAA1BB4
:102A3000BB1BFD010DC0AA1FBB1FEE1FFF1FA2176E
:102A4000B307E407F50720F0A21BB30BE40BF50B6B
:102A5000661F771F881F991F1A9469F760957095F4
:102A6000809590959B01AC01BD01CF0108950F9316
:102A70001F93CF93DF938230910510F482E090E0B2
:102A8000E0917005F091710530E020E0B0E0A0E049
:102A9000309799F42115310509F44AC0281B390BE8
:102AA00024303105D8F58A819B816115710589F142
:102AB000FB0193838283FE0111C040815181028119
:102AC000138148175907E0F04817590799F41097F0
:102AD00061F012960C93129713961C933296CF01C5
:102AE000DF91CF911F910F9108950093700510937E
:102AF0007105F4CF2115310551F04217530738F015
:102B0000A901DB019A01BD01DF01F801C1CFEF018D
:102B1000F9CF9093710580937005CDCFFE01E20F40
:102B2000F31F819391932250310939832883D7CFA2
:102B300020916E0530916F05232B41F420913E02C8
:102B400030913F0230936F0520936E0520913C0237
:102B500030913D022115310541F42DB73EB740912A
:102B6000400250914102241B350BE0916E05F0911B
:102B70006F05E217F307A0F42E1B3F0B2817390748
:102B800078F0AC014E5F5F4F2417350748F04E0FC9
:102B90005F1F50936F0540936E05819391939FCF74
:102BA000F0E0E0E09CCFCF93DF930097E9F0FC01E9
:102BB000329713821282A0917005B0917105ED01D8
:102BC00030E020E01097A1F420813181820F931F23
:102BD00020916E0530916F052817390709F061C003
:102BE000F0936F05E0936E05DF91CF910895EA01B0
:102BF000CE17DF07E8F54A815B819E01411551053B
:102C0000B1F7E901FB83EA8349915991C40FD51FBC
:102C1000EC17FD0761F4808191810296840F951F66
:102C2000E90199838883828193819B838A83F0E081
:102C3000E0E012968D919C9113970097B9F52D9134
:102C40003C911197CD010296820F931F20916E0542
:102C500030916F052817390739F6309751F51092E2
:102C6000710510927005B0936F05A0936E05BCCFEF
:102C7000D383C28340815181840F951FC817D90720
:102C800061F44E5F5F4F88819981480F591F5183CE
:102C900040838A819B81938382832115310509F0CA
:102CA000B0CFF0937105E09370059ECFFD01DC017C
:102CB000C0CF13821282D7CF4F925F926F927F92D2
:102CC0008F929F92AF92BF92CF92DF92EF92FF923C
:102CD0000F931F93CF93DF938C01009799F4CB014F
:102CE000DF91CF911F910F91FF90EF90DF90CF90E8
:102CF000BF90AF909F908F907F906F905F904F901C
:102D00000C943715FC01E60FF71F9C012250310986
:102D1000E217F30708F4AEC0D901CD91DC91119709
:102D2000C617D70720F1C530D10578F0CE0104973A
:102D30008617970750F0C61BD70B2297C193D193E4
:102D40006D937C93CF010E94D315C801DF91CF9181
:102D50001F910F91FF90EF90DF90CF90BF90AF90B9
:102D60009F908F907F906F905F904F9008955B0140
:102D7000AC1ABD0A4C018C0E9D1EA0917005B0913D
:102D80007105512C412CF12CE12C109731F58091DB
:102D90006E0590916F058815990509F05CC046167F
:102DA000570608F058C080913C0290913D02009770
:102DB00041F48DB79EB74091400250914102841B6F
:102DC000950BE817F90708F055C0F0936F05E093ED
:102DD0006E05F90171836083B8CF8D919C91119735
:102DE00012966C90129713967C901397A815B905BC
:102DF00059F56C0142E0C40ED11CCA14DB0420F169
:102E0000AC014A195B09DA011296159780F06282CB
:102E1000738251834083D9016D937C93E114F10453
:102E200071F0D7011396FC93EE9312978ECF2296F2
:102E30008C0F9D1FF90191838083F301EFCFF093F5
:102E40007105E093700581CF4816590608F42C01EE
:102E50007D01D3019ACFCB010E9437157C010097E9
:102E600049F0AE01B8010E944217C8010E94D31573
:102E700087016BCF10E000E068CF81E090E0F8942C
:102E80000C945217FB01DC0102C001900D924150DD
:102E90005040D8F70895FB01DC0101900D9200200D
:102EA000E1F70895F894FFCF0E1915130E000000F6
:102EB00000000E1915130E00000107070F0F020185
:102EC00000101E1D1F1F08101F1C1C1F1F1F11118B
:102ED00000000E1F1F0A00000000000E1F1F0A0046
:102EE00010000100000072058000004014540040F2
:102EF0001050000000006A02C101F701B702280269
:102F000006021A0200000000AD07800749095607B3
:102F100079076607570700000000DD05C101490970
:102F2000EF06DB0AC705300911094D656E752049AA
:102F30006E666F726D6163696F6E003E20446973E7
:102F4000706F6E69626C6573003E205265736572C6
:102F50007661646F73003E204F63757061646F73B8
:102F6000000D0A00207061727175656F7300546FF7
:102F700074616C20646973706F6E69626C65005473
:102F80006F74616C2072657365727661646F005452
:0E2F90006F74616C206F63757061646F000078
:020000040003F7
:10E000000D9489F10D94B2F10D94B2F10D94B2F129
:10E010000D94B2F10D94B2F10D94B2F10D94B2F1F0
:10E020000D94B2F10D94B2F10D94B2F10D94B2F1E0
:10E030000D94B2F10D94B2F10D94B2F10D94B2F1D0
:10E040000D94B2F10D94B2F10D94B2F10D94B2F1C0
:10E050000D94B2F10D94B2F10D94B2F10D94B2F1B0
:10E060000D94B2F10D94B2F10D94B2F10D94B2F1A0
:10E070000D94B2F10D94B2F10D94B2F10D94B2F190
:10E080000D94B2F10D94B2F10D94B2F10D94B2F180
:10E090000D94B2F10D94B2F10D94B2F10D94B2F170
:10E0A0000D94B2F10D94B2F10D94B2F10D94B2F160
:10E0B0000D94B2F10D94B2F10D94B2F10D94B2F150
:10E0C0000D94B2F10D94B2F10D94B2F10D94B2F140
:10E0D0000D94B2F10D94B2F10D94B2F10D94B2F130
:10E0E0000D94B2F141546D656761323536300041AF
:10E0F000726475696E6F206578706C6F72657220DE
:10E1000073746B3530305632206279204D4C530099
:10E11000426F6F746C6F616465723E004875683F52
:10E1200000436F6D70696C6564206F6E203D200048
:10E130004350552054797065202020203D20005FF9
:10E140005F4156525F415243485F5F3D2000415658
:10E1500052204C696243205665723D20004743437C
:10E160002056657273696F6E203D20004350552024
:10E1700049442020202020203D20004C6F7720663D
:10E18000757365202020203D20004869676820665F
:10E190007573652020203D200045787420667573D6
:10E1A00065202020203D20004C6F636B2066757336
:10E1B000652020203D20004D617220203720323024
:10E1C000313300312E362E3800342E332E350056A2
:10E1D00023202020414444522020206F7020636F70
:10E1E00064652020202020696E73747275637469E1
:10E1F0006F6E2061646472202020496E74657272B3
:10E20000757074006E6F20766563746F7200726A49
:10E210006D702020006A6D70200057686174207056
:10E220006F72743A00506F7274206E6F7420737541
:10E2300070706F72746564004D7573742062652030
:10E2400061206C6574746572002000577269747483
:10E25000696E672045450052656164696E672045B7
:10E26000450045452065727220636E743D00504F35
:10E27000525400303D5A65726F2061646472003FF1
:10E280003D43505520737461747300403D454550C3
:10E29000524F4D207465737400423D426C696E6B41
:10E2A000204C454400453D44756D70204545505215
:10E2B0004F4D00463D44756D7020464C415348001B
:10E2C000483D48656C70004C3D4C69737420492F83
:10E2D0004F20506F72747300513D51756974005234
:10E2E0003D44756D702052414D00563D73686F7707
:10E2F00020696E7465727275707420566563746FF0
:10E30000727300593D506F727420626C696E6B00BD
:10E310002A0011241FBECFEFD1E2DEBFCDBF01E046
:10E320000CBF12E0A0E0B2E0EEE1FDEF03E00BBFB6
:10E3300002C007900D92A030B107D9F712E0A0E01B
:10E34000B2E001C01D92AE30B107E1F70F9460F367
:10E350000D948DFE01E20EBF0FEF0DBF11241FBE05
:10E360000D9460F30D9400F020E030E040ED57E0B4
:10E3700005C0FA013197F1F72F5F3F4F2817390792
:10E38000C0F308959C01260F311DC901A0E0B0E043
:10E390002F5F3F4FABBFFC018791882361F08093D3
:10E3A000C6008091C00086FFFCCF8091C0008064D1
:10E3B0008093C000EACF08958DE08093C6008091DD
:10E3C000C00086FFFCCF8091C00080648093C000B5
:10E3D0008AE08093C6008091C00086FFFCCF8091C8
:10E3E000C00080648093C00008950F94C2F10F9420
:10E3F000DCF10895FC019081992359F09093C600B7
:10E400008091C00086FFFCCF8091C0008064809323
:10E41000C0003196992379F70895282F982F929567
:10E420009F70892F805D8A3308F0895F8093C600D2
:10E430008091C00086FFFCCF8091C00080648093F3
:10E44000C000822F8F70982F905D9A3308F0995FEB
:10E450009093C6008091C00086FFFCCF8091C000E1
:10E4600080648093C00008959C01FB01853691056E
:10E470001CF46330710594F0C90164E670E00F94F8
:10E480002EFE605D7F4F6093C6008091C00086FFC6
:10E49000FCCF8091C00080648093C0002B30310598
:10E4A00014F43297B4F0C90164E670E00F942EFEC4
:10E4B0006AE070E00F942EFE605D7F4F6093C600AF
:10E4C0008091C00086FFFCCF8091C0008064809363
:10E4D000C000C9016AE070E00F942EFEC0968093E0
:10E4E000C6008091C00086FFFCCF8091C000806490
:10E4F0008093C00008951F93182F8EE692EE60E07F
:10E500000F94C2F11093C6008091C00086FFFCCF2B
:10E510008091C00080648093C0000F94DCF11F9153
:10E5200008952F923F924F925F926F927F928F92B7
:10E530009F92AF92BF92CF92DF92EF92FF920F9392
:10E540001F93DF93CF93CDB7DEB762970FB6F894E2
:10E55000DEBF0FBECDBF382E622ECA01DB015C01CB
:10E560006D01772420E2222E2E010894411C511CBB
:10E570008BC081E0A81680E0B80681E0C80680E084
:10E58000D80628F0C601AA27BB270F940DF2BB2797
:10E59000AD2D9C2D8B2D0F940DF28A2D0F940DF225
:10E5A0002092C6008091C00086FFFCCF8091C00001
:10E5B00080648093C0009DE29093C6008091C0006B
:10E5C00086FFFCCF8091C00080648093C0002092C1
:10E5D000C6008091C00086FFFCCF8091C00080649F
:10E5E0008093C00019828601750188249924A1E0D6
:10E5F0003A1651F03A1620F0B2E03B1661F409C029
:10E600000BBFF701779007C0C7010F9477FE782EF4
:10E6100002C0F7017080872D0F940DF22092C60082
:10E620008091C00086FFFCCF8091C0008064809301
:10E63000C000872D8052F401EF70F0708F3520F408
:10E64000E40DF51D708204C0E40DF51D8EE280839B
:10E650000894E11CF11C011D111D0894811C911CE2
:10E6600090E18916910409F0C2CF80E190E0A0E02A
:10E67000B0E0A80EB91ECA1EDB1E198AC2010F9493
:10E68000FAF10F94DCF16A94662009F072CF629679
:10E690000FB6F894DEBF0FBECDBFCF91DF911F91B3
:10E6A0000F91FF90EF90DF90CF90BF90AF909F9031
:10E6B0008F907F906F905F904F903F902F90089534
:10E6C0002F923F924F925F926F927F928F929F9282
:10E6D000AF92BF92CF92DF92EF92FF920F931F9370
:10E6E000DF93CF93CDB7DEB7CD53D1400FB6F894BB
:10E6F000DEBF0FBECDBF01E20EBF0FEF0DBF94B75F
:10E70000F894A89514BE80916000886180936000A1
:10E7100010926000789493FF05C0E0910002F091A0
:10E7200001021995279A2F9A8091C00082608093E8
:10E73000C00080E18093C40088E18093C1000000A4
:10E74000EE24FF24870144E0A42EB12CCC24DD2448
:10E7500024C0C5010197F1F70894E11CF11C011DCB
:10E76000111D21E2E2162EE4F20620E0020720E06D
:10E77000120718F031E0C32ED12CC801B70127ECE5
:10E780003BE140E050E00F9441FE611571058105C9
:10E79000910519F485B1805885B98091C00087FD35
:10E7A00003C0C114D104A9F2A6014F5F5F4FC25E3E
:10E7B000DE4F59834883CE51D140C25EDE4F8881FF
:10E7C0009981CE51D140019711F00D9410FEC05D9A
:10E7D000DE4F19821882C053D14060E0C15DDE4F28
:10E7E0001882CF52D14088249924C35DDE4F19820C
:10E7F0001882CD52D140C05EDE4F188219821A8233
:10E800001B82C052D140CE5CDE4F188219821A8220
:10E810001B82C253D140EE24FF2487010BBFF701B6
:10E8200007911691C45CDE4F19830883CC53D14005
:10E830000D940BFEC25EDE4F28813981CE51D1404E
:10E840002130310509F52091C600C25EDE4F1982E4
:10E850001882CE51D14022C02F5F3F4F4F4F5F4FA4
:10E86000213082E138078AE7480780E0580780F0C6
:10E87000C45CDE4FE881F981CC53D140EF5FFF4F9C
:10E8800019F0EE27FF27099420E030E040E050E047
:10E890008091C00087FFE0CF2091C600C35DDE4FAE
:10E8A00048815981CD52D1404F5F5F4FC35DDE4FEC
:10E8B00059834883CD52D140213209F063C64A3092
:10E8C000510508F05FC60894811C911C53E0851621
:10E8D000910409F059C600E010E018C081E280936D
:10E8E000C6008091C00086FFFCCF8091C00080648C
:10E8F0008093C0002F5F3F4F2931310579F70F9486
:10E90000DCF10F5F1F4F0530110519F020E030E0FA
:10E91000E5CF10920A0210920B0210920C02109294
:10E920000D02109206021092070210920802109235
:10E930000902109202021092030210920402109235
:10E9400005028FEE90EE60E00F94F5F180E191EE1C
:10E9500060E00F94C2F18091C00087FFFCCF9091DE
:10E96000C600903608F09F759032B8F09093C600BC
:10E970008091C00086FFFCCF8091C00080648093AE
:10E98000C000A0E2A093C6008091C00086FFFCCF2B
:10E990008091C00080648093C000983409F4D7C18E
:10E9A0009934B8F4923409F459C1933458F490333B
:10E9B00019F1903308F4E3C59F33A1F1903409F0C5
:10E9C000DEC5BDC0953409F470C1963409F0D7C5D1
:10E9D00098C1923509F42BC2933538F49C3409F46C
:10E9E000F5C1913509F0CBC518C2963509F445C279
:10E9F000993509F0C4C567C483E792EE62E00F94CD
:10EA0000F5F110920602109207021092080210927D
:10EA1000090210920A0210920B0210920C0210923C
:10EA20000D0213C18FE792EE62E00F94F5F18FEEC5
:10EA300090EE60E00F94F5F181E291EE60E00F94CA
:10EA4000C2F187EB91EE60E00F94F5F180E391EE77
:10EA500060E00F94C2F184EE90EE60E00F94F5F167
:10EA60008FE391EE60E00F94C2F186E090E061E008
:10EA700070E00F9434F20F94DCF18DE591EE60E0DC
:10EA80000F94C2F189EC91EE60E00F94F5F18EE401
:10EA900091EE60E00F94C2F183EC91EE60E00F9490
:10EAA000F5F18CE691EE60E00F94C2F18EE10F94E7
:10EAB0000DF288E90F940DF281E00F940DF20F949E
:10EAC000DCF18BE791EE60E00F94C2F119E0E0E039
:10EAD000F0E010935700E4918E2F0F940DF20F94F5
:10EAE000DCF18AE891EE60E00F94C2F1E3E0F0E03F
:10EAF00010935700E4918E2F0F940DF20F94DCF1D8
:10EB000089E991EE60E00F94C2F1E2E0F0E0109349
:10EB10005700E4918E2F0F940DF20F94DCF188EAE8
:10EB200091EE60E00F94C2F1E1E0F0E01093570045
:10EB30001491812F0F940DF20F94DCF107CF8BE825
:10EB400092EE62E00F94F5F18BE492EE60E00F94A8
:10EB5000F5F10F94DCF100E010E019C0C8016F2D51
:10EB60000F947FFEFF2031F489E492EE60E00F9471
:10EB7000C2F10BC0F092C6008091C00086FFFCCFAE
:10EB80008091C00080648093C0000F5F1F4FC80158
:10EB900081519F41A0E0B0E0ABBFFC01F790BAE229
:10EBA000FB1621F0E2E000301E07C1F60F94DCF105
:10EBB0000F94DCF187E592EE60E00F94F5F10F948D
:10EBC000DCF1CC24DD2400E010E01EC0C8010F946D
:10EBD00077FEF82E882331F489E492EE60E00F94FA
:10EBE000C2F10BC08093C6008091C00086FFFCCFAD
:10EBF0008091C00080648093C000FE1419F00894D6
:10EC0000C11CD11C0F5F1F4FC80181519F41A0E063
:10EC1000B0E0ABBFFC01E790FAE2EF1621F022E092
:10EC20000030120799F60F94DCF10F94DCF182E6C4
:10EC300092EE60E00F94C2F1C60161E070E00F94C3
:10EC400034F20F94DCF10F94DCF110920202109276
:10EC50000302109204021092050278CE89E992EE26
:10EC600062E00F94F5F1279A2F9A16C02F9880E052
:10EC700090E0E0EDF7E03197F1F7019684369105E9
:10EC8000C1F72F9A80E090E0E0EDF7E03197F1F7DF
:10EC9000019684369105C1F78091C00087FFE6CFC9
:10ECA0008091C00087FFFCCF64C485EA92EE62E0E9
:10ECB0000F94F5F140910202509103026091040219
:10ECC0007091050281E020E10F9491F2809102029F
:10ECD00090910302A0910402B091050280509F4FD1
:10ECE000AF4FBF4F8093020290930302A0930402A0
:10ECF000B093050280509041A040B04008F426CE69
:10ED0000A4CF83EB92EE62E00F94F5F140910602FE
:10ED100050910702609108027091090280E020E1A1
:10ED20000F9491F28091060290910702A09108023F
:10ED3000B091090280509F4FAF4FBF4F80930602A2
:10ED400090930702A0930802B0930902FFCD80ECD4
:10ED500092EE62E00F94F5F183E792EE60E00F949B
:10ED6000F5F18FE792EE60E00F94F5F18BE892EE0B
:10ED700060E00F94F5F189E992EE60E00F94F5F10F
:10ED800085EA92EE60E00F94F5F183EB92EE60E09D
:10ED90000F94F5F180EC92EE60E00F94F5F187ECC2
:10EDA00092EE60E00F94F5F188ED92EE60E00F9442
:10EDB000F5F18FED92EE60E00F94F5F18AEE92EEB0
:10EDC00060E00F94F5F183E093EEBDCD87EC92EE19
:10EDD00062E00F94F5F181E40F947BF282E40F94EA
:10EDE0007BF283E40F947BF284E40F947BF285E45E
:10EDF0000F947BF286E40F947BF287E40F947BF20E
:10EE000088E40F947BF28AE40F947BF28BE40F94F6
:10EE10007BF28CE40F947BF299CD88ED92EE62E068
:10EE20000F94F5F1772473948824992409C48FED05
:10EE300092EE62E00F94F5F140910A0250910B02BC
:10EE400060910C0270910D0282E020E10F9491F22A
:10EE500080910A0290910B02A0910C02B0910D02D8
:10EE600080509F4FAF4FBF4F80930A0290930B0289
:10EE7000A0930C02B0930D0269CD8AEE92EE62E08F
:10EE80000F94F5F184EE90EE60E00F94F5F18FECC5
:10EE900091EE60E00F94F5F1662477244301CC5D98
:10EEA000DE4F19821882C452D140D401C301B695F5
:10EEB000A79597958795CA5DDE4F88839983AA8326
:10EEC000BB83C652D140CC5DDE4FA881B981C4520C
:10EED000D1401196CC5DDE4FB983A883C452D14096
:10EEE000CD0162E070E00F9434F2B0E2B093C6005E
:10EEF0008091C00086FFFCCF8091C0008064809329
:10EF0000C000EDE2E093C6008091C00086FFFCCF18
:10EF10008091C00080648093C000F0E2F093C6004E
:10EF20008091C00086FFFCCF8091C00080648093F8
:10EF3000C000CA5DDE4FE880F9800A811B81C6529D
:10EF4000D140BB27A12F902F8F2D0F940DF2CA5DBA
:10EF5000DE4F8881C652D1400F940DF2B0E2FB2EF5
:10EF6000F092C6008091C00086FFFCCF8091C00067
:10EF700080648093C0000DE30093C6008091C000C0
:10EF800086FFFCCF8091C00080648093C00010E2B7
:10EF90001093C6008091C00086FFFCCF8091C00016
:10EFA00080648093C0008BBEF3012791C65DDE4F65
:10EFB0002883CA52D140A22EBB24CC24DD2408943D
:10EFC000611C711C811C911C8BBEF3018791282E42
:10EFD0003324442455240894611C711C811C911C09
:10EFE0008BBEF3013791C55DDE4F3883CB52D140E4
:10EFF0000894611C711C811C911C8BBEF30147910C
:10F00000C45DDE4F4883CC52D140ADEFEA2EAFEF66
:10F01000FA2EAFEF0A2FAFEF1A2F6E0C7F1C801E57
:10F02000911E142D032DF22CEE24EA0CFB1C0C1D5A
:10F030001D1D0F940DF220E22093C6008091C000A8
:10F0400086FFFCCF8091C00080648093C000C65DC5
:10F05000DE4F8881CA52D1400F940DF230E23093D6
:10F06000C6008091C00086FFFCCF8091C000806404
:10F070008093C000C45DDE4F8881CC52D1400F9494
:10F080000DF240E24093C6008091C00086FFFCCFA5
:10F090008091C00080648093C000C55DDE4F888190
:10F0A000CB52D1400F940DF250E25093C6008091A4
:10F0B000C00086FFFCCF8091C00080648093C000B8
:10F0C0008FEFE8168FEFF80680E0080780E018075A
:10F0D00031F484E092EE60E00F94C2F1DFC0D80119
:10F0E000C7018070907CA070B0708050904CA040A0
:10F0F000B040D1F52FEF3FE340E050E0E222F322B1
:10F1000004231523CA5DDE4FA880B980CA80DB8046
:10F11000C652D140AE0CBF1CC01ED11EAA0CBB1CD7
:10F12000CC1CDD1C8EE092EE60E00F94C2F1BB2798
:10F13000A12F902F8F2D0F940DF28E2D0F940DF285
:10F1400030E23093C6008091C00086FFFCCF8091F2
:10F15000C00080648093C0004EE34093C60080915D
:10F16000C00086FFFCCF87C08EE09EEFA0E0B0E03D
:10F17000E822F9220A231B239CE0E91694E9F90608
:10F1800090E0090790E0190709F088C0C45DDE4FE0
:10F19000A881CC52D140EA2EFF2400E010E0102FCD
:10F1A0000F2DFE2CEE24C55DDE4FB881CB52D14031
:10F1B000EB0EF11C011D111DD601C501817090706F
:10F1C000A070B070DC0199278827E80EF91E0A1F8D
:10F1D0001B1F20EF30E040E050E0A222B322C42207
:10F1E000D52241E1AA0CBB1CCC1CDD1C4A95D1F7F1
:10F1F000EA0CFB1C0C1D1D1D81E090E0A0E0B0E0BE
:10F20000282239224A225B2235E1220C331C441C7D
:10F21000551C3A95D1F7E20CF31C041D151D57013E
:10F220006801AA0CBB1CCC1CDD1C85E192EE60E0E1
:10F230000F94C2F1C801AA27BB270F940DF2BB2778
:10F24000A12F902F8F2D0F940DF28E2D0F940DF274
:10F2500090E29093C6008091C00086FFFCCF809121
:10F26000C00080648093C000AEE3A093C60080918C
:10F27000C00086FFFCCF8091C00080648093C000F6
:10F28000C601AA27BB270F940DF2BB27AD2D9C2DDD
:10F290008B2D0F940DF28A2D0F940DF20F94DCF14B
:10F2A000CC5DDE4FE881F981C452D140F99709F471
:10F2B0004DCBF4E0EF2EF12C012D112D6E0C7F1CA7
:10F2C000801E911EF2CD83E093EE62E00F94F5F183
:10F2D0008AE192EE60E00F94C2F18091C00087FF56
:10F2E000FCCF1091C6001F751093C6008091C0001E
:10F2F00086FFFCCF8091C00080648093C0000F9493
:10F30000DCF1812F81548A3108F036C1163409F4BA
:10F3100095C0173490F4133409F44EC0143430F40B
:10F320001134F1F0123409F01DC130C0143409F465
:10F3300059C0153409F016C16BC01A3409F4C4C0A1
:10F340001B3438F4173409F48FC0183409F00AC19B
:10F35000A1C01B3409F4D2C01C3409F003C1E8C0B9
:10F360008FEF81B90DC082B1809582B980E090E0C5
:10F37000E0EDF7E03197F1F70196883C9105C1F790
:10F380008091C00087FFEFCF12B8EFC08FEF84B934
:10F390000DC085B1809585B980E090E0E0EDF7E0A3
:10F3A0003197F1F70196883C9105C1F78091C00033
:10F3B00087FFEFCF15B8D9C08FEF87B90DC088B1DF
:10F3C000809588B980E090E0E0EDF7E03197F1F7C3
:10F3D0000196883C9105C1F78091C00087FFEFCF6F
:10F3E00018B8C3C08FEF8AB90DC08BB180958BB9A7
:10F3F00080E090E0E0EDF7E03197F1F70196883C8E
:10F400009105C1F78091C00087FFEFCF1BB8ADC059
:10F410008FEF8DB90DC08EB180958EB980E090E0F0
:10F42000E0EDF7E03197F1F70196883C9105C1F7DF
:10F430008091C00087FFEFCF1EB897C08FEF80BBD1
:10F440000DC081B3809581BB80E090E0E0EDF7E0F6
:10F450003197F1F70196883C9105C1F78091C00082
:10F4600087FFEFCF11BA81C08FEF83BB0DC084B38C
:10F47000809584BB80E090E0E0EDF7E03197F1F714
:10F480000196883C9105C1F78091C00087FFEFCFBE
:10F4900014BA6BC08FEF809301010FC080910201FD
:10F4A00080958093020180E090E0E0EDF7E03197F5
:10F4B000F1F70196883C9105C1F78091C00087FF64
:10F4C000EDCF1092020151C08FEF809304010FC065
:10F4D0008091050180958093050180E090E0E0ED4A
:10F4E000F7E03197F1F70196883C9105C1F78091DB
:10F4F000C00087FFEDCF1092050137C08FEF8093DA
:10F5000007010FC08091080180958093080180E079
:10F5100090E0E0EDF7E03197F1F70196883C910536
:10F52000C1F78091C00087FFEDCF109208011DC088
:10F530008FEF80930A010FC080910B01809580931B
:10F540000B0180E090E0E0EDF7E03197F1F70196F4
:10F55000883C9105C1F78091C00087FFEDCF1092E4
:10F560000B0103C085E292EEEEC98091C00087FFD7
:10F57000FCCF8091C600EAC988E392EEE4C98CE131
:10F5800091EEE1C988249924933011F1943028F444
:10F59000913089F09230B8F408C0953061F195301F
:10F5A000F0F0963009F048C043C02B3109F042C951
:10F5B00091E06BE13FC96227C15DDE4F2883CF52E6
:10F5C000D14092E037C9B22FA0E0622793E032C960
:10F5D000822F90E0A82BB92B622794E02BC92E3004
:10F5E00009F039C3622795E0C05DDE4F19821882A9
:10F5F000C053D1401FC9E1E0F0E0EC0FFD1FC05D3A
:10F60000DE4F08811981C053D140E00FF11F2083E4
:10F610000F5F1F4FC05DDE4F19830883C053D14079
:10F6200062270A171B0709F005C9D80196E002C92D
:10F63000261709F010C303C0973009F0FBC87724E0
:10F640009981933109F412C19431C8F4963009F4C8
:10F65000D8C0973050F4923009F406C1933009F4C1
:10F660006DC0913009F059C253C0913109F477C08F
:10F67000923108F0BBC0903109F04FC2F5C098310B
:10F6800009F487C0993150F4953109F4EFC09531F0
:10F6900008F4C6C1963109F040C2C2C19A3109F4DA
:10F6A0006CC09A3108F491C09B3109F45BC09D3164
:10F6B00009F033C29D81903359F48F81882311F46E
:10F6C0009EE11CC0813011F091E018C098E916C08D
:10F6D000892F807591F0903539F4E0E0F0E089E011
:10F6E0008093570094910AC0983539F4E3E0F0E034
:10F6F00089E080935700949101C090E01A821B82A8
:10F700008D818C831D829E831F8227E030E009C299
:10F710001A8288E08B8381E48C8386E58D8382E581
:10F720008E8389E48F8383E5888780E589878FE5E9
:10F730008A8782E38B872BE030E0F3C18A818139AD
:10F7400041F0823941F0803911F48FE005C080E04A
:10F7500003C082E001C08AE01A828B8344C0772410
:10F76000739482C08D81882311F48EE12CC0813086
:10F7700011F081E028C088E926C01A82E1E0F0E0BB
:10F7800089E08093570084918B831C8224E030E0D1
:10F79000C8C18B81803589F48C81883039F4E2E0EE
:10F7A000F0E089E08093570084910DC0E0E0F0E044
:10F7B00089E080935700849106C0E3E0F0E089E09F
:10F7C0008093570084911A82DFCF8D81836C99E0FA
:10F7D000E1E0F0E0082E90935700E89507B600FCB2
:10F7E000FDCF1A821B8223E030E09BC180EC8A832C
:10F7F000CE5CDE4F188219821A821B82C253D1401E
:10F800008EC18A8190E0A0E0B0E0582F44273327D2
:10F8100022278B8190E0A0E0B0E0DC0199278827C7
:10F82000282B392B4A2B5B2B8D8190E0A0E0B0E098
:10F83000282B392B4A2B5B2B8C8190E0A0E0B0E089
:10F84000BA2FA92F982F8827282B392B4A2B5B2BCF
:10F85000220F331F441F551FC05EDE4F288339839C
:10F860004A835B83C052D1401A8259C13A81C95C34
:10F87000DE4F3883C753D140CA5CDE4F1882C6536F
:10F88000D1408B81C82EDD24CA5CDE4F488159816E
:10F89000C653D140C42AD52A933109F082C0CE5C28
:10F8A000DE4F88819981AA81BB81C253D1408050AB
:10F8B000904CA340B04030F583E0CE5CDE4FE88052
:10F8C000F9800A811B81C253D140F70100935B008C
:10F8D00080935700E89507B600FCFDCFCE5CDE4F65
:10F8E000088119812A813B81C253D14000501F4FAA
:10F8F0002F4F3F4FCE5CDE4F088319832A833B8313
:10F90000C253D140C05EDE4F488159816A817B81FC
:10F91000C052D140DE011B9631E08C9111962C91A2
:10F9200011971296C75CDE4F2883C953D140C85C3B
:10F93000DE4F1882C853D14090E0C85CDE4FE881AA
:10F94000F981C853D1408E2B9F2B0C01FA01609393
:10F950005B0030935700E89511244E5F5F4F6F4F67
:10F960007F4F0EEFE02E0FEFF02ECE0CDF1CC114F8
:10F97000D10499F685E0C05EDE4F088119812A81A5
:10F980003B81C052D140F80120935B008093570027
:10F99000E89507B600FCFDCF81E180935700E8951C
:10F9A00035C0C05EDE4F88819981AA81BB81C0527B
:10F9B000D140B695A795979587957C018601ABE0D8
:10F9C000AA2EB12CAC0EBD1E0BC0D5016D915D01F0
:10F9D000C7010F947FFE0894E11CF11C01501040F8
:10F9E0000115110591F7A60160E070E0440F551F65
:10F9F000661F771FC05EDE4FE880F9800A811B8199
:10FA0000C052D1404E0D5F1D601F711F1A82C05E33
:10FA1000DE4F488359836A837B83C052D1407FC0C5
:10FA2000FA80C55CDE4FF882CB53D140C65CDE4F16
:10FA30001882CA53D1408B81C82EDD24C65CDE4FAC
:10FA400008811981CA53D140C02AD12A1A828981DA
:10FA5000BE016D5F7F4F843121F59601C05EDE4FA0
:10FA6000E880F9800A811B81C052D1400BBFF701A9
:10FA700087919691DB018C9311969C936E5F7F4FDB
:10FA8000D801C7010296A11DB11DC05EDE4F88835B
:10FA90009983AA83BB83C052D14022503040F1F6F3
:10FAA00036C0C05EDE4F288139814A815B81C052F9
:10FAB000D1400894C108D108760100E010E0089414
:10FAC000C11CD11C0894E11CF11C011D111DE20E8A
:10FAD000F31E041F151F21BDBB27A52F942F832FB5
:10FAE00082BD2F5F3F4F4F4F5F4FF89A80B5DB01CC
:10FAF0008D93BD012E153F054007510761F7C05E8C
:10FB0000DE4F288339834A835B83C052D1409601FC
:10FB10002D5F3F4FFB01108204C080EC8A8322E0FE
:10FB200030E08BE18093C6008091C00086FFFCCF5F
:10FB30008091C00080648093C000C15DDE4FF88179
:10FB4000CF52D140F093C6008091C00086FFFCCF19
:10FB50008091C00080648093C000432F3093C60022
:10FB60008091C00086FFFCCF8091C00080648093AC
:10FB7000C000922F2093C6008091C00086FFFCCF6A
:10FB80008091C00080648093C0008EE08093C600A6
:10FB90008091C00086FFFCCF8091C000806480937C
:10FBA000C00065E1C15DDE4FE880CF52D1406E25D7
:10FBB00069276427FE01319610C090819093C6009A
:10FBC0008091C00086FFFCCF31968091C000806498
:10FBD0008093C0006927215030402115310569F715
:10FBE0006093C6008091C00086FFFCCF8091C0006A
:10FBF00080648093C00085B1805885B9772081F4F6
:10FC0000C15DDE4F0881CF52D1400F5FC15DDE4F35
:10FC10000883CF52D14090E0A0E0B0E00D941AF4F8
:10FC200027982F9880E090E020ED37E0F901319798
:10FC3000F1F7019684369105C9F700008091C00064
:10FC40008D7F8093C00081E180935700E895EE2777
:10FC5000FF270994FFCF90E00D941AF497FB092E2B
:10FC600007260AD077FD04D02ED006D000201AF443
:10FC7000709561957F4F0895F6F7909581959F4F08
:10FC80000895A1E21A2EAA1BBB1BFD010DC0AA1FDD
:10FC9000BB1FEE1FFF1FA217B307E407F50720F0F5
:10FCA000A21BB30BE40BF50B661F771F881F991F70
:10FCB0001A9469F760957095809590959B01AC01B9
:10FCC000BD01CF010895AA1BBB1B51E107C0AA1FAC
:10FCD000BB1FA617B70710F0A61BB70B881F991FED
:10FCE0005A95A9F780959095BC01CD010895F99991
:10FCF000FECF92BD81BDF89A992780B50895262F31
:10FD0000F999FECF1FBA92BD81BD20BD0FB6F89400
:0EFD1000FA9AF99A0FBE01960895F894FFCF63
:00000001FF
