:100000000C9467010C9498010C9498010C9498013D
:100010000C9498010C9498010C9498010C949801FC
:100020000C9498010C9498010C9498010C949801EC
:100030000C9498010C9498010C9498010C949801DC
:100040000C9498010C9498010C9498010C949801CC
:100050000C9498010C9498010C9498010C945F0DE9
:100060000C9498010C94290D0C94FF0C0C9498019D
:100070000C9498010C9498010C9498010C9498019C
:100080000C9498010C9498010C9498010C9498018C
:100090000C94C90C0C949F0C0C9498010C94A90D11
:1000A0000C9498010C9498010C9498010C9498016C
:1000B0000C9498010C9498010C9498010C9498015C
:1000C0000C9498010C9498010C9498010C9498014C
:1000D0000C9498010C9498010C9498010C9498013C
:1000E0000C9498010C9419050C946A020C94110953
:1000F0000C9434030C9467030C943D030C941A0283
:100100000C9480070C9466070C9455030C94B7026A
:100110000C94F9040C9413050C94DB050C94DD0588
:100120000C9430030C945D030C94C7050C9463038A
:100130000C9456070C9428030C94EF060C94790742
:100140000C9411050C9437050C9457070C94D904A2
:100150000C942C030C94C1010C9422030C944103C5
:100160000C94E7040C9423050C944B030C94470364
:100170000C9449090C94AD070C9459030C94310567
:100180000C94CD0E0C9406020C94DC050C94280201
:100190000C94F7010C94CF040C9437030C944F0388
:1001A0000C9430090C9462030C944C09000021005B
:1001B000240027002A002D00300033000101000038
:1001C000040107010A0100002200250028002B007D
:1001D0002E003100340002010000050108010B016E
:1001E000000020002300260029002C002F003200F0
:1001F00000010000030106010901050505050705C9
:1002000008080808020202020A0A08080404040492
:1002100001010101010101010303030303030303BE
:10022000040707070C0C0C0C0C0C0C0C020202024D
:1002300006060606060606060B0B0B0B0B0B0B0B36
:1002400001021020200808102040102040800201E8
:1002500002010804020101020408102040808040CD
:1002600020100804020180040201804020100804CC
:10027000020108040201010204081020408001026A
:1002800004081020408000000A0B02090C0D0E0823
:10029000070304010000000000000000000000004F
:1002A000000000000000000000000000000000004E
:1002B000000012111000000000000000000000000B
:1002C000000000000000000000000000CD0E11241E
:1002D0001FBECFEFD1E2DEBFCDBF00E00CBF25E0F7
:1002E000A6EFB2E001C01D92A337B207E1F712E01A
:1002F000A0E0B2E0E8EBF1E300E00BBF02C0079042
:100300000D92A63FB107D9F711E0C7E6D1E000E0B2
:1003100006C021970109802FFE010E94A316C63650
:10032000D10780E00807A9F70E94C20F0C94DA18E1
:100330000C940000FC01A089B18982E08C93A48513
:10034000B5851C92A685B7858FEC8C93108EA489F9
:10035000B58986E08C93A289B3898C9180618C9356
:10036000A289B3898C9188608C93A289B3898C917E
:1003700080688C930288F389E02D80818F7D808353
:100380000895AF92BF92CF92DF92EF92FF920F93B8
:100390001F93CF93DF936C017B018B01040F151F1B
:1003A000EB015E01AE18BF08C017D10759F0699183
:1003B000D601ED91FC910190F081E02DC6011995D7
:1003C000892B79F7C501DF91CF911F910F91FF9094
:1003D000EF90DF90CF90BF90AF900895FC014481E3
:1003E00055816081718182E295E00C94C101FC012C
:1003F000538D448D252F30E0842F90E0821B930B8A
:10040000541710F0CF96089501970895FC01918D2F
:10041000828D981761F0A28DAE0FBF2FB11D5D9632
:100420008C91928D9F5F9F73928F90E008958FEFD4
:100430009FEF0895FC01918D828D981731F0828D88
:10044000E80FF11D858D90E008958FEF9FEF0895DF
:10045000FC01918D228D892F90E0805C9F4F821B43
:1004600091098F73992708958CED93E00E942802DB
:1004700021E0892B09F420E0822F089589E794E098
:100480000E94280221E0892B09F420E0822F0895A0
:10049000FC01A48DA80FB92FB11DA35ABF4F2C91F9
:1004A000848D90E001968F739927848FA689B789F0
:1004B0002C93A089B1898C91837080648C93938DE7
:1004C000848D981306C00288F389E02D80818F7D8A
:1004D00080830895EF92FF920F931F93CF93DF9342
:1004E000EC0181E0888F9B8D8C8D98131AC0E88970
:1004F000F989808185FF15C09FB7F894EE89FF893F
:100500006083E889F98980818370806480839FBFDC
:1005100081E090E0DF91CF911F910F91FF90EF90DC
:100520000895F62E0B8D10E00F5F1F4F0F731127EC
:10053000E02E8C8D8E110CC00FB607FCFACFE88927
:10054000F989808185FFF5CFCE010E944802F1CF65
:10055000EB8DEC0FFD2FF11DE35AFF4FF0829FB79B
:10056000F8940B8FEA89FB8980818062CFCFCF938B
:10057000DF93EC01888D8823B9F0AA89BB89E889CB
:10058000F9898C9185FD03C0808186FD0DC00FB671
:1005900007FCF7CF8C9185FFF2CF808185FFEDCFEF
:1005A000CE010E944802E9CFDF91CF91089580E00B
:1005B00090E0892B29F00E943E0281110E940000E8
:1005C00080E090E0892B29F00E94340281110E9482
:1005D000000080E090E0892B49F080E090E0892BDA
:1005E00029F00E94000081110E94000080E090E04C
:1005F000892B49F080E090E0892B29F00E940000CF
:1006000081110C94000008958150823108F05AC085
:10061000E82FF0E08827E05FFC4F8F4F0C94A31683
:1006200030033403220328032C03620337033D0302
:10063000410347034B034F035503590362035D0313
:1006400063036703809180008F7780938000089513
:10065000809180008F7DF9CF80918000877FF5CFDA
:1006600084B58F7784BD089584B58F7DFBCF80914D
:10067000B0008F778093B00008958091B0008F7D97
:10068000F9CF809190008F778093900008958091AA
:1006900090008F7DF9CF80919000877FF5CF80917A
:1006A000A0008F778093A00008958091A0008F7D97
:1006B000F9CF8091A000877FF5CF809120018F77BF
:1006C000809320010895809120018F7DF9CF809142
:1006D0002001877FF5CFCF93DF93282F30E0F901FA
:1006E000EA57FD4F8491F901E05CFD4FD491F90187
:1006F000E650FE4FC491CC23A1F081110E94040367
:10070000EC2FF0E0EE0FFF1FE052FE4FA591B491E9
:10071000EC91ED2381E090E009F480E0DF91CF914E
:10072000089580E090E0FACF1F93CF93DF93282FB6
:1007300030E0F901EA57FD4F8491F901E05CFD4F8B
:10074000D491F901E650FE4FC491CC23A9F0162FA5
:1007500081110E940403EC2FF0E0EE0FFF1FEA531B
:10076000FE4FA591B4918FB7F894EC91111108C088
:10077000D095DE23DC938FBFDF91CF911F91089539
:10078000DE2BF8CFCF93DF9390E0FC01E05CFD4FD0
:10079000249186509E4FFC0184918823D1F090E0F3
:1007A000880F991FFC01E455FE4FA591B491FC01FF
:1007B000EA53FE4FC591D49161110EC09FB7F894D2
:1007C0008C91E22FE0958E238C932881E223E8839D
:1007D0009FBFDF91CF9108958FB7F894EC91E22BF2
:1007E000EC938FBFF6CF3FB7F8948091B50390910B
:1007F000B603A091B703B091B80326B5A89B05C076
:100800002F3F19F00196A11DB11D3FBFBA2FA92F8F
:10081000982F8827BC01CD01620F711D811D911D8C
:1008200042E0660F771F881F991F4A95D1F70895F8
:100830008F929F92AF92BF92CF92DF92EF92FF92F0
:100840004B015C010E94F3036B017C010E94F303E6
:100850006C197D098E099F09683E734081059105D9
:10086000A8F321E0821A9108A108B10888EEC80E09
:1008700083E0D81EE11CF11C81149104A104B10491
:1008800029F7FF90EF90DF90CF90BF90AF909F90AF
:100890008F9008950F931F93CF93DF93EC018B01FB
:1008A00088859985029751F46130710509F43AC041
:1008B0006CF560E00115110509F435C0888599854E
:1008C000049751F40130110509F455C00CF035C0FE
:1008D0000115110509F43EC088859985059709F031
:1008E000C8C00A30110508F0C4C0F8018827E458D0
:1008F000FB4F8F4F0C94A316CF04D904E704F904DF
:1009000011051305190523053105370562307105F9
:1009100091F060E00330110589F68C850E94940304
:1009200060E005C061E08C850E94940361E08E85E3
:100930000E949403C3CF61E0F0CF0230110509F1AA
:100940000330110509F0C8CF61E08C850E94940343
:1009500060E01CC061E08C850E94940360E08E859D
:100960000E94940361E088890E94940360E08A8970
:100970000E949403B1CF60E08C850E94940361E0F3
:10098000EECF60E08C850E94940361E08E850E942A
:10099000940360E088890E94940361E0E8CF60E0FE
:1009A0008C850E94940361E08E850E94940361E02F
:1009B00009C060E08C850E94940361E08E850E94EE
:1009C000940360E088890E94940360E00DC060E0B9
:1009D0008C850E94940361E08E850E94940360E000
:1009E00088890E94940361E08A890E94940361E0EF
:1009F00011C060E08C850E94940361E08E850E94A6
:100A0000940360E088890E94940361E08A890E94CF
:100A1000940360E08C89DF91CF911F910F910C942A
:100A2000940361E0E7CF61E08C850E94940360E06D
:100A3000E5CF61E08C850E94940360E08E850E9482
:100A4000940361E0DFCF61E08C850E94940360E055
:100A50008E850E94940361E088890E94940360E07F
:100A6000D5CF61E08C850E94940360E09DCF60E06B
:100A7000F9CFDF91CF911F910F9108954F925F921F
:100A80006F927F928F929F92AF92BF92CF92DF929E
:100A9000EF92FF920F931F93CF93DF93EC018B01A3
:100AA00077FF04C000271127061B170B1616170621
:100AB0000CF04AC081E090E09983888384E0E82EBE
:100AC000F12C9AE0C92ED12C0115110509F44EC064
:100AD0000E94F3038E889F88A88CB98C2B013C015F
:100AE000481859086A087B088A809B80AC80BD80C2
:100AF000481459046A047B0438F36E8B7F8B888F0B
:100B0000998F8A859B85288139812130310511F59E
:100B100001969B878A872E813F818217930711F464
:100B20001B861A86015011098A859B85288539857F
:100B3000B6012530310509F0B7010E944E16BC01FF
:100B4000CE010E944A04C0CF672B09F4B7CF1982A7
:100B50001882B4CF892B21F48E819F819B878A874D
:100B60008A859B8501979B878A87DCCFDF91CF9110
:100B70001F910F91FF90EF90DF90CF90BF90AF90BB
:100B80009F908F907F906F905F904F90089521E09D
:100B900001C0220F6A95EAF7DC011C962C931C9782
:100BA0001A965C934E931997ED91FC910484F58508
:100BB000E02D60E0199408950895DC01ED91FC9119
:100BC0000684F785E02D41E0199581E090E00895D5
:100BD000DC01ED91FC910684F785E02D40E019944D
:100BE0000F931F93CF93DF9300D000D01F921F92DB
:100BF000CDB7DEB70091420210914302209144022A
:100C0000309145020D831E832F8338870091460261
:100C100010914702209148023091490209831A83BA
:100C20002B833C8390912905691710F06FEF690FB2
:100C3000262F30E040912A052C0F3D1FF90140314D
:100C400099F4943089F46181680F606882E295E0DC
:100C500028960FB6F894DEBF0FBECDBFDF91CF91BF
:100C60001F910F910C94E8056581EECFEF92FF92F2
:100C70000F931F93CF93DF938B0198E0899FB0016F
:100C80001124606482E295E00E94E80583E790E029
:100C90000197F1F7E801085F1F4F8BE9E82EF12C6F
:100CA000699182E295E00E94DD05C7010197F1F7A5
:100CB000C017D107A9F7DF91CF911F910F91FF9036
:100CC000EF90089561E00E94E8058BE39FE10197B2
:100CD000F1F708950F931F93CF93DF93EC01423008
:100CE00018F08C8188608C834F836887222329F0D9
:100CF000413019F48C8184608C8364E670E080E07C
:100D000090E00E9418046C8164FD50C0E881F98174
:100D10000684F785E02D42E063E0CE0119950BE4EF
:100D200016E4C8010197F1F7E881F9810684F78597
:100D3000E02D42E063E0CE011995C8010197F1F77B
:100D4000E881F9810684F785E02D42E063E0CE0179
:100D5000199583E592E00197F1F7E881F98106841E
:100D6000F785E02D42E062E0CE0119956C8160626A
:100D7000CE010E94E80584E08D836CE0CE010E94E4
:100D8000E805CE010E94620682E08E8366E0CE0115
:100D90000E94E805E881F9810484F585E02D6FEF74
:100DA000CE01DF91CF911F910F9119946062CE0116
:100DB0000E94E8058BE496E40197F1F76C8160628C
:100DC000CE010E94E80583E592E00197F1F76C817E
:100DD0006062CE010E94E805C9CF08950895089584
:100DE00020911703260F3327331F21323105ECF4EE
:100DF00020918803FC0190E080E0243069F082E0DB
:100E00000895A09117032191AC0149505D4FA40FA3
:100E1000B52FB11D2C930196861798F38091170377
:100E2000680F6093170380E0089581E008951092A1
:100E3000880381E0809387031092820361E084E15C
:100E40000E94940361E085E10E949403E9EBF0E0E5
:100E500080818E7F808380818D7F808388E48093F2
:100E6000B80085E48093BC000895CF93DF9391E0B0
:100E70009093F6028823B9F0C091B800D091BA00DF
:100E80008091BC008A7B8093BC0060E084E10E947A
:100E9000940360E085E10E9494030E941707D093B9
:100EA000BA00C093B800DF91CF9108950895E09102
:100EB0008F0380918E03E81730F4F0E0E057FC4F89
:100EC000808190E008958FEF9FEF089590918F03B8
:100ED00080918E032FEF3FEF981748F4E92FF0E051
:100EE000E057FC4F208130E09F5F90938F03C90152
:100EF000089580918E0390918F03891B990B08951B
:100F0000CF92DF92EF92FF920F931F93CF93DF93D5
:100F10007C01CB018A0120913A03222389F0EB0165
:100F20006B01C40ED51ECC15DD0569F06991D701A2
:100F3000ED91FC910190F081E02DC7011995F3CF5F
:100F4000642F0E94F006C801DF91CF911F910F918D
:100F5000FF90EF90DF90CF900895CF93DF931F9293
:100F6000CDB7DEB7698320913A032223F9F02091AF
:100F70006003203258F021E030E0FC01338322830B
:100F800090E080E00F90DF91CF9108958091610310
:100F9000E82FF0E0E55CFC4F998190838F5F8093B0
:100FA00061038093600381E090E0ECCF61E0CE01CB
:100FB00001960E94F006F7CFCF92DF92EF92FF9258
:100FC0000F931F93CF93DF93FC012381222309F416
:100FD000F1C0262F6181609562236083C28181E028
:100FE00080933A03C0935B031092610310926003F5
:100FF00086E195E00E94AD07D091600321E0D132F7
:1010000008F09AC00E94F3036B017C018091880371
:1010100081116CC082E08093880381E08093870314
:101020008FEF8093860310928503D0938403ABE304
:10103000B3E0E2E6F3E080E0D81394C010928303BB
:1010400080918303CC0FC82BC093830380918203CC
:10105000813009F08BC0109282030E94F3036B0170
:101060007C01809183038093BB0080918A039091DF
:101070008B03A0918C03B0918D03892B8A2B8B2B32
:10108000A1F00E94F30300918A0310918B03209139
:101090008C0330918D036C197D098E099F09061709
:1010A00017072807390708F442C08091BC0083FD68
:1010B000D8CF85EC8093BC000E94F3036B017C01C8
:1010C00080918803823009F453C08091860320E028
:1010D0008F3F91F18091860322E0803269F1809107
:1010E000860324E0803341F523E026C080918A0303
:1010F00090918B03A0918C03B0918D03892B8A2B47
:101100008B2B09F483CF0E94F30300918A03109183
:101110008B0320918C0330918D036C197D098E090E
:101120009F09061717072807390708F06FCF809126
:1011300089030E94350725E0109261031092600335
:1011400010923A0330E081E090E0232B11F090E020
:1011500080E0DF91CF911F910F91FF90EF90DF9092
:10116000CF9008959D9191938F5F66CF85EEA2CF2A
:1011700080918A0390918B03A0918C03B0918D0391
:10118000892B8A2B8B2B09F49BCF0E94F3030091B0
:101190008A0310918B0320918C0330918D036C197D
:1011A0007D098E099F09061717072807390708F0D8
:1011B00087CFBDCF30E020E0C6CFEF92FF920F93F4
:1011C0001F93CF938C01FC0184E0C0E0262F30E018
:1011D00060FF02C09589C92BB9017595679581504B
:1011E00031968111F3CF413011F4F8014489F801AF
:1011F0006585C62BC42B7801FEE0EF0EF11CF801CB
:1012000062896C2BC7010E94DC07F8016289609536
:101210006C23C701CF911F910F91FF90EF900C9419
:10122000DC070F931F93CF93DF93062F0F7042308D
:1012300041F440E0602FDF91CF911F910F910C940A
:10124000DD08142FEC0170E084E0759567958A95B0
:10125000E1F7CE010E94DD08412F602FCE01EBCFD8
:10126000FC0184858823A1F0218532852115310573
:1012700021F4611107C0158606C021303105D9F768
:101280006111F9CF85876585CF010E960C94DC0737
:10129000089590E080E008954F925F926F927F9260
:1012A0008F929F92AF92BF92EF92FF920F931F93F4
:1012B000CF93DF93EC01062FF42EE22E8B85888BE3
:1012C00010928F0310928E031092610310926003AC
:1012D0000E9417078BED95E090935F0380935E0368
:1012E0008CED95E090935D0380935C0318890E94D8
:1012F000F3034B015C0180918803811164C081E09C
:1013000080938803809387039FEF909386031092C6
:101310008503109284038093830380918303110FCC
:10132000182B1093830380918203813009F09DC0B4
:10133000109282030E94F3034B015C0180918303AE
:101340008093BB0080918A0390918B03A0918C03C2
:10135000B0918D03892B8A2B8B2BA1F00E94F30374
:1013600040908A0350908B0360908C0370908D03A3
:10137000681979098A099B0946165706680679068D
:1013800008F442C08091BC0083FDD8CF85EC8093E7
:10139000BC000E94F3034B015C0180918803813003
:1013A00009F465C080918503811183C08091850314
:1013B000E2E6F3E0A0E9B3E090E0981751F1219163
:1013C0002D939F5FFACF80918A0390918B03A09118
:1013D0008C03B0918D03892B8A2B8B2B09F48BCF37
:1013E0000E94F30340908A0350908B0360908C031B
:1013F00070908D03681979098A099B09461657066A
:101400006806790608F077CF809189030E94350736
:1014100080E010928F0380938E0391E0811101C0D0
:1014200090E0998B86E195E00E9466078E87898916
:10143000882339F01F861C8260E0CE010E960E9440
:10144000DC072E2D4F2D602FCE01DF91CF911F9104
:101450000F91FF90EF90BF90AF909F908F907F90F3
:101460006F905F904F900C946A0685EE90CF8091BC
:101470008A0390918B03A0918C03B0918D03892BEB
:101480008A2B8B2B09F489CF0E94F30340908A03A7
:1014900050908B0360908C0370908D0368197909CC
:1014A0008A099B09461657066806790608F075CF23
:1014B000ABCF81E07DCFFB0101900020E9F73197B0
:1014C000AF01461B570BDC01ED91FC910280F381CB
:1014D000E02D19948F929F92AF92BF92CF92DF929C
:1014E000EF92FF920F931F93CF93DF93CDB7DEB7A9
:1014F000A1970FB6F894DEBF0FBECDBF6C01990F58
:10150000EE08FF08F7FE4BC06DE28CED93E00E9401
:101510006A028C0122273327A9012C193D094E09A3
:101520005F0919A2CE0181967C019AE0892E912C47
:10153000A12CB12CCA01B901A50194010E94621627
:10154000605DF70162937F01211531054105510569
:1015500089F790E080E0309729F0BF018CED93E0AF
:101560000E945B0A080F191F62E872E08CED93E09D
:101570000E945B0A800F911FA1960FB6F894DEBF00
:101580000FBECDBFDF91CF911F910F91FF90EF90D4
:10159000DF90CF90BF90AF909F908F900895A7015C
:1015A000960119A28E010F5D1F4F8AE0C82ED12C23
:1015B000E12CF12CCA01B901A70196010E94621623
:1015C000605DF80162938F012115310541055105D8
:1015D00089F7309739F0BF018CED93E00E945B0AE8
:1015E0008C01C2CF10E000E0BFCFBC0182E295E0E9
:1015F0000C945B0A80913A0290913B0282309105F3
:10160000C9F12CF4009759F0019781F008958330C7
:10161000910509F44AC0049709F46AC0089581E06D
:1016200090E090933B0280933A02089582E295E025
:101630000E94620660E080E00E94F00585E892E08A
:101640000E94F50A61E080E00E94F00586E992E0E0
:101650000E94F50A62E080E00E94F00586EA92E0CE
:101660000E94F50A63E080E00E94F00583EB92E0BF
:101670000C94F50A82E295E00E94620660E080E048
:101680000E94F00585E892E00E94F50A61E080E0A2
:101690000E94F00588E992E00E94F50A62E080E08D
:1016A0000E94F00584EA92E0DBCF82E295E00E949E
:1016B000620660E080E00E94F00585E892E00E940A
:1016C000F50A61E080E00E94F00588E992E00E945E
:1016D000F50A62E080E00E94F00586EA92E00E944E
:1016E000F50A63E080E00E94F00581EB92E0C0CF54
:1016F00083E090E096CF0E94C5180F931F93CF937D
:10170000DF93EC0188819981009759F02A813B8110
:101710002617370730F081E0DF91CF911F910F91AD
:1017200008958B016F5F7F4F0E94E417009759F077
:10173000998388831B830A832C813D81232B59F74E
:10174000FC011082E8CF80E0E7CFCF93DF93EC017C
:1017500088819981009711F00E945B171982188285
:101760001D821C821B821A82DF91CF9108950F93F4
:101770001F93CF93DF93EC010C811D81075F1F4FF7
:10178000B8010E947D0B882391F0288139818C81DA
:101790009D816CEB72E0820F931F0E94D3181D8312
:1017A0000C83CE01DF91CF911F910F910895CE014F
:1017B0000E94A50BF6CFEF92FF920F931F93CF934A
:1017C000DF93EC01198218821B821A821D821C820F
:1017D0008617970719F1FB01008111810115110589
:1017E000E9F0E480F580B7010E947D0B811109C00A
:1017F000CE01DF91CF911F910F91FF90EF900C944C
:10180000A50BFD82EC82B80188819981DF91CF918F
:101810001F910F91FF90EF900C94D318DF91CF910F
:101820001F910F91FF90EF900895CF92DF92EF926A
:10183000FF920F931F93CF93DF93CDB7DEB76297DD
:101840000FB6F894DEBF0FBECDBF8C01CB01F801FF
:101850001182108213821282158214824AE09E0144
:101860002F5F3F4F6901B9010E941916F6010190DF
:101870000020E9F731977F01EC18FD08B701C80196
:101880000E947D0B811112C0C8010E94A50B6296B7
:101890000FB6F894DEBF0FBECDBFDF91CF911F9181
:1018A0000F91FF90EF90DF90CF900895F801F582AF
:1018B000E482B601808191810E94D318E8CFFC01B7
:1018C00080819181009711F00C945B17089585ED4C
:1018D0008093BC0080918A0390918B03A0918C032C
:1018E000B0918D030796A11DB11D23E0B695A79574
:1018F000979587952A95D1F72091BC0024FD03C0C8
:1019000010928803089540918A0350918B0360914F
:101910008C0370918D03452B462B472B69F3009761
:10192000A105B10541F02AE22A95F1F700C001971F
:10193000A109B109E1CF809189030C9435071F9269
:101940000F920FB60F9211240BB60F922F933F9365
:101950004F935F936F937F938F939F93AF93BF93B7
:10196000EF93FF938CED93E00E944802FF91EF917B
:10197000BF91AF919F918F917F916F915F914F91A7
:101980003F912F910F900BBE0F900FBE0F901F90A5
:1019900018951F920F920FB60F9211240BB60F924B
:1019A0002F938F939F93EF93FF93E091EC03F0912C
:1019B000ED038081E091F203F091F30382FD1DC0FD
:1019C00090818091F5038F5F8F732091F6038217CA
:1019D00041F0E091F503F0E0E452FC4F958F8093E5
:1019E000F503FF91EF919F918F912F910F900BBE77
:1019F0000F900FBE0F901F9018958081F2CF1F920D
:101A00000F920FB60F9211240BB60F922F933F93A4
:101A10004F935F936F937F938F939F93AF93BF93F6
:101A2000EF93FF9389E794E00E944802FF91EF91C2
:101A3000BF91AF919F918F917F916F915F914F91E6
:101A40003F912F910F900BBE0F900FBE0F901F90E4
:101A500018951F920F920FB60F9211240BB60F928A
:101A60002F938F939F93EF93FF93E0918904F091CD
:101A70008A048081E0918F04F091900482FD1DC062
:101A80009081809192048F5F8F73209193048217CD
:101A900041F0E0919204F0E0E758FB4F958F80937E
:101AA0009204FF91EF919F918F912F910F900BBE18
:101AB0000F900FBE0F901F9018958081F2CF1F924C
:101AC0000F920FB60F9211242F933F938F939F93F2
:101AD000AF93BF938091B1039091B203A091B303F0
:101AE000B091B4033091B00323E0230F2D3758F5A4
:101AF0000196A11DB11D2093B0038093B103909373
:101B0000B203A093B303B093B4038091B503909153
:101B1000B603A091B703B091B8030196A11DB11D02
:101B20008093B5039093B603A093B703B093B80323
:101B3000BF91AF919F918F913F912F910F900FBEC9
:101B40000F901F90189526E8230F0296A11DB11D36
:101B5000D2CF1F920F920FB60F9211240BB60F9295
:101B60002F933F934F935F936F937F938F939F93A5
:101B7000AF93BF93EF93FF938091B900887F803636
:101B800009F44DC008F040C0883209F4A9C028F516
:101B9000803109F49DC0C8F4882309F4FBC0883063
:101BA00009F496C0FF91EF91BF91AF919F918F91F2
:101BB0007F916F915F914F913F912F910F900BBE4D
:101BC0000F900FBE0F901F901895883109F488C0B0
:101BD000803241F78093860314C0803409F49DC09D
:101BE00040F48033B9F38833E9F68093860385ECBB
:101BF000B0C0803509F485C0883509F496C08834B2
:101C000089F60E94670CCECF883909F48CC038F56C
:101C1000883729F050F4883611F0803719F683E0C0
:101C2000809388031092390357C0883809F47BC029
:101C3000803919F0803809F0B5CF809139038032AE
:101C400008F071C0E091390381E08E0F8093390371
:101C50008091BB00F0E0E75EFC4F80833DC0803B9D
:101C600039F0E0F4803A09F479C0883A09F09ACF63
:101C700084E0809388031092180310921703E09178
:101C80005E03F0915F0319958091170381110FC0D6
:101C900081E0809317031092F70209C0803C09F499
:101CA000A6CF883C09F4A3CF883B09F07BCFE09115
:101CB000180381E08E0F80931803F0E0E950FD4F88
:101CC00080818093BB00909118038091170329C0F5
:101CD000809183038093BB0085EC8093BC0062CF2E
:101CE0009091850380918403981758F5E0918503BE
:101CF00081E08E0F80938503F0E0EE59FC4F8081E8
:101D0000E9CFE091850381E08E0F80938503809178
:101D1000BB00F0E0EE59FC4F8083909185038091E9
:101D200084039817C8F285E8D8CFE091850381E055
:101D30008E0F809385038091BB00F0E0EE59FC4F3D
:101D400080838091870381115CCF81E0809382033F
:101D500084EA8093BC001092880324CF85EC8093A2
:101D6000BC001092880380913903803230F4E091F6
:101D70003903F0E0E75EFC4F10826091390370E0B8
:101D8000E0915C03F0915D0389E193E01995109275
:101D9000390308CF1092860334CFEF92FF920F934E
:101DA0001F93CF93DF93ECEDF3E01382128288EE62
:101DB00093E0A0E0B0E084839583A683B7832EE40C
:101DC00032E0318320834DEC50E0558744874CEC62
:101DD00050E05787468748EC50E0518B408B49ECE8
:101DE00050E0538B428B4AEC50E0558B448B4EECC9
:101DF00050E0578B468B118E128E138E148EE9E7AE
:101E0000F4E01382128284839583A683B78331839F
:101E1000208325EC30E03587248724EC30E03787B9
:101E2000268720EC30E0318B208B21EC30E0338BA7
:101E3000228B22EC30E0358B248B26EC30E0378B84
:101E4000268B118E128E138E148EE6E1F5E013822E
:101E5000128284839583A683B78380E692E0918380
:101E60008083C5E5D5E01B861A86198218821E8AF2
:101E70001F8A188E198E82E1E82EF12CFF82EE82E5
:101E800087E390E09D878C8788E390E09F878E872B
:101E900089E390E0998B888B8AE390E09B8B8A8B17
:101EA00061E087E30E94C20361E08E850E94C20365
:101EB00061E088890E94C20361E08A890E94C203AE
:101EC0001D8A1C8A04E010E019870887CBE3D5E05F
:101ED0001B861A86198218821E8A1F8A188E198EEE
:101EE000FF82EE828BE390E09D878C878CE390E00D
:101EF0009F878E878DE390E0998B888B8EE390E0AF
:101F00009B8B8A8B61E08BE30E94C20361E08E852C
:101F10000E94C20361E088890E94C20361E08A894D
:101F20000E94C2031D8A1C8A19870887E2E2F5E035
:101F30001382128282E792E091838083108A8FEF6E
:101F400087871686118A80E2838714861586128613
:101F5000118694E0928B92E0938B91E0948B90E1C8
:101F6000958B868B80E4878B80E8808F50E040E003
:101F700063E0CF01DF91CF911F910F91FF90EF9020
:101F80000C94C705CF93DF93CDB7DEB72C970FB670
:101F9000F894DEBF0FBECDBF789484B5826084BD57
:101FA00084B5816084BD85B5826085BD85B581605D
:101FB00085BD80916E00816080936E0010928100DB
:101FC0008091810082608093810080918100816096
:101FD0008093810080918000816080938000809157
:101FE000B10084608093B1008091B00081608093E3
:101FF000B000809191008260809391008091910067
:102000008160809391008091900081608093900026
:102010008091A10082608093A1008091A1008160E5
:102020008093A1008091A00081608093A0008091A6
:102030002101826080932101809121018160809340
:1020400021018091200181608093200180917A009C
:10205000846080937A0080917A00826080937A0015
:1020600080917A00816080937A0080917A00806804
:1020700080937A001092C10020E044E060E182E2A7
:1020800095E00E944C096FEF82E295E00E943009D2
:1020900060E080E00E94F00585E892E00E94F50A89
:1020A00061E087E00E94C20360E08DE00E94C2030D
:1020B00060E08CE00E94C20360E08BE00E94C203FB
:1020C00061E087E30E94C20361E088E30E94C203EB
:1020D00061E089E30E94C20361E08AE00E94C203DA
:1020E00061E08AE30E94C20360E084E30E94C203CD
:1020F00060E085E30E94C20360E085E30E94C203C2
:1021000061E089E00E94C20361E08BE30E94C203A8
:1021100061E08CE30E94C20361E08DE30E94C20390
:1021200061E08EE30E94C20361E082E00E94C2038C
:1021300016E160E0812F0E94C2031F5F1632C9F7CB
:1021400061E0812F0E94C2031F5F1633C9F760E36D
:1021500072E080E00E94360668E272E081E00E9450
:10216000360660E272E082E00E94360668E172E0C4
:1021700083E00E94360660E172E084E00E94360649
:1021800068E072E085E00E94360660E072E086E07A
:102190000E94360689E794E00E949A018CED93E054
:1021A0000E949A0186E10E946B038130910521F41F
:1021B0009093DB038093DA0387E10E946B03813005
:1021C000910521F49093D9038093D80388E10E946C
:1021D0006B038130910521F49093D7038093D6034C
:1021E00089E10E946B038130910521F49093D5031E
:1021F0008093D4038AE10E946B038130910521F41E
:102200009093D3038093D2038BE10E946B038130C0
:10221000910521F49093D1038093D0038CE10E9427
:102220006B038130910521F49093CF038093CE030B
:102230008DE10E946B038130910521F49093CD03D1
:102240008093CC038EE10E946B038130910521F4D1
:102250009093CB038093CA038FE10E946B0381307C
:10226000910521F49093C9038093C80380E20E94F2
:102270006B038130910521F49093C7038093C603CB
:1022800081E20E946B038130910521F49093C50394
:102290008093C40382E20E946B038130910521F494
:1022A0009093C3038093C20383E20E946B03813047
:1022B000910521F49093C1038093C00384E20E94AE
:1022C0006B038130910521F49093BF038093BE038B
:1022D00085E20E946B038130910521F49093BD0348
:1022E0008093BC030E94FA0A812C97E8992E93E907
:1022F000A92E93E0B92E28E2422E512C612C712C8C
:1023000030E1C32ED12C01E010E089E794E00E9477
:102310002802181619069CF589E794E00E94060227
:10232000813309F0A9C120915B0530915C05032E32
:10233000000C440B550BC501B4010E948416CA0160
:10234000B901A30192010E9484162093570530938E
:1023500058054093590550935A0564E070E085E5AF
:1023600095E00E943E0560EA7FE080E090E00E94F8
:1023700018046CEF7FEF85E595E00E943E058CED3B
:1023800093E00E94280218161906BCF48CED93E025
:102390000E9406028093B903813409F09BC161E079
:1023A00086E20E94940368E873E180E090E00E9476
:1023B000180460E086E20E9494038DE00E946B03A3
:1023C000019709F0D4C280913A0290913B020196A4
:1023D00090933B0280933A020E94FA0A64E670E00E
:1023E00080E090E00E9418048DE00E946B03892B2E
:1023F000D9F7D0923902C09238021092BB031092E2
:10240000BA0386E1F82E8F2D0E946B03019791F499
:10241000809138029091390201979093390280930C
:1024200038028091BA039091BB0301969093BB034D
:102430008093BA03F39486E2F812E5CF86E10E9416
:102440006B032091DA033091DB038217930739F095
:10245000232B09F09EC31093DB030093DA0387E17B
:102460000E946B032091D8033091D9038217930700
:1024700039F0232B09F092C31093D9030093D803AA
:1024800088E10E946B032091D6033091D703821715
:10249000930739F0232B09F086C31093D7030093D9
:1024A000D60389E10E946B032091D4033091D503B8
:1024B0008217930739F0232B09F07AC31093D503C1
:1024C0000093D4038AE10E946B032091D2033091E0
:1024D000D3038217930739F0232B09F06EC31093AF
:1024E000D3030093D2038BE10E946B032091D003AE
:1024F0003091D1038217930739F0232B09F062C37F
:102500001093D1030093D0038CE10E946B032091C0
:10251000CE033091CF038217930739F0232B09F0B4
:1025200056C31093CF030093CE038DE10E946B033B
:102530002091CC033091CD038217930739F0232BE0
:1025400009F04AC31093CD030093CC038EE10E949F
:102550006B032091CA033091CB038217930739F0A4
:10256000232B09F03EC31093CB030093CA038FE1E2
:102570000E946B032091C8033091C903821793070F
:1025800039F0232B09F032C31093C9030093C80319
:1025900080E20E946B032091C6033091C70382172B
:1025A000930739F0232B09F026C31093C703009338
:1025B000C60381E20E946B032091C4033091C503DE
:1025C0008217930739F0232B09F01AC31093C50320
:1025D0000093C40382E20E946B032091C2033091F6
:1025E000C3038217930739F0232B09F00EC310930E
:1025F000C3030093C20383E20E946B032091C003D4
:102600003091C1038217930739F0232B09F002C3DD
:102610001093C1030093C00384E20E946B032091D6
:10262000BE033091BF038217930791F0232B09F06B
:10263000F6C26FE48CED93E00E946A0262E872E0F9
:102640008CED93E00E945B0A1093BF030093BE03DE
:1026500085E20E946B032091BC033091BD03821779
:10266000930739F0232B09F0DFC21093BD030093C9
:10267000BC030E94D70249CE803309F080CE20915E
:10268000410530914205032E000C440B550BC5014A
:10269000B4010E948416CA01B901A30192010E94EB
:1026A000841620933D0530933E0540933F0550939B
:1026B000400564E070E08BE395E00E943E0560EA2F
:1026C0007FE080E090E00E9418046CEF7FEF8BE3E6
:1026D00095E053CE823469F461E087E20E9494036E
:1026E00068E873E180E090E00E94180460E087E20F
:1026F00062CE833469F461E088E20E94940368E862
:1027000073E180E090E00E94180460E088E253CE1C
:10271000843469F461E089E20E94940368E873E11B
:1027200080E090E00E94180460E089E244CE8534A5
:1027300069F461E08AE20E94940368E873E180E052
:1027400090E00E94180460E08AE235CE863469F495
:1027500061E08BE20E94940368E873E180E090E01E
:102760000E94180460E08BE226CE873469F461E0B1
:102770008CE20E94940368E873E180E090E00E949C
:10278000180460E08CE217CE883469F461E08DE2D1
:102790000E94940368E873E180E090E00E941804CE
:1027A00060E08DE208CE893469F461E08EE20E9437
:1027B000940368E873E180E090E00E94180460E010
:1027C0008EE2F9CD8A3469F461E08FE20E949403CD
:1027D00068E873E180E090E00E94180460E08FE216
:1027E000EACD8B3469F461E080E30E94940368E8E9
:1027F00073E180E090E00E94180460E080E3DBCDAC
:102800008C3469F461E081E30E94940368E873E129
:1028100080E090E00E94180460E081E3CCCD8D342C
:1028200069F461E082E30E94940368E873E180E068
:1028300090E00E94180460E082E3BDCD8E3469F41C
:1028400061E083E30E94940368E873E180E090E034
:102850000E94180460E083E3AECD8F3469F461E038
:1028600084E30E94940368E873E180E090E00E94B2
:10287000180460E084E39FCD803569F461E085E36E
:102880000E94940368E873E180E090E00E941804DD
:1028900060E085E390CD813519F461E082E08BCD75
:1028A00060E08235D9F38A3509F087CD8091DA036B
:1028B0009091DB030E946A0A8091D8039091D9031A
:1028C0000E946A0A8091D6039091D7030E946A0AF7
:1028D0008091D4039091D5030E946A0A8091D2031B
:1028E0009091D3030E946A0A8091D0039091D10302
:1028F0000E946A0A8091CE039091CF030E946A0AD7
:102900008091CC039091CD030E946A0A8091CA0302
:102910009091CB030E946A0A8091C8039091C903E9
:102920000E946A0A8091C6039091C7030E946A0AB6
:102930008091C4039091C5030E946A0A8091C203EA
:102940009091C3030E946A0A8091C0039091C103D1
:102950000E946A0A8091BE039091BF030E946A0A96
:102960008091BC039091BD030E946A0A26CD8CE041
:102970000E946B030197B9F480913A0290913B0257
:10298000019790933B0280933A020E94FA0A64E610
:1029900070E080E090E00E9418048CE00E946B03DD
:1029A000892BD9F726CD8BE00E946B037C0181E057
:1029B000E816F10409F01DCD80913A0290913B0296
:1029C0008230910509F47BC08330910509F48AC0F7
:1029D000019709F066C082E295E00E946206FF243A
:1029E000F39482E295E00E94620661E08F2D0E94DE
:1029F000F00562E082E295E00E94DD05EE24E394BA
:102A0000EF0C61E08E2D0E94F00563E082E295E01C
:102A10000E94DD0561E08FEF8F0D0E94F00564E0FC
:102A200082E295E00E94DD0568EC70E080E090E0D5
:102A30000E941804FE2C8EE0E812D3CF82E295E0CB
:102A40000E94620660E080E00E94F00586EC92E061
:102A50000E94F50A62E080E00E94F0056091380271
:102A600070913902CE0107960E94150CBE01695F74
:102A70007F4FCE0101960E94DB0BCE0101960E9492
:102A8000B70B0E94EE01CE0101960E945F0CCE01B1
:102A900007960E945F0C60EB74E080E090E00E947B
:102AA00018040E94FA0A64E670E080E090E00E9458
:102AB00018048BE00E946B03892BD9F79ACC82E231
:102AC00095E00E94620660E080E00E94F00587EDDC
:102AD00092E00E94F50A62E080E00E94F00570E05A
:102AE00060E0C0CF82E295E00E946206312C82E273
:102AF00095E00E94620661E08E2D0E94F00562E082
:102B000082E295E00E94DD0561E082E0830D0E9493
:102B1000F00563E082E295E00E94DD0561E0832D2F
:102B20000E94F00564E082E295E00E94DD0583E00A
:102B3000830D61E0E0FC29C00E94F00565E082E2BF
:102B400095E00E94DD0568EC70E080E090E00E9476
:102B500018048FEFE81AF80A33948DE03812C7CFC3
:102B600082E295E00E94620660E080E00E94F0054B
:102B700087EE92E00E94F50A62E080E00E94F00594
:102B80006091BA037091BB036DCF0E94F00566E0BF
:102B9000D6CF1092DB031092DA0361CC1092D903E6
:102BA0001092D8036DCC1092D7031092D60379CC33
:102BB0001092D5031092D40385CC1092D3031092B7
:102BC000D20391CC1092D1031092D0039DCC1092DD
:102BD000CF031092CE03A9CC1092CD031092CC0358
:102BE000B5CC1092CB031092CA03C1CC1092C9038A
:102BF0001092C803CDCC1092C7031092C603D9CC53
:102C00001092C5031092C403E5CC1092C303109236
:102C1000C203F1CC1092C1031092C003FDCC1092FC
:102C2000BF031092BE0314CD1092BD031092BC03DB
:102C300020CDBB274A3031F4992322F4BDE2909590
:102C400081959F4F0C942516BB27FB015527AA277A
:102C5000880F991FAA1FA41710F0A41B8395505129
:102C6000B9F7A05DAA3308F0A95DA193009779F7A1
:102C7000B111B1931192CB010C943E16DC01FC0111
:102C8000672F71917723E1F7329704C07C916D93A0
:102C900070836291AE17BF07C8F3089597FB072EA4
:102CA00016F4009407D077FD09D00E94AB1607FCFC
:102CB00005D03EF4909581959F4F0895709561954C
:102CC0007F4F0895A1E21A2EAA1BBB1BFD010DC068
:102CD000AA1FBB1FEE1FFF1FA217B307E407F507CC
:102CE00020F0A21BB30BE40BF50B661F771F881FA8
:102CF000991F1A9469F760957095809590959B013E
:102D0000AC01BD01CF010895052E97FB1EF4009480
:102D10000E949B1657FD07D00E94621607FC03D045
:102D20004EF40C949B1650954095309521953F4F4D
:102D30004F4F5F4F089590958095709561957F4FA7
:102D40008F4F9F4F0895EE0FFF1F881F8BBF079077
:102D5000F691E02D1994AA1BBB1B51E107C0AA1FD5
:102D6000BB1FA617B70710F0A61BB70B881F991F2C
:102D70005A95A9F780959095BC01CD0108950F93C0
:102D80001F93CF93DF938230910510F482E090E09F
:102D9000E0917105F091720530E020E0B0E0A0E034
:102DA000309799F42115310509F44AC0281B390BD5
:102DB00024303105D8F58A819B816115710589F12F
:102DC000FB0193838283FE0111C040815181028106
:102DD000138148175907E0F04817590799F41097DD
:102DE00061F012960C93129713961C933296CF01B2
:102DF000DF91CF911F910F9108950093710510936A
:102E00007205F4CF2115310551F04217530738F000
:102E1000A901DB019A01BD01DF01F801C1CFEF017A
:102E2000F9CF9093720580937105CDCFFE01E20F2B
:102E3000F31F819391932250310939832883D7CF8F
:102E400020916F0530917005232B41F420913E02B3
:102E500030913F023093700520936F0520913C0222
:102E600030913D022115310541F42DB73EB7409117
:102E7000400250914102241B350BE0916F05F09107
:102E80007005E217F307A0F42E1B3F0B2817390734
:102E900078F0AC014E5F5F4F2417350748F04E0FB6
:102EA0005F1F5093700540936F05819391939FCF5F
:102EB000F0E0E0E09CCFCF93DF930097E9F0FC01D6
:102EC000329713821282A0917105B0917205ED01C3
:102ED00030E020E01097A1F420813181820F931F10
:102EE00020916F05309170052817390709F061C0EE
:102EF000F0937005E0936F05DF91CF910895EA019B
:102F0000CE17DF07E8F54A815B819E014115510527
:102F1000B1F7E901FB83EA8349915991C40FD51FA9
:102F2000EC17FD0761F4808191810296840F951F53
:102F3000E90199838883828193819B838A83F0E06E
:102F4000E0E012968D919C9113970097B9F52D9121
:102F50003C911197CD010296820F931F20916F052E
:102F6000309170052817390739F6309751F51092CE
:102F7000720510927105B0937005A0936F05BCCFD8
:102F8000D383C28340815181840F951FC817D9070D
:102F900061F44E5F5F4F88819981480F591F5183BB
:102FA00040838A819B81938382832115310509F0B7
:102FB000B0CFF0937205E09371059ECFFD01DC0167
:102FC000C0CF13821282D7CF4F925F926F927F92BF
:102FD0008F929F92AF92BF92CF92DF92EF92FF9229
:102FE0000F931F93CF93DF938C01009799F4CB013C
:102FF000DF91CF911F910F91FF90EF90DF90CF90D5
:10300000BF90AF909F908F907F906F905F904F9008
:103010000C94BF16FC01E60FF71F9C0122503109EA
:10302000E217F30708F4AEC0D901CD91DC911197F6
:10303000C617D70720F1C530D10578F0CE01049727
:103040008617970750F0C61BD70B2297C193D193D1
:103050006D937C93CF010E945B17C801DF91CF91E4
:103060001F910F91FF90EF90DF90CF90BF90AF90A6
:103070009F908F907F906F905F904F9008955B012D
:10308000AC1ABD0A4C018C0E9D1EA0917105B09129
:103090007205512C412CF12CE12C109731F58091C7
:1030A0006F05909170058815990509F05CC046166A
:1030B000570608F058C080913C0290913D0200975D
:1030C00041F48DB79EB74091400250914102841B5C
:1030D000950BE817F90708F055C0F0937005E093D9
:1030E0006F05F90171836083B8CF8D919C91119721
:1030F00012966C90129713967C901397A815B905A9
:1031000059F56C0142E0C40ED11CCA14DB0420F155
:10311000AC014A195B09DA011296159780F06282B8
:10312000738251834083D9016D937C93E114F10440
:1031300071F0D7011396FC93EE9312978ECF2296DF
:103140008C0F9D1FF90191838083F301EFCFF093E2
:103150007205E093710581CF4816590608F42C01D9
:103160007D01D3019ACFCB010E94BF167C0100974D
:1031700049F0AE01B8010E94CA18C8010E945B174D
:1031800087016BCF10E000E068CF81E090E0F89419
:103190000C94DA18FB01DC0102C001900D92415041
:1031A0005040D8F70895FB01DC0101900D920020FA
:0831B000E1F70895F894FFCF48
:1031B8000E1915130E00000000000E1915130E004D
:1031C800000107070F0F020100101E1D1F1F081026
:1031D8001F1C1C1F1F1F111100000E1F1F0A0000BB
:1031E8000000000E1F1F0A001000010000007305F8
:1031F80080000040145400401050000000006A0293
:10320800C101F701B702280206021A0200000000F5
:10321800AD07800749095607790766075707000071
:103228000000DD05C1014909EF064C09C705300951
:1032380011090D0A004D656E7520496E666F726D35
:103248006163696F6E003E20446973706F6E6962D6
:103258006C6573003E2052657365727661646F73A6
:10326800003E204F63757061646F73002070617257
:103278007175656F7300546F74616C206469737045
:103288006F6E69626C6500546F74616C207265734F
:1032980065727661646F00546F74616C206F63753A
:0632A8007061646F00007C
:00000001FF
