:100000000C9447010C9478010C9478010C947801BD
:100010000C9478010C9478010C9478010C9478017C
:100020000C9478010C9478010C9478010C9478016C
:100030000C9478010C9478010C9478010C9478015C
:100040000C9478010C9478010C9478010C9478014C
:100050000C9478010C9478010C9478010C943C0970
:100060000C9478010C9478010C9478010C9478012C
:100070000C9478010C9478010C9478010C9478011C
:100080000C9478010C9478010C9478010C9478010C
:100090000C9478010C9478010C9478010C948609E6
:1000A0000C9478010C9478010C9478010C947801EC
:1000B0000C9478010C9478010C9478010C947801DC
:1000C0000C9478010C9478010C9478010C947801CC
:1000D0000C9478010C9478010C9478010C947801BC
:1000E0000C9478010C94F7010C9495040C941E0464
:1000F0000C94AF040C94F3010C94D8010C940902F5
:100100000C94AA0A0C94DC010C945F060C94F60281
:100110000C9486040C940E020C94D4010C94DC0410
:100120000C94A8040C9413020C94ED010C940C0391
:100130000C9405020C94E9010C94FB010C940F0241
:100140000C9440060C940A030C940B030C94F507D2
:100150000C9478060C94CE010C9401020C947A0154
:100160000C94E3010C94E0010C9485040000210040
:10017000240027002A002D00300033000101000078
:10018000040107010A0100002200250028002B00BD
:100190002E003100340002010000050108010B01AE
:1001A000000020002300260029002C002F00320030
:1001B0000001000003010601090105050505070509
:1001C00008080808020202020A0A080804040404D3
:1001D00001010101010101010303030303030303FF
:1001E000040707070C0C0C0C0C0C0C0C020202028E
:1001F00006060606060606060B0B0B0B0B0B0B0B77
:100200000102102020080810204010204080020128
:10021000020108040201010204081020408080400D
:10022000201008040201800402018040201008040C
:1002300002010804020101020408102040800102AA
:1002400004081020408000000A0B02090C0D0E0863
:10025000070304010000000000000000000000008F
:10026000000000000000000000000000000000008E
:10027000000012111000000000000000000000004B
:10028000000000000000000000000000AA0A112485
:100290001FBECFEFD1E2DEBFCDBF00E00CBF23E039
:1002A000A6EBB2E001C01D92AC3BB207E1F712E051
:1002B000A0E0B2E0EEEEFDE100E00BBF02C007906F
:1002C0000D92A63BB107D9F711E0C7E4D1E000E0F9
:1002D00006C021970109802FFE010E94D20CC6346E
:1002E000D10780E00807A9F70E94180B0C94F50EBF
:1002F0000C940000AF92BF92CF92DF92EF92FF92E8
:100300000F931F93CF93DF936C017B018B01040F3D
:10031000151FEB015E01AE18BF08C017D10759F0D9
:100320006991D601ED91FC910190F081E02DC6011B
:100330001995892B79F7C501DF91CF911F910F9105
:10034000FF90EF90DF90CF90BF90AF900895FC01A9
:10035000448155816081718185E893E00C947A0134
:100360008150823108F05AC0E82FF0E08827E45429
:10037000FE4F8F4F0C94D20CDC01E001CE01D40172
:10038000D8010E02E301E901ED01F301F701FB01E0
:10039000010205020E0209020F0213028091800081
:1003A0008F77809380000895809180008F7DF9CFB2
:1003B00080918000877FF5CF84B58F7784BD0895C5
:1003C00084B58F7DFBCF8091B0008F778093B00094
:1003D00008958091B0008F7DF9CF809190008F7744
:1003E000809390000895809190008F7DF9CF809147
:1003F0009000877FF5CF8091A0008F778093A00039
:1004000008958091A0008F7DF9CF8091A000877F13
:10041000F5CF809120018F778093200108958091FE
:1004200020018F7DF9CF80912001877FF5CFCF9379
:10043000DF93282F30E0F901EA5BFD4F8491F90149
:10044000E050FE4FD491F901E654FE4FC491CC2305
:10045000A1F081110E94B001EC2FF0E0EE0FFF1F20
:10046000E056FE4FA591B491EC91ED2381E090E030
:1004700009F480E0DF91CF91089580E090E0FACF19
:100480001F93CF93DF93282F30E0F901EA5BFD4FF4
:100490008491F901E050FE4FD491F901E654FE4FEA
:1004A000C491CC23A9F0162F81110E94B001EC2F2A
:1004B000F0E0EE0FFF1FEA57FE4FA591B4918FB702
:1004C000F894EC91111108C0D095DE23DC938FBF16
:1004D000DF91CF911F910895DE2BF8CFCF93DF935B
:1004E00090E0FC01E050FE4F249186549E4FFC01A9
:1004F00084918823D1F090E0880F991FFC01E45982
:10050000FE4FA591B491FC01EA57FE4FC591D491DD
:1005100061110EC09FB7F8948C91E22FE0958E2365
:100520008C932881E223E8839FBFDF91CF910895C8
:100530008FB7F894EC91E22BEC938FBFF6CF3FB7D7
:10054000F8948091750390917603A0917703B09110
:10055000780326B5A89B05C02F3F19F00196A11D71
:10056000B11D3FBFBA2FA92F982F8827BC01CD01FD
:10057000620F711D811D911D42E0660F771F881F5C
:10058000991F4A95D1F708958F929F92AF92BF928B
:10059000CF92DF92EF92FF924B015C010E949F028B
:1005A0006B017C010E949F026C197D098E099F09D5
:1005B000683E734081059105A8F321E0821A9108F5
:1005C000A108B10888EEC80E83E0D81EE11CF11C1A
:1005D00081149104A104B10429F7FF90EF90DF90FA
:1005E000CF90BF90AF909F908F90089521E001C071
:1005F000220F6A95EAF7DC011C962C931C971A9639
:100600005C934E931997ED91FC910484F585E02D50
:1006100060E0199408950895DC01ED91FC91068441
:10062000F785E02D41E0199581E090E00895DC0127
:10063000ED91FC910684F785E02D40E019940F932D
:100640001F93CF93DF9300D000D01F921F92CDB79E
:10065000DEB7009118021091190220911A02309110
:100660001B020D831E832F83388700911C0210917B
:100670001D0220911E0230911F0209831A832B83D1
:100680003C8390918C03691710F06FEF690F262F50
:1006900030E040918D032C0F3D1FF901403199F45A
:1006A000943089F46181680F606885E893E028964A
:1006B0000FB6F894DEBF0FBECDBFDF91CF911F9173
:1006C0000F910C9417036581EECFEF92FF920F9379
:1006D0001F93CF93DF938B0198E0899FB001112482
:1006E000606485E893E00E94170383E790E0019738
:1006F000F1F7E801085F1F4F8BE9E82EF12C6991B3
:1007000085E893E00E940C03C7010197F1F7C01739
:10071000D107A9F7DF91CF911F910F91FF90EF9033
:10072000089561E00E9417038BE39FE10197F1F7C1
:1007300008950F931F93CF93DF93EC01423018F08D
:100740008C8188608C834F836887222329F0413015
:1007500019F48C8184608C8364E670E080E090E022
:100760000E94C4026C8164FD50C0E881F981068456
:10077000F785E02D42E063E0CE0119950BE416E425
:10078000C8010197F1F7E881F9810684F785E02D2A
:1007900042E063E0CE011995C8010197F1F7E881C5
:1007A000F9810684F785E02D42E063E0CE011995DA
:1007B00083E592E00197F1F7E881F9810684F785F6
:1007C000E02D42E062E0CE0119956C816062CE01BD
:1007D0000E94170384E08D836CE0CE010E94170312
:1007E000CE010E94910382E08E8366E0CE010E94DA
:1007F0001703E881F9810484F585E02D6FEFCE01C0
:10080000DF91CF911F910F9119946062CE010E94E8
:1008100017038BE496E40197F1F76C816062CE01D7
:100820000E94170383E592E00197F1F76C81606203
:10083000CE010E941703C9CF08950895089520910D
:10084000D702260F3327331F21323105ECF42091D4
:100850004803FC0190E080E0243069F082E00895D4
:10086000A091D7022191AC0149545D4FA40FB52F3F
:10087000B11D2C930196861798F38091D702680FCB
:100880006093D70280E0089581E0089510924803B4
:1008900081E0809347031092420361E084E10E946B
:1008A000400261E085E10E944002E9EBF0E08081D6
:1008B0008E7F808380818D7F808388E48093B800E1
:1008C00085E48093BC000895CF93DF9391E09093EB
:1008D000B6028823B9F0C091B800D091BA008091D7
:1008E000BC008A7B8093BC0060E084E10E944002EF
:1008F00060E085E10E9440020E944604D093BA0065
:10090000C093B800DF91CF9108950895E0914F030F
:1009100080914E03E81730F4F0E0E05BFC4F8081FB
:1009200090E008958FEF9FEF089590914F0380918D
:100930004E032FEF3FEF981748F4E92FF0E0E05B0C
:10094000FC4F208130E09F5F90934F03C9010895D1
:1009500080914E0390914F03891B990B0895CF927C
:10096000DF92EF92FF920F931F93CF93DF937C015F
:10097000CB018A012091FA02222389F0EB016B015D
:10098000C40ED51ECC15DD0569F06991D701ED9136
:10099000FC910190F081E02DC7011995F3CF642FF0
:1009A0000E941F04C801DF91CF911F910F91FF900A
:1009B000EF90DF90CF900895CF93DF931F92CDB744
:1009C000DEB769832091FA022223F9F020912003F7
:1009D000203258F021E030E0FC013383228390E0A4
:1009E00080E00F90DF91CF91089580912103E82F4F
:1009F000F0E0E550FD4F998190838F5F8093210354
:100A00008093200381E090E0ECCF61E0CE0101967D
:100A10000E941F04F7CFCF92DF92EF92FF920F93C5
:100A20001F93CF93DF93FC012381222309F4F1C0AC
:100A3000262F6181609562236083C28181E080936B
:100A4000FA02C0931B03109221031092200389E73E
:100A500093E00E94DC04D091200321E0D13208F021
:100A60009AC00E949F026B017C0180914803811112
:100A70006CC082E08093480381E0809347038FEF4E
:100A80008093460310924503D0934403ABEFB2E04A
:100A9000E2E2F3E080E0D81394C010924303809127
:100AA0004303CC0FC82BC093430380914203813092
:100AB00009F08BC0109242030E949F026B017C01DF
:100AC000809143038093BB0080914A0390914B0334
:100AD000A0914C03B0914D03892B8A2B8B2BA1F055
:100AE0000E949F0200914A0310914B0320914C03F6
:100AF00030914D036C197D098E099F090617170760
:100B00002807390708F442C08091BC0083FDD8CF84
:100B100085EC8093BC000E949F026B017C01809158
:100B20004803823009F453C08091460320E08F3F90
:100B300091F18091460322E0803269F18091460371
:100B400024E0803341F523E026C080914A03909150
:100B50004B03A0914C03B0914D03892B8A2B8B2B17
:100B600009F483CF0E949F0200914A0310914B0326
:100B700020914C0330914D036C197D098E099F091A
:100B8000061717072807390708F06FCF8091490328
:100B90000E94640425E01092210310922003109219
:100BA000FA0230E081E090E0232B11F090E080E049
:100BB000DF91CF911F910F91FF90EF90DF90CF9039
:100BC00008959D9191938F5F66CF85EEA2CF80911E
:100BD0004A0390914B03A0914C03B0914D03892B94
:100BE0008A2B8B2B09F49BCF0E949F0200914A0312
:100BF00010914B0320914C0330914D036C197D09EA
:100C00008E099F09061717072807390708F087CFAD
:100C1000BDCF30E020E0C6CFEF92FF920F931F933D
:100C2000CF938C01FC0184E0C0E0262F30E060FF10
:100C300002C09589C92BB901759567958150319688
:100C40008111F3CF413011F4F8014489F801658531
:100C5000C62BC42B7801FEE0EF0EF11CF80162896F
:100C60006C2BC7010E940B05F801628960956C230B
:100C7000C701CF911F910F91FF90EF900C940B053E
:100C80000F931F93CF93DF93062F0F70423041F4E1
:100C900040E0602FDF91CF911F910F910C940C06D3
:100CA000142FEC0170E084E0759567958A95E1F763
:100CB000CE010E940C06412F602FCE01EBCFFC012C
:100CC00084858823A1F0218532852115310521F401
:100CD000611107C0158606C021303105D9F76111B1
:100CE000F9CF85876585CF010E960C940B05089585
:100CF00090E080E00895FC0101900020E9F7319731
:100D0000AF01481B590BBC0185E893E00C947A01B4
:100D1000809110029091110282309105C9F12CF45A
:100D2000009759F0019781F008958330910509F4F7
:100D30004AC0049709F46AC0089581E090E0909356
:100D4000110280931002089585E893E00E949103B8
:100D500060E080E00E941F0386E492E00E947B0630
:100D600061E080E00E941F0387E592E00E947B061D
:100D700062E080E00E941F0387E692E00E947B060B
:100D800063E080E00E941F0384E792E00C947B06FE
:100D900085E893E00E94910360E080E00E941F03D9
:100DA00086E492E00E947B0661E080E00E941F03DF
:100DB00089E592E00E947B0662E080E00E941F03CA
:100DC00085E692E0DBCF85E893E00E94910360E046
:100DD00080E00E941F0386E492E00E947B0661E0AF
:100DE00080E00E941F0389E592E00E947B0662E09A
:100DF00080E00E941F0387E692E00E947B0663E08A
:100E000080E00E941F0382E792E0C0CF83E090E081
:100E100096CF0E94E00E0F931F93CF93DF93EC01C8
:100E200088819981009759F02A813B8126173707DD
:100E300030F081E0DF91CF911F910F9108958B01E8
:100E40006F5F7F4F0E94FF0D009759F09983888351
:100E50001B830A832C813D81232B59F7FC011082CF
:100E6000E8CF80E0E7CFCF93DF93EC0188819981D1
:100E7000009711F00E94760D198218821D821C8243
:100E80001B821A82DF91CF9108950F931F93CF9306
:100E9000DF93EC010C811D81075F1F4FB8010E9499
:100EA0000B07882391F0288139818C819D816DE722
:100EB00072E0820F931F0E94EE0E1D830C83CE0101
:100EC000DF91CF911F910F910895CE010E943307BA
:100ED000F6CFCF92DF92EF92FF920F931F93CF93B3
:100EE000DF93CDB7DEB762970FB6F894DEBF0FBEC3
:100EF000CDBF8C01FC0111821082138212821582F7
:100F000014824AE0CE0101966C01BC0180E290E0BF
:100F10000E949D0CF60101900020E9F731977F01B6
:100F2000EC18FD08B701C8010E940B07811112C01F
:100F3000C8010E94330762960FB6F894DEBF0FBE59
:100F4000CDBFDF91CF911F910F91FF90EF90DF9078
:100F5000CF900895F801F582E482B60180819181F5
:100F60000E94EE0EE8CFFC0180819181009711F084
:100F70000C94760D0895EF92FF920F931F93CF93E9
:100F8000DF93EC01198218821B821A821D821C8257
:100F90008617970719F1FB010081118101151105D1
:100FA000E9F0E480F580B7010E940B07811109C0C8
:100FB000CE01DF91CF911F910F91FF90EF900C9494
:100FC0003307FD82EC82B80188819981DF91CF914E
:100FD0001F910F91FF90EF900C94EE0EDF91CF9147
:100FE0001F910F91FF90EF9008954F925F926F9233
:100FF0007F928F929F92AF92BF92EF92FF920F9348
:101000001F93CF93DF93EC01062FF42EE22E8B85F6
:10101000888B10924F0310924E031092210310926E
:1010200020030E9446048AE093E090931F0380937C
:101030001E038BE093E090931D0380931C0318899B
:101040000E949F024B015C0180914803811164C0A2
:1010500081E080934803809347039FEF909346037A
:1010600010924503109244038093430380914303FD
:10107000110F182B1093430380914203813009F024
:101080009DC0109242030E949F024B015C0180911F
:1010900043038093BB0080914A0390914B03A0913E
:1010A0004C03B0914D03892B8A2B8B2BA1F00E940E
:1010B0009F0240904A0350904B0360904C03709005
:1010C0004D03681979098A099B094616570668066F
:1010D000790608F442C08091BC0083FDD8CF85EC2E
:1010E0008093BC000E949F024B015C0180914803E9
:1010F000813009F465C080914503811183C08091DE
:101100004503E2E2F3E0A0E5B3E090E0981751F187
:1011100021912D939F5FFACF80914A0390914B03C9
:10112000A0914C03B0914D03892B8A2B8B2B09F492
:101130008BCF0E949F0240904A0350904B036090D7
:101140004C0370904D03681979098A099B0946166A
:1011500057066806790608F077CF809149030E9408
:10116000640480E010924F0380934E0391E081115C
:1011700001C090E0998B89E793E00E9495048E87E7
:101180008989882339F01F861C8260E0CE010E9683
:101190000E940B052E2D4F2D602FCE01DF91CF9198
:1011A0001F910F91FF90EF90BF90AF909F908F9005
:1011B0007F906F905F904F900C94990385EE90CF45
:1011C00080914A0390914B03A0914C03B0914D0341
:1011D000892B8A2B8B2B09F489CF0E949F02409088
:1011E0004A0350904B0360904C0370904D03681974
:1011F00079098A099B09461657066806790608F098
:1012000075CFABCF81E07DCF85ED8093BC00809121
:101210004A0390914B03A0914C03B0914D03079664
:10122000A11DB11D23E0B695A795979587952A95A1
:10123000D1F72091BC0024FD03C01092480308950B
:1012400040914A0350914B0360914C0370914D03C0
:10125000452B462B472B69F30097A105B10541F0BB
:101260002AE22A95F1F700C00197A109B109E1CF5F
:10127000809149030C9464041F920F920FB60F9251
:1012800011242F933F938F939F93AF93BF9380919C
:10129000710390917203A0917303B0917403309124
:1012A000700323E0230F2D3758F50196A11DB11DC2
:1012B000209370038093710390937203A093730340
:1012C000B09374038091750390917603A091770396
:1012D000B09178030196A11DB11D80937503909381
:1012E0007603A0937703B0937803BF91AF919F915A
:1012F0008F913F912F910F900FBE0F901F901895D7
:1013000026E8230F0296A11DB11DD2CF1F920F9286
:101310000FB60F9211240BB60F922F933F934F935A
:101320005F936F937F938F939F93AF93BF93EF934D
:10133000FF938091B900887F803609F44DC008F092
:1013400040C0883209F4A9C028F5803109F49DC055
:10135000C8F4882309F4FBC0883009F496C0FF91D3
:10136000EF91BF91AF919F918F917F916F915F911D
:101370004F913F912F910F900BBE0F900FBE0F908A
:101380001F901895883109F488C0803241F7809306
:10139000460314C0803409F49DC040F48033B9F38F
:1013A0008833E9F68093460385ECB0C0803509F4B4
:1013B00085C0883509F496C0883489F60E940409EE
:1013C000CECF883909F48CC038F5883729F050F42D
:1013D000883611F0803719F683E080934803109225
:1013E000F90257C0883809F47BC0803919F0803879
:1013F00009F0B5CF8091F902803208F071C0E09118
:10140000F90281E08E0F8093F9028091BB00F0E039
:10141000E752FD4F80833DC0803B39F0E0F4803AD5
:1014200009F479C0883A09F09ACF84E080934803A0
:101430001092D8021092D702E0911E03F0911F0380
:1014400019958091D70281110FC081E08093D70256
:101450001092B70209C0803C09F4A6CF883C09F479
:10146000A3CF883B09F07BCFE091D80281E08E0FBB
:101470008093D802F0E0E954FD4F80818093BB0057
:101480009091D8028091D70229C080914303809324
:10149000BB0085EC8093BC0062CF909145038091A6
:1014A0004403981758F5E091450381E08E0F80932F
:1014B0004503F0E0EE5DFC4F8081E9CFE09145030C
:1014C00081E08E0F809345038091BB00F0E0EE5DDC
:1014D000FC4F808390914503809144039817C8F294
:1014E00085E8D8CFE091450381E08E0F80934503D6
:1014F0008091BB00F0E0EE5DFC4F8083809147035C
:1015000081115CCF81E08093420384EA8093BC0028
:101510001092480324CF85EC8093BC0010924803BE
:101520008091F902803230F4E091F902F0E0E75264
:10153000FD4F10826091F90270E0E0911C03F09180
:101540001D0389ED92E019951092F90208CF1092CF
:10155000460334CFCF93DF93E9E7F3E0138212829F
:1015600088EE93E0A0E0B0E084839583A683B78300
:1015700084E292E091838083CEE9D3E01B861A86D1
:10158000198218821E8A1F8A188E198E85E090E0B3
:101590009F838E8387E390E09D878C8788E390E02C
:1015A0009F878E8789E390E0998B888B8AE390E010
:1015B0009B8B8A8B61E087E30E946E0261E08E85DF
:1015C0000E946E0261E088890E946E0261E08A8951
:1015D0000E946E021D8A1C8A84E090E099878887A9
:1015E000E5E8F3E01382128286E392E09183808340
:1015F000108A8FEF87871686118A80E28387148688
:1016000015861286118694E0928B92E0938B91E07E
:10161000948B90E1958B868B80E4878B80E8808F1C
:1016200050E040E063E0CF01DF91CF910C94F602EF
:10163000CF93DF93CDB7DEB72C970FB6F894DEBF0C
:101640000FBECDBF789484B5826084BD84B58160BF
:1016500084BD85B5826085BD85B5816085BD80917D
:101660006E00816080936E001092810080918100F5
:1016700082608093810080918100816080938100ED
:10168000809180008160809380008091B1008460AF
:101690008093B1008091B00081608093B000809110
:1016A000910082608093910080919100816080938D
:1016B0009100809190008160809390008091A100C2
:1016C00082608093A1008091A10081608093A1003D
:1016D0008091A00081608093A000809121018260B0
:1016E000809321018091210181608093210180916B
:1016F000200181608093200180917A008460809332
:101700007A0080917A00826080937A0080917A00DA
:10171000816080937A0080917A00806880937A005B
:101720001092C10020E044E060E185E893E00E946F
:10173000F5076FEF85E893E00E945F0660E080E0C8
:101740000E941F0386E492E00E947B0660E08DE029
:101750000E946E0260E08CE00E946E0260E08BE00E
:101760000E946E0261E087E30E946E0261E088E3FE
:101770000E946E0261E089E30E946E0261E08AE3EA
:101780000E946E0260E084E30E946E0260E085E3E6
:101790000E946E0268E072E080E00E94650360E0F3
:1017A00072E081E00E9465030E94880680E0E82ED6
:1017B00080E0F82E8DE00E9417020197E1F48091FD
:1017C00010029091110201969093110280931002E1
:1017D0000E94880664E670E080E090E00E94C40207
:1017E0008DE00E941702892BD9F7E114F10411F35F
:1017F0000E940000DFCF8CE00E9417020197B9F42D
:1018000080911002909111020197909311028093A0
:1018100010020E94880664E670E080E090E00E947A
:10182000C4028CE00E941702892BD9F7DECF8BE02F
:101830000E9417020197C9F600911002109111023F
:101840000230110509F463C00330110509F46AC0C0
:101850000130110509F04DC085E893E00E94910325
:1018600085E893E00E94910361E0802F0E941F03AE
:1018700060E000FD61E085E893E00E940C0368EC05
:1018800070E080E090E00E94C4020F5F1F4F0F30B5
:10189000110531F785E893E00E94910360E080E054
:1018A0000E941F0387E892E00E947B0662E080E0CE
:1018B0000E941F03CE0107960E946907BE01695F5F
:1018C0007F4FCE0101960E94BB07CE0101960E9478
:1018D00045070E94A701CE0101960E94B307CE01E1
:1018E00007960E94B30760EB74E080E090E00E94EE
:1018F000C4020E94880664E670E080E090E00E94E6
:10190000C4028BE00E941702892BD9F76ECF85E8BD
:1019100093E00E94910360E080E00E941F0388E949
:1019200092E0C2CF85E893E00E94910360E080E0FE
:101930000E941F0388EA92E0B7CFBB274A3031F4F8
:10194000992322F4BDE2909581959F4F0C94A90CA8
:10195000BB27FB015527AA27880F991FAA1FA41789
:1019600010F0A41B83955051B9F7A05DAA3308F07D
:10197000A95DA193009779F7B111B1931192CB01B1
:101980000C94C20CDC01FC01672F71917723E1F705
:10199000329704C07C916D9370836291AE17BF073C
:1019A000C8F30895EE0FFF1F881F8BBF0790F691B5
:1019B000E02D19940F931F93CF93DF9382309105FD
:1019C00010F482E090E0E091BA03F091BB0330E0C4
:1019D00020E0B0E0A0E0309799F42115310509F43A
:1019E0004AC0281B390B24303105D8F58A819B81E8
:1019F0006115710589F1FB0193838283FE0111C09A
:101A0000408151810281138148175907E0F048173E
:101A1000590799F4109761F012960C931297139648
:101A20001C933296CF01DF91CF911F910F910895B2
:101A30000093BA031093BB03F4CF2115310551F085
:101A40004217530738F0A901DB019A01BD01DF01FC
:101A5000F801C1CFEF01F9CF9093BB038093BA0394
:101A6000CDCFFE01E20FF31F8193919322503109F4
:101A700039832883D7CF2091B8033091B903232B22
:101A800041F420911402309115023093B903209350
:101A9000B80320911202309113022115310541F44F
:101AA0002DB73EB74091160250911702241B350BFB
:101AB000E091B803F091B903E217F307A0F42E1BED
:101AC0003F0B2817390778F0AC014E5F5F4F2417A2
:101AD000350748F04E0F5F1F5093B9034093B8038A
:101AE000819391939FCFF0E0E0E09CCFCF93DF9381
:101AF0000097E9F0FC01329713821282A091BA0399
:101B0000B091BB03ED0130E020E01097A1F42081FB
:101B10003181820F931F2091B8033091B9032817A8
:101B2000390709F061C0F093B903E093B803DF917E
:101B3000CF910895EA01CE17DF07E8F54A815B816E
:101B40009E0141155105B1F7E901FB83EA834991F3
:101B50005991C40FD51FEC17FD0761F48081918165
:101B60000296840F951FE90199838883828193816E
:101B70009B838A83F0E0E0E012968D919C9113970D
:101B80000097B9F52D913C911197CD010296820FE6
:101B9000931F2091B8033091B9032817390739F6FC
:101BA000309751F51092BB031092BA03B093B9036A
:101BB000A093B803BCCFD383C28340815181840FEB
:101BC000951FC817D90761F44E5F5F4F88819981CF
:101BD000480F591F518340838A819B81938382835D
:101BE0002115310509F0B0CFF093BB03E093BA03A0
:101BF0009ECFFD01DC01C0CF13821282D7CF4F925E
:101C00005F926F927F928F929F92AF92BF92CF928C
:101C1000DF92EF92FF920F931F93CF93DF938C018C
:101C2000009799F4CB01DF91CF911F910F91FF9015
:101C3000EF90DF90CF90BF90AF909F908F907F906C
:101C40006F905F904F900C94DA0CFC01E60FF71F39
:101C50009C0122503109E217F30708F4AEC0D90104
:101C6000CD91DC911197C617D70720F1C530D1056A
:101C700078F0CE0104978617970750F0C61BD70B54
:101C80002297C193D1936D937C93CF010E94760DDF
:101C9000C801DF91CF911F910F91FF90EF90DF90DE
:101CA000CF90BF90AF909F908F907F906F905F90FC
:101CB0004F9008955B01AC1ABD0A4C018C0E9D1E1D
:101CC000A091BA03B091BB03512C412CF12CE12C13
:101CD000109731F58091B8039091B9038815990553
:101CE00009F05CC04616570608F058C080911202F1
:101CF00090911302009741F48DB79EB74091160260
:101D000050911702841B950BE817F90708F055C08E
:101D1000F093B903E093B803F90171836083B8CFFE
:101D20008D919C91119712966C90129713967C90BE
:101D30001397A815B90559F56C0142E0C40ED11CE2
:101D4000CA14DB0420F1AC014A195B09DA011296CE
:101D5000159780F06282738251834083D9016D931D
:101D60007C93E114F10471F0D7011396FC93EE9388
:101D700012978ECF22968C0F9D1FF901918380833D
:101D8000F301EFCFF093BB03E093BA0381CF481682
:101D9000590608F42C017D01D3019ACFCB010E9492
:101DA000DA0C7C01009749F0AE01B8010E94E50E03
:101DB000C8010E94760D87016BCF10E000E068CF6C
:101DC00081E090E0F8940C94F50EFB01DC0102C078
:101DD00001900D9241505040D8F70895FB01DC016D
:0E1DE00001900D920020E1F70895F894FFCFD6
:101DEE0000000E1F1F0A00000000000E1F1F0A0039
:101DFE0001000000BC03800000401454004010504D
:101E0E0000000000DC04AF0478068504A8049504E5
:101E1E008604000000000C037A0178061E04F50704
:101E2E00F6025F0640064D656E7520496E666F724E
:101E3E006D6163696F6E003E20446973706F6E69E9
:101E4E00626C6573003E2052657365727661646FD5
:101E5E0073003E204F63757061646F730020706174
:101E6E00727175656F7300546F74616C2064697361
:101E7E00706F6E69626C6500546F74616C20726570
:101E8E007365727661646F00546F74616C206F635A
:061E9E00757061646F0025
:00000001FF
