:100000000C9453010C9484010C9484010C9484018D
:100010000C9484010C9484010C9484010C9484014C
:100020000C9484010C9484010C9484010C9484013C
:100030000C9484010C9484010C9484010C9484012C
:100040000C9484010C9484010C9484010C9484011C
:100050000C9484010C9484010C9484010C94AF0AD8
:100060000C9484010C9484010C9484010C948401FC
:100070000C9484010C9484010C9484010C948401EC
:100080000C9484010C9484010C9484010C948401DC
:100090000C94790A0C944F0A0C9484010C94F90A7C
:1000A0000C9484010C9484010C9484010C948401BC
:1000B0000C9484010C9484010C9484010C948401AC
:1000C0000C9484010C9484010C9484010C9484019C
:1000D0000C9484010C9484010C9484010C9484018C
:1000E0000C9484010C940E030C94EB020C9499056F
:1000F0000C94E7020C94ED010C94DF010C94BC010C
:100100000C9426030C94A8050C941F040C94220351
:100110000C94BB050C9408090C94E1020C941D0C82
:100120000C9472020C9431050C9421030C948601FA
:100130000C9418030C948B070C9498050C94F30200
:100140000C941C030C9472070C9453070C94F60245
:100150000C941E040C94EF050C94CB010C94250216
:100160000C9400030C941D040C94C2050C940A0317
:100170000C9406030C9414030C94FC020C940904D4
:100180000C94EF0200002100240027002A002D001B
:100190003000330001010000040107010A010000E2
:1001A0002200250028002B002E003100340002011F
:1001B0000000050108010B010000200023002600BB
:1001C00029002C002F00320000010000030106016D
:1001D00009010505050507050808080802020202CD
:1001E0000A0A0808040404040101010101010101D3
:1001F0000303030303030303040707070C0C0C0C9E
:100200000C0C0C0C02020202060606060606060686
:100210000B0B0B0B0B0B0B0B010210202008081013
:100220002040102040800201020108040201010266
:10023000040810204080804020100804020180043F
:10024000020180402010080402010804020101029A
:1002500004081020408001020408102040800000A3
:100260000A0B02090C0D0E08070304010000000030
:10027000000000000000000000000000000000007E
:10028000000000000000000000001211100000003B
:10029000000000000000000000000000000000005E
:1002A000000000001D0C11241FBECFEFD1E2DEBF05
:1002B000CDBF00E00CBF24E0A2EFB2E001C01D9270
:1002C000A13BB207E1F712E0A0E0B2E0E0EBF3E21D
:1002D00000E00BBF02C007900D92A23FB107D9F713
:1002E00011E0C3E5D1E000E006C021970109802FAD
:1002F000FE010E94B30FC235D10780E00807A9F7BD
:100300000E94EC0C0C94D6110C940000AF92BF929A
:10031000CF92DF92EF92FF920F931F93CF93DF93D1
:100320006C017B018B01040F151FEB015E01AE1800
:10033000BF08C017D10759F06991D601ED91FC9122
:100340000190F081E02DC6011995892B79F7C5013F
:10035000DF91CF911F910F91FF90EF90DF90CF90A1
:10036000BF90AF900895FC014481558160817181F7
:1003700080E694E00C948601FC01538D448D252F7A
:1003800030E0842F90E0821B930B541710F0CF962F
:10039000089501970895FC01918D828D981761F061
:1003A000A28DAE0FBF2FB11D5D968C91928D9F5F78
:1003B0009F73928F90E008958FEF9FEF0895FC0157
:1003C000918D828D981731F0828DE80FF11D858D0A
:1003D00090E008958FEF9FEF0895FC01918D228D9D
:1003E000892F90E0805C9F4F821B91098F73992722
:1003F000089587EB93E00E94ED0121E0892B09F439
:1004000020E0822F0895FC01A48DA80FB92FB11D03
:10041000A35ABF4F2C91848D90E001968F7399273A
:10042000848FA689B7892C93A089B1898C91837018
:1004300080648C93938D848D981306C00288F38911
:10044000E02D80818F7D80830895EF92FF920F933E
:100450001F93CF93DF93EC0181E0888F9B8D8C8D70
:1004600098131AC0E889F989808185FF15C09FB764
:10047000F894EE89FF896083E889F9898081837027
:10048000806480839FBF81E090E0DF91CF911F91D6
:100490000F91FF90EF900895F62E0B8D10E00F5FF7
:1004A0001F4F0F731127E02E8C8D8E110CC00FB6CD
:1004B00007FCFACFE889F989808185FFF5CFCE0165
:1004C0000E940302F1CFEB8DEC0FFD2FF11DE35ADB
:1004D000FF4FF0829FB7F8940B8FEA89FB898081E8
:1004E0008062CFCFCF93DF93EC01888D8823B9F062
:1004F000AA89BB89E889F9898C9185FD03C080812F
:1005000086FD0DC00FB607FCF7CF8C9185FFF2CFAB
:10051000808185FFEDCFCE010E940302E9CFDF91FC
:10052000CF91089580E090E0892B49F080E090E041
:10053000892B29F00E94000081110E94000080E0B8
:1005400090E0892B29F00E94F90181110E9400009E
:1005500080E090E0892B49F080E090E0892B29F041
:100560000E94000081110E94000080E090E0892B31
:1005700049F080E090E0892B29F00E940000811171
:100580000C94000008958150823108F05AC0E82F81
:10059000F0E08827E153FD4F8F4F0C94B30FEF022B
:1005A000F302E102E702EB022103F602FC02000380
:1005B00006030A030E031403180321031C0322037A
:1005C0002603809180008F7780938000089580912A
:1005D00080008F7DF9CF80918000877FF5CF84B533
:1005E0008F7784BD089584B58F7DFBCF8091B00057
:1005F0008F778093B00008958091B0008F7DF9CF00
:10060000809190008F778093900008958091900062
:100610008F7DF9CF80919000877FF5CF8091A000EA
:100620008F778093A00008958091A0008F7DF9CFEF
:100630008091A000877FF5CF809120018F778093F4
:1006400020010895809120018F7DF9CF80912001B4
:10065000877FF5CFCF93DF93282F30E0F901E25A5F
:10066000FD4F8491F901E85EFD4FD491F901EE52FE
:10067000FE4FC491CC23A1F081110E94C302EC2F44
:10068000F0E0EE0FFF1FE854FE4FA591B491EC91FE
:10069000ED2381E090E009F480E0DF91CF910895AF
:1006A00080E090E0FACF1F93CF93DF93282F30E0C4
:1006B000F901E25AFD4F8491F901E85EFD4FD491B2
:1006C000F901EE52FE4FC491CC23A9F0162F8111EF
:1006D0000E94C302EC2FF0E0EE0FFF1FE256FE4F28
:1006E000A591B4918FB7F894EC91111108C0D095F1
:1006F000DE23DC938FBFDF91CF911F910895DE2B16
:10070000F8CFCF93DF9390E0FC01E85EFD4F24919A
:100710008E529E4FFC0184918823D1F090E0880F87
:10072000991FFC01EC57FE4FA591B491FC01E256D4
:10073000FE4FC591D49161110EC09FB7F8948C9172
:10074000E22FE0958E238C932881E223E8839FBFDC
:10075000DF91CF9108958FB7F894EC91E22BEC9351
:100760008FBFF6CF3FB7F8948091B1039091B20359
:10077000A091B303B091B40326B5A89B05C02F3F49
:1007800019F00196A11DB11D3FBFBA2FA92F982FB7
:100790008827BC01CD01620F711D811D911D42E0B2
:1007A000660F771F881F991F4A95D1F708958F927A
:1007B0009F92AF92BF92CF92DF92EF92FF924B0146
:1007C0005C010E94B2036B017C010E94B2036C19B0
:1007D0007D098E099F09683E734081059105A8F344
:1007E00021E0821A9108A108B10888EEC80E83E0C2
:1007F000D81EE11CF11C81149104A104B10429F755
:10080000FF90EF90DF90CF90BF90AF909F908F9030
:10081000089521E001C0220F6A95EAF7DC011C96D9
:100820002C931C971A965C934E931997ED91FC911B
:100830000484F585E02D60E0199408950895DC01A5
:10084000ED91FC910684F785E02D41E0199581E05A
:1008500090E00895DC01ED91FC910684F785E02D90
:1008600040E019940F931F93CF93DF9300D000D0F3
:100870001F921F92CDB7DEB7009142021091430242
:1008800020914402309145020D831E832F833887C7
:10089000009146021091470220914802309149028E
:1008A00009831A832B833C8390916704691710F0A6
:1008B0006FEF690F262F30E0409168042C0F3D1F29
:1008C000F901403199F4943089F46181680F6068CE
:1008D00080E694E028960FB6F894DEBF0FBECDBF39
:1008E000DF91CF911F910F910C942A046581EECF77
:1008F000EF92FF920F931F93CF93DF938B0198E0BA
:10090000899FB0011124606480E694E00E942A046B
:1009100083E790E00197F1F7E801085F1F4F8BE94B
:10092000E82EF12C699180E694E00E941F04C70133
:100930000197F1F7C017D107A9F7DF91CF911F9168
:100940000F91FF90EF90089561E00E942A048BE3DD
:100950009FE10197F1F708950F931F93CF93DF93D2
:10096000EC01423018F08C8188608C834F8368875B
:10097000222329F0413019F48C8184608C8364E651
:1009800070E080E090E00E94D7036C8164FD50C06D
:10099000E881F9810684F785E02D42E063E0CE012D
:1009A00019950BE416E4C8010197F1F7E881F98184
:1009B0000684F785E02D42E063E0CE011995C80179
:1009C0000197F1F7E881F9810684F785E02D42E08F
:1009D00063E0CE01199583E592E00197F1F7E88194
:1009E000F9810684F785E02D42E062E0CE01199599
:1009F0006C816062CE010E942A0484E08D836CE0E9
:100A0000CE010E942A04CE010E94A40482E08E83BB
:100A100066E0CE010E942A04E881F9810484F5850C
:100A2000E02D6FEFCE01DF91CF911F910F911994BF
:100A30006062CE010E942A048BE496E40197F1F7EC
:100A40006C816062CE010E942A0483E592E00197E6
:100A5000F1F76C816062CE010E942A04C9CF08952B
:100A60000895089520911303260F3327331F213251
:100A70003105ECF420918403FC0190E080E0243007
:100A800069F082E00895A09113032191AC014D50CB
:100A90005D4FA40FB52FB11D2C930196861798F3C7
:100AA00080911303680F6093130380E0089581E041
:100AB00008951092840381E08093830310927E0353
:100AC00061E084E10E94530361E085E10E945303E9
:100AD000E9EBF0E080818E7F808380818D7F808351
:100AE00088E48093B80085E48093BC000895CF9398
:100AF000DF9391E09093F2028823B9F0C091B8009F
:100B0000D091BA008091BC008A7B8093BC0060E0E9
:100B100084E10E94530360E085E10E9453030E9438
:100B20005905D093BA00C093B800DF91CF910895D2
:100B30000895E0918B0380918A03E81730F4F0E088
:100B4000E457FC4F808190E008958FEF9FEF089568
:100B500090918B0380918A032FEF3FEF981748F411
:100B6000E92FF0E0E457FC4F208130E09F5F909345
:100B70008B03C901089580918A0390918B03891B8F
:100B8000990B0895CF92DF92EF92FF920F931F93EC
:100B9000CF93DF937C01CB018A012091360322237E
:100BA00089F0EB016B01C40ED51ECC15DD0569F093
:100BB0006991D701ED91FC910190F081E02DC70181
:100BC0001995F3CF642F0E943205C801DF91CF91B0
:100BD0001F910F91FF90EF90DF90CF900895CF93EA
:100BE000DF931F92CDB7DEB76983209136032223AE
:100BF000F9F020915C03203258F021E030E0FC0154
:100C00003383228390E080E00F90DF91CF910895AD
:100C100080915D03E82FF0E0E95CFC4F99819083BF
:100C20008F5F80935D0380935C0381E090E0ECCF65
:100C300061E0CE0101960E943205F7CFCF92DF929C
:100C4000EF92FF920F931F93CF93DF93FC012381C9
:100C5000222309F4F1C0262F61816095622360830D
:100C6000C28181E080933603C093570310925D03E5
:100C700010925C0384E594E00E94EF05D0915C0340
:100C800021E0D13208F09AC00E94B2036B017C01CE
:100C90008091840381116CC082E08093840381E0A1
:100CA000809383038FEF8093820310928103D0930C
:100CB0008003A7E3B3E0EEE5F3E080E0D81394C04F
:100CC00010927F0380917F03CC0FC82BC0937F03CA
:100CD00080917E03813009F08BC010927E030E94C8
:100CE000B2036B017C0180917F038093BB008091F4
:100CF000860390918703A0918803B0918903892B83
:100D00008A2B8B2BA1F00E94B203009186031091D5
:100D1000870320918803309189036C197D098E091E
:100D20009F09061717072807390708F442C0809162
:100D3000BC0083FDD8CF85EC8093BC000E94B20339
:100D40006B017C0180918403823009F453C080914F
:100D5000820320E08F3F91F18091820322E0803274
:100D600069F18091820324E0803341F523E026C0BD
:100D70008091860390918703A0918803B0918903A5
:100D8000892B8A2B8B2B09F483CF0E94B20300910D
:100D900086031091870320918803309189036C1991
:100DA0007D098E099F09061717072807390708F0DC
:100DB0006FCF809185030E94770525E010925D0337
:100DC00010925C031092360330E081E090E0232B18
:100DD00011F090E080E0DF91CF911F910F91FF9093
:100DE000EF90DF90CF9008959D9191938F5F66CFA4
:100DF00085EEA2CF8091860390918703A09188030E
:100E0000B0918903892B8A2B8B2B09F49BCF0E94ED
:100E1000B2030091860310918703209188033091DB
:100E200089036C197D098E099F0906171707280782
:100E3000390708F087CFBDCF30E020E0C6CFEF9272
:100E4000FF920F931F93CF938C01FC0184E0C0E0CD
:100E5000262F30E060FF02C09589C92BB901759536
:100E60006795815031968111F3CF413011F4F8012B
:100E70004489F8016585C62BC42B7801FEE0EF0E8E
:100E8000F11CF80162896C2BC7010E941E06F80153
:100E9000628960956C23C701CF911F910F91FF90DC
:100EA000EF900C941E060F931F93CF93DF93062FA2
:100EB0000F70423041F440E0602FDF91CF911F91DD
:100EC0000F910C941F07142FEC0170E084E07595CE
:100ED00067958A95E1F7CE010E941F07412F602F89
:100EE000CE01EBCFFC0184858823A1F021853285DA
:100EF0002115310521F4611107C0158606C0213086
:100F00003105D9F76111F9CF85876585CF010E9637
:100F10000C941E06089590E080E00895FC01019075
:100F20000020E9F73197AF01481B590BBC0180E65F
:100F300094E00C94860180913A0290913B028230B9
:100F40009105C9F12CF4009759F0019781F00895AB
:100F50008330910509F44AC0049709F46AC00895E2
:100F600081E090E090933B0280933A02089580E6FE
:100F700094E00E94A40460E080E00E94320482E8D1
:100F800092E00E948E0761E080E00E94320483E9D3
:100F900092E00E948E0762E080E00E94320483EAC1
:100FA00092E00E948E0763E080E00E94320480EBB2
:100FB00092E00C948E0780E694E00E94A40460E026
:100FC00080E00E94320482E892E00E948E0761E095
:100FD00080E00E94320485E992E00E948E0762E080
:100FE00080E00E94320481EA92E0DBCF80E694E068
:100FF0000E94A40460E080E00E94320482E892E053
:101000000E948E0761E080E00E94320485E992E050
:101010000E948E0762E080E00E94320483EA92E040
:101020000E948E0763E080E00E9432048EEA92E024
:10103000C0CF83E090E096CF0E94C1110F931F9321
:10104000CF93DF93EC0188819981009759F02A8131
:101050003B812617370730F081E0DF91CF911F9158
:101060000F9108958B016F5F7F4F0E94E0100097F2
:1010700059F0998388831B830A832C813D81232B1C
:1010800059F7FC011082E8CF80E0E7CFCF93DF93E0
:10109000EC0188819981009711F00E945710198204
:1010A00018821D821C821B821A82DF91CF910895C3
:1010B0000F931F93CF93DF93EC010C811D81075F8A
:1010C0001F4FB8010E941E08882391F028813981A2
:1010D0008C819D8169EB72E0820F931F0E94CF117A
:1010E0001D830C83CE01DF91CF911F910F91089545
:1010F000CE010E944608F6CFCF92DF92EF92FF9288
:101100000F931F93CF93DF93CDB7DEB762970FB6E0
:10111000F894DEBF0FBECDBF8C01CB01F801118268
:10112000108213821282158214824AE09E012F5F80
:101130003F4F6901B9010E947E0FF6010190002026
:10114000E9F731977F01EC18FD08B701C8010E944B
:101150001E08811112C0C8010E94460862960FB68F
:10116000F894DEBF0FBECDBFDF91CF911F910F91DD
:10117000FF90EF90DF90CF900895F801F582E48220
:10118000B601808191810E94CF11E8CFFC0180815E
:101190009181009711F00C9457100895EF92FF92EF
:1011A0000F931F93CF93DF93EC01198218821B8258
:1011B0001A821D821C828617970719F1FB01008194
:1011C000118101151105E9F0E480F580B7010E9455
:1011D0001E08811109C0CE01DF91CF911F910F919F
:1011E000FF90EF900C944608FD82EC82B801888154
:1011F0009981DF91CF911F910F91FF90EF900C9407
:10120000CF11DF91CF911F910F91FF90EF90089533
:101210004F925F926F927F928F929F92AF92BF9206
:10122000EF92FF920F931F93CF93DF93EC01062F62
:10123000F42EE22E8B85888B10928B0310928A03FA
:1012400010925D0310925C030E9459058DE194E0B9
:1012500090935B0380935A038EE194E0909359033B
:101260008093580318890E94B2034B015C0180915E
:101270008403811164C081E080938403809383039D
:101280009FEF9093820310928103109280038093CA
:101290007F0380917F03110F182B10937F038091A0
:1012A0007E03813009F09DC010927E030E94B2033C
:1012B0004B015C0180917F038093BB00809186038A
:1012C00090918703A0918803B0918903892B8A2B81
:1012D0008B2BA1F00E94B2034090860350908703AD
:1012E0006090880370908903681979098A099B09BD
:1012F000461657066806790608F442C08091BC007D
:1013000083FDD8CF85EC8093BC000E94B2034B01D3
:101310005C0180918403813009F465C08091810370
:10132000811183C080918103EEE5F3E0ACE8B3E086
:1013300090E0981751F121912D939F5FFACF809102
:10134000860390918703A0918803B0918903892B2C
:101350008A2B8B2B09F48BCF0E94B203409086031B
:101360005090870360908803709089036819790909
:101370008A099B09461657066806790608F077CF52
:10138000809185030E94770580E010928B03809303
:101390008A0391E0811101C090E0998B84E594E08B
:1013A0000E94A8058E878989882339F01F861C82B0
:1013B00060E0CE010E960E941E062E2D4F2D602F4E
:1013C000CE01DF91CF911F910F91FF90EF90BF90D1
:1013D000AF909F908F907F906F905F904F900C9404
:1013E000AC0485EE90CF8091860390918703A09105
:1013F0008803B0918903892B8A2B8B2B09F489CF21
:101400000E94B20340908603509087036090880347
:1014100070908903681979098A099B09461657064D
:101420006806790608F075CFABCF81E07DCF85EDFA
:101430008093BC008091860390918703A0918803DC
:10144000B09189030796A11DB11D23E0B695A7951C
:10145000979587952A95D1F72091BC0024FD03C06C
:101460001092840308954091860350918703609100
:10147000880370918903452B462B472B69F300970E
:10148000A105B10541F02AE22A95F1F700C00197C4
:10149000A109B109E1CF809185030C9477051F92D2
:1014A0000F920FB60F9211240BB60F922F933F930A
:1014B0004F935F936F937F938F939F93AF93BF935C
:1014C000EF93FF9387EB93E00E940302FF91EF916C
:1014D000BF91AF919F918F917F916F915F914F914C
:1014E0003F912F910F900BBE0F900FBE0F901F904A
:1014F00018951F920F920FB60F9211240BB60F92F0
:101500002F938F939F93EF93FF93E091C703F091F5
:10151000C8038081E091CD03F091CE0382FD1DC010
:1015200090818091D0038F5F8F732091D1038217B8
:1015300041F0E091D003F0E0E954FC4F958F8093A7
:10154000D003FF91EF919F918F912F910F900BBE40
:101550000F900FBE0F901F9018958081F2CF1F92B1
:101560000F920FB60F9211242F933F938F939F9357
:10157000AF93BF938091AD039091AE03A091AF0361
:10158000B091B0033091AC0323E0230F2D3758F511
:101590000196A11DB11D2093AC038093AD039093E0
:1015A000AE03A093AF03B093B0038091B1039091C9
:1015B000B203A091B303B091B4030196A11DB11D74
:1015C0008093B1039093B203A093B303B093B40399
:1015D000BF91AF919F918F913F912F910F900FBE2F
:1015E0000F901F90189526E8230F0296A11DB11D9C
:1015F000D2CF1F920F920FB60F9211240BB60F92FB
:101600002F933F934F935F936F937F938F939F930A
:10161000AF93BF93EF93FF938091B900887F80369B
:1016200009F44DC008F040C0883209F4A9C028F57B
:10163000803109F49DC0C8F4882309F4FBC08830C8
:1016400009F496C0FF91EF91BF91AF919F918F9157
:101650007F916F915F914F913F912F910F900BBEB2
:101660000F900FBE0F901F901895883109F488C015
:10167000803241F78093820314C0803409F49DC006
:1016800040F48033B9F38833E9F68093820385EC24
:10169000B0C0803509F485C0883509F496C0883417
:1016A00089F60E94170ACECF883909F48CC038F524
:1016B000883729F050F4883611F0803719F683E026
:1016C000809384031092350357C0883809F47BC097
:1016D000803919F0803809F0B5CF80913503803218
:1016E00008F071C0E091350381E08E0F80933503DF
:1016F0008091BB00F0E0EB5EFC4F80833DC0803BFF
:1017000039F0E0F4803A09F479C0883A09F09ACFC8
:1017100084E0809384031092140310921303E091E9
:101720005A03F0915B0319958091130381110FC047
:1017300081E0809313031092F30209C0803C09F406
:10174000A6CF883C09F4A3CF883B09F07BCFE0917A
:10175000140381E08E0F80931403F0E0ED50FD4FF1
:1017600080818093BB00909114038091130329C062
:1017700080917F038093BB0085EC8093BC0062CF97
:101780009091810380918003981758F5E09181032F
:1017900081E08E0F80938103F0E0E25AFC4F80815C
:1017A000E9CFE091810381E08E0F809381038091E6
:1017B000BB00F0E0E25AFC4F80839091810380915E
:1017C00080039817C8F285E8D8CFE091810381E0C3
:1017D0008E0F809381038091BB00F0E0E25AFC4FB2
:1017E00080838091830381115CCF81E080937E03AD
:1017F00084EA8093BC001092840324CF85EC80930C
:10180000BC001092840380913503803230F4E09163
:101810003503F0E0EB5EFC4F10826091350370E021
:10182000E0915803F091590385E193E019951092E6
:10183000350308CF1092820334CFEF92FF920F93BB
:101840001F93CF93DF93E7EBF3E01382128288EECE
:1018500093E0A0E0B0E084839583A683B7832EE471
:1018600032E0318320832DEC30E0358724872CEC67
:1018700030E03787268728EC30E0318B208B29EC4D
:1018800030E0338B228B2AEC30E0358B248B2EEC2E
:1018900030E0378B268B118E128E138E148EE4E57A
:1018A000F4E01382128284839583A683B78380E653
:1018B00092E091838083C3E9D4E01B861A86198263
:1018C00018821E8A1F8A188E198E82E1E82EF12C4A
:1018D000FF82EE8287E390E09D878C8788E390E02B
:1018E0009F878E8789E390E0998B888B8AE390E0CD
:1018F0009B8B8A8B61E087E30E94810361E08E8588
:101900000E94810361E088890E94810361E08A89E5
:101910000E9481031D8A1C8A04E010E01987088751
:10192000C9E7D4E01B861A86198218821E8A1F8A8C
:10193000188E198EFF82EE828BE390E09D878C8754
:101940008CE390E09F878E878DE390E0998B888B66
:101950008EE390E09B8B8A8B61E08BE30E94810396
:1019600061E08E850E94810361E088890E94810385
:1019700061E08A890E9481031D8A1C8A1987088771
:10198000E0E6F4E01382128282E792E091838083A2
:10199000108A8FEF87871686118A80E283871486E4
:1019A00015861286118694E0928B92E0938B91E0DB
:1019B000948B90E1958B868B80E4878B80E8808F79
:1019C00050E040E063E0CF01DF91CF911F910F9194
:1019D000FF90EF900C940904CF93DF93CDB7DEB75F
:1019E0002C970FB6F894DEBF0FBECDBF789484B5A8
:1019F000826084BD84B5816084BD85B5826085BD0B
:101A000085B5816085BD80916E00816080936E0098
:101A1000109281008091810082608093810080918A
:101A2000810081608093810080918000816080933B
:101A300080008091B10084608093B1008091B000FB
:101A400081608093B00080919100826080939100CA
:101A500080919100816080939100809190008160DD
:101A6000809390008091A10082608093A10080917A
:101A7000A10081608093A1008091A000816080938B
:101A8000A000809121018260809321018091210139
:101A900081608093210180912001816080932001E9
:101AA00080917A00846080937A0080917A008260CD
:101AB00080937A0080917A00816080937A0080918F
:101AC0007A00806880937A001092C10020E044E0A0
:101AD00060E180E694E00E9408096FEF80E694E000
:101AE0000E94720760E080E00E94320482E892E087
:101AF0000E948E0761E087E00E94810360E08DE034
:101B00000E94810360E08CE00E94810360E08BE032
:101B10000E94810361E087E30E94810361E088E322
:101B20000E94810361E089E30E94810361E08AE011
:101B30000E94810361E08AE30E94810360E084E304
:101B40000E94810360E085E30E94810360E085E3F9
:101B50000E94810361E089E00E94810361E08BE3E0
:101B60000E94810361E08CE30E94810361E08DE3C8
:101B70000E94810361E08EE30E94810316E160E030
:101B8000812F0E9481031F5F1632C9F760E372E064
:101B900080E00E94780468E272E081E00E947804AC
:101BA00060E272E082E00E94780468E172E083E023
:101BB0000E94780460E172E084E00E94780468E0AA
:101BC00072E085E00E94780460E072E086E00E94A6
:101BD0007804E091C703F091C80382E08083E0912C
:101BE000C303F091C4031082E091C503F091C603D2
:101BF0008FEC80831092CF03E091CB03F091CC0364
:101C000086E08083E091C903F091CA0380818061FE
:101C10008083E091C903F091CA038081886080834A
:101C2000E091C903F091CA03808180688083E091CC
:101C3000C903F091CA0380818F7D80830E949B0736
:101C400080E1C82ED12C87EB93E00E94ED0118169D
:101C5000190624F461E087E00E9453038DE00E949E
:101C60002A030197E1F580913A0290913B02019697
:101C700090933B0280933A020E949B0764E670E0D7
:101C800080E090E00E94D7038DE00E942A03892B18
:101C9000D9F7D0923902C09238021092B60310924E
:101CA000B50316E1812F0E942A03019791F48091D8
:101CB000380290913902019790933902809338024B
:101CC0008091B5039091B60301969093B6038093EB
:101CD000B5031F5F163231F70E949202B4CF8CE039
:101CE0000E942A030197B9F480913A0290913B0235
:101CF000019790933B0280933A020E949B0764E60F
:101D000070E080E090E00E94D7038CE00E942A03FC
:101D1000892BD9F7BECF8BE00E942A037C0181E09A
:101D2000E816F10409F0B5CF80913A0290913B0298
:101D30008230910509F479C08330910509F488C097
:101D4000019709F064C080E694E00E94A40411E0C9
:101D500080E694E00E94A40461E0812F0E94320496
:101D600062E080E694E00E941F04FF24F394F10EE9
:101D700061E08F2D0E94320463E080E694E00E94CF
:101D80001F0461E08FEF810F0E94320464E080E65F
:101D900094E00E941F0468EC70E080E090E00E94F4
:101DA000D7031F2D1E30A1F680E694E00E94A40404
:101DB00060E080E00E94320483EC92E00E948E0793
:101DC00062E080E00E943204609138027091390232
:101DD000CE0107960E947C08BE01695F7F4FCE014D
:101DE00001960E94CE08CE0101960E9458080E94DA
:101DF000B301CE0101960E94C608CE0107960E944B
:101E0000C60860EB74E080E090E00E94D7030E9477
:101E10009B0764E670E080E090E00E94D7038BE0CF
:101E20000E942A03892BD9F734CF80E694E00E94E0
:101E3000A40460E080E00E94320484ED92E00E94FD
:101E40008E0762E080E00E94320470E060E0C0CF64
:101E500080E694E00E94A40410E080E694E00E94F2
:101E6000A40461E08E2D0E94320462E080E694E0DA
:101E70000E941F0461E082E0810F0E94320463E04F
:101E800080E694E00E941F0461E0812F0E943204EA
:101E900064E080E694E00E941F0483E0810F61E02B
:101EA000E0FC28C00E94320465E080E694E00E94D5
:101EB0001F0468EC70E080E090E00E94D7038FEF91
:101EC000E81AF80A1F5F1D3041F680E694E00E9490
:101ED000A40460E080E00E94320484EE92E00E945C
:101EE0008E0762E080E00E9432046091B503709139
:101EF000B6036ECF0E94320466E0D7CFBB274A30CC
:101F000031F4992322F4BDE2909581959F4F0C9472
:101F10008A0FBB27FB015527AA27880F991FAA1FE5
:101F2000A41710F0A41B83955051B9F7A05DAA33F4
:101F300008F0A95DA193009779F7B111B1931192BF
:101F4000CB010C94A30FDC01FC01672F7191772367
:101F5000E1F7329704C07C916D9370836291AE1764
:101F6000BF07C8F30895EE0FFF1F881F8BBF0790B0
:101F7000F691E02D19940F931F93CF93DF93823046
:101F8000910510F482E090E0E091AF04F091B0048C
:101F900030E020E0B0E0A0E0309799F42115310561
:101FA00009F44AC0281B390B24303105D8F58A8141
:101FB0009B816115710589F1FB0193838283FE0189
:101FC00011C0408151810281138148175907E0F007
:101FD0004817590799F4109761F012960C931297CD
:101FE00013961C933296CF01DF91CF911F910F91E1
:101FF00008950093AF041093B004F4CF2115310578
:1020000051F04217530738F0A901DB019A01BD01D5
:10201000DF01F801C1CFEF01F9CF9093B0048093B5
:10202000AF04CDCFFE01E20FF31F819391932250B5
:10203000310939832883D7CF2091AD043091AE0484
:10204000232B41F420913E0230913F023093AE04A5
:102050002093AD0420913C0230913D0221153105C1
:1020600041F42DB73EB74091400250914102241BEC
:10207000350BE091AD04F091AE04E217F307A0F444
:102080002E1B3F0B2817390778F0AC014E5F5F4FCE
:102090002417350748F04E0F5F1F5093AE0440934E
:1020A000AD04819391939FCFF0E0E0E09CCFCF937C
:1020B000DF930097E9F0FC01329713821282A0911E
:1020C000AF04B091B004ED0130E020E01097A1F42E
:1020D00020813181820F931F2091AD043091AE0495
:1020E0002817390709F061C0F093AE04E093AD04FE
:1020F000DF91CF910895EA01CE17DF07E8F54A8115
:102100005B819E0141155105B1F7E901FB83EA832B
:1021100049915991C40FD51FEC17FD0761F48081D7
:1021200091810296840F951FE901998388838281AA
:1021300093819B838A83F0E0E0E012968D919C91DD
:1021400013970097B9F52D913C911197CD01029607
:10215000820F931F2091AD043091AE0428173907E8
:1021600039F6309751F51092B0041092AF04B09345
:10217000AE04A093AD04BCCFD383C2834081518110
:10218000840F951FC817D90761F44E5F5F4F888190
:102190009981480F591F518340838A819B81938382
:1021A00082832115310509F0B0CFF093B004E0939C
:1021B000AF049ECFFD01DC01C0CF13821282D7CFC6
:1021C0004F925F926F927F928F929F92AF92BF9247
:1021D000CF92DF92EF92FF920F931F93CF93DF93F3
:1021E0008C01009799F4CB01DF91CF911F910F9152
:1021F000FF90EF90DF90CF90BF90AF909F908F9027
:102200007F906F905F904F900C94BB0FFC01E60F96
:10221000F71F9C0122503109E217F30708F4AEC002
:10222000D901CD91DC911197C617D70720F1C530A0
:10223000D10578F0CE0104978617970750F0C61B9A
:10224000D70B2297C193D1936D937C93CF010E94BA
:102250005710C801DF91CF911F910F91FF90EF9020
:10226000DF90CF90BF90AF909F908F907F906F90B6
:102270005F904F9008955B01AC1ABD0A4C018C0E23
:102280009D1EA091AF04B091B004512C412CF12CB3
:10229000E12C109731F58091AD049091AE04881532
:1022A000990509F05CC04616570608F058C08091A1
:1022B0003C0290913D02009741F48DB79EB740914A
:1022C000400250914102841B950BE817F90708F072
:1022D00055C0F093AE04E093AD04F90171836083BF
:1022E000B8CF8D919C91119712966C90129713967E
:1022F0007C901397A815B90559F56C0142E0C40EFE
:10230000D11CCA14DB0420F1AC014A195B09DA01C3
:102310001296159780F06282738251834083D901AF
:102320006D937C93E114F10471F0D7011396FC9343
:10233000EE9312978ECF22968C0F9D1FF9019183F9
:102340008083F301EFCFF093B004E093AF0481CF2B
:102350004816590608F42C017D01D3019ACFCB0110
:102360000E94BB0F7C01009749F0AE01B8010E94AA
:10237000C611C8010E94571087016BCF10E000E022
:1023800068CF81E090E0F8940C94D611FB01DC0159
:1023900002C001900D9241505040D8F70895FB01C2
:1023A000DC0101900D920020E1F70895F894FFCF31
:1023B0000E1915130E00000000000E1915130E0063
:1023C000000107070F0F020100101E1D1F1F08103C
:1023D0001F1C1C1F1F1F111100000E1F1F0A0000D1
:1023E0000000000E1F1F0A00100001000000B104D1
:1023F00080000040145400401050000000002502EE
:102400008601BC017202ED01CB01DF01000000007A
:10241000EF05C2058B079805BB05A80599050000C7
:1024200000001F0486018B073105080909047207A3
:1024300053074D656E7520496E666F726D616369F5
:102440006F6E003E20446973706F6E69626C6573D5
:10245000003E2052657365727661646F73003E20A2
:102460004F63757061646F73002070617271756580
:102470006F7300546F74616C20646973706F6E6960
:10248000626C6500546F74616C207265736572765E
:1024900061646F00546F74616C206F637570616468
:0224A0006F00CB
:00000001FF
