:020000040000FA
:100000000C9447010C9478010C9478010C947801BD
:100010000C9478010C9478010C9478010C9478017C
:100020000C9478010C9478010C9478010C9478016C
:100030000C9478010C9478010C9478010C9478015C
:100040000C9478010C9478010C9478010C9478014C
:100050000C9478010C9478010C9478010C943C0970
:100060000C9478010C9478010C9478010C9478012C
:100070000C9478010C9478010C9478010C9478011C
:100080000C9478010C9478010C9478010C9478010C
:100090000C9478010C9478010C9478010C948609E6
:1000A0000C9478010C9478010C9478010C947801EC
:1000B0000C9478010C9478010C9478010C947801DC
:1000C0000C9478010C9478010C9478010C947801CC
:1000D0000C9478010C9478010C9478010C947801BC
:1000E0000C9478010C94F7010C9495040C941E0464
:1000F0000C94AF040C94F3010C94D8010C940902F5
:100100000C94AA0A0C94DC010C945F060C94F60281
:100110000C9486040C940E020C94D4010C94DC0410
:100120000C94A8040C9413020C94ED010C940C0391
:100130000C9405020C94E9010C94FB010C940F0241
:100140000C9440060C940A030C940B030C94F507D2
:100150000C9478060C94CE010C9401020C947A0154
:100160000C94E3010C94E0010C9485040000210040
:10017000240027002A002D00300033000101000078
:10018000040107010A0100002200250028002B00BD
:100190002E003100340002010000050108010B01AE
:1001A000000020002300260029002C002F00320030
:1001B0000001000003010601090105050505070509
:1001C00008080808020202020A0A080804040404D3
:1001D00001010101010101010303030303030303FF
:1001E000040707070C0C0C0C0C0C0C0C020202028E
:1001F00006060606060606060B0B0B0B0B0B0B0B77
:100200000102102020080810204010204080020128
:10021000020108040201010204081020408080400D
:10022000201008040201800402018040201008040C
:1002300002010804020101020408102040800102AA
:1002400004081020408000000A0B02090C0D0E0863
:10025000070304010000000000000000000000008F
:10026000000000000000000000000000000000008E
:10027000000012111000000000000000000000004B
:10028000000000000000000000000000AA0A112485
:100290001FBECFEFD1E2DEBFCDBF00E00CBF23E039
:1002A000A6EBB2E001C01D92AC3BB207E1F712E051
:1002B000A0E0B2E0EEEEFDE100E00BBF02C007906F
:1002C0000D92A63BB107D9F711E0C7E4D1E000E0F9
:1002D00006C021970109802FFE010E94D20CC6346E
:1002E000D10780E00807A9F70E94180B0C94F50EBF
:1002F0000C940000AF92BF92CF92DF92EF92FF92E8
:100300000F931F93CF93DF936C017B018B01040F3D
:10031000151FEB015E01AE18BF08C017D10759F0D9
:100320006991D601ED91FC910190F081E02DC6011B
:100330001995892B79F7C501DF91CF911F910F9105
:10034000FF90EF90DF90CF90BF90AF900895FC01A9
:10035000448155816081718185E893E00C947A0134
:100360008150823108F05AC0E82FF0E08827E45429
:10037000FE4F8F4F0C94D20CDC01E001CE01D40172
:10038000D8010E02E301E901ED01F301F701FB01E0
:10039000010205020E0209020F0213028091800081
:1003A0008F77809380000895809180008F7DF9CFB2
:1003B00080918000877FF5CF84B58F7784BD0895C5
:1003C00084B58F7DFBCF8091B0008F778093B00094
:1003D00008958091B0008F7DF9CF809190008F7744
:1003E000809390000895809190008F7DF9CF809147
:1003F0009000877FF5CF8091A0008F778093A00039
:1004000008958091A0008F7DF9CF8091A000877F13
:10041000F5CF809120018F778093200108958091FE
:1004200020018F7DF9CF80912001877FF5CFCF9379
:10043000DF93282F30E0F901EA5BFD4F8491F90149
:10044000E050FE4FD491F901E654FE4FC491CC2305
:10045000A1F081110E94B001EC2FF0E0EE0FFF1F20
:10046000E056FE4FA591B491EC91ED2381E090E030
:1004700009F480E0DF91CF91089580E090E0FACF19
:100480001F93CF93DF93282F30E0F901EA5BFD4FF4
:100490008491F901E050FE4FD491F901E654FE4FEA
:1004A000C491CC23A9F0162F81110E94B001EC2F2A
:1004B000F0E0EE0FFF1FEA57FE4FA591B4918FB702
:1004C000F894EC91111108C0D095DE23DC938FBF16
:1004D000DF91CF911F910895DE2BF8CFCF93DF935B
:1004E00090E0FC01E050FE4F249186549E4FFC01A9
:1004F00084918823D1F090E0880F991FFC01E45982
:10050000FE4FA591B491FC01EA57FE4FC591D491DD
:1005100061110EC09FB7F8948C91E22FE0958E2365
:100520008C932881E223E8839FBFDF91CF910895C8
:100530008FB7F894EC91E22BEC938FBFF6CF3FB7D7
:10054000F8948091750390917603A0917703B09110
:10055000780326B5A89B05C02F3F19F00196A11D71
:10056000B11D3FBFBA2FA92F982F8827BC01CD01FD
:10057000620F711D811D911D42E0660F771F881F5C
:10058000991F4A95D1F708958F929F92AF92BF928B
:10059000CF92DF92EF92FF924B015C010E949F028B
:1005A0006B017C010E949F026C197D098E099F09D5
:1005B000683E734081059105A8F321E0821A9108F5
:1005C000A108B10888EEC80E83E0D81EE11CF11C1A
:1005D00081149104A104B10429F7FF90EF90DF90FA
:1005E000CF90BF90AF909F908F90089521E001C071
:1005F000220F6A95EAF7DC011C962C931C971A9639
:100600005C934E931997ED91FC910484F585E02D50
:1006100060E0199408950895DC01ED91FC91068441
:10062000F785E02D41E0199581E090E00895DC0127
:10063000ED91FC910684F785E02D40E019940F932D
:100640001F93CF93DF9300D000D01F921F92CDB79E
:10065000DEB7009118021091190220911A02309110
:100660001B020D831E832F83388700911C0210917B
:100670001D0220911E0230911F0209831A832B83D1
:100680003C8390918C03691710F06FEF690F262F50
:1006900030E040918D032C0F3D1FF901403199F45A
:1006A000943089F46181680F606885E893E028964A
:1006B0000FB6F894DEBF0FBECDBFDF91CF911F9173
:1006C0000F910C9417036581EECFEF92FF920F9379
:1006D0001F93CF93DF938B0198E0899FB001112482
:1006E000606485E893E00E94170383E790E0019738
:1006F000F1F7E801085F1F4F8BE9E82EF12C6991B3
:1007000085E893E00E940C03C7010197F1F7C01739
:10071000D107A9F7DF91CF911F910F91FF90EF9033
:10072000089561E00E9417038BE39FE10197F1F7C1
:1007300008950F931F93CF93DF93EC01423018F08D
:100740008C8188608C834F836887222329F0413015
:1007500019F48C8184608C8364E670E080E090E022
:100760000E94C4026C8164FD50C0E881F981068456
:10077000F785E02D42E063E0CE0119950BE416E425
:10078000C8010197F1F7E881F9810684F785E02D2A
:1007900042E063E0CE011995C8010197F1F7E881C5
:1007A000F9810684F785E02D42E063E0CE011995DA
:1007B00083E592E00197F1F7E881F9810684F785F6
:1007C000E02D42E062E0CE0119956C816062CE01BD
:1007D0000E94170384E08D836CE0CE010E94170312
:1007E000CE010E94910382E08E8366E0CE010E94DA
:1007F0001703E881F9810484F585E02D6FEFCE01C0
:10080000DF91CF911F910F9119946062CE010E94E8
:1008100017038BE496E40197F1F76C816062CE01D7
:100820000E94170383E592E00197F1F76C81606203
:10083000CE010E941703C9CF08950895089520910D
:10084000D702260F3327331F21323105ECF42091D4
:100850004803FC0190E080E0243069F082E00895D4
:10086000A091D7022191AC0149545D4FA40FB52F3F
:10087000B11D2C930196861798F38091D702680FCB
:100880006093D70280E0089581E0089510924803B4
:1008900081E0809347031092420361E084E10E946B
:1008A000400261E085E10E944002E9EBF0E08081D6
:1008B0008E7F808380818D7F808388E48093B800E1
:1008C00085E48093BC000895CF93DF9391E09093EB
:1008D000B6028823B9F0C091B800D091BA008091D7
:1008E000BC008A7B8093BC0060E084E10E944002EF
:1008F00060E085E10E9440020E944604D093BA0065
:10090000C093B800DF91CF9108950895E0914F030F
:1009100080914E03E81730F4F0E0E05BFC4F8081FB
:1009200090E008958FEF9FEF089590914F0380918D
:100930004E032FEF3FEF981748F4E92FF0E0E05B0C
:10094000FC4F208130E09F5F90934F03C9010895D1
:1009500080914E0390914F03891B990B0895CF927C
:10096000DF92EF92FF920F931F93CF93DF937C015F
:10097000CB018A012091FA02222389F0EB016B015D
:10098000C40ED51ECC15DD0569F06991D701ED9136
:10099000FC910190F081E02DC7011995F3CF642FF0
:1009A0000E941F04C801DF91CF911F910F91FF900A
:1009B000EF90DF90CF900895CF93DF931F92CDB744
:1009C000DEB769832091FA022223F9F020912003F7
:1009D000203258F021E030E0FC013383228390E0A4
:1009E00080E00F90DF91CF91089580912103E82F4F
:1009F000F0E0E550FD4F998190838F5F8093210354
:100A00008093200381E090E0ECCF61E0CE0101967D
:100A10000E941F04F7CFCF92DF92EF92FF920F93C5
:100A20001F93CF93DF93FC012381222309F4F1C0AC
:100A3000262F6181609562236083C28181E080936B
:100A4000FA02C0931B03109221031092200389E73E
:100A500093E00E94DC04D091200321E0D13208F021
:100A60009AC00E949F026B017C0180914803811112
:100A70006CC082E08093480381E0809347038FEF4E
:100A80008093460310924503D0934403ABEFB2E04A
:100A9000E2E2F3E080E0D81394C010924303809127
:100AA0004303CC0FC82BC093430380914203813092
:100AB00009F08BC0109242030E949F026B017C01DF
:100AC000809143038093BB0080914A0390914B0334
:100AD000A0914C03B0914D03892B8A2B8B2BA1F055
:100AE0000E949F0200914A0310914B0320914C03F6
:100AF00030914D036C197D098E099F090617170760
:100B00002807390708F442C08091BC0083FDD8CF84
:100B100085EC8093BC000E949F026B017C01809158
:100B20004803823009F453C08091460320E08F3F90
:100B300091F18091460322E0803269F18091460371
:100B400024E0803341F523E026C080914A03909150
:100B50004B03A0914C03B0914D03892B8A2B8B2B17
:100B600009F483CF0E949F0200914A0310914B0326
:100B700020914C0330914D036C197D098E099F091A
:100B8000061717072807390708F06FCF8091490328
:100B90000E94640425E01092210310922003109219
:100BA000FA0230E081E090E0232B11F090E080E049
:100BB000DF91CF911F910F91FF90EF90DF90CF9039
:100BC00008959D9191938F5F66CF85EEA2CF80911E
:100BD0004A0390914B03A0914C03B0914D03892B94
:100BE0008A2B8B2B09F49BCF0E949F0200914A0312
:100BF00010914B0320914C0330914D036C197D09EA
:100C00008E099F09061717072807390708F087CFAD
:100C1000BDCF30E020E0C6CFEF92FF920F931F933D
:100C2000CF938C01FC0184E0C0E0262F30E060FF10
:100C300002C09589C92BB901759567958150319688
:100C40008111F3CF413011F4F8014489F801658531
:100C5000C62BC42B7801FEE0EF0EF11CF80162896F
:100C60006C2BC7010E940B05F801628960956C230B
:100C7000C701CF911F910F91FF90EF900C940B053E
:100C80000F931F93CF93DF93062F0F70423041F4E1
:100C900040E0602FDF91CF911F910F910C940C06D3
:100CA000142FEC0170E084E0759567958A95E1F763
:100CB000CE010E940C06412F602FCE01EBCFFC012C
:100CC00084858823A1F0218532852115310521F401
:100CD000611107C0158606C021303105D9F76111B1
:100CE000F9CF85876585CF010E960C940B05089585
:100CF00090E080E00895FC0101900020E9F7319731
:100D0000AF01481B590BBC0185E893E00C947A01B4
:100D1000809110029091110282309105C9F12CF45A
:100D2000009759F0019781F008958330910509F4F7
:100D30004AC0049709F46AC0089581E090E0909356
:100D4000110280931002089585E893E00E949103B8
:100D500060E080E00E941F0386E492E00E947B0630
:100D600061E080E00E941F0387E592E00E947B061D
:100D700062E080E00E941F0387E692E00E947B060B
:100D800063E080E00E941F0384E792E00C947B06FE
:100D900085E893E00E94910360E080E00E941F03D9
:100DA00086E492E00E947B0661E080E00E941F03DF
:100DB00089E592E00E947B0662E080E00E941F03CA
:100DC00085E692E0DBCF85E893E00E94910360E046
:100DD00080E00E941F0386E492E00E947B0661E0AF
:100DE00080E00E941F0389E592E00E947B0662E09A
:100DF00080E00E941F0387E692E00E947B0663E08A
:100E000080E00E941F0382E792E0C0CF83E090E081
:100E100096CF0E94E00E0F931F93CF93DF93EC01C8
:100E200088819981009759F02A813B8126173707DD
:100E300030F081E0DF91CF911F910F9108958B01E8
:100E40006F5F7F4F0E94FF0D009759F09983888351
:100E50001B830A832C813D81232B59F7FC011082CF
:100E6000E8CF80E0E7CFCF93DF93EC0188819981D1
:100E7000009711F00E94760D198218821D821C8243
:100E80001B821A82DF91CF9108950F931F93CF9306
:100E9000DF93EC010C811D81075F1F4FB8010E9499
:100EA0000B07882391F0288139818C819D816DE722
:100EB00072E0820F931F0E94EE0E1D830C83CE0101
:100EC000DF91CF911F910F910895CE010E943307BA
:100ED000F6CFCF92DF92EF92FF920F931F93CF93B3
:100EE000DF93CDB7DEB762970FB6F894DEBF0FBEC3
:100EF000CDBF8C01FC0111821082138212821582F7
:100F000014824AE0CE0101966C01BC0180E290E0BF
:100F10000E949D0CF60101900020E9F731977F01B6
:100F2000EC18FD08B701C8010E940B07811112C01F
:100F3000C8010E94330762960FB6F894DEBF0FBE59
:100F4000CDBFDF91CF911F910F91FF90EF90DF9078
:100F5000CF900895F801F582E482B60180819181F5
:100F60000E94EE0EE8CFFC0180819181009711F084
:100F70000C94760D0895EF92FF920F931F93CF93E9
:100F8000DF93EC01198218821B821A821D821C8257
:100F90008617970719F1FB010081118101151105D1
:100FA000E9F0E480F580B7010E940B07811109C0C8
:100FB000CE01DF91CF911F910F91FF90EF900C9494
:100FC0003307FD82EC82B80188819981DF91CF914E
:100FD0001F910F91FF90EF900C94EE0EDF91CF9147
:100FE0001F910F91FF90EF9008954F925F926F9233
:100FF0007F928F929F92AF92BF92EF92FF920F9348
:101000001F93CF93DF93EC01062FF42EE22E8B85F6
:10101000888B10924F0310924E031092210310926E
:1010200020030E9446048AE093E090931F0380937C
:101030001E038BE093E090931D0380931C0318899B
:101040000E949F024B015C0180914803811164C0A2
:1010500081E080934803809347039FEF909346037A
:1010600010924503109244038093430380914303FD
:10107000110F182B1093430380914203813009F024
:101080009DC0109242030E949F024B015C0180911F
:1010900043038093BB0080914A0390914B03A0913E
:1010A0004C03B0914D03892B8A2B8B2BA1F00E940E
:1010B0009F0240904A0350904B0360904C03709005
:1010C0004D03681979098A099B094616570668066F
:1010D000790608F442C08091BC0083FDD8CF85EC2E
:1010E0008093BC000E949F024B015C0180914803E9
:1010F000813009F465C080914503811183C08091DE
:101100004503E2E2F3E0A0E5B3E090E0981751F187
:1011100021912D939F5FFACF80914A0390914B03C9
:10112000A0914C03B0914D03892B8A2B8B2B09F492
:101130008BCF0E949F0240904A0350904B036090D7
:101140004C0370904D03681979098A099B0946166A
:1011500057066806790608F077CF809149030E9408
:10116000640480E010924F0380934E0391E081115C
:1011700001C090E0998B89E793E00E9495048E87E7
:101180008989882339F01F861C8260E0CE010E9683
:101190000E940B052E2D4F2D602FCE01DF91CF9198
:1011A0001F910F91FF90EF90BF90AF909F908F9005
:1011B0007F906F905F904F900C94990385EE90CF45
:1011C00080914A0390914B03A0914C03B0914D0341
:1011D000892B8A2B8B2B09F489CF0E949F02409088
:1011E0004A0350904B0360904C0370904D03681974
:1011F00079098A099B09461657066806790608F098
:1012000075CFABCF81E07DCF85ED8093BC00809121
:101210004A0390914B03A0914C03B0914D03079664
:10122000A11DB11D23E0B695A795979587952A95A1
:10123000D1F72091BC0024FD03C01092480308950B
:1012400040914A0350914B0360914C0370914D03C0
:10125000452B462B472B69F30097A105B10541F0BB
:101260002AE22A95F1F700C00197A109B109E1CF5F
:10127000809149030C9464041F920F920FB60F9251
:1012800011242F933F938F939F93AF93BF9380919C
:10129000710390917203A0917303B0917403309124
:1012A000700323E0230F2D3758F50196A11DB11DC2
:1012B000209370038093710390937203A093730340
:1012C000B09374038091750390917603A091770396
:1012D000B09178030196A11DB11D80937503909381
:1012E0007603A0937703B0937803BF91AF919F915A
:1012F0008F913F912F910F900FBE0F901F901895D7
:1013000026E8230F0296A11DB11DD2CF1F920F9286
:101310000FB60F9211240BB60F922F933F934F935A
:101320005F936F937F938F939F93AF93BF93EF934D
:10133000FF938091B900887F803609F44DC008F092
:1013400040C0883209F4A9C028F5803109F49DC055
:10135000C8F4882309F4FBC0883009F496C0FF91D3
:10136000EF91BF91AF919F918F917F916F915F911D
:101370004F913F912F910F900BBE0F900FBE0F908A
:101380001F901895883109F488C0803241F7809306
:10139000460314C0803409F49DC040F48033B9F38F
:1013A0008833E9F68093460385ECB0C0803509F4B4
:1013B00085C0883509F496C0883489F60E940409EE
:1013C000CECF883909F48CC038F5883729F050F42D
:1013D000883611F0803719F683E080934803109225
:1013E000F90257C0883809F47BC0803919F0803879
:1013F00009F0B5CF8091F902803208F071C0E09118
:10140000F90281E08E0F8093F9028091BB00F0E039
:10141000E752FD4F80833DC0803B39F0E0F4803AD5
:1014200009F479C0883A09F09ACF84E080934803A0
:101430001092D8021092D702E0911E03F0911F0380
:1014400019958091D70281110FC081E08093D70256
:101450001092B70209C0803C09F4A6CF883C09F479
:10146000A3CF883B09F07BCFE091D80281E08E0FBB
:101470008093D802F0E0E954FD4F80818093BB0057
:101480009091D8028091D70229C080914303809324
:10149000BB0085EC8093BC0062CF909145038091A6
:1014A0004403981758F5E091450381E08E0F80932F
:1014B0004503F0E0EE5DFC4F8081E9CFE09145030C
:1014C00081E08E0F809345038091BB00F0E0EE5DDC
:1014D000FC4F808390914503809144039817C8F294
:1014E00085E8D8CFE091450381E08E0F80934503D6
:1014F0008091BB00F0E0EE5DFC4F8083809147035C
:1015000081115CCF81E08093420384EA8093BC0028
:101510001092480324CF85EC8093BC0010924803BE
:101520008091F902803230F4E091F902F0E0E75264
:10153000FD4F10826091F90270E0E0911C03F09180
:101540001D0389ED92E019951092F90208CF1092CF
:10155000460334CFCF93DF93E9E7F3E0138212829F
:1015600088EE93E0A0E0B0E084839583A683B78300
:1015700084E292E091838083CEE9D3E01B861A86D1
:10158000198218821E8A1F8A188E198E85E090E0B3
:101590009F838E8387E390E09D878C8788E390E02C
:1015A0009F878E8789E390E0998B888B8AE390E010
:1015B0009B8B8A8B61E087E30E946E0261E08E85DF
:1015C0000E946E0261E088890E946E0261E08A8951
:1015D0000E946E021D8A1C8A84E090E099878887A9
:1015E000E5E8F3E01382128286E392E09183808340
:1015F000108A8FEF87871686118A80E28387148688
:1016000015861286118694E0928B92E0938B91E07E
:10161000948B90E1958B868B80E4878B80E8808F1C
:1016200050E040E063E0CF01DF91CF910C94F602EF
:10163000CF93DF93CDB7DEB72C970FB6F894DEBF0C
:101640000FBECDBF789484B5826084BD84B58160BF
:1016500084BD85B5826085BD85B5816085BD80917D
:101660006E00816080936E001092810080918100F5
:1016700082608093810080918100816080938100ED
:10168000809180008160809380008091B1008460AF
:101690008093B1008091B00081608093B000809110
:1016A000910082608093910080919100816080938D
:1016B0009100809190008160809390008091A100C2
:1016C00082608093A1008091A10081608093A1003D
:1016D0008091A00081608093A000809121018260B0
:1016E000809321018091210181608093210180916B
:1016F000200181608093200180917A008460809332
:101700007A0080917A00826080937A0080917A00DA
:10171000816080937A0080917A00806880937A005B
:101720001092C10020E044E060E185E893E00E946F
:10173000F5076FEF85E893E00E945F0660E080E0C8
:101740000E941F0386E492E00E947B0660E08DE029
:101750000E946E0260E08CE00E946E0260E08BE00E
:101760000E946E0261E087E30E946E0261E088E3FE
:101770000E946E0261E089E30E946E0261E08AE3EA
:101780000E946E0260E084E30E946E0260E085E3E6
:101790000E946E0268E072E080E00E94650360E0F3
:1017A00072E081E00E9465030E94880680E0E82ED6
:1017B00080E0F82E8DE00E9417020197E1F48091FD
:1017C00010029091110201969093110280931002E1
:1017D0000E94880664E670E080E090E00E94C40207
:1017E0008DE00E941702892BD9F7E114F10411F35F
:1017F0000E940000DFCF8CE00E9417020197B9F42D
:1018000080911002909111020197909311028093A0
:1018100010020E94880664E670E080E090E00E947A
:10182000C4028CE00E941702892BD9F7DECF8BE02F
:101830000E9417020197C9F600911002109111023F
:101840000230110509F463C00330110509F46AC0C0
:101850000130110509F04DC085E893E00E94910325
:1018600085E893E00E94910361E0802F0E941F03AE
:1018700060E000FD61E085E893E00E940C0368EC05
:1018800070E080E090E00E94C4020F5F1F4F0F30B5
:10189000110531F785E893E00E94910360E080E054
:1018A0000E941F0387E892E00E947B0662E080E0CE
:1018B0000E941F03CE0107960E946907BE01695F5F
:1018C0007F4FCE0101960E94BB07CE0101960E9478
:1018D00045070E94A701CE0101960E94B307CE01E1
:1018E00007960E94B30760EB74E080E090E00E94EE
:1018F000C4020E94880664E670E080E090E00E94E6
:10190000C4028BE00E941702892BD9F76ECF85E8BD
:1019100093E00E94910360E080E00E941F0388E949
:1019200092E0C2CF85E893E00E94910360E080E0FE
:101930000E941F0388EA92E0B7CFBB274A3031F4F8
:10194000992322F4BDE2909581959F4F0C94A90CA8
:10195000BB27FB015527AA27880F991FAA1FA41789
:1019600010F0A41B83955051B9F7A05DAA3308F07D
:10197000A95DA193009779F7B111B1931192CB01B1
:101980000C94C20CDC01FC01672F71917723E1F705
:10199000329704C07C916D9370836291AE17BF073C
:1019A000C8F30895EE0FFF1F881F8BBF0790F691B5
:1019B000E02D19940F931F93CF93DF9382309105FD
:1019C00010F482E090E0E091BA03F091BB0330E0C4
:1019D00020E0B0E0A0E0309799F42115310509F43A
:1019E0004AC0281B390B24303105D8F58A819B81E8
:1019F0006115710589F1FB0193838283FE0111C09A
:101A0000408151810281138148175907E0F048173E
:101A1000590799F4109761F012960C931297139648
:101A20001C933296CF01DF91CF911F910F910895B2
:101A30000093BA031093BB03F4CF2115310551F085
:101A40004217530738F0A901DB019A01BD01DF01FC
:101A5000F801C1CFEF01F9CF9093BB038093BA0394
:101A6000CDCFFE01E20FF31F8193919322503109F4
:101A700039832883D7CF2091B8033091B903232B22
:101A800041F420911402309115023093B903209350
:101A9000B80320911202309113022115310541F44F
:101AA0002DB73EB74091160250911702241B350BFB
:101AB000E091B803F091B903E217F307A0F42E1BED
:101AC0003F0B2817390778F0AC014E5F5F4F2417A2
:101AD000350748F04E0F5F1F5093B9034093B8038A
:101AE000819391939FCFF0E0E0E09CCFCF93DF9381
:101AF0000097E9F0FC01329713821282A091BA0399
:101B0000B091BB03ED0130E020E01097A1F42081FB
:101B10003181820F931F2091B8033091B9032817A8
:101B2000390709F061C0F093B903E093B803DF917E
:101B3000CF910895EA01CE17DF07E8F54A815B816E
:101B40009E0141155105B1F7E901FB83EA834991F3
:101B50005991C40FD51FEC17FD0761F48081918165
:101B60000296840F951FE90199838883828193816E
:101B70009B838A83F0E0E0E012968D919C9113970D
:101B80000097B9F52D913C911197CD010296820FE6
:101B9000931F2091B8033091B9032817390739F6FC
:101BA000309751F51092BB031092BA03B093B9036A
:101BB000A093B803BCCFD383C28340815181840FEB
:101BC000951FC817D90761F44E5F5F4F88819981CF
:101BD000480F591F518340838A819B81938382835D
:101BE0002115310509F0B0CFF093BB03E093BA03A0
:101BF0009ECFFD01DC01C0CF13821282D7CF4F925E
:101C00005F926F927F928F929F92AF92BF92CF928C
:101C1000DF92EF92FF920F931F93CF93DF938C018C
:101C2000009799F4CB01DF91CF911F910F91FF9015
:101C3000EF90DF90CF90BF90AF909F908F907F906C
:101C40006F905F904F900C94DA0CFC01E60FF71F39
:101C50009C0122503109E217F30708F4AEC0D90104
:101C6000CD91DC911197C617D70720F1C530D1056A
:101C700078F0CE0104978617970750F0C61BD70B54
:101C80002297C193D1936D937C93CF010E94760DDF
:101C9000C801DF91CF911F910F91FF90EF90DF90DE
:101CA000CF90BF90AF909F908F907F906F905F90FC
:101CB0004F9008955B01AC1ABD0A4C018C0E9D1E1D
:101CC000A091BA03B091BB03512C412CF12CE12C13
:101CD000109731F58091B8039091B9038815990553
:101CE00009F05CC04616570608F058C080911202F1
:101CF00090911302009741F48DB79EB74091160260
:101D000050911702841B950BE817F90708F055C08E
:101D1000F093B903E093B803F90171836083B8CFFE
:101D20008D919C91119712966C90129713967C90BE
:101D30001397A815B90559F56C0142E0C40ED11CE2
:101D4000CA14DB0420F1AC014A195B09DA011296CE
:101D5000159780F06282738251834083D9016D931D
:101D60007C93E114F10471F0D7011396FC93EE9388
:101D700012978ECF22968C0F9D1FF901918380833D
:101D8000F301EFCFF093BB03E093BA0381CF481682
:101D9000590608F42C017D01D3019ACFCB010E9492
:101DA000DA0C7C01009749F0AE01B8010E94E50E03
:101DB000C8010E94760D87016BCF10E000E068CF6C
:101DC00081E090E0F8940C94F50EFB01DC0102C078
:101DD00001900D9241505040D8F70895FB01DC016D
:101DE00001900D920020E1F70895F894FFCF0000D4
:101DF0000E1F1F0A00000000000E1F1F0A00010036
:101E00000000BC038000004014540040105000004B
:101E10000000DC04AF0478068504A8049504860459
:101E2000000000000C037A0178061E04F507F60294
:101E30005F0640064D656E7520496E666F726D6176
:101E400063696F6E003E20446973706F6E69626CE7
:101E50006573003E2052657365727661646F73002E
:101E60003E204F63757061646F7300207061727102
:101E700075656F7300546F74616C20646973706F63
:101E80006E69626C6500546F74616C207265736575
:101E9000727661646F00546F74616C206F6375704B
:041EA00061646F000A
:020000040003F7
:10E000000D9489F10D94B2F10D94B2F10D94B2F129
:10E010000D94B2F10D94B2F10D94B2F10D94B2F1F0
:10E020000D94B2F10D94B2F10D94B2F10D94B2F1E0
:10E030000D94B2F10D94B2F10D94B2F10D94B2F1D0
:10E040000D94B2F10D94B2F10D94B2F10D94B2F1C0
:10E050000D94B2F10D94B2F10D94B2F10D94B2F1B0
:10E060000D94B2F10D94B2F10D94B2F10D94B2F1A0
:10E070000D94B2F10D94B2F10D94B2F10D94B2F190
:10E080000D94B2F10D94B2F10D94B2F10D94B2F180
:10E090000D94B2F10D94B2F10D94B2F10D94B2F170
:10E0A0000D94B2F10D94B2F10D94B2F10D94B2F160
:10E0B0000D94B2F10D94B2F10D94B2F10D94B2F150
:10E0C0000D94B2F10D94B2F10D94B2F10D94B2F140
:10E0D0000D94B2F10D94B2F10D94B2F10D94B2F130
:10E0E0000D94B2F141546D656761323536300041AF
:10E0F000726475696E6F206578706C6F72657220DE
:10E1000073746B3530305632206279204D4C530099
:10E11000426F6F746C6F616465723E004875683F52
:10E1200000436F6D70696C6564206F6E203D200048
:10E130004350552054797065202020203D20005FF9
:10E140005F4156525F415243485F5F3D2000415658
:10E1500052204C696243205665723D20004743437C
:10E160002056657273696F6E203D20004350552024
:10E1700049442020202020203D20004C6F7720663D
:10E18000757365202020203D20004869676820665F
:10E190007573652020203D200045787420667573D6
:10E1A00065202020203D20004C6F636B2066757336
:10E1B000652020203D20004D617220203720323024
:10E1C000313300312E362E3800342E332E350056A2
:10E1D00023202020414444522020206F7020636F70
:10E1E00064652020202020696E73747275637469E1
:10E1F0006F6E2061646472202020496E74657272B3
:10E20000757074006E6F20766563746F7200726A49
:10E210006D702020006A6D70200057686174207056
:10E220006F72743A00506F7274206E6F7420737541
:10E2300070706F72746564004D7573742062652030
:10E2400061206C6574746572002000577269747483
:10E25000696E672045450052656164696E672045B7
:10E26000450045452065727220636E743D00504F35
:10E27000525400303D5A65726F2061646472003FF1
:10E280003D43505520737461747300403D454550C3
:10E29000524F4D207465737400423D426C696E6B41
:10E2A000204C454400453D44756D70204545505215
:10E2B0004F4D00463D44756D7020464C415348001B
:10E2C000483D48656C70004C3D4C69737420492F83
:10E2D0004F20506F72747300513D51756974005234
:10E2E0003D44756D702052414D00563D73686F7707
:10E2F00020696E7465727275707420566563746FF0
:10E30000727300593D506F727420626C696E6B00BD
:10E310002A0011241FBECFEFD1E2DEBFCDBF01E046
:10E320000CBF12E0A0E0B2E0EEE1FDEF03E00BBFB6
:10E3300002C007900D92A030B107D9F712E0A0E01B
:10E34000B2E001C01D92AE30B107E1F70F9460F367
:10E350000D948DFE01E20EBF0FEF0DBF11241FBE05
:10E360000D9460F30D9400F020E030E040ED57E0B4
:10E3700005C0FA013197F1F72F5F3F4F2817390792
:10E38000C0F308959C01260F311DC901A0E0B0E043
:10E390002F5F3F4FABBFFC018791882361F08093D3
:10E3A000C6008091C00086FFFCCF8091C0008064D1
:10E3B0008093C000EACF08958DE08093C6008091DD
:10E3C000C00086FFFCCF8091C00080648093C000B5
:10E3D0008AE08093C6008091C00086FFFCCF8091C8
:10E3E000C00080648093C00008950F94C2F10F9420
:10E3F000DCF10895FC019081992359F09093C600B7
:10E400008091C00086FFFCCF8091C0008064809323
:10E41000C0003196992379F70895282F982F929567
:10E420009F70892F805D8A3308F0895F8093C600D2
:10E430008091C00086FFFCCF8091C00080648093F3
:10E44000C000822F8F70982F905D9A3308F0995FEB
:10E450009093C6008091C00086FFFCCF8091C000E1
:10E4600080648093C00008959C01FB01853691056E
:10E470001CF46330710594F0C90164E670E00F94F8
:10E480002EFE605D7F4F6093C6008091C00086FFC6
:10E49000FCCF8091C00080648093C0002B30310598
:10E4A00014F43297B4F0C90164E670E00F942EFEC4
:10E4B0006AE070E00F942EFE605D7F4F6093C600AF
:10E4C0008091C00086FFFCCF8091C0008064809363
:10E4D000C000C9016AE070E00F942EFEC0968093E0
:10E4E000C6008091C00086FFFCCF8091C000806490
:10E4F0008093C00008951F93182F8EE692EE60E07F
:10E500000F94C2F11093C6008091C00086FFFCCF2B
:10E510008091C00080648093C0000F94DCF11F9153
:10E5200008952F923F924F925F926F927F928F92B7
:10E530009F92AF92BF92CF92DF92EF92FF920F9392
:10E540001F93DF93CF93CDB7DEB762970FB6F894E2
:10E55000DEBF0FBECDBF382E622ECA01DB015C01CB
:10E560006D01772420E2222E2E010894411C511CBB
:10E570008BC081E0A81680E0B80681E0C80680E084
:10E58000D80628F0C601AA27BB270F940DF2BB2797
:10E59000AD2D9C2D8B2D0F940DF28A2D0F940DF225
:10E5A0002092C6008091C00086FFFCCF8091C00001
:10E5B00080648093C0009DE29093C6008091C0006B
:10E5C00086FFFCCF8091C00080648093C0002092C1
:10E5D000C6008091C00086FFFCCF8091C00080649F
:10E5E0008093C00019828601750188249924A1E0D6
:10E5F0003A1651F03A1620F0B2E03B1661F409C029
:10E600000BBFF701779007C0C7010F9477FE782EF4
:10E6100002C0F7017080872D0F940DF22092C60082
:10E620008091C00086FFFCCF8091C0008064809301
:10E63000C000872D8052F401EF70F0708F3520F408
:10E64000E40DF51D708204C0E40DF51D8EE280839B
:10E650000894E11CF11C011D111D0894811C911CE2
:10E6600090E18916910409F0C2CF80E190E0A0E02A
:10E67000B0E0A80EB91ECA1EDB1E198AC2010F9493
:10E68000FAF10F94DCF16A94662009F072CF629679
:10E690000FB6F894DEBF0FBECDBFCF91DF911F91B3
:10E6A0000F91FF90EF90DF90CF90BF90AF909F9031
:10E6B0008F907F906F905F904F903F902F90089534
:10E6C0002F923F924F925F926F927F928F929F9282
:10E6D000AF92BF92CF92DF92EF92FF920F931F9370
:10E6E000DF93CF93CDB7DEB7CD53D1400FB6F894BB
:10E6F000DEBF0FBECDBF01E20EBF0FEF0DBF94B75F
:10E70000F894A89514BE80916000886180936000A1
:10E7100010926000789493FF05C0E0910002F091A0
:10E7200001021995279A2F9A8091C00082608093E8
:10E73000C00080E18093C40088E18093C1000000A4
:10E74000EE24FF24870144E0A42EB12CCC24DD2448
:10E7500024C0C5010197F1F70894E11CF11C011DCB
:10E76000111D21E2E2162EE4F20620E0020720E06D
:10E77000120718F031E0C32ED12CC801B70127ECE5
:10E780003BE140E050E00F9441FE611571058105C9
:10E79000910519F485B1805885B98091C00087FD35
:10E7A00003C0C114D104A9F2A6014F5F5F4FC25E3E
:10E7B000DE4F59834883CE51D140C25EDE4F8881FF
:10E7C0009981CE51D140019711F00D9410FEC05D9A
:10E7D000DE4F19821882C053D14060E0C15DDE4F28
:10E7E0001882CF52D14088249924C35DDE4F19820C
:10E7F0001882CD52D140C05EDE4F188219821A8233
:10E800001B82C052D140CE5CDE4F188219821A8220
:10E810001B82C253D140EE24FF2487010BBFF701B6
:10E8200007911691C45CDE4F19830883CC53D14005
:10E830000D940BFEC25EDE4F28813981CE51D1404E
:10E840002130310509F52091C600C25EDE4F1982E4
:10E850001882CE51D14022C02F5F3F4F4F4F5F4FA4
:10E86000213082E138078AE7480780E0580780F0C6
:10E87000C45CDE4FE881F981CC53D140EF5FFF4F9C
:10E8800019F0EE27FF27099420E030E040E050E047
:10E890008091C00087FFE0CF2091C600C35DDE4FAE
:10E8A00048815981CD52D1404F5F5F4FC35DDE4FEC
:10E8B00059834883CD52D140213209F063C64A3092
:10E8C000510508F05FC60894811C911C53E0851621
:10E8D000910409F059C600E010E018C081E280936D
:10E8E000C6008091C00086FFFCCF8091C00080648C
:10E8F0008093C0002F5F3F4F2931310579F70F9486
:10E90000DCF10F5F1F4F0530110519F020E030E0FA
:10E91000E5CF10920A0210920B0210920C02109294
:10E920000D02109206021092070210920802109235
:10E930000902109202021092030210920402109235
:10E9400005028FEE90EE60E00F94F5F180E191EE1C
:10E9500060E00F94C2F18091C00087FFFCCF9091DE
:10E96000C600903608F09F759032B8F09093C600BC
:10E970008091C00086FFFCCF8091C00080648093AE
:10E98000C000A0E2A093C6008091C00086FFFCCF2B
:10E990008091C00080648093C000983409F4D7C18E
:10E9A0009934B8F4923409F459C1933458F490333B
:10E9B00019F1903308F4E3C59F33A1F1903409F0C5
:10E9C000DEC5BDC0953409F470C1963409F0D7C5D1
:10E9D00098C1923509F42BC2933538F49C3409F46C
:10E9E000F5C1913509F0CBC518C2963509F445C279
:10E9F000993509F0C4C567C483E792EE62E00F94CD
:10EA0000F5F110920602109207021092080210927D
:10EA1000090210920A0210920B0210920C0210923C
:10EA20000D0213C18FE792EE62E00F94F5F18FEEC5
:10EA300090EE60E00F94F5F181E291EE60E00F94CA
:10EA4000C2F187EB91EE60E00F94F5F180E391EE77
:10EA500060E00F94C2F184EE90EE60E00F94F5F167
:10EA60008FE391EE60E00F94C2F186E090E061E008
:10EA700070E00F9434F20F94DCF18DE591EE60E0DC
:10EA80000F94C2F189EC91EE60E00F94F5F18EE401
:10EA900091EE60E00F94C2F183EC91EE60E00F9490
:10EAA000F5F18CE691EE60E00F94C2F18EE10F94E7
:10EAB0000DF288E90F940DF281E00F940DF20F949E
:10EAC000DCF18BE791EE60E00F94C2F119E0E0E039
:10EAD000F0E010935700E4918E2F0F940DF20F94F5
:10EAE000DCF18AE891EE60E00F94C2F1E3E0F0E03F
:10EAF00010935700E4918E2F0F940DF20F94DCF1D8
:10EB000089E991EE60E00F94C2F1E2E0F0E0109349
:10EB10005700E4918E2F0F940DF20F94DCF188EAE8
:10EB200091EE60E00F94C2F1E1E0F0E01093570045
:10EB30001491812F0F940DF20F94DCF107CF8BE825
:10EB400092EE62E00F94F5F18BE492EE60E00F94A8
:10EB5000F5F10F94DCF100E010E019C0C8016F2D51
:10EB60000F947FFEFF2031F489E492EE60E00F9471
:10EB7000C2F10BC0F092C6008091C00086FFFCCFAE
:10EB80008091C00080648093C0000F5F1F4FC80158
:10EB900081519F41A0E0B0E0ABBFFC01F790BAE229
:10EBA000FB1621F0E2E000301E07C1F60F94DCF105
:10EBB0000F94DCF187E592EE60E00F94F5F10F948D
:10EBC000DCF1CC24DD2400E010E01EC0C8010F946D
:10EBD00077FEF82E882331F489E492EE60E00F94FA
:10EBE000C2F10BC08093C6008091C00086FFFCCFAD
:10EBF0008091C00080648093C000FE1419F00894D6
:10EC0000C11CD11C0F5F1F4FC80181519F41A0E063
:10EC1000B0E0ABBFFC01E790FAE2EF1621F022E092
:10EC20000030120799F60F94DCF10F94DCF182E6C4
:10EC300092EE60E00F94C2F1C60161E070E00F94C3
:10EC400034F20F94DCF10F94DCF110920202109276
:10EC50000302109204021092050278CE89E992EE26
:10EC600062E00F94F5F1279A2F9A16C02F9880E052
:10EC700090E0E0EDF7E03197F1F7019684369105E9
:10EC8000C1F72F9A80E090E0E0EDF7E03197F1F7DF
:10EC9000019684369105C1F78091C00087FFE6CFC9
:10ECA0008091C00087FFFCCF64C485EA92EE62E0E9
:10ECB0000F94F5F140910202509103026091040219
:10ECC0007091050281E020E10F9491F2809102029F
:10ECD00090910302A0910402B091050280509F4FD1
:10ECE000AF4FBF4F8093020290930302A0930402A0
:10ECF000B093050280509041A040B04008F426CE69
:10ED0000A4CF83EB92EE62E00F94F5F140910602FE
:10ED100050910702609108027091090280E020E1A1
:10ED20000F9491F28091060290910702A09108023F
:10ED3000B091090280509F4FAF4FBF4F80930602A2
:10ED400090930702A0930802B0930902FFCD80ECD4
:10ED500092EE62E00F94F5F183E792EE60E00F949B
:10ED6000F5F18FE792EE60E00F94F5F18BE892EE0B
:10ED700060E00F94F5F189E992EE60E00F94F5F10F
:10ED800085EA92EE60E00F94F5F183EB92EE60E09D
:10ED90000F94F5F180EC92EE60E00F94F5F187ECC2
:10EDA00092EE60E00F94F5F188ED92EE60E00F9442
:10EDB000F5F18FED92EE60E00F94F5F18AEE92EEB0
:10EDC00060E00F94F5F183E093EEBDCD87EC92EE19
:10EDD00062E00F94F5F181E40F947BF282E40F94EA
:10EDE0007BF283E40F947BF284E40F947BF285E45E
:10EDF0000F947BF286E40F947BF287E40F947BF20E
:10EE000088E40F947BF28AE40F947BF28BE40F94F6
:10EE10007BF28CE40F947BF299CD88ED92EE62E068
:10EE20000F94F5F1772473948824992409C48FED05
:10EE300092EE62E00F94F5F140910A0250910B02BC
:10EE400060910C0270910D0282E020E10F9491F22A
:10EE500080910A0290910B02A0910C02B0910D02D8
:10EE600080509F4FAF4FBF4F80930A0290930B0289
:10EE7000A0930C02B0930D0269CD8AEE92EE62E08F
:10EE80000F94F5F184EE90EE60E00F94F5F18FECC5
:10EE900091EE60E00F94F5F1662477244301CC5D98
:10EEA000DE4F19821882C452D140D401C301B695F5
:10EEB000A79597958795CA5DDE4F88839983AA8326
:10EEC000BB83C652D140CC5DDE4FA881B981C4520C
:10EED000D1401196CC5DDE4FB983A883C452D14096
:10EEE000CD0162E070E00F9434F2B0E2B093C6005E
:10EEF0008091C00086FFFCCF8091C0008064809329
:10EF0000C000EDE2E093C6008091C00086FFFCCF18
:10EF10008091C00080648093C000F0E2F093C6004E
:10EF20008091C00086FFFCCF8091C00080648093F8
:10EF3000C000CA5DDE4FE880F9800A811B81C6529D
:10EF4000D140BB27A12F902F8F2D0F940DF2CA5DBA
:10EF5000DE4F8881C652D1400F940DF2B0E2FB2EF5
:10EF6000F092C6008091C00086FFFCCF8091C00067
:10EF700080648093C0000DE30093C6008091C000C0
:10EF800086FFFCCF8091C00080648093C00010E2B7
:10EF90001093C6008091C00086FFFCCF8091C00016
:10EFA00080648093C0008BBEF3012791C65DDE4F65
:10EFB0002883CA52D140A22EBB24CC24DD2408943D
:10EFC000611C711C811C911C8BBEF3018791282E42
:10EFD0003324442455240894611C711C811C911C09
:10EFE0008BBEF3013791C55DDE4F3883CB52D140E4
:10EFF0000894611C711C811C911C8BBEF30147910C
:10F00000C45DDE4F4883CC52D140ADEFEA2EAFEF66
:10F01000FA2EAFEF0A2FAFEF1A2F6E0C7F1C801E57
:10F02000911E142D032DF22CEE24EA0CFB1C0C1D5A
:10F030001D1D0F940DF220E22093C6008091C000A8
:10F0400086FFFCCF8091C00080648093C000C65DC5
:10F05000DE4F8881CA52D1400F940DF230E23093D6
:10F06000C6008091C00086FFFCCF8091C000806404
:10F070008093C000C45DDE4F8881CC52D1400F9494
:10F080000DF240E24093C6008091C00086FFFCCFA5
:10F090008091C00080648093C000C55DDE4F888190
:10F0A000CB52D1400F940DF250E25093C6008091A4
:10F0B000C00086FFFCCF8091C00080648093C000B8
:10F0C0008FEFE8168FEFF80680E0080780E018075A
:10F0D00031F484E092EE60E00F94C2F1DFC0D80119
:10F0E000C7018070907CA070B0708050904CA040A0
:10F0F000B040D1F52FEF3FE340E050E0E222F322B1
:10F1000004231523CA5DDE4FA880B980CA80DB8046
:10F11000C652D140AE0CBF1CC01ED11EAA0CBB1CD7
:10F12000CC1CDD1C8EE092EE60E00F94C2F1BB2798
:10F13000A12F902F8F2D0F940DF28E2D0F940DF285
:10F1400030E23093C6008091C00086FFFCCF8091F2
:10F15000C00080648093C0004EE34093C60080915D
:10F16000C00086FFFCCF87C08EE09EEFA0E0B0E03D
:10F17000E822F9220A231B239CE0E91694E9F90608
:10F1800090E0090790E0190709F088C0C45DDE4FE0
:10F19000A881CC52D140EA2EFF2400E010E0102FCD
:10F1A0000F2DFE2CEE24C55DDE4FB881CB52D14031
:10F1B000EB0EF11C011D111DD601C501817090706F
:10F1C000A070B070DC0199278827E80EF91E0A1F8D
:10F1D0001B1F20EF30E040E050E0A222B322C42207
:10F1E000D52241E1AA0CBB1CCC1CDD1C4A95D1F7F1
:10F1F000EA0CFB1C0C1D1D1D81E090E0A0E0B0E0BE
:10F20000282239224A225B2235E1220C331C441C7D
:10F21000551C3A95D1F7E20CF31C041D151D57013E
:10F220006801AA0CBB1CCC1CDD1C85E192EE60E0E1
:10F230000F94C2F1C801AA27BB270F940DF2BB2778
:10F24000A12F902F8F2D0F940DF28E2D0F940DF274
:10F2500090E29093C6008091C00086FFFCCF809121
:10F26000C00080648093C000AEE3A093C60080918C
:10F27000C00086FFFCCF8091C00080648093C000F6
:10F28000C601AA27BB270F940DF2BB27AD2D9C2DDD
:10F290008B2D0F940DF28A2D0F940DF20F94DCF14B
:10F2A000CC5DDE4FE881F981C452D140F99709F471
:10F2B0004DCBF4E0EF2EF12C012D112D6E0C7F1CA7
:10F2C000801E911EF2CD83E093EE62E00F94F5F183
:10F2D0008AE192EE60E00F94C2F18091C00087FF56
:10F2E000FCCF1091C6001F751093C6008091C0001E
:10F2F00086FFFCCF8091C00080648093C0000F9493
:10F30000DCF1812F81548A3108F036C1163409F4BA
:10F3100095C0173490F4133409F44EC0143430F40B
:10F320001134F1F0123409F01DC130C0143409F465
:10F3300059C0153409F016C16BC01A3409F4C4C0A1
:10F340001B3438F4173409F48FC0183409F00AC19B
:10F35000A1C01B3409F4D2C01C3409F003C1E8C0B9
:10F360008FEF81B90DC082B1809582B980E090E0C5
:10F37000E0EDF7E03197F1F70196883C9105C1F790
:10F380008091C00087FFEFCF12B8EFC08FEF84B934
:10F390000DC085B1809585B980E090E0E0EDF7E0A3
:10F3A0003197F1F70196883C9105C1F78091C00033
:10F3B00087FFEFCF15B8D9C08FEF87B90DC088B1DF
:10F3C000809588B980E090E0E0EDF7E03197F1F7C3
:10F3D0000196883C9105C1F78091C00087FFEFCF6F
:10F3E00018B8C3C08FEF8AB90DC08BB180958BB9A7
:10F3F00080E090E0E0EDF7E03197F1F70196883C8E
:10F400009105C1F78091C00087FFEFCF1BB8ADC059
:10F410008FEF8DB90DC08EB180958EB980E090E0F0
:10F42000E0EDF7E03197F1F70196883C9105C1F7DF
:10F430008091C00087FFEFCF1EB897C08FEF80BBD1
:10F440000DC081B3809581BB80E090E0E0EDF7E0F6
:10F450003197F1F70196883C9105C1F78091C00082
:10F4600087FFEFCF11BA81C08FEF83BB0DC084B38C
:10F47000809584BB80E090E0E0EDF7E03197F1F714
:10F480000196883C9105C1F78091C00087FFEFCFBE
:10F4900014BA6BC08FEF809301010FC080910201FD
:10F4A00080958093020180E090E0E0EDF7E03197F5
:10F4B000F1F70196883C9105C1F78091C00087FF64
:10F4C000EDCF1092020151C08FEF809304010FC065
:10F4D0008091050180958093050180E090E0E0ED4A
:10F4E000F7E03197F1F70196883C9105C1F78091DB
:10F4F000C00087FFEDCF1092050137C08FEF8093DA
:10F5000007010FC08091080180958093080180E079
:10F5100090E0E0EDF7E03197F1F70196883C910536
:10F52000C1F78091C00087FFEDCF109208011DC088
:10F530008FEF80930A010FC080910B01809580931B
:10F540000B0180E090E0E0EDF7E03197F1F70196F4
:10F55000883C9105C1F78091C00087FFEDCF1092E4
:10F560000B0103C085E292EEEEC98091C00087FFD7
:10F57000FCCF8091C600EAC988E392EEE4C98CE131
:10F5800091EEE1C988249924933011F1943028F444
:10F59000913089F09230B8F408C0953061F195301F
:10F5A000F0F0963009F048C043C02B3109F042C951
:10F5B00091E06BE13FC96227C15DDE4F2883CF52E6
:10F5C000D14092E037C9B22FA0E0622793E032C960
:10F5D000822F90E0A82BB92B622794E02BC92E3004
:10F5E00009F039C3622795E0C05DDE4F19821882A9
:10F5F000C053D1401FC9E1E0F0E0EC0FFD1FC05D3A
:10F60000DE4F08811981C053D140E00FF11F2083E4
:10F610000F5F1F4FC05DDE4F19830883C053D14079
:10F6200062270A171B0709F005C9D80196E002C92D
:10F63000261709F010C303C0973009F0FBC87724E0
:10F640009981933109F412C19431C8F4963009F4C8
:10F65000D8C0973050F4923009F406C1933009F4C1
:10F660006DC0913009F059C253C0913109F477C08F
:10F67000923108F0BBC0903109F04FC2F5C098310B
:10F6800009F487C0993150F4953109F4EFC09531F0
:10F6900008F4C6C1963109F040C2C2C19A3109F4DA
:10F6A0006CC09A3108F491C09B3109F45BC09D3164
:10F6B00009F033C29D81903359F48F81882311F46E
:10F6C0009EE11CC0813011F091E018C098E916C08D
:10F6D000892F807591F0903539F4E0E0F0E089E011
:10F6E0008093570094910AC0983539F4E3E0F0E034
:10F6F00089E080935700949101C090E01A821B82A8
:10F700008D818C831D829E831F8227E030E009C299
:10F710001A8288E08B8381E48C8386E58D8382E581
:10F720008E8389E48F8383E5888780E589878FE5E9
:10F730008A8782E38B872BE030E0F3C18A818139AD
:10F7400041F0823941F0803911F48FE005C080E04A
:10F7500003C082E001C08AE01A828B8344C0772410
:10F76000739482C08D81882311F48EE12CC0813086
:10F7700011F081E028C088E926C01A82E1E0F0E0BB
:10F7800089E08093570084918B831C8224E030E0D1
:10F79000C8C18B81803589F48C81883039F4E2E0EE
:10F7A000F0E089E08093570084910DC0E0E0F0E044
:10F7B00089E080935700849106C0E3E0F0E089E09F
:10F7C0008093570084911A82DFCF8D81836C99E0FA
:10F7D000E1E0F0E0082E90935700E89507B600FCB2
:10F7E000FDCF1A821B8223E030E09BC180EC8A832C
:10F7F000CE5CDE4F188219821A821B82C253D1401E
:10F800008EC18A8190E0A0E0B0E0582F44273327D2
:10F8100022278B8190E0A0E0B0E0DC0199278827C7
:10F82000282B392B4A2B5B2B8D8190E0A0E0B0E098
:10F83000282B392B4A2B5B2B8C8190E0A0E0B0E089
:10F84000BA2FA92F982F8827282B392B4A2B5B2BCF
:10F85000220F331F441F551FC05EDE4F288339839C
:10F860004A835B83C052D1401A8259C13A81C95C34
:10F87000DE4F3883C753D140CA5CDE4F1882C6536F
:10F88000D1408B81C82EDD24CA5CDE4F488159816E
:10F89000C653D140C42AD52A933109F082C0CE5C28
:10F8A000DE4F88819981AA81BB81C253D1408050AB
:10F8B000904CA340B04030F583E0CE5CDE4FE88052
:10F8C000F9800A811B81C253D140F70100935B008C
:10F8D00080935700E89507B600FCFDCFCE5CDE4F65
:10F8E000088119812A813B81C253D14000501F4FAA
:10F8F0002F4F3F4FCE5CDE4F088319832A833B8313
:10F90000C253D140C05EDE4F488159816A817B81FC
:10F91000C052D140DE011B9631E08C9111962C91A2
:10F9200011971296C75CDE4F2883C953D140C85C3B
:10F93000DE4F1882C853D14090E0C85CDE4FE881AA
:10F94000F981C853D1408E2B9F2B0C01FA01609393
:10F950005B0030935700E89511244E5F5F4F6F4F67
:10F960007F4F0EEFE02E0FEFF02ECE0CDF1CC114F8
:10F97000D10499F685E0C05EDE4F088119812A81A5
:10F980003B81C052D140F80120935B008093570027
:10F99000E89507B600FCFDCF81E180935700E8951C
:10F9A00035C0C05EDE4F88819981AA81BB81C0527B
:10F9B000D140B695A795979587957C018601ABE0D8
:10F9C000AA2EB12CAC0EBD1E0BC0D5016D915D01F0
:10F9D000C7010F947FFE0894E11CF11C01501040F8
:10F9E0000115110591F7A60160E070E0440F551F65
:10F9F000661F771FC05EDE4FE880F9800A811B8199
:10FA0000C052D1404E0D5F1D601F711F1A82C05E33
:10FA1000DE4F488359836A837B83C052D1407FC0C5
:10FA2000FA80C55CDE4FF882CB53D140C65CDE4F16
:10FA30001882CA53D1408B81C82EDD24C65CDE4FAC
:10FA400008811981CA53D140C02AD12A1A828981DA
:10FA5000BE016D5F7F4F843121F59601C05EDE4FA0
:10FA6000E880F9800A811B81C052D1400BBFF701A9
:10FA700087919691DB018C9311969C936E5F7F4FDB
:10FA8000D801C7010296A11DB11DC05EDE4F88835B
:10FA90009983AA83BB83C052D14022503040F1F6F3
:10FAA00036C0C05EDE4F288139814A815B81C052F9
:10FAB000D1400894C108D108760100E010E0089414
:10FAC000C11CD11C0894E11CF11C011D111DE20E8A
:10FAD000F31E041F151F21BDBB27A52F942F832FB5
:10FAE00082BD2F5F3F4F4F4F5F4FF89A80B5DB01CC
:10FAF0008D93BD012E153F054007510761F7C05E8C
:10FB0000DE4F288339834A835B83C052D1409601FC
:10FB10002D5F3F4FFB01108204C080EC8A8322E0FE
:10FB200030E08BE18093C6008091C00086FFFCCF5F
:10FB30008091C00080648093C000C15DDE4FF88179
:10FB4000CF52D140F093C6008091C00086FFFCCF19
:10FB50008091C00080648093C000432F3093C60022
:10FB60008091C00086FFFCCF8091C00080648093AC
:10FB7000C000922F2093C6008091C00086FFFCCF6A
:10FB80008091C00080648093C0008EE08093C600A6
:10FB90008091C00086FFFCCF8091C000806480937C
:10FBA000C00065E1C15DDE4FE880CF52D1406E25D7
:10FBB00069276427FE01319610C090819093C6009A
:10FBC0008091C00086FFFCCF31968091C000806498
:10FBD0008093C0006927215030402115310569F715
:10FBE0006093C6008091C00086FFFCCF8091C0006A
:10FBF00080648093C00085B1805885B9772081F4F6
:10FC0000C15DDE4F0881CF52D1400F5FC15DDE4F35
:10FC10000883CF52D14090E0A0E0B0E00D941AF4F8
:10FC200027982F9880E090E020ED37E0F901319798
:10FC3000F1F7019684369105C9F700008091C00064
:10FC40008D7F8093C00081E180935700E895EE2777
:10FC5000FF270994FFCF90E00D941AF497FB092E2B
:10FC600007260AD077FD04D02ED006D000201AF443
:10FC7000709561957F4F0895F6F7909581959F4F08
:10FC80000895A1E21A2EAA1BBB1BFD010DC0AA1FDD
:10FC9000BB1FEE1FFF1FA217B307E407F50720F0F5
:10FCA000A21BB30BE40BF50B661F771F881F991F70
:10FCB0001A9469F760957095809590959B01AC01B9
:10FCC000BD01CF010895AA1BBB1B51E107C0AA1FAC
:10FCD000BB1FA617B70710F0A61BB70B881F991FED
:10FCE0005A95A9F780959095BC01CD010895F99991
:10FCF000FECF92BD81BDF89A992780B50895262F31
:10FD0000F999FECF1FBA92BD81BD20BD0FB6F89400
:0EFD1000FA9AF99A0FBE01960895F894FFCF63
:00000001FF
