:020000040000FA
:100000000C9467010C9498010C9498010C9498013D
:100010000C9498010C9498010C9498010C949801FC
:100020000C9498010C9498010C9498010C949801EC
:100030000C9498010C9498010C9498010C949801DC
:100040000C9498010C9498010C9498010C949801CC
:100050000C9498010C9498010C9498010C945F0DE9
:100060000C9498010C94290D0C94FF0C0C9498019D
:100070000C9498010C9498010C9498010C9498019C
:100080000C9498010C9498010C9498010C9498018C
:100090000C94C90C0C949F0C0C9498010C94A90D11
:1000A0000C9498010C9498010C9498010C9498016C
:1000B0000C9498010C9498010C9498010C9498015C
:1000C0000C9498010C9498010C9498010C9498014C
:1000D0000C9498010C9498010C9498010C9498013C
:1000E0000C9498010C9419050C946A020C94110953
:1000F0000C9434030C9467030C943D030C941A0283
:100100000C9480070C9466070C9455030C94B7026A
:100110000C94F9040C9413050C94DB050C94DD0588
:100120000C9430030C945D030C94C7050C9463038A
:100130000C9456070C9428030C94EF060C94790742
:100140000C9411050C9437050C9457070C94D904A2
:100150000C942C030C94C1010C9422030C944103C5
:100160000C94E7040C9423050C944B030C94470364
:100170000C9449090C94AD070C9459030C94310567
:100180000C94CD0E0C9406020C94DC050C94280201
:100190000C94F7010C94CF040C9437030C944F0388
:1001A0000C9430090C9462030C944C09000021005B
:1001B000240027002A002D00300033000101000038
:1001C000040107010A0100002200250028002B007D
:1001D0002E003100340002010000050108010B016E
:1001E000000020002300260029002C002F003200F0
:1001F00000010000030106010901050505050705C9
:1002000008080808020202020A0A08080404040492
:1002100001010101010101010303030303030303BE
:10022000040707070C0C0C0C0C0C0C0C020202024D
:1002300006060606060606060B0B0B0B0B0B0B0B36
:1002400001021020200808102040102040800201E8
:1002500002010804020101020408102040808040CD
:1002600020100804020180040201804020100804CC
:10027000020108040201010204081020408001026A
:1002800004081020408000000A0B02090C0D0E0823
:10029000070304010000000000000000000000004F
:1002A000000000000000000000000000000000004E
:1002B000000012111000000000000000000000000B
:1002C000000000000000000000000000CD0E11241E
:1002D0001FBECFEFD1E2DEBFCDBF00E00CBF25E0F7
:1002E000A6EFB2E001C01D92A337B207E1F712E01A
:1002F000A0E0B2E0E2E6F2E300E00BBF02C007904C
:100300000D92A63FB107D9F711E0C7E6D1E000E0B2
:1003100006C021970109802FFE010E94F816C636FB
:10032000D10780E00807A9F70E94C20F0C942F198B
:100330000C940000FC01A089B18982E08C93A48513
:10034000B5851C92A685B7858FEC8C93108EA489F9
:10035000B58986E08C93A289B3898C9180618C9356
:10036000A289B3898C9188608C93A289B3898C917E
:1003700080688C930288F389E02D80818F7D808353
:100380000895AF92BF92CF92DF92EF92FF920F93B8
:100390001F93CF93DF936C017B018B01040F151F1B
:1003A000EB015E01AE18BF08C017D10759F0699183
:1003B000D601ED91FC910190F081E02DC6011995D7
:1003C000892B79F7C501DF91CF911F910F91FF9094
:1003D000EF90DF90CF90BF90AF900895FC014481E3
:1003E00055816081718182E295E00C94C101FC012C
:1003F000538D448D252F30E0842F90E0821B930B8A
:10040000541710F0CF96089501970895FC01918D2F
:10041000828D981761F0A28DAE0FBF2FB11D5D9632
:100420008C91928D9F5F9F73928F90E008958FEFD4
:100430009FEF0895FC01918D828D981731F0828D88
:10044000E80FF11D858D90E008958FEF9FEF0895DF
:10045000FC01918D228D892F90E0805C9F4F821B43
:1004600091098F73992708958CED93E00E942802DB
:1004700021E0892B09F420E0822F089589E794E098
:100480000E94280221E0892B09F420E0822F0895A0
:10049000FC01A48DA80FB92FB11DA35ABF4F2C91F9
:1004A000848D90E001968F739927848FA689B789F0
:1004B0002C93A089B1898C91837080648C93938DE7
:1004C000848D981306C00288F389E02D80818F7D8A
:1004D00080830895EF92FF920F931F93CF93DF9342
:1004E000EC0181E0888F9B8D8C8D98131AC0E88970
:1004F000F989808185FF15C09FB7F894EE89FF893F
:100500006083E889F98980818370806480839FBFDC
:1005100081E090E0DF91CF911F910F91FF90EF90DC
:100520000895F62E0B8D10E00F5F1F4F0F731127EC
:10053000E02E8C8D8E110CC00FB607FCFACFE88927
:10054000F989808185FFF5CFCE010E944802F1CF65
:10055000EB8DEC0FFD2FF11DE35AFF4FF0829FB79B
:10056000F8940B8FEA89FB8980818062CFCFCF938B
:10057000DF93EC01888D8823B9F0AA89BB89E889CB
:10058000F9898C9185FD03C0808186FD0DC00FB671
:1005900007FCF7CF8C9185FFF2CF808185FFEDCFEF
:1005A000CE010E944802E9CFDF91CF91089580E00B
:1005B00090E0892B29F00E943E0281110E940000E8
:1005C00080E090E0892B29F00E94340281110E9482
:1005D000000080E090E0892B49F080E090E0892BDA
:1005E00029F00E94000081110E94000080E090E04C
:1005F000892B49F080E090E0892B29F00E940000CF
:1006000081110C94000008958150823108F05AC085
:10061000E82FF0E08827E05FFC4F8F4F0C94F8162E
:1006200030033403220328032C03620337033D0302
:10063000410347034B034F035503590362035D0313
:1006400063036703809180008F7780938000089513
:10065000809180008F7DF9CF80918000877FF5CFDA
:1006600084B58F7784BD089584B58F7DFBCF80914D
:10067000B0008F778093B00008958091B0008F7D97
:10068000F9CF809190008F778093900008958091AA
:1006900090008F7DF9CF80919000877FF5CF80917A
:1006A000A0008F778093A00008958091A0008F7D97
:1006B000F9CF8091A000877FF5CF809120018F77BF
:1006C000809320010895809120018F7DF9CF809142
:1006D0002001877FF5CFCF93DF93282F30E0F901FA
:1006E000EA57FD4F8491F901E05CFD4FD491F90187
:1006F000E650FE4FC491CC23A1F081110E94040367
:10070000EC2FF0E0EE0FFF1FE052FE4FA591B491E9
:10071000EC91ED2381E090E009F480E0DF91CF914E
:10072000089580E090E0FACF1F93CF93DF93282FB6
:1007300030E0F901EA57FD4F8491F901E05CFD4F8B
:10074000D491F901E650FE4FC491CC23A9F0162FA5
:1007500081110E940403EC2FF0E0EE0FFF1FEA531B
:10076000FE4FA591B4918FB7F894EC91111108C088
:10077000D095DE23DC938FBFDF91CF911F91089539
:10078000DE2BF8CFCF93DF9390E0FC01E05CFD4FD0
:10079000249186509E4FFC0184918823D1F090E0F3
:1007A000880F991FFC01E455FE4FA591B491FC01FF
:1007B000EA53FE4FC591D49161110EC09FB7F894D2
:1007C0008C91E22FE0958E238C932881E223E8839D
:1007D0009FBFDF91CF9108958FB7F894EC91E22BF2
:1007E000EC938FBFF6CF3FB7F8948091B50390910B
:1007F000B603A091B703B091B80326B5A89B05C076
:100800002F3F19F00196A11DB11D3FBFBA2FA92F8F
:10081000982F8827BC01CD01620F711D811D911D8C
:1008200042E0660F771F881F991F4A95D1F70895F8
:100830008F929F92AF92BF92CF92DF92EF92FF92F0
:100840004B015C010E94F3036B017C010E94F303E6
:100850006C197D098E099F09683E734081059105D9
:10086000A8F321E0821A9108A108B10888EEC80E09
:1008700083E0D81EE11CF11C81149104A104B10491
:1008800029F7FF90EF90DF90CF90BF90AF909F90AF
:100890008F9008950F931F93CF93DF93EC018B01FB
:1008A00088859985029751F46130710509F43AC041
:1008B0006CF560E00115110509F435C0888599854E
:1008C000049751F40130110509F455C00CF035C0FE
:1008D0000115110509F43EC088859985059709F031
:1008E000C8C00A30110508F0C4C0F8018827E458D0
:1008F000FB4F8F4F0C94F816CF04D904E704F9048A
:1009000011051305190523053105370562307105F9
:1009100091F060E00330110589F68C850E94940304
:1009200060E005C061E08C850E94940361E08E85E3
:100930000E949403C3CF61E0F0CF0230110509F1AA
:100940000330110509F0C8CF61E08C850E94940343
:1009500060E01CC061E08C850E94940360E08E859D
:100960000E94940361E088890E94940360E08A8970
:100970000E949403B1CF60E08C850E94940361E0F3
:10098000EECF60E08C850E94940361E08E850E942A
:10099000940360E088890E94940361E0E8CF60E0FE
:1009A0008C850E94940361E08E850E94940361E02F
:1009B00009C060E08C850E94940361E08E850E94EE
:1009C000940360E088890E94940360E00DC060E0B9
:1009D0008C850E94940361E08E850E94940360E000
:1009E00088890E94940361E08A890E94940361E0EF
:1009F00011C060E08C850E94940361E08E850E94A6
:100A0000940360E088890E94940361E08A890E94CF
:100A1000940360E08C89DF91CF911F910F910C942A
:100A2000940361E0E7CF61E08C850E94940360E06D
:100A3000E5CF61E08C850E94940360E08E850E9482
:100A4000940361E0DFCF61E08C850E94940360E055
:100A50008E850E94940361E088890E94940360E07F
:100A6000D5CF61E08C850E94940360E09DCF60E06B
:100A7000F9CFDF91CF911F910F9108954F925F921F
:100A80006F927F928F929F92AF92BF92CF92DF929E
:100A9000EF92FF920F931F93CF93DF93EC018B01A3
:100AA00077FF04C000271127061B170B1616170621
:100AB0000CF04AC081E090E09983888384E0E82EBE
:100AC000F12C9AE0C92ED12C0115110509F44EC064
:100AD0000E94F3038E889F88A88CB98C2B013C015F
:100AE000481859086A087B088A809B80AC80BD80C2
:100AF000481459046A047B0438F36E8B7F8B888F0B
:100B0000998F8A859B85288139812130310511F59E
:100B100001969B878A872E813F818217930711F464
:100B20001B861A86015011098A859B85288539857F
:100B3000B6012530310509F0B7010E94A316BC01AA
:100B4000CE010E944A04C0CF672B09F4B7CF1982A7
:100B50001882B4CF892B21F48E819F819B878A874D
:100B60008A859B8501979B878A87DCCFDF91CF9110
:100B70001F910F91FF90EF90DF90CF90BF90AF90BB
:100B80009F908F907F906F905F904F90089521E09D
:100B900001C0220F6A95EAF7DC011C962C931C9782
:100BA0001A965C934E931997ED91FC910484F58508
:100BB000E02D60E0199408950895DC01ED91FC9119
:100BC0000684F785E02D41E0199581E090E00895D5
:100BD000DC01ED91FC910684F785E02D40E019944D
:100BE0000F931F93CF93DF9300D000D01F921F92DB
:100BF000CDB7DEB70091420210914302209144022A
:100C0000309145020D831E832F8338870091460261
:100C100010914702209148023091490209831A83BA
:100C20002B833C8390912905691710F06FEF690FB2
:100C3000262F30E040912A052C0F3D1FF90140314D
:100C400099F4943089F46181680F606882E295E0DC
:100C500028960FB6F894DEBF0FBECDBFDF91CF91BF
:100C60001F910F910C94E8056581EECFEF92FF92F2
:100C70000F931F93CF93DF938B0198E0899FB0016F
:100C80001124606482E295E00E94E80583E790E029
:100C90000197F1F7E801085F1F4F8BE9E82EF12C6F
:100CA000699182E295E00E94DD05C7010197F1F7A5
:100CB000C017D107A9F7DF91CF911F910F91FF9036
:100CC000EF90089561E00E94E8058BE39FE10197B2
:100CD000F1F708950F931F93CF93DF93EC01423008
:100CE00018F08C8188608C834F836887222329F0D9
:100CF000413019F48C8184608C8364E670E080E07C
:100D000090E00E9418046C8164FD50C0E881F98174
:100D10000684F785E02D42E063E0CE0119950BE4EF
:100D200016E4C8010197F1F7E881F9810684F78597
:100D3000E02D42E063E0CE011995C8010197F1F77B
:100D4000E881F9810684F785E02D42E063E0CE0179
:100D5000199583E592E00197F1F7E881F98106841E
:100D6000F785E02D42E062E0CE0119956C8160626A
:100D7000CE010E94E80584E08D836CE0CE010E94E4
:100D8000E805CE010E94620682E08E8366E0CE0115
:100D90000E94E805E881F9810484F585E02D6FEF74
:100DA000CE01DF91CF911F910F9119946062CE0116
:100DB0000E94E8058BE496E40197F1F76C8160628C
:100DC000CE010E94E80583E592E00197F1F76C817E
:100DD0006062CE010E94E805C9CF08950895089584
:100DE00020911703260F3327331F21323105ECF4EE
:100DF00020918803FC0190E080E0243069F082E0DB
:100E00000895A09117032191AC0149505D4FA40FA3
:100E1000B52FB11D2C930196861798F38091170377
:100E2000680F6093170380E0089581E008951092A1
:100E3000880381E0809387031092820361E084E15C
:100E40000E94940361E085E10E949403E9EBF0E0E5
:100E500080818E7F808380818D7F808388E48093F2
:100E6000B80085E48093BC000895CF93DF9391E0B0
:100E70009093F6028823B9F0C091B800D091BA00DF
:100E80008091BC008A7B8093BC0060E084E10E947A
:100E9000940360E085E10E9494030E941707D093B9
:100EA000BA00C093B800DF91CF9108950895E09102
:100EB0008F0380918E03E81730F4F0E0E057FC4F89
:100EC000808190E008958FEF9FEF089590918F03B8
:100ED00080918E032FEF3FEF981748F4E92FF0E051
:100EE000E057FC4F208130E09F5F90938F03C90152
:100EF000089580918E0390918F03891B990B08951B
:100F0000CF92DF92EF92FF920F931F93CF93DF93D5
:100F10007C01CB018A0120913A03222389F0EB0165
:100F20006B01C40ED51ECC15DD0569F06991D701A2
:100F3000ED91FC910190F081E02DC7011995F3CF5F
:100F4000642F0E94F006C801DF91CF911F910F918D
:100F5000FF90EF90DF90CF900895CF93DF931F9293
:100F6000CDB7DEB7698320913A032223F9F02091AF
:100F70006003203258F021E030E0FC01338322830B
:100F800090E080E00F90DF91CF9108958091610310
:100F9000E82FF0E0E55CFC4F998190838F5F8093B0
:100FA00061038093600381E090E0ECCF61E0CE01CB
:100FB00001960E94F006F7CFCF92DF92EF92FF9258
:100FC0000F931F93CF93DF93FC012381222309F416
:100FD000F1C0262F6181609562236083C28181E028
:100FE00080933A03C0935B031092610310926003F5
:100FF00086E195E00E94AD07D091600321E0D132F7
:1010000008F09AC00E94F3036B017C018091880371
:1010100081116CC082E08093880381E08093870314
:101020008FEF8093860310928503D0938403ABE304
:10103000B3E0E2E6F3E080E0D81394C010928303BB
:1010400080918303CC0FC82BC093830380918203CC
:10105000813009F08BC0109282030E94F3036B0170
:101060007C01809183038093BB0080918A039091DF
:101070008B03A0918C03B0918D03892B8A2B8B2B32
:10108000A1F00E94F30300918A0310918B03209139
:101090008C0330918D036C197D098E099F09061709
:1010A00017072807390708F442C08091BC0083FD68
:1010B000D8CF85EC8093BC000E94F3036B017C01C8
:1010C00080918803823009F453C08091860320E028
:1010D0008F3F91F18091860322E0803269F1809107
:1010E000860324E0803341F523E026C080918A0303
:1010F00090918B03A0918C03B0918D03892B8A2B47
:101100008B2B09F483CF0E94F30300918A03109183
:101110008B0320918C0330918D036C197D098E090E
:101120009F09061717072807390708F06FCF809126
:1011300089030E94350725E0109261031092600335
:1011400010923A0330E081E090E0232B11F090E020
:1011500080E0DF91CF911F910F91FF90EF90DF9092
:10116000CF9008959D9191938F5F66CF85EEA2CF2A
:1011700080918A0390918B03A0918C03B0918D0391
:10118000892B8A2B8B2B09F49BCF0E94F3030091B0
:101190008A0310918B0320918C0330918D036C197D
:1011A0007D098E099F09061717072807390708F0D8
:1011B00087CFBDCF30E020E0C6CFEF92FF920F93F4
:1011C0001F93CF938C01FC0184E0C0E0262F30E018
:1011D00060FF02C09589C92BB9017595679581504B
:1011E00031968111F3CF413011F4F8014489F801AF
:1011F0006585C62BC42B7801FEE0EF0EF11CF801CB
:1012000062896C2BC7010E94DC07F8016289609536
:101210006C23C701CF911F910F91FF90EF900C9419
:10122000DC070F931F93CF93DF93062F0F7042308D
:1012300041F440E0602FDF91CF911F910F910C940A
:10124000DD08142FEC0170E084E0759567958A95B0
:10125000E1F7CE010E94DD08412F602FCE01EBCFD8
:10126000FC0184858823A1F0218532852115310573
:1012700021F4611107C0158606C021303105D9F768
:101280006111F9CF85876585CF010E960C94DC0737
:10129000089590E080E008954F925F926F927F9260
:1012A0008F929F92AF92BF92EF92FF920F931F93F4
:1012B000CF93DF93EC01062FF42EE22E8B85888BE3
:1012C00010928F0310928E031092610310926003AC
:1012D0000E9417078BED95E090935F0380935E0368
:1012E0008CED95E090935D0380935C0318890E94D8
:1012F000F3034B015C0180918803811164C081E09C
:1013000080938803809387039FEF909386031092C6
:101310008503109284038093830380918303110FCC
:10132000182B1093830380918203813009F09DC0B4
:10133000109282030E94F3034B015C0180918303AE
:101340008093BB0080918A0390918B03A0918C03C2
:10135000B0918D03892B8A2B8B2BA1F00E94F30374
:1013600040908A0350908B0360908C0370908D03A3
:10137000681979098A099B0946165706680679068D
:1013800008F442C08091BC0083FDD8CF85EC8093E7
:10139000BC000E94F3034B015C0180918803813003
:1013A00009F465C080918503811183C08091850314
:1013B000E2E6F3E0A0E9B3E090E0981751F1219163
:1013C0002D939F5FFACF80918A0390918B03A09118
:1013D0008C03B0918D03892B8A2B8B2B09F48BCF37
:1013E0000E94F30340908A0350908B0360908C031B
:1013F00070908D03681979098A099B09461657066A
:101400006806790608F077CF809189030E94350736
:1014100080E010928F0380938E0391E0811101C0D0
:1014200090E0998B86E195E00E9466078E87898916
:10143000882339F01F861C8260E0CE010E960E9440
:10144000DC072E2D4F2D602FCE01DF91CF911F9104
:101450000F91FF90EF90BF90AF909F908F907F90F3
:101460006F905F904F900C946A0685EE90CF8091BC
:101470008A0390918B03A0918C03B0918D03892BEB
:101480008A2B8B2B09F489CF0E94F30340908A03A7
:1014900050908B0360908C0370908D0368197909CC
:1014A0008A099B09461657066806790608F075CF23
:1014B000ABCF81E07DCFFB0101900020E9F73197B0
:1014C000AF01461B570BDC01ED91FC910280F381CB
:1014D000E02D19948F929F92AF92BF92CF92DF929C
:1014E000EF92FF920F931F93CF93DF93CDB7DEB7A9
:1014F000A1970FB6F894DEBF0FBECDBF6C01990F58
:10150000EE08FF08F7FE4BC06DE28CED93E00E9401
:101510006A028C0122273327A9012C193D094E09A3
:101520005F0919A2CE0181967C019AE0892E912C47
:10153000A12CB12CCA01B901A50194010E94B716D2
:10154000605DF70162937F01211531054105510569
:1015500089F790E080E0309729F0BF018CED93E0AF
:101560000E945B0A080F191F62E872E08CED93E09D
:101570000E945B0A800F911FA1960FB6F894DEBF00
:101580000FBECDBFDF91CF911F910F91FF90EF90D4
:10159000DF90CF90BF90AF909F908F900895A7015C
:1015A000960119A28E010F5D1F4F8AE0C82ED12C23
:1015B000E12CF12CCA01B901A70196010E94B716CE
:1015C000605DF80162938F012115310541055105D8
:1015D00089F7309739F0BF018CED93E00E945B0AE8
:1015E0008C01C2CF10E000E0BFCFBC0182E295E0E9
:1015F0000C945B0A80913A0290913B0282309105F3
:10160000C9F12CF4009759F0019781F008958330C7
:10161000910509F44AC0049709F46AC0089581E06D
:1016200090E090933B0280933A02089582E295E025
:101630000E94620660E080E00E94F00585E892E08A
:101640000E94F50A61E080E00E94F00586E992E0E0
:101650000E94F50A62E080E00E94F00586EA92E0CE
:101660000E94F50A63E080E00E94F00583EB92E0BF
:101670000C94F50A82E295E00E94620660E080E048
:101680000E94F00585E892E00E94F50A61E080E0A2
:101690000E94F00588E992E00E94F50A62E080E08D
:1016A0000E94F00584EA92E0DBCF82E295E00E949E
:1016B000620660E080E00E94F00585E892E00E940A
:1016C000F50A61E080E00E94F00588E992E00E945E
:1016D000F50A62E080E00E94F00586EA92E00E944E
:1016E000F50A63E080E00E94F00581EB92E0C0CF54
:1016F00083E090E096CF0E941A190F931F93CF9327
:10170000DF93EC0188819981009759F02A813B8110
:101710002617370730F081E0DF91CF911F910F91AD
:1017200008958B016F5F7F4F0E943918009759F021
:10173000998388831B830A832C813D81232B59F74E
:10174000FC011082E8CF80E0E7CFCF93DF93EC017C
:1017500088819981009711F00E94B0171982188230
:101760001D821C821B821A82DF91CF9108950F93F4
:101770001F93CF93DF93EC010C811D81075F1F4FF7
:10178000B8010E947D0B882391F0288139818C81DA
:101790009D816CEB72E0820F931F0E9428191D83BC
:1017A0000C83CE01DF91CF911F910F910895CE014F
:1017B0000E94A50BF6CFEF92FF920F931F93CF934A
:1017C000DF93EC01198218821B821A821D821C820F
:1017D0008617970719F1FB01008111810115110589
:1017E000E9F0E480F580B7010E947D0B811109C00A
:1017F000CE01DF91CF911F910F91FF90EF900C944C
:10180000A50BFD82EC82B80188819981DF91CF918F
:101810001F910F91FF90EF900C942819DF91CF91B9
:101820001F910F91FF90EF900895CF92DF92EF926A
:10183000FF920F931F93CF93DF93CDB7DEB76297DD
:101840000FB6F894DEBF0FBECDBF8C01CB01F801FF
:101850001182108213821282158214824AE09E0144
:101860002F5F3F4F6901B9010E946E16F60101908A
:101870000020E9F731977F01EC18FD08B701C80196
:101880000E947D0B811112C0C8010E94A50B6296B7
:101890000FB6F894DEBF0FBECDBFDF91CF911F9181
:1018A0000F91FF90EF90DF90CF900895F801F582AF
:1018B000E482B601808191810E942819E8CFFC0161
:1018C00080819181009711F00C94B017089585EDF7
:1018D0008093BC0080918A0390918B03A0918C032C
:1018E000B0918D030796A11DB11D23E0B695A79574
:1018F000979587952A95D1F72091BC0024FD03C0C8
:1019000010928803089540918A0350918B0360914F
:101910008C0370918D03452B462B472B69F3009761
:10192000A105B10541F02AE22A95F1F700C001971F
:10193000A109B109E1CF809189030C9435071F9269
:101940000F920FB60F9211240BB60F922F933F9365
:101950004F935F936F937F938F939F93AF93BF93B7
:10196000EF93FF938CED93E00E944802FF91EF917B
:10197000BF91AF919F918F917F916F915F914F91A7
:101980003F912F910F900BBE0F900FBE0F901F90A5
:1019900018951F920F920FB60F9211240BB60F924B
:1019A0002F938F939F93EF93FF93E091EC03F0912C
:1019B000ED038081E091F203F091F30382FD1DC0FD
:1019C00090818091F5038F5F8F732091F6038217CA
:1019D00041F0E091F503F0E0E452FC4F958F8093E5
:1019E000F503FF91EF919F918F912F910F900BBE77
:1019F0000F900FBE0F901F9018958081F2CF1F920D
:101A00000F920FB60F9211240BB60F922F933F93A4
:101A10004F935F936F937F938F939F93AF93BF93F6
:101A2000EF93FF9389E794E00E944802FF91EF91C2
:101A3000BF91AF919F918F917F916F915F914F91E6
:101A40003F912F910F900BBE0F900FBE0F901F90E4
:101A500018951F920F920FB60F9211240BB60F928A
:101A60002F938F939F93EF93FF93E0918904F091CD
:101A70008A048081E0918F04F091900482FD1DC062
:101A80009081809192048F5F8F73209193048217CD
:101A900041F0E0919204F0E0E758FB4F958F80937E
:101AA0009204FF91EF919F918F912F910F900BBE18
:101AB0000F900FBE0F901F9018958081F2CF1F924C
:101AC0000F920FB60F9211242F933F938F939F93F2
:101AD000AF93BF938091B1039091B203A091B303F0
:101AE000B091B4033091B00323E0230F2D3758F5A4
:101AF0000196A11DB11D2093B0038093B103909373
:101B0000B203A093B303B093B4038091B503909153
:101B1000B603A091B703B091B8030196A11DB11D02
:101B20008093B5039093B603A093B703B093B80323
:101B3000BF91AF919F918F913F912F910F900FBEC9
:101B40000F901F90189526E8230F0296A11DB11D36
:101B5000D2CF1F920F920FB60F9211240BB60F9295
:101B60002F933F934F935F936F937F938F939F93A5
:101B7000AF93BF93EF93FF938091B900887F803636
:101B800009F44DC008F040C0883209F4A9C028F516
:101B9000803109F49DC0C8F4882309F4FBC0883063
:101BA00009F496C0FF91EF91BF91AF919F918F91F2
:101BB0007F916F915F914F913F912F910F900BBE4D
:101BC0000F900FBE0F901F901895883109F488C0B0
:101BD000803241F78093860314C0803409F49DC09D
:101BE00040F48033B9F38833E9F68093860385ECBB
:101BF000B0C0803509F485C0883509F496C08834B2
:101C000089F60E94670CCECF883909F48CC038F56C
:101C1000883729F050F4883611F0803719F683E0C0
:101C2000809388031092390357C0883809F47BC029
:101C3000803919F0803809F0B5CF809139038032AE
:101C400008F071C0E091390381E08E0F8093390371
:101C50008091BB00F0E0E75EFC4F80833DC0803B9D
:101C600039F0E0F4803A09F479C0883A09F09ACF63
:101C700084E0809388031092180310921703E09178
:101C80005E03F0915F0319958091170381110FC0D6
:101C900081E0809317031092F70209C0803C09F499
:101CA000A6CF883C09F4A3CF883B09F07BCFE09115
:101CB000180381E08E0F80931803F0E0E950FD4F88
:101CC00080818093BB00909118038091170329C0F5
:101CD000809183038093BB0085EC8093BC0062CF2E
:101CE0009091850380918403981758F5E0918503BE
:101CF00081E08E0F80938503F0E0EE59FC4F8081E8
:101D0000E9CFE091850381E08E0F80938503809178
:101D1000BB00F0E0EE59FC4F8083909185038091E9
:101D200084039817C8F285E8D8CFE091850381E055
:101D30008E0F809385038091BB00F0E0EE59FC4F3D
:101D400080838091870381115CCF81E0809382033F
:101D500084EA8093BC001092880324CF85EC8093A2
:101D6000BC001092880380913903803230F4E091F6
:101D70003903F0E0E75EFC4F10826091390370E0B8
:101D8000E0915C03F0915D0389E193E01995109275
:101D9000390308CF1092860334CFEF92FF920F934E
:101DA0001F93CF93DF93ECEDF3E01382128288EE62
:101DB00093E0A0E0B0E084839583A683B7832EE40C
:101DC00032E0318320834DEC50E0558744874CEC62
:101DD00050E05787468748EC50E0518B408B49ECE8
:101DE00050E0538B428B4AEC50E0558B448B4EECC9
:101DF00050E0578B468B118E128E138E148EE9E7AE
:101E0000F4E01382128284839583A683B78331839F
:101E1000208325EC30E03587248724EC30E03787B9
:101E2000268720EC30E0318B208B21EC30E0338BA7
:101E3000228B22EC30E0358B248B26EC30E0378B84
:101E4000268B118E128E138E148EE6E1F5E013822E
:101E5000128284839583A683B78380E692E0918380
:101E60008083C5E5D5E01B861A86198218821E8AF2
:101E70001F8A188E198E82E1E82EF12CFF82EE82E5
:101E800087E390E09D878C8788E390E09F878E872B
:101E900089E390E0998B888B8AE390E09B8B8A8B17
:101EA00061E087E30E94C20361E08E850E94C20365
:101EB00061E088890E94C20361E08A890E94C203AE
:101EC0001D8A1C8A04E010E019870887CBE3D5E05F
:101ED0001B861A86198218821E8A1F8A188E198EEE
:101EE000FF82EE828BE390E09D878C878CE390E00D
:101EF0009F878E878DE390E0998B888B8EE390E0AF
:101F00009B8B8A8B61E08BE30E94C20361E08E852C
:101F10000E94C20361E088890E94C20361E08A894D
:101F20000E94C2031D8A1C8A19870887E2E2F5E035
:101F30001382128282E792E091838083108A8FEF6E
:101F400087871686118A80E2838714861586128613
:101F5000118694E0928B92E0938B91E0948B90E1C8
:101F6000958B868B80E4878B80E8808F50E040E003
:101F700063E0CF01DF91CF911F910F91FF90EF9020
:101F80000C94C705CF93DF93CDB7DEB72C970FB670
:101F9000F894DEBF0FBECDBF789484B5826084BD57
:101FA00084B5816084BD85B5826085BD85B581605D
:101FB00085BD80916E00816080936E0010928100DB
:101FC0008091810082608093810080918100816096
:101FD0008093810080918000816080938000809157
:101FE000B10084608093B1008091B00081608093E3
:101FF000B000809191008260809391008091910067
:102000008160809391008091900081608093900026
:102010008091A10082608093A1008091A1008160E5
:102020008093A1008091A00081608093A0008091A6
:102030002101826080932101809121018160809340
:1020400021018091200181608093200180917A009C
:10205000846080937A0080917A00826080937A0015
:1020600080917A00816080937A0080917A00806804
:1020700080937A001092C10020E044E060E182E2A7
:1020800095E00E944C096FEF82E295E00E943009D2
:1020900060E080E00E94F00585E892E00E94F50A89
:1020A00061E087E00E94C20360E08DE00E94C2030D
:1020B00060E08CE00E94C20360E08BE00E94C203FB
:1020C00061E087E30E94C20361E088E30E94C203EB
:1020D00061E089E30E94C20361E08AE00E94C203DA
:1020E00061E08AE30E94C20360E084E30E94C203CD
:1020F00060E085E30E94C20360E085E30E94C203C2
:1021000061E089E00E94C20361E08BE30E94C203A8
:1021100061E08CE30E94C20361E08DE30E94C20390
:1021200061E08EE30E94C20361E082E00E94C2038C
:1021300016E160E0812F0E94C2031F5F1632C9F7CB
:1021400061E0812F0E94C2031F5F1633C9F760E36D
:1021500072E080E00E94360668E272E081E00E9450
:10216000360660E272E082E00E94360668E172E0C4
:1021700083E00E94360660E172E084E00E94360649
:1021800068E072E085E00E94360660E072E086E07A
:102190000E94360689E794E00E949A018CED93E054
:1021A0000E949A0186E10E946B038130910521F41F
:1021B0009093DB038093DA0387E10E946B03813005
:1021C000910521F49093D9038093D80388E10E946C
:1021D0006B038130910521F49093D7038093D6034C
:1021E00089E10E946B038130910521F49093D5031E
:1021F0008093D4038AE10E946B038130910521F41E
:102200009093D3038093D2038BE10E946B038130C0
:10221000910521F49093D1038093D0038CE10E9427
:102220006B038130910521F49093CF038093CE030B
:102230008DE10E946B038130910521F49093CD03D1
:102240008093CC038EE10E946B038130910521F4D1
:102250009093CB038093CA038FE10E946B0381307C
:10226000910521F49093C9038093C80380E20E94F2
:102270006B038130910521F49093C7038093C603CB
:1022800081E20E946B038130910521F49093C50394
:102290008093C40382E20E946B038130910521F494
:1022A0009093C3038093C20383E20E946B03813047
:1022B000910521F49093C1038093C00384E20E94AE
:1022C0006B038130910521F49093BF038093BE038B
:1022D00085E20E946B038130910521F49093BD0348
:1022E0008093BC030E94FA0A812C97E8992E93E907
:1022F000A92E93E0B92E28E2422E512C612C712C8C
:1023000030E1C32ED12C01E010E089E794E00E9477
:102310002802181619069CF589E794E00E94060227
:10232000813309F09EC120915B0530915C05032E3D
:10233000000C440B550BC501B4010E94D916CA010B
:10234000B901A30192010E94D91620935705309339
:1023500058054093590550935A0564E070E085E5AF
:1023600095E00E943E0560EA7FE080E090E00E94F8
:1023700018046CEF7FEF85E595E00E943E058CED3B
:1023800093E00E94280218161906BCF48CED93E025
:102390000E9406028093B903813409F090C161E084
:1023A00086E20E94940368E873E180E090E00E9476
:1023B000180460E086E20E9494038DE00E946B03A3
:1023C000019709F029C380913A0290913B0201964E
:1023D00090933B0280933A020E94FA0A64E670E00E
:1023E00080E090E00E9418048DE00E946B03892B2E
:1023F000D9F7D0923902C09238021092BB031092E2
:10240000BA0386E1F82E8F2D0E946B03019791F499
:10241000809138029091390201979093390280930C
:1024200038028091BA039091BB0301969093BB034D
:102430008093BA03F39486E2F812E5CF86E10E9416
:102440006B032091DA033091DB038217930739F095
:10245000232B09F0F3C31093DB030093DA0387E126
:102460000E946B032091D8033091D9038217930700
:1024700039F0232B09F0E7C31093D9030093D80355
:1024800088E10E946B032091D6033091D703821715
:10249000930739F0232B09F0DBC31093D703009384
:1024A000D60389E10E946B032091D4033091D503B8
:1024B0008217930739F0232B09F0CFC31093D5036C
:1024C0000093D4038AE10E946B032091D2033091E0
:1024D000D3038217930739F0232B09F0C3C310935A
:1024E000D3030093D2038BE10E946B032091D003AE
:1024F0003091D1038217930739F0232B09F0B7C32A
:102500001093D1030093D0038CE10E946B032091C0
:10251000CE033091CF038217930739F0232B09F0B4
:10252000ABC31093CF030093CE038DE10E946B03E6
:102530002091CC033091CD038217930739F0232BE0
:1025400009F09FC31093CD030093CC038EE10E944A
:102550006B032091CA033091CB038217930739F0A4
:10256000232B09F093C31093CB030093CA038FE18D
:102570000E946B032091C8033091C903821793070F
:1025800039F0232B09F087C31093C9030093C803C4
:1025900080E20E946B032091C6033091C70382172B
:1025A000930739F0232B09F07BC31093C7030093E3
:1025B000C60381E20E946B032091C4033091C503DE
:1025C0008217930739F0232B09F06FC31093C503CB
:1025D0000093C40382E20E946B032091C2033091F6
:1025E000C3038217930739F0232B09F063C31093B9
:1025F000C3030093C20383E20E946B032091C003D4
:102600003091C1038217930739F0232B09F057C388
:102610001093C1030093C00384E20E946B032091D6
:10262000BE033091BF038217930739F0232B09F0C3
:102630004BC31093BF030093BE0385E20E946B035C
:102640002091BC033091BD038217930739F0232BEF
:1026500009F03FC31093BD030093BC030E94D7024F
:1026600054CE803309F08BCE209141053091420544
:10267000032E000C440B550BC501B4010E94D91662
:10268000CA01B901A30192010E94D91620933D0508
:1026900030933E0540933F055093400564E070E061
:1026A0008BE395E00E943E0560EA7FE080E090E0E9
:1026B0000E9418046CEF7FEF8BE395E05ECE8234CE
:1026C00069F461E087E20E94940368E873E180E0C6
:1026D00090E00E94180460E087E26DCE833469F4D4
:1026E00061E088E20E94940368E873E180E090E092
:1026F0000E94180460E088E25ECE843469F461E0F0
:1027000089E20E94940368E873E180E090E00E940F
:10271000180460E089E24FCE853469F461E08AE212
:102720000E94940368E873E180E090E00E9418043E
:1027300060E08AE240CE863469F461E08BE20E9478
:10274000940368E873E180E090E00E94180460E080
:102750008BE231CE873469F461E08CE20E9494030D
:1027600068E873E180E090E00E94180460E08CE289
:1027700022CE883469F461E08DE20E94940368E817
:1027800073E180E090E00E94180460E08DE213CED7
:10279000893469F461E08EE20E94940368E873E191
:1027A00080E090E00E94180460E08EE204CE8A345B
:1027B00069F461E08FE20E94940368E873E180E0CD
:1027C00090E00E94180460E08FE2F5CD8B3469F44C
:1027D00061E080E30E94940368E873E180E090E0A8
:1027E0000E94180460E080E3E6CD8C3469F461E077
:1027F00081E30E94940368E873E180E090E00E9426
:10280000180460E081E3D7CD8D3469F461E082E3A0
:102810000E94940368E873E180E090E00E9418044D
:1028200060E082E3C8CD8E3469F461E083E30E9406
:10283000940368E873E180E090E00E94180460E08F
:1028400083E3B9CD8F3469F461E084E30E9494039B
:1028500068E873E180E090E00E94180460E084E39F
:10286000AACD803569F461E085E30E94940368E8AD
:1028700073E180E090E00E94180460E085E39BCD66
:10288000813519F461E082E096CD60E08235D9F3BC
:102890008A3509F092CD8091DA039091DB030E9492
:1028A0006A0A6AE070E080E090E00E94180480917B
:1028B000D8039091D9030E946A0A6AE070E080E030
:1028C00090E00E9418048091D6039091D7030E9453
:1028D0006A0A6AE070E080E090E00E94180480914B
:1028E000D4039091D5030E946A0A6AE070E080E008
:1028F00090E00E9418048091D2039091D3030E942B
:102900006A0A6AE070E080E090E00E94180480911A
:10291000D0039091D1030E946A0A6AE070E080E0DF
:1029200090E00E9418048091CE039091CF030E9402
:102930006A0A6AE070E080E090E00E9418048091EA
:10294000CC039091CD030E946A0A6AE070E080E0B7
:1029500090E00E9418048091CA039091CB030E94DA
:102960006A0A6AE070E080E090E00E9418048091BA
:10297000C8039091C9030E946A0A6AE070E080E08F
:1029800090E00E9418048091C6039091C7030E94B2
:102990006A0A6AE070E080E090E00E94180480918A
:1029A000C4039091C5030E946A0A6AE070E080E067
:1029B00090E00E9418048091C2039091C3030E948A
:1029C0006A0A6AE070E080E090E00E94180480915A
:1029D000C0039091C1030E946A0A6AE070E080E03F
:1029E00090E00E9418048091BE039091BF030E9462
:1029F0006A0A6AE070E080E090E00E94180480912A
:102A0000BC039091BD030E946A0A6AE070E080E016
:102A100090E00E941804D1CC8CE00E946B030197D7
:102A2000B9F480913A0290913B02019790933B0256
:102A300080933A020E94FA0A64E670E080E090E037
:102A40000E9418048CE00E946B03892BD9F7D1CC2B
:102A50008BE00E946B037C0181E0E816F10409F031
:102A6000C8CC80913A0290913B028230910509F4E2
:102A70007BC08330910509F48AC0019709F066C0D4
:102A800082E295E00E946206FF24F39482E295E0E0
:102A90000E94620661E08F2D0E94F00562E082E2F2
:102AA00095E00E94DD05EE24E394EF0C61E08E2DAD
:102AB0000E94F00563E082E295E00E94DD0561E09E
:102AC0008FEF8F0D0E94F00564E082E295E00E9496
:102AD000DD0568EC70E080E090E00E941804FE2CB8
:102AE0008EE0E812D3CF82E295E00E94620660E0B9
:102AF00080E00E94F00586EC92E00E94F50A62E018
:102B000080E00E94F0056091380270913902CE0198
:102B100007960E94150CBE01695F7F4FCE0101969A
:102B20000E94DB0BCE0101960E94B70B0E94EE01C2
:102B3000CE0101960E945F0CCE0107960E945F0CA9
:102B400060EB74E080E090E00E9418040E94FA0AB2
:102B500064E670E080E090E00E9418048BE00E9440
:102B60006B03892BD9F745CC82E295E00E9462067F
:102B700060E080E00E94F00587ED92E00E94F50A97
:102B800062E080E00E94F00570E060E0C0CF82E289
:102B900095E00E946206312C82E295E00E94620676
:102BA00061E08E2D0E94F00562E082E295E00E94D5
:102BB000DD0561E082E0830D0E94F00563E082E2C2
:102BC00095E00E94DD0561E0832D0E94F00564E040
:102BD00082E295E00E94DD0583E0830D61E0E0FC88
:102BE00029C00E94F00565E082E295E00E94DD05C3
:102BF00068EC70E080E090E00E9418048FEFE81A23
:102C0000F80A33948DE03812C7CF82E295E00E9433
:102C1000620660E080E00E94F00587EE92E00E948C
:102C2000F50A62E080E00E94F0056091BA037091BD
:102C3000BB036DCF0E94F00566E0D6CF1092DB0398
:102C40001092DA030CCC1092D9031092D80318CC4E
:102C50001092D7031092D60324CC1092D503109271
:102C6000D40330CC1092D3031092D2033CCC1092F8
:102C7000D1031092D00348CC1092CF031092CE0310
:102C800054CC1092CD031092CC0360CC1092CB03A5
:102C90001092CA036CCC1092C9031092C80378CC6E
:102CA0001092C7031092C60384CC1092C5031092F1
:102CB000C40390CC1092C3031092C2039CCC109218
:102CC000C1031092C003A8CC1092BF031092BE03A0
:102CD000B4CC1092BD031092BC03C0CCBB274A30C9
:102CE00031F4992322F4BDE2909581959F4F0C9485
:102CF0007A16BB27FB015527AA27880F991FAA1F01
:102D0000A41710F0A41B83955051B9F7A05DAA3306
:102D100008F0A95DA193009779F7B111B1931192D1
:102D2000CB010C949316DC01FC01672F7191772382
:102D3000E1F7329704C07C916D9370836291AE1776
:102D4000BF07C8F3089597FB072E16F4009407D029
:102D500077FD09D00E94001707FC05D03EF490953E
:102D600081959F4F0895709561957F4F0895A1E2D9
:102D70001A2EAA1BBB1BFD010DC0AA1FBB1FEE1FF5
:102D8000FF1FA217B307E407F50720F0A21BB30B40
:102D9000E40BF50B661F771F881F991F1A9469F7BC
:102DA00060957095809590959B01AC01BD01CF0118
:102DB0000895052E97FB1EF400940E94F01657FD0F
:102DC00007D00E94B71607FC03D04EF40C94F016FF
:102DD00050954095309521953F4F4F4F5F4F089547
:102DE00090958095709561957F4F8F4F9F4F089577
:102DF000EE0FFF1F881F8BBF0790F691E02D1994EF
:102E0000AA1BBB1B51E107C0AA1FBB1FA617B70710
:102E100010F0A61BB70B881F991F5A95A9F780952C
:102E20009095BC01CD0108950F931F93CF93DF932D
:102E30008230910510F482E090E0E0917105F0910C
:102E4000720530E020E0B0E0A0E0309799F4211561
:102E5000310509F44AC0281B390B24303105D8F557
:102E60008A819B816115710589F1FB0193838283BE
:102E7000FE0111C040815181028113814817590719
:102E8000E0F04817590799F4109761F012960C93E7
:102E9000129713961C933296CF01DF91CF911F9119
:102EA0000F9108950093710510937205F4CF2115C9
:102EB000310551F04217530738F0A901DB019A019F
:102EC000BD01DF01F801C1CFEF01F9CF9093720589
:102ED00080937105CDCFFE01E20FF31F8193919393
:102EE0002250310939832883D7CF20916F05309143
:102EF0007005232B41F420913E0230913F02309324
:102F0000700520936F0520913C0230913D02211500
:102F1000310541F42DB73EB7409140025091410236
:102F2000241B350BE0916F05F0917005E217F30754
:102F3000A0F42E1B3F0B2817390778F0AC014E5F29
:102F40005F4F2417350748F04E0F5F1F50937005F1
:102F500040936F05819391939FCFF0E0E0E09CCF89
:102F6000CF93DF930097E9F0FC013297138212822E
:102F7000A0917105B0917205ED0130E020E010974D
:102F8000A1F420813181820F931F20916F05309130
:102F900070052817390709F061C0F0937005E093B8
:102FA0006F05DF91CF910895EA01CE17DF07E8F5AD
:102FB0004A815B819E0141155105B1F7E901FB830F
:102FC000EA8349915991C40FD51FEC17FD0761F4AD
:102FD000808191810296840F951FE90199838883EE
:102FE000828193819B838A83F0E0E0E012968D9149
:102FF0009C9113970097B9F52D913C911197CD01B4
:103000000296820F931F20916F053091700528174B
:10301000390739F6309751F5109272051092710503
:10302000B0937005A0936F05BCCFD383C28340815A
:103030005181840F951FC817D90761F44E5F5F4F08
:1030400088819981480F591F518340838A819B81D0
:10305000938382832115310509F0B0CFF093720577
:10306000E09371059ECFFD01DC01C0CF1382128277
:10307000D7CF4F925F926F927F928F929F92AF9233
:10308000BF92CF92DF92EF92FF920F931F93CF9355
:10309000DF938C01009799F4CB01DF91CF911F91C1
:1030A0000F91FF90EF90DF90CF90BF90AF909F90E7
:1030B0008F907F906F905F904F900C941417FC014D
:1030C000E60FF71F9C0122503109E217F30708F4BD
:1030D000AEC0D901CD91DC911197C617D70720F169
:1030E000C530D10578F0CE0104978617970750F0C8
:1030F000C61BD70B2297C193D1936D937C93CF01BD
:103100000E94B017C801DF91CF911F910F91FF90DE
:10311000EF90DF90CF90BF90AF909F908F907F9077
:103120006F905F904F9008955B01AC1ABD0A4C01FF
:103130008C0E9D1EA0917105B0917205512C412CF1
:10314000F12CE12C109731F580916F05909170056D
:103150008815990509F05CC04616570608F058C056
:1031600080913C0290913D02009741F48DB79EB74B
:103170004091400250914102841B950BE817F907DA
:1031800008F055C0F0937005E0936F05F901718365
:103190006083B8CF8D919C91119712966C90129785
:1031A00013967C901397A815B90559F56C0142E068
:1031B000C40ED11CCA14DB0420F1AC014A195B090E
:1031C000DA011296159780F06282738251834083F0
:1031D000D9016D937C93E114F10471F0D70113963A
:1031E000FC93EE9312978ECF22968C0F9D1FF901C0
:1031F00091838083F301EFCFF0937205E093710523
:1032000081CF4816590608F42C017D01D3019ACFCD
:10321000CB010E9414177C01009749F0AE01B80160
:103220000E941F19C8010E94B01787016BCF10E0E0
:1032300000E068CF81E090E0F8940C942F19FB0136
:10324000DC0102C001900D9241505040D8F7089522
:10325000FB01DC0101900D920020E1F70895F89444
:10326000FFCF0E1915130E00000000000E191513E4
:103270000E00000107070F0F020100101E1D1F1F87
:1032800008101F1C1C1F1F1F111100000E1F1F0AFA
:1032900000000000000E1F1F0A00100001000000C7
:1032A00073058000004014540040105000000000DE
:1032B0006A02C101F701B702280206021A020000E1
:1032C0000000AD07800749095607790766075707C9
:1032D00000000000DD05C1014909EF064C09C705E2
:1032E000300911090D0A004D656E7520496E666F33
:1032F000726D6163696F6E003E20446973706F6E1A
:1033000069626C6573003E20526573657276616414
:103310006F73003E204F63757061646F730020709F
:1033200061727175656F7300546F74616C206469AC
:1033300073706F6E69626C6500546F74616C20729B
:10334000657365727661646F00546F74616C206F91
:0833500063757061646F0000F9
:020000040003F7
:10E000000D9489F10D94B2F10D94B2F10D94B2F129
:10E010000D94B2F10D94B2F10D94B2F10D94B2F1F0
:10E020000D94B2F10D94B2F10D94B2F10D94B2F1E0
:10E030000D94B2F10D94B2F10D94B2F10D94B2F1D0
:10E040000D94B2F10D94B2F10D94B2F10D94B2F1C0
:10E050000D94B2F10D94B2F10D94B2F10D94B2F1B0
:10E060000D94B2F10D94B2F10D94B2F10D94B2F1A0
:10E070000D94B2F10D94B2F10D94B2F10D94B2F190
:10E080000D94B2F10D94B2F10D94B2F10D94B2F180
:10E090000D94B2F10D94B2F10D94B2F10D94B2F170
:10E0A0000D94B2F10D94B2F10D94B2F10D94B2F160
:10E0B0000D94B2F10D94B2F10D94B2F10D94B2F150
:10E0C0000D94B2F10D94B2F10D94B2F10D94B2F140
:10E0D0000D94B2F10D94B2F10D94B2F10D94B2F130
:10E0E0000D94B2F141546D656761323536300041AF
:10E0F000726475696E6F206578706C6F72657220DE
:10E1000073746B3530305632206279204D4C530099
:10E11000426F6F746C6F616465723E004875683F52
:10E1200000436F6D70696C6564206F6E203D200048
:10E130004350552054797065202020203D20005FF9
:10E140005F4156525F415243485F5F3D2000415658
:10E1500052204C696243205665723D20004743437C
:10E160002056657273696F6E203D20004350552024
:10E1700049442020202020203D20004C6F7720663D
:10E18000757365202020203D20004869676820665F
:10E190007573652020203D200045787420667573D6
:10E1A00065202020203D20004C6F636B2066757336
:10E1B000652020203D20004D617220203720323024
:10E1C000313300312E362E3800342E332E350056A2
:10E1D00023202020414444522020206F7020636F70
:10E1E00064652020202020696E73747275637469E1
:10E1F0006F6E2061646472202020496E74657272B3
:10E20000757074006E6F20766563746F7200726A49
:10E210006D702020006A6D70200057686174207056
:10E220006F72743A00506F7274206E6F7420737541
:10E2300070706F72746564004D7573742062652030
:10E2400061206C6574746572002000577269747483
:10E25000696E672045450052656164696E672045B7
:10E26000450045452065727220636E743D00504F35
:10E27000525400303D5A65726F2061646472003FF1
:10E280003D43505520737461747300403D454550C3
:10E29000524F4D207465737400423D426C696E6B41
:10E2A000204C454400453D44756D70204545505215
:10E2B0004F4D00463D44756D7020464C415348001B
:10E2C000483D48656C70004C3D4C69737420492F83
:10E2D0004F20506F72747300513D51756974005234
:10E2E0003D44756D702052414D00563D73686F7707
:10E2F00020696E7465727275707420566563746FF0
:10E30000727300593D506F727420626C696E6B00BD
:10E310002A0011241FBECFEFD1E2DEBFCDBF01E046
:10E320000CBF12E0A0E0B2E0EEE1FDEF03E00BBFB6
:10E3300002C007900D92A030B107D9F712E0A0E01B
:10E34000B2E001C01D92AE30B107E1F70F9460F367
:10E350000D948DFE01E20EBF0FEF0DBF11241FBE05
:10E360000D9460F30D9400F020E030E040ED57E0B4
:10E3700005C0FA013197F1F72F5F3F4F2817390792
:10E38000C0F308959C01260F311DC901A0E0B0E043
:10E390002F5F3F4FABBFFC018791882361F08093D3
:10E3A000C6008091C00086FFFCCF8091C0008064D1
:10E3B0008093C000EACF08958DE08093C6008091DD
:10E3C000C00086FFFCCF8091C00080648093C000B5
:10E3D0008AE08093C6008091C00086FFFCCF8091C8
:10E3E000C00080648093C00008950F94C2F10F9420
:10E3F000DCF10895FC019081992359F09093C600B7
:10E400008091C00086FFFCCF8091C0008064809323
:10E41000C0003196992379F70895282F982F929567
:10E420009F70892F805D8A3308F0895F8093C600D2
:10E430008091C00086FFFCCF8091C00080648093F3
:10E44000C000822F8F70982F905D9A3308F0995FEB
:10E450009093C6008091C00086FFFCCF8091C000E1
:10E4600080648093C00008959C01FB01853691056E
:10E470001CF46330710594F0C90164E670E00F94F8
:10E480002EFE605D7F4F6093C6008091C00086FFC6
:10E49000FCCF8091C00080648093C0002B30310598
:10E4A00014F43297B4F0C90164E670E00F942EFEC4
:10E4B0006AE070E00F942EFE605D7F4F6093C600AF
:10E4C0008091C00086FFFCCF8091C0008064809363
:10E4D000C000C9016AE070E00F942EFEC0968093E0
:10E4E000C6008091C00086FFFCCF8091C000806490
:10E4F0008093C00008951F93182F8EE692EE60E07F
:10E500000F94C2F11093C6008091C00086FFFCCF2B
:10E510008091C00080648093C0000F94DCF11F9153
:10E5200008952F923F924F925F926F927F928F92B7
:10E530009F92AF92BF92CF92DF92EF92FF920F9392
:10E540001F93DF93CF93CDB7DEB762970FB6F894E2
:10E55000DEBF0FBECDBF382E622ECA01DB015C01CB
:10E560006D01772420E2222E2E010894411C511CBB
:10E570008BC081E0A81680E0B80681E0C80680E084
:10E58000D80628F0C601AA27BB270F940DF2BB2797
:10E59000AD2D9C2D8B2D0F940DF28A2D0F940DF225
:10E5A0002092C6008091C00086FFFCCF8091C00001
:10E5B00080648093C0009DE29093C6008091C0006B
:10E5C00086FFFCCF8091C00080648093C0002092C1
:10E5D000C6008091C00086FFFCCF8091C00080649F
:10E5E0008093C00019828601750188249924A1E0D6
:10E5F0003A1651F03A1620F0B2E03B1661F409C029
:10E600000BBFF701779007C0C7010F9477FE782EF4
:10E6100002C0F7017080872D0F940DF22092C60082
:10E620008091C00086FFFCCF8091C0008064809301
:10E63000C000872D8052F401EF70F0708F3520F408
:10E64000E40DF51D708204C0E40DF51D8EE280839B
:10E650000894E11CF11C011D111D0894811C911CE2
:10E6600090E18916910409F0C2CF80E190E0A0E02A
:10E67000B0E0A80EB91ECA1EDB1E198AC2010F9493
:10E68000FAF10F94DCF16A94662009F072CF629679
:10E690000FB6F894DEBF0FBECDBFCF91DF911F91B3
:10E6A0000F91FF90EF90DF90CF90BF90AF909F9031
:10E6B0008F907F906F905F904F903F902F90089534
:10E6C0002F923F924F925F926F927F928F929F9282
:10E6D000AF92BF92CF92DF92EF92FF920F931F9370
:10E6E000DF93CF93CDB7DEB7CD53D1400FB6F894BB
:10E6F000DEBF0FBECDBF01E20EBF0FEF0DBF94B75F
:10E70000F894A89514BE80916000886180936000A1
:10E7100010926000789493FF05C0E0910002F091A0
:10E7200001021995279A2F9A8091C00082608093E8
:10E73000C00080E18093C40088E18093C1000000A4
:10E74000EE24FF24870144E0A42EB12CCC24DD2448
:10E7500024C0C5010197F1F70894E11CF11C011DCB
:10E76000111D21E2E2162EE4F20620E0020720E06D
:10E77000120718F031E0C32ED12CC801B70127ECE5
:10E780003BE140E050E00F9441FE611571058105C9
:10E79000910519F485B1805885B98091C00087FD35
:10E7A00003C0C114D104A9F2A6014F5F5F4FC25E3E
:10E7B000DE4F59834883CE51D140C25EDE4F8881FF
:10E7C0009981CE51D140019711F00D9410FEC05D9A
:10E7D000DE4F19821882C053D14060E0C15DDE4F28
:10E7E0001882CF52D14088249924C35DDE4F19820C
:10E7F0001882CD52D140C05EDE4F188219821A8233
:10E800001B82C052D140CE5CDE4F188219821A8220
:10E810001B82C253D140EE24FF2487010BBFF701B6
:10E8200007911691C45CDE4F19830883CC53D14005
:10E830000D940BFEC25EDE4F28813981CE51D1404E
:10E840002130310509F52091C600C25EDE4F1982E4
:10E850001882CE51D14022C02F5F3F4F4F4F5F4FA4
:10E86000213082E138078AE7480780E0580780F0C6
:10E87000C45CDE4FE881F981CC53D140EF5FFF4F9C
:10E8800019F0EE27FF27099420E030E040E050E047
:10E890008091C00087FFE0CF2091C600C35DDE4FAE
:10E8A00048815981CD52D1404F5F5F4FC35DDE4FEC
:10E8B00059834883CD52D140213209F063C64A3092
:10E8C000510508F05FC60894811C911C53E0851621
:10E8D000910409F059C600E010E018C081E280936D
:10E8E000C6008091C00086FFFCCF8091C00080648C
:10E8F0008093C0002F5F3F4F2931310579F70F9486
:10E90000DCF10F5F1F4F0530110519F020E030E0FA
:10E91000E5CF10920A0210920B0210920C02109294
:10E920000D02109206021092070210920802109235
:10E930000902109202021092030210920402109235
:10E9400005028FEE90EE60E00F94F5F180E191EE1C
:10E9500060E00F94C2F18091C00087FFFCCF9091DE
:10E96000C600903608F09F759032B8F09093C600BC
:10E970008091C00086FFFCCF8091C00080648093AE
:10E98000C000A0E2A093C6008091C00086FFFCCF2B
:10E990008091C00080648093C000983409F4D7C18E
:10E9A0009934B8F4923409F459C1933458F490333B
:10E9B00019F1903308F4E3C59F33A1F1903409F0C5
:10E9C000DEC5BDC0953409F470C1963409F0D7C5D1
:10E9D00098C1923509F42BC2933538F49C3409F46C
:10E9E000F5C1913509F0CBC518C2963509F445C279
:10E9F000993509F0C4C567C483E792EE62E00F94CD
:10EA0000F5F110920602109207021092080210927D
:10EA1000090210920A0210920B0210920C0210923C
:10EA20000D0213C18FE792EE62E00F94F5F18FEEC5
:10EA300090EE60E00F94F5F181E291EE60E00F94CA
:10EA4000C2F187EB91EE60E00F94F5F180E391EE77
:10EA500060E00F94C2F184EE90EE60E00F94F5F167
:10EA60008FE391EE60E00F94C2F186E090E061E008
:10EA700070E00F9434F20F94DCF18DE591EE60E0DC
:10EA80000F94C2F189EC91EE60E00F94F5F18EE401
:10EA900091EE60E00F94C2F183EC91EE60E00F9490
:10EAA000F5F18CE691EE60E00F94C2F18EE10F94E7
:10EAB0000DF288E90F940DF281E00F940DF20F949E
:10EAC000DCF18BE791EE60E00F94C2F119E0E0E039
:10EAD000F0E010935700E4918E2F0F940DF20F94F5
:10EAE000DCF18AE891EE60E00F94C2F1E3E0F0E03F
:10EAF00010935700E4918E2F0F940DF20F94DCF1D8
:10EB000089E991EE60E00F94C2F1E2E0F0E0109349
:10EB10005700E4918E2F0F940DF20F94DCF188EAE8
:10EB200091EE60E00F94C2F1E1E0F0E01093570045
:10EB30001491812F0F940DF20F94DCF107CF8BE825
:10EB400092EE62E00F94F5F18BE492EE60E00F94A8
:10EB5000F5F10F94DCF100E010E019C0C8016F2D51
:10EB60000F947FFEFF2031F489E492EE60E00F9471
:10EB7000C2F10BC0F092C6008091C00086FFFCCFAE
:10EB80008091C00080648093C0000F5F1F4FC80158
:10EB900081519F41A0E0B0E0ABBFFC01F790BAE229
:10EBA000FB1621F0E2E000301E07C1F60F94DCF105
:10EBB0000F94DCF187E592EE60E00F94F5F10F948D
:10EBC000DCF1CC24DD2400E010E01EC0C8010F946D
:10EBD00077FEF82E882331F489E492EE60E00F94FA
:10EBE000C2F10BC08093C6008091C00086FFFCCFAD
:10EBF0008091C00080648093C000FE1419F00894D6
:10EC0000C11CD11C0F5F1F4FC80181519F41A0E063
:10EC1000B0E0ABBFFC01E790FAE2EF1621F022E092
:10EC20000030120799F60F94DCF10F94DCF182E6C4
:10EC300092EE60E00F94C2F1C60161E070E00F94C3
:10EC400034F20F94DCF10F94DCF110920202109276
:10EC50000302109204021092050278CE89E992EE26
:10EC600062E00F94F5F1279A2F9A16C02F9880E052
:10EC700090E0E0EDF7E03197F1F7019684369105E9
:10EC8000C1F72F9A80E090E0E0EDF7E03197F1F7DF
:10EC9000019684369105C1F78091C00087FFE6CFC9
:10ECA0008091C00087FFFCCF64C485EA92EE62E0E9
:10ECB0000F94F5F140910202509103026091040219
:10ECC0007091050281E020E10F9491F2809102029F
:10ECD00090910302A0910402B091050280509F4FD1
:10ECE000AF4FBF4F8093020290930302A0930402A0
:10ECF000B093050280509041A040B04008F426CE69
:10ED0000A4CF83EB92EE62E00F94F5F140910602FE
:10ED100050910702609108027091090280E020E1A1
:10ED20000F9491F28091060290910702A09108023F
:10ED3000B091090280509F4FAF4FBF4F80930602A2
:10ED400090930702A0930802B0930902FFCD80ECD4
:10ED500092EE62E00F94F5F183E792EE60E00F949B
:10ED6000F5F18FE792EE60E00F94F5F18BE892EE0B
:10ED700060E00F94F5F189E992EE60E00F94F5F10F
:10ED800085EA92EE60E00F94F5F183EB92EE60E09D
:10ED90000F94F5F180EC92EE60E00F94F5F187ECC2
:10EDA00092EE60E00F94F5F188ED92EE60E00F9442
:10EDB000F5F18FED92EE60E00F94F5F18AEE92EEB0
:10EDC00060E00F94F5F183E093EEBDCD87EC92EE19
:10EDD00062E00F94F5F181E40F947BF282E40F94EA
:10EDE0007BF283E40F947BF284E40F947BF285E45E
:10EDF0000F947BF286E40F947BF287E40F947BF20E
:10EE000088E40F947BF28AE40F947BF28BE40F94F6
:10EE10007BF28CE40F947BF299CD88ED92EE62E068
:10EE20000F94F5F1772473948824992409C48FED05
:10EE300092EE62E00F94F5F140910A0250910B02BC
:10EE400060910C0270910D0282E020E10F9491F22A
:10EE500080910A0290910B02A0910C02B0910D02D8
:10EE600080509F4FAF4FBF4F80930A0290930B0289
:10EE7000A0930C02B0930D0269CD8AEE92EE62E08F
:10EE80000F94F5F184EE90EE60E00F94F5F18FECC5
:10EE900091EE60E00F94F5F1662477244301CC5D98
:10EEA000DE4F19821882C452D140D401C301B695F5
:10EEB000A79597958795CA5DDE4F88839983AA8326
:10EEC000BB83C652D140CC5DDE4FA881B981C4520C
:10EED000D1401196CC5DDE4FB983A883C452D14096
:10EEE000CD0162E070E00F9434F2B0E2B093C6005E
:10EEF0008091C00086FFFCCF8091C0008064809329
:10EF0000C000EDE2E093C6008091C00086FFFCCF18
:10EF10008091C00080648093C000F0E2F093C6004E
:10EF20008091C00086FFFCCF8091C00080648093F8
:10EF3000C000CA5DDE4FE880F9800A811B81C6529D
:10EF4000D140BB27A12F902F8F2D0F940DF2CA5DBA
:10EF5000DE4F8881C652D1400F940DF2B0E2FB2EF5
:10EF6000F092C6008091C00086FFFCCF8091C00067
:10EF700080648093C0000DE30093C6008091C000C0
:10EF800086FFFCCF8091C00080648093C00010E2B7
:10EF90001093C6008091C00086FFFCCF8091C00016
:10EFA00080648093C0008BBEF3012791C65DDE4F65
:10EFB0002883CA52D140A22EBB24CC24DD2408943D
:10EFC000611C711C811C911C8BBEF3018791282E42
:10EFD0003324442455240894611C711C811C911C09
:10EFE0008BBEF3013791C55DDE4F3883CB52D140E4
:10EFF0000894611C711C811C911C8BBEF30147910C
:10F00000C45DDE4F4883CC52D140ADEFEA2EAFEF66
:10F01000FA2EAFEF0A2FAFEF1A2F6E0C7F1C801E57
:10F02000911E142D032DF22CEE24EA0CFB1C0C1D5A
:10F030001D1D0F940DF220E22093C6008091C000A8
:10F0400086FFFCCF8091C00080648093C000C65DC5
:10F05000DE4F8881CA52D1400F940DF230E23093D6
:10F06000C6008091C00086FFFCCF8091C000806404
:10F070008093C000C45DDE4F8881CC52D1400F9494
:10F080000DF240E24093C6008091C00086FFFCCFA5
:10F090008091C00080648093C000C55DDE4F888190
:10F0A000CB52D1400F940DF250E25093C6008091A4
:10F0B000C00086FFFCCF8091C00080648093C000B8
:10F0C0008FEFE8168FEFF80680E0080780E018075A
:10F0D00031F484E092EE60E00F94C2F1DFC0D80119
:10F0E000C7018070907CA070B0708050904CA040A0
:10F0F000B040D1F52FEF3FE340E050E0E222F322B1
:10F1000004231523CA5DDE4FA880B980CA80DB8046
:10F11000C652D140AE0CBF1CC01ED11EAA0CBB1CD7
:10F12000CC1CDD1C8EE092EE60E00F94C2F1BB2798
:10F13000A12F902F8F2D0F940DF28E2D0F940DF285
:10F1400030E23093C6008091C00086FFFCCF8091F2
:10F15000C00080648093C0004EE34093C60080915D
:10F16000C00086FFFCCF87C08EE09EEFA0E0B0E03D
:10F17000E822F9220A231B239CE0E91694E9F90608
:10F1800090E0090790E0190709F088C0C45DDE4FE0
:10F19000A881CC52D140EA2EFF2400E010E0102FCD
:10F1A0000F2DFE2CEE24C55DDE4FB881CB52D14031
:10F1B000EB0EF11C011D111DD601C501817090706F
:10F1C000A070B070DC0199278827E80EF91E0A1F8D
:10F1D0001B1F20EF30E040E050E0A222B322C42207
:10F1E000D52241E1AA0CBB1CCC1CDD1C4A95D1F7F1
:10F1F000EA0CFB1C0C1D1D1D81E090E0A0E0B0E0BE
:10F20000282239224A225B2235E1220C331C441C7D
:10F21000551C3A95D1F7E20CF31C041D151D57013E
:10F220006801AA0CBB1CCC1CDD1C85E192EE60E0E1
:10F230000F94C2F1C801AA27BB270F940DF2BB2778
:10F24000A12F902F8F2D0F940DF28E2D0F940DF274
:10F2500090E29093C6008091C00086FFFCCF809121
:10F26000C00080648093C000AEE3A093C60080918C
:10F27000C00086FFFCCF8091C00080648093C000F6
:10F28000C601AA27BB270F940DF2BB27AD2D9C2DDD
:10F290008B2D0F940DF28A2D0F940DF20F94DCF14B
:10F2A000CC5DDE4FE881F981C452D140F99709F471
:10F2B0004DCBF4E0EF2EF12C012D112D6E0C7F1CA7
:10F2C000801E911EF2CD83E093EE62E00F94F5F183
:10F2D0008AE192EE60E00F94C2F18091C00087FF56
:10F2E000FCCF1091C6001F751093C6008091C0001E
:10F2F00086FFFCCF8091C00080648093C0000F9493
:10F30000DCF1812F81548A3108F036C1163409F4BA
:10F3100095C0173490F4133409F44EC0143430F40B
:10F320001134F1F0123409F01DC130C0143409F465
:10F3300059C0153409F016C16BC01A3409F4C4C0A1
:10F340001B3438F4173409F48FC0183409F00AC19B
:10F35000A1C01B3409F4D2C01C3409F003C1E8C0B9
:10F360008FEF81B90DC082B1809582B980E090E0C5
:10F37000E0EDF7E03197F1F70196883C9105C1F790
:10F380008091C00087FFEFCF12B8EFC08FEF84B934
:10F390000DC085B1809585B980E090E0E0EDF7E0A3
:10F3A0003197F1F70196883C9105C1F78091C00033
:10F3B00087FFEFCF15B8D9C08FEF87B90DC088B1DF
:10F3C000809588B980E090E0E0EDF7E03197F1F7C3
:10F3D0000196883C9105C1F78091C00087FFEFCF6F
:10F3E00018B8C3C08FEF8AB90DC08BB180958BB9A7
:10F3F00080E090E0E0EDF7E03197F1F70196883C8E
:10F400009105C1F78091C00087FFEFCF1BB8ADC059
:10F410008FEF8DB90DC08EB180958EB980E090E0F0
:10F42000E0EDF7E03197F1F70196883C9105C1F7DF
:10F430008091C00087FFEFCF1EB897C08FEF80BBD1
:10F440000DC081B3809581BB80E090E0E0EDF7E0F6
:10F450003197F1F70196883C9105C1F78091C00082
:10F4600087FFEFCF11BA81C08FEF83BB0DC084B38C
:10F47000809584BB80E090E0E0EDF7E03197F1F714
:10F480000196883C9105C1F78091C00087FFEFCFBE
:10F4900014BA6BC08FEF809301010FC080910201FD
:10F4A00080958093020180E090E0E0EDF7E03197F5
:10F4B000F1F70196883C9105C1F78091C00087FF64
:10F4C000EDCF1092020151C08FEF809304010FC065
:10F4D0008091050180958093050180E090E0E0ED4A
:10F4E000F7E03197F1F70196883C9105C1F78091DB
:10F4F000C00087FFEDCF1092050137C08FEF8093DA
:10F5000007010FC08091080180958093080180E079
:10F5100090E0E0EDF7E03197F1F70196883C910536
:10F52000C1F78091C00087FFEDCF109208011DC088
:10F530008FEF80930A010FC080910B01809580931B
:10F540000B0180E090E0E0EDF7E03197F1F70196F4
:10F55000883C9105C1F78091C00087FFEDCF1092E4
:10F560000B0103C085E292EEEEC98091C00087FFD7
:10F57000FCCF8091C600EAC988E392EEE4C98CE131
:10F5800091EEE1C988249924933011F1943028F444
:10F59000913089F09230B8F408C0953061F195301F
:10F5A000F0F0963009F048C043C02B3109F042C951
:10F5B00091E06BE13FC96227C15DDE4F2883CF52E6
:10F5C000D14092E037C9B22FA0E0622793E032C960
:10F5D000822F90E0A82BB92B622794E02BC92E3004
:10F5E00009F039C3622795E0C05DDE4F19821882A9
:10F5F000C053D1401FC9E1E0F0E0EC0FFD1FC05D3A
:10F60000DE4F08811981C053D140E00FF11F2083E4
:10F610000F5F1F4FC05DDE4F19830883C053D14079
:10F6200062270A171B0709F005C9D80196E002C92D
:10F63000261709F010C303C0973009F0FBC87724E0
:10F640009981933109F412C19431C8F4963009F4C8
:10F65000D8C0973050F4923009F406C1933009F4C1
:10F660006DC0913009F059C253C0913109F477C08F
:10F67000923108F0BBC0903109F04FC2F5C098310B
:10F6800009F487C0993150F4953109F4EFC09531F0
:10F6900008F4C6C1963109F040C2C2C19A3109F4DA
:10F6A0006CC09A3108F491C09B3109F45BC09D3164
:10F6B00009F033C29D81903359F48F81882311F46E
:10F6C0009EE11CC0813011F091E018C098E916C08D
:10F6D000892F807591F0903539F4E0E0F0E089E011
:10F6E0008093570094910AC0983539F4E3E0F0E034
:10F6F00089E080935700949101C090E01A821B82A8
:10F700008D818C831D829E831F8227E030E009C299
:10F710001A8288E08B8381E48C8386E58D8382E581
:10F720008E8389E48F8383E5888780E589878FE5E9
:10F730008A8782E38B872BE030E0F3C18A818139AD
:10F7400041F0823941F0803911F48FE005C080E04A
:10F7500003C082E001C08AE01A828B8344C0772410
:10F76000739482C08D81882311F48EE12CC0813086
:10F7700011F081E028C088E926C01A82E1E0F0E0BB
:10F7800089E08093570084918B831C8224E030E0D1
:10F79000C8C18B81803589F48C81883039F4E2E0EE
:10F7A000F0E089E08093570084910DC0E0E0F0E044
:10F7B00089E080935700849106C0E3E0F0E089E09F
:10F7C0008093570084911A82DFCF8D81836C99E0FA
:10F7D000E1E0F0E0082E90935700E89507B600FCB2
:10F7E000FDCF1A821B8223E030E09BC180EC8A832C
:10F7F000CE5CDE4F188219821A821B82C253D1401E
:10F800008EC18A8190E0A0E0B0E0582F44273327D2
:10F8100022278B8190E0A0E0B0E0DC0199278827C7
:10F82000282B392B4A2B5B2B8D8190E0A0E0B0E098
:10F83000282B392B4A2B5B2B8C8190E0A0E0B0E089
:10F84000BA2FA92F982F8827282B392B4A2B5B2BCF
:10F85000220F331F441F551FC05EDE4F288339839C
:10F860004A835B83C052D1401A8259C13A81C95C34
:10F87000DE4F3883C753D140CA5CDE4F1882C6536F
:10F88000D1408B81C82EDD24CA5CDE4F488159816E
:10F89000C653D140C42AD52A933109F082C0CE5C28
:10F8A000DE4F88819981AA81BB81C253D1408050AB
:10F8B000904CA340B04030F583E0CE5CDE4FE88052
:10F8C000F9800A811B81C253D140F70100935B008C
:10F8D00080935700E89507B600FCFDCFCE5CDE4F65
:10F8E000088119812A813B81C253D14000501F4FAA
:10F8F0002F4F3F4FCE5CDE4F088319832A833B8313
:10F90000C253D140C05EDE4F488159816A817B81FC
:10F91000C052D140DE011B9631E08C9111962C91A2
:10F9200011971296C75CDE4F2883C953D140C85C3B
:10F93000DE4F1882C853D14090E0C85CDE4FE881AA
:10F94000F981C853D1408E2B9F2B0C01FA01609393
:10F950005B0030935700E89511244E5F5F4F6F4F67
:10F960007F4F0EEFE02E0FEFF02ECE0CDF1CC114F8
:10F97000D10499F685E0C05EDE4F088119812A81A5
:10F980003B81C052D140F80120935B008093570027
:10F99000E89507B600FCFDCF81E180935700E8951C
:10F9A00035C0C05EDE4F88819981AA81BB81C0527B
:10F9B000D140B695A795979587957C018601ABE0D8
:10F9C000AA2EB12CAC0EBD1E0BC0D5016D915D01F0
:10F9D000C7010F947FFE0894E11CF11C01501040F8
:10F9E0000115110591F7A60160E070E0440F551F65
:10F9F000661F771FC05EDE4FE880F9800A811B8199
:10FA0000C052D1404E0D5F1D601F711F1A82C05E33
:10FA1000DE4F488359836A837B83C052D1407FC0C5
:10FA2000FA80C55CDE4FF882CB53D140C65CDE4F16
:10FA30001882CA53D1408B81C82EDD24C65CDE4FAC
:10FA400008811981CA53D140C02AD12A1A828981DA
:10FA5000BE016D5F7F4F843121F59601C05EDE4FA0
:10FA6000E880F9800A811B81C052D1400BBFF701A9
:10FA700087919691DB018C9311969C936E5F7F4FDB
:10FA8000D801C7010296A11DB11DC05EDE4F88835B
:10FA90009983AA83BB83C052D14022503040F1F6F3
:10FAA00036C0C05EDE4F288139814A815B81C052F9
:10FAB000D1400894C108D108760100E010E0089414
:10FAC000C11CD11C0894E11CF11C011D111DE20E8A
:10FAD000F31E041F151F21BDBB27A52F942F832FB5
:10FAE00082BD2F5F3F4F4F4F5F4FF89A80B5DB01CC
:10FAF0008D93BD012E153F054007510761F7C05E8C
:10FB0000DE4F288339834A835B83C052D1409601FC
:10FB10002D5F3F4FFB01108204C080EC8A8322E0FE
:10FB200030E08BE18093C6008091C00086FFFCCF5F
:10FB30008091C00080648093C000C15DDE4FF88179
:10FB4000CF52D140F093C6008091C00086FFFCCF19
:10FB50008091C00080648093C000432F3093C60022
:10FB60008091C00086FFFCCF8091C00080648093AC
:10FB7000C000922F2093C6008091C00086FFFCCF6A
:10FB80008091C00080648093C0008EE08093C600A6
:10FB90008091C00086FFFCCF8091C000806480937C
:10FBA000C00065E1C15DDE4FE880CF52D1406E25D7
:10FBB00069276427FE01319610C090819093C6009A
:10FBC0008091C00086FFFCCF31968091C000806498
:10FBD0008093C0006927215030402115310569F715
:10FBE0006093C6008091C00086FFFCCF8091C0006A
:10FBF00080648093C00085B1805885B9772081F4F6
:10FC0000C15DDE4F0881CF52D1400F5FC15DDE4F35
:10FC10000883CF52D14090E0A0E0B0E00D941AF4F8
:10FC200027982F9880E090E020ED37E0F901319798
:10FC3000F1F7019684369105C9F700008091C00064
:10FC40008D7F8093C00081E180935700E895EE2777
:10FC5000FF270994FFCF90E00D941AF497FB092E2B
:10FC600007260AD077FD04D02ED006D000201AF443
:10FC7000709561957F4F0895F6F7909581959F4F08
:10FC80000895A1E21A2EAA1BBB1BFD010DC0AA1FDD
:10FC9000BB1FEE1FFF1FA217B307E407F50720F0F5
:10FCA000A21BB30BE40BF50B661F771F881F991F70
:10FCB0001A9469F760957095809590959B01AC01B9
:10FCC000BD01CF010895AA1BBB1B51E107C0AA1FAC
:10FCD000BB1FA617B70710F0A61BB70B881F991FED
:10FCE0005A95A9F780959095BC01CD010895F99991
:10FCF000FECF92BD81BDF89A992780B50895262F31
:10FD0000F999FECF1FBA92BD81BD20BD0FB6F89400
:0EFD1000FA9AF99A0FBE01960895F894FFCF63
:00000001FF
