:100000000C945B010C948C010C948C010C948C016D
:100010000C948C010C948C010C948C010C948C012C
:100020000C948C010C948C010C948C010C948C011C
:100030000C948C010C948C010C948C010C948C010C
:100040000C948C010C948C010C948C010C948C01FC
:100050000C948C010C948C010C948C010C94070B67
:100060000C948C010C948C010C948C010C948C01DC
:100070000C948C010C948C010C948C010C948C01CC
:100080000C948C010C948C010C948C010C948C01BC
:100090000C948C010C948C010C948C010C94510BDD
:1000A0000C948C010C948C010C948C010C948C019C
:1000B0000C948C010C948C010C948C010C948C018C
:1000C0000C948C010C948C010C948C010C948C017C
:1000D0000C948C010C948C010C948C010C948C016C
:1000E0000C948C010C9414030C940B020C942003BC
:1000F0000C948F030C94E2010C9462030C9477032C
:100100000C9415020C9419020C948E010C94D704D3
:100110000C9488030C94750C0C9460060C947A066D
:100120000C946B030C94F0010C940B080C94FD01DF
:100130000C94C0090C94EC010C94C1040C9451066D
:100140000C94D5040C94E8010C9401020C942A0838
:100150000C941D020C9427020C9464030C940F025F
:100160000C9423020C94A7060C94F7010C94D6046B
:100170000C9407020C9422020C9447030C94310354
:100180000C9450060C94F4010C9473060C94E9053D
:100190000C94430800002100240027002A002D00B1
:1001A0003000330001010000040107010A010000D2
:1001B0002200250028002B002E003100340002010F
:1001C0000000050108010B010000200023002600AB
:1001D00029002C002F00320000010000030106015D
:1001E00009010505050507050808080802020202BD
:1001F0000A0A0808040404040101010101010101C3
:100200000303030303030303040707070C0C0C0C8D
:100210000C0C0C0C02020202060606060606060676
:100220000B0B0B0B0B0B0B0B010210202008081003
:100230002040102040800201020108040201010256
:10024000040810204080804020100804020180042F
:10025000020180402010080402010804020101028A
:100260000408102040800102040810204080000093
:100270000A0B02090C0D0E08070304010000000020
:10028000000000000000000000000000000000006E
:10029000000000000000000000001211100000002B
:1002A000000000000000000000000000000000004E
:1002B00000000000750C11241FBECFEFD1E2DEBF9D
:1002C000CDBF00E00CBF23E0A0EEB2E001C01D9264
:1002D000A83EB207E1F712E0A0E0B2E0ECE3F4E2FE
:1002E00000E00BBF02C007900D92A03EB107D9F706
:1002F00011E0CBE5D1E000E006C021970109802F95
:10030000FE010E94C30FCA35D10780E00807A9F794
:100310000E94E30C0C941C120C940000AF92BF924C
:10032000CF92DF92EF92FF920F931F93CF93DF93C1
:100330006C017B018B01040F151FEB015E01AE18F0
:10034000BF08C017D10759F06991D601ED91FC9112
:100350000190F081E02DC6011995892B79F7C5012F
:10036000DF91CF911F910F91FF90EF90DF90CF9091
:10037000BF90AF900895FC014481558160817181E7
:1003800081EB93E00C948E018150823108F05AC0C9
:10039000E82FF0E08827E053FE4F8F4F0C94C30FF7
:1003A000F001F401E201E801EC012202F701FD0194
:1003B000010207020B020F021502190222021D029E
:1003C00023022702809180008F7780938000089518
:1003D000809180008F7DF9CF80918000877FF5CF5D
:1003E00084B58F7784BD089584B58F7DFBCF8091D0
:1003F000B0008F778093B00008958091B0008F7D1A
:10040000F9CF809190008F7780939000089580912C
:1004100090008F7DF9CF80919000877FF5CF8091FC
:10042000A0008F778093A00008958091A0008F7D19
:10043000F9CF8091A000877FF5CF809120018F7741
:10044000809320010895809120018F7DF9CF8091C4
:100450002001877FF5CFCF93DF93282F30E0F9017C
:10046000E259FD4F8491F901E85DFD4FD491F90106
:10047000EE51FE4FC491CC23A1F081110E94C40122
:10048000EC2FF0E0EE0FFF1FE853FE4FA591B49163
:10049000EC91ED2381E090E009F480E0DF91CF91D1
:1004A000089580E090E0FACF1F93CF93DF93282F39
:1004B00030E0F901E259FD4F8491F901E85DFD4F0B
:1004C000D491F901EE51FE4FC491CC23A9F0162F1F
:1004D00081110E94C401EC2FF0E0EE0FFF1FE255E6
:1004E000FE4FA591B4918FB7F894EC91111108C00B
:1004F000D095DE23DC938FBFDF91CF911F910895BC
:10050000DE2BF8CFCF93DF93EC018091D203909153
:10051000D303029749F4C130D10509F43DC07CF5FD
:1005200060E0209709F439C08091D2039091D30301
:10053000049749F4C130D10509F45EC00CF039C00C
:10054000209709F444C08091D2039091D30305977A
:1005500009F0E7C0CA30D10508F0E3C0FE018827E2
:10056000EB54FD4F8F4F0C94C30F14032003310342
:100570004703620364036B03770388038F03C2306E
:10058000D105A9F060E0C330D10571F68091D603A2
:100590000E94540260E006C061E08091D6030E9490
:1005A000540261E08091D8030E945402BDCF61E003
:1005B000EDCFC230D10539F1C330D10509F0C3CF39
:1005C00061E08091D6030E94540260E022C061E0A5
:1005D0008091D6030E94540260E08091D8030E946B
:1005E000540261E08091DA030E94540260E080913D
:1005F000DC030E945402A7CF60E08091D6030E94E2
:10060000540261E0EACF60E08091D6030E94540278
:1006100061E08091D8030E94540260E08091DA0387
:100620000E94540261E0E3CF60E08091D6030E9413
:10063000540261E08091D8030E94540261E00BC033
:1006400060E08091D6030E94540261E08091D8035B
:100650000E94540260E08091DA030E94540260E03C
:1006600010C060E08091D6030E94540261E0809146
:10067000D8030E94540260E08091DA030E94540281
:1006800061E08091DC030E94540261E015C060E0EB
:100690008091D6030E94540261E08091D8030E94A9
:1006A000540260E08091DA030E94540261E080917C
:1006B000DC030E94540260E08091DE03DF91CF9161
:1006C0000C94540261E0E4CF61E08091D6030E9473
:1006D000540260E0E2CF61E08091D6030E945402B0
:1006E00060E08091D8030E94540261E0DBCF61E0BA
:1006F0008091D6030E94540260E08091D8030E944A
:10070000540261E08091DA030E94540260E0CFCF8E
:1007100061E08091D6030E94540260E08BCF60E0DC
:10072000F8CFDF91CF910895CF93DF9390E0FC0154
:10073000E85DFD4F24918E519E4FFC0184918823EA
:10074000D1F090E0880F991FFC01EC56FE4FA59167
:10075000B491FC01E255FE4FC591D49161110EC0D8
:100760009FB7F8948C91E22FE0958E238C9328818B
:10077000E223E8839FBFDF91CF9108958FB7F8946C
:10078000EC91E22BEC938FBFF6CF3FB7F8948091BA
:100790009F039091A003A091A103B091A20326B55D
:1007A000A89B05C02F3F19F00196A11DB11D3FBFA9
:1007B000BA2FA92F982F8827BC01CD01620F711D78
:1007C000811D911D42E0660F771F881F991F4A9572
:1007D000D1F708954F925F926F927F928F929F927E
:1007E000AF92BF92EF92FF920F931F93CF93DF933D
:1007F000EC0197FF04C0CC27DD27C81BD90B1816C6
:1008000019060CF061C081E090E09093CB038093D7
:10081000CA0304E010E08AE0E82EF12C209709F4E6
:100820006FC00E94C5038090E0039090E103A09008
:10083000E203B090E3032B013C01481859086A0811
:100840007B088090CC039090CD03A090CE03B09015
:10085000CF03481459046A047B0400F36093E00357
:100860007093E1038093E2039093E3038091D403B8
:100870009091D5032091CA033091CB0321303105EB
:1008800059F501969093D5038093D4032091D0031A
:100890003091D1038217930721F41092D50310925F
:1008A000D40321978091D4039091D5032091D20352
:1008B0003091D303B7012530310509F0B8010E940A
:1008C000900F0E948202AACF892B09F4A2CF109226
:1008D000CB031092CA039DCF892B41F48091D003A2
:1008E0009091D1039093D5038093D4038091D40346
:1008F0009091D50301979093D5038093D403D1CFE2
:10090000DF91CF911F910F91FF90EF90BF90AF902B
:100910009F908F907F906F905F904F9008958F92EF
:100920009F92AF92BF92CF92DF92EF92FF924B01D4
:100930005C010E94C5036B017C010E94C5036C1918
:100940007D098E099F09683E734081059105A8F3D2
:1009500021E0821A9108A108B10888EEC80E83E050
:10096000D81EE11CF11C81149104A104B10429F7E3
:10097000FF90EF90DF90CF90BF90AF909F908F90BF
:10098000089521E001C0220F6A95EAF7DC011C9668
:100990002C931C971A965C934E931997ED91FC91AA
:1009A0000484F585E02D60E0199408950895DC0134
:1009B000ED91FC910684F785E02D41E0199581E0E9
:1009C00090E00895DC01ED91FC910684F785E02D1F
:1009D00040E019940F931F93CF93DF9300D000D082
:1009E0001F921F92CDB7DEB70091420210914302D1
:1009F00020914402309145020D831E832F83388756
:100A0000009146021091470220914802309149021C
:100A100009831A832B833C839091B803691710F0E4
:100A20006FEF690F262F30E04091B9032C0F3D1F67
:100A3000F901403199F4943089F46181680F60685C
:100A400081EB93E028960FB6F894DEBF0FBECDBFC2
:100A5000DF91CF911F910F910C94E2046581EECF4D
:100A6000EF92FF920F931F93CF93DF938B0198E048
:100A7000899FB0011124606481EB93E00E94E2043D
:100A800083E790E00197F1F7E801085F1F4F8BE9DA
:100A9000E82EF12C699181EB93E00E94D704C70105
:100AA0000197F1F7C017D107A9F7DF91CF911F91F7
:100AB0000F91FF90EF90089561E00E94E2048BE3B4
:100AC0009FE10197F1F708950F931F93CF93DF9361
:100AD000EC01423018F08C8188608C834F836887EA
:100AE000222329F0413019F48C8184608C8364E6E0
:100AF00070E080E090E00E948F046C8164FD50C043
:100B0000E881F9810684F785E02D42E063E0CE01BB
:100B100019950BE416E4C8010197F1F7E881F98112
:100B20000684F785E02D42E063E0CE011995C80107
:100B30000197F1F7E881F9810684F785E02D42E01D
:100B400063E0CE01199583E592E00197F1F7E88122
:100B5000F9810684F785E02D42E062E0CE01199527
:100B60006C816062CE010E94E20484E08D836CE0BF
:100B7000CE010E94E204CE010E945C0582E08E83D9
:100B800066E0CE010E94E204E881F9810484F585E3
:100B9000E02D6FEFCE01DF91CF911F910F9119944E
:100BA0006062CE010E94E2048BE496E40197F1F7C3
:100BB0006C816062CE010E94E20483E592E00197BD
:100BC000F1F76C816062CE010E94E204C9CF089502
:100BD0000895089520910103260F3327331F2132F2
:100BE0003105ECF420917203FC0190E080E02430A8
:100BF00069F082E00895A09101032191AC014F5169
:100C00005D4FA40FB52FB11D2C930196861798F355
:100C100080910103680F6093010380E0089581E0F3
:100C200008951092720381E08093710310926C0317
:100C300061E084E10E94540261E085E10E94540277
:100C4000E9EBF0E080818E7F808380818D7F8083DF
:100C500088E48093B80085E48093BC000895CF9326
:100C6000DF9391E09093E0028823B9F0C091B8003F
:100C7000D091BA008091BC008A7B8093BC0060E078
:100C800084E10E94540260E085E10E9454020E94C7
:100C90001106D093BA00C093B800DF91CF910895A8
:100CA0000895E091790380917803E81730F4F0E03B
:100CB000E658FC4F808190E008958FEF9FEF0895F4
:100CC00090917903809178032FEF3FEF981748F4C4
:100CD000E92FF0E0E658FC4F208130E09F5F9093D1
:100CE0007903C90108958091780390917903891B54
:100CF000990B0895CF92DF92EF92FF920F931F937B
:100D0000CF93DF937C01CB018A012091240322231E
:100D100089F0EB016B01C40ED51ECC15DD0569F021
:100D20006991D701ED91FC910190F081E02DC7010F
:100D30001995F3CF642F0E94EA05C801DF91CF9186
:100D40001F910F91FF90EF90DF90CF900895CF9378
:100D5000DF931F92CDB7DEB769832091240322234E
:100D6000F9F020914A03203258F021E030E0FC01F4
:100D70003383228390E080E00F90DF91CF9108953C
:100D800080914B03E82FF0E0EB5DFC4F998190835D
:100D90008F5F80934B0380934A0381E090E0ECCF18
:100DA00061E0CE0101960E94EA05F7CFCF92DF9273
:100DB000EF92FF920F931F93CF93DF93FC01238158
:100DC000222309F4F1C0262F61816095622360839C
:100DD000C28181E080932403C093450310924B03AA
:100DE00010924A0385EA93E00E94A706D0914A0335
:100DF00021E0D13208F09AC00E94C5036B017C014A
:100E00008091720381116CC082E08093720381E053
:100E1000809371038FEF8093700310926F03D093D0
:100E20006E03A5E2B3E0ECE4F3E080E0D81394C0F5
:100E300010926D0380916D03CC0FC82BC0936D038E
:100E400080916C03813009F08BC010926C030E947A
:100E5000C5036B017C0180916D038093BB00809181
:100E6000740390917503A0917603B0917703892B59
:100E70008A2B8B2BA1F00E94C50300917403109163
:100E8000750320917603309177036C197D098E09E3
:100E90009F09061717072807390708F442C08091F1
:100EA000BC0083FDD8CF85EC8093BC000E94C503B5
:100EB0006B017C0180917203823009F453C08091F0
:100EC000700320E08F3F91F18091700322E0803227
:100ED00069F18091700324E0803341F523E026C05E
:100EE0008091740390917503A0917603B09177037C
:100EF000892B8A2B8B2B09F483CF0E94C503009189
:100F000074031091750320917603309177036C1967
:100F10007D098E099F09061717072807390708F06A
:100F20006FCF809173030E942F0625E010924B0330
:100F300010924A031092240330E081E090E0232BCA
:100F400011F090E080E0DF91CF911F910F91FF9021
:100F5000EF90DF90CF9008959D9191938F5F66CF32
:100F600085EEA2CF8091740390917503A0917603D2
:100F7000B0917703892B8A2B8B2B09F49BCF0E948E
:100F8000C50300917403109175032091760330918D
:100F900077036C197D098E099F0906171707280723
:100FA000390708F087CFBDCF30E020E0C6CFEF9201
:100FB000FF920F931F93CF938C01FC0184E0C0E05C
:100FC000262F30E060FF02C09589C92BB9017595C5
:100FD0006795815031968111F3CF413011F4F801BA
:100FE0004489F8016585C62BC42B7801FEE0EF0E1D
:100FF000F11CF80162896C2BC7010E94D606F8012A
:10100000628960956C23C701CF911F910F91FF906A
:10101000EF900C94D6060F931F93CF93DF93062F78
:101020000F70423041F440E0602FDF91CF911F916B
:101030000F910C94D707142FEC0170E084E07595A4
:1010400067958A95E1F7CE010E94D707412F602F5F
:10105000CE01EBCFFC0184858823A1F02185328568
:101060002115310521F4611107C0158606C0213014
:101070003105D9F76111F9CF85876585CF010E96C6
:101080000C94D606089590E080E00895FC0101904C
:101090000020E9F73197AF01481B590BBC0181EBE8
:1010A00093E00C948E0180913A0290913B02823041
:1010B0009105C9F12CF4009759F0019781F008953A
:1010C0008330910509F44AC0049709F46AC0089571
:1010D00081E090E090933B0280933A02089581EB87
:1010E00093E00E945C0560E080E00E94EA0480E7F3
:1010F00092E00E94460861E080E00E94EA0481E8F4
:1011000092E00E94460862E080E00E94EA0481E9E1
:1011100092E00E94460863E080E00E94EA048EE9C3
:1011200092E00C94460881EB93E00E945C0560E03D
:1011300080E00E94EA0480E792E00E94460861E0B5
:1011400080E00E94EA0483E892E00E94460862E0A0
:1011500080E00E94EA048FE892E0DBCF81EB93E02D
:101160000E945C0560E080E00E94EA0480E792E073
:101170000E94460861E080E00E94EA0483E892E071
:101180000E94460862E080E00E94EA0481E992E061
:101190000E94460863E080E00E94EA048CE992E045
:1011A000C0CF83E090E096CF0E9407120F931F9369
:1011B000CF93DF93EC0188819981009759F02A81C0
:1011C0003B812617370730F081E0DF91CF911F91E7
:1011D0000F9108958B016F5F7F4F0E94261100973A
:1011E00059F0998388831B830A832C813D81232BAB
:1011F00059F7FC011082E8CF80E0E7CFCF93DF936F
:10120000EC0188819981009711F00E949D1019824C
:1012100018821D821C821B821A82DF91CF91089551
:101220000F931F93CF93DF93EC010C811D81075F18
:101230001F4FB8010E94D608882391F02881398178
:101240008C819D8167EA72E0820F931F0E941512C4
:101250001D830C83CE01DF91CF911F910F910895D3
:10126000CE010E94FE08F6CFCF92DF92EF92FF925E
:101270000F931F93CF93DF93CDB7DEB762970FB66F
:10128000F894DEBF0FBECDBF8C01CB01F8011182F7
:10129000108213821282158214824AE09E012F5F0F
:1012A0003F4F6901B9010E945B0FF60101900020D8
:1012B000E9F731977F01EC18FD08B701C8010E94DA
:1012C000D608811112C0C8010E94FE0862960FB6AE
:1012D000F894DEBF0FBECDBFDF91CF911F910F916C
:1012E000FF90EF90DF90CF900895F801F582E482AF
:1012F000B601808191810E941512E8CFFC018081A6
:101300009181009711F00C949D100895EF92FF9237
:101310000F931F93CF93DF93EC01198218821B82E6
:101320001A821D821C828617970719F1FB01008122
:10133000118101151105E9F0E480F580B7010E94E3
:10134000D608811109C0CE01DF91CF911F910F9175
:10135000FF90EF900C94FE08FD82EC82B80188812A
:101360009981DF91CF911F910F91FF90EF900C9495
:101370001512DF91CF911F910F91FF90EF9008957B
:101380004F925F926F927F928F929F92AF92BF9295
:10139000EF92FF920F931F93CF93DF93EC01062FF1
:1013A000F42EE22E8B85888B1092790310927803AD
:1013B00010924B0310924A030E94110685ED94E0AF
:1013C000909349038093480386ED94E090934703FC
:1013D0008093460318890E94C5034B015C018091EC
:1013E0007203811164C081E0809372038093710362
:1013F0009FEF9093700310926F0310926E0380938F
:101400006D0380916D03110F182B10936D03809164
:101410006C03813009F09DC010926C030E94C503DB
:101420004B015C0180916D038093BB00809174033C
:1014300090917503A0917603B0917703892B8A2B45
:101440008B2BA1F00E94C50340907403509075034C
:101450006090760370907703681979098A099B096F
:10146000461657066806790608F442C08091BC000B
:1014700083FDD8CF85EC8093BC000E94C5034B014F
:101480005C0180917203813009F465C080916F0323
:10149000811183C080916F03ECE4F3E0AAE7B3E02D
:1014A00090E0981751F121912D939F5FFACF809191
:1014B000740390917503A0917603B0917703892B03
:1014C0008A2B8B2B09F48BCF0E94C50340907403A9
:1014D00050907503609076037090770368197909CE
:1014E0008A099B09461657066806790608F077CFE1
:1014F000809173030E942F0680E0109279038093FD
:10150000780391E0811101C090E0998B85EA93E026
:101510000E9460068E878989882339F01F861C8285
:1015200060E0CE010E960E94D6062E2D4F2D602F24
:10153000CE01DF91CF911F910F91FF90EF90BF905F
:10154000AF909F908F907F906F905F904F900C9492
:10155000640585EE90CF8091740390917503A091FE
:101560007603B0917703892B8A2B8B2B09F489CFD3
:101570000E94C503409074035090750360907603F9
:1015800070907703681979098A099B0946165706EE
:101590006806790608F075CFABCF81E07DCF85ED89
:1015A0008093BC008091740390917503A0917603A1
:1015B000B09177030796A11DB11D23E0B695A795BD
:1015C000979587952A95D1F72091BC0024FD03C0FB
:1015D00010927203089540917403509175036091C5
:1015E000760370917703452B462B472B69F30097C1
:1015F000A105B10541F02AE22A95F1F700C0019753
:10160000A109B109E1CF809173030C942F061F92B9
:101610000F920FB60F9211242F933F938F939F93A6
:10162000AF93BF9380919B0390919C03A0919D03E6
:10163000B0919E0330919A0323E0230F2D3758F584
:101640000196A11DB11D20939A0380939B03909353
:101650009C03A0939D03B0939E0380919F03909160
:10166000A003A091A103B091A2030196A11DB11DF9
:1016700080939F039093A003A093A103B093A20330
:10168000BF91AF919F918F913F912F910F900FBE7E
:101690000F901F90189526E8230F0296A11DB11DEB
:1016A000D2CF1F920F920FB60F9211240BB60F924A
:1016B0002F933F934F935F936F937F938F939F935A
:1016C000AF93BF93EF93FF938091B900887F8036EB
:1016D00009F44DC008F040C0883209F4A9C028F5CB
:1016E000803109F49DC0C8F4882309F4FBC0883018
:1016F00009F496C0FF91EF91BF91AF919F918F91A7
:101700007F916F915F914F913F912F910F900BBE01
:101710000F900FBE0F901F901895883109F488C064
:10172000803241F78093700314C0803409F49DC067
:1017300040F48033B9F38833E9F68093700385EC85
:10174000B0C0803509F485C0883509F496C0883466
:1017500089F60E94CF0ACECF883909F48CC038F5BB
:10176000883729F050F4883611F0803719F683E075
:10177000809372031092230357C0883809F47BC00A
:10178000803919F0803809F0B5CF80912303803279
:1017900008F071C0E091230381E08E0F8093230352
:1017A0008091BB00F0E0ED5FFC4F80833DC0803B4B
:1017B00039F0E0F4803A09F479C0883A09F09ACF18
:1017C00084E0809372031092020310920103E0916F
:1017D0004803F091490319958091010381110FC0CD
:1017E00081E0809301031092E10209C0803C09F47A
:1017F000A6CF883C09F4A3CF883B09F07BCFE091CA
:10180000020381E08E0F80930203F0E0EF51FD4F61
:1018100080818093BB00909102038091010329C0D5
:1018200080916D038093BB0085EC8093BC0062CFF8
:1018300090916F0380916E03981758F5E0916F03B4
:1018400081E08E0F80936F03F0E0E45BFC4F8081BA
:10185000E9CFE0916F0381E08E0F80936F03809159
:10186000BB00F0E0E45BFC4F808390916F038091BC
:101870006E039817C8F285E8D8CFE0916F0381E036
:101880008E0F80936F038091BB00F0E0E45BFC4F10
:1018900080838091710381115CCF81E080936C0320
:1018A00084EA8093BC001092720324CF85EC80936D
:1018B000BC001092720380912303803230F4E091D7
:1018C0002303F0E0ED5FFC4F10826091230370E092
:1018D000E0914603F091470383E093E0199510925D
:1018E000230308CF1092700334CFCF93DF93E5EA40
:1018F000F3E01382128288EE93E0A0E0B0E08483EC
:101900009583A683B7838EE492E091838083CAECAB
:10191000D3E01B861A86198218821E8A1F8A188EA7
:10192000198E82E190E09F838E8387E390E09D870C
:101930008C8788E390E09F878E8789E390E0998B7E
:10194000888B8AE390E09B8B8A8B61E087E30E941F
:10195000940361E08E850E94940361E088890E946F
:10196000940361E08A890E9494031D8A1C8A84E0A2
:1019700090E099878887E1EBF3E01382128280E69A
:1019800092E091838083108A8FEF87871686118A71
:1019900080E28387148615861286118694E0928BE6
:1019A00092E0938B91E0948B90E1958B868B80E411
:1019B000878B80E8808F50E040E063E0CF01DF91CB
:1019C000CF910C94C104CF93DF93CDB7DEB72C97A2
:1019D0000FB6F894DEBF0FBECDBF789484B5826099
:1019E00084BD84B5816084BD85B5826085BD85B5C3
:1019F000816085BD80916E00816080936E00109241
:101A000081008091810082608093810080918100BB
:101A1000816080938100809180008160809380004C
:101A20008091B10084608093B1008091B0008160AA
:101A30008093B000809191008260809391008091AA
:101A400091008160809391008091900081608093EB
:101A500090008091A10082608093A1008091A100FC
:101A600081608093A1008091A00081608093A0009C
:101A70008091210182608093210180912101816008
:101A800080932101809120018160809320018091C9
:101A90007A00846080937A0080917A0082608093DB
:101AA0007A0080917A00816080937A0080917A0038
:101AB000806880937A001092C10020E044E060E1E9
:101AC00081EB93E00E94C0096FEF81EB93E00E94ED
:101AD0002A0860E080E00E94EA0480E792E00E9429
:101AE000460860E08DE00E94940360E08CE00E9474
:101AF000940360E08BE00E94940361E087E30E941E
:101B0000940361E088E30E94940361E089E30E940A
:101B1000940361E08AE30E94940360E084E30E94FE
:101B2000940360E085E30E94940360E085E30E94F3
:101B3000940316E160E0812F0E9494031F5F163228
:101B4000C9F760E372E080E00E94300568E272E06D
:101B500081E00E94300560E272E082E00E94300580
:101B600068E172E083E00E94300560E172E084E0A9
:101B70000E94300568E072E085E00E94300560E078
:101B800072E086E00E9430050E945308412C87E8ED
:101B9000582E83E9682E83E0782E98E2892E912CC6
:101BA000A12CB12C20E1C22ED12C30E0232E30E02C
:101BB000332E85E30E942B02019741F52091D0033B
:101BC0003091D103032E000C440B550BC301B2011D
:101BD0000E94A40FCA01B901A50194010E94A40F9B
:101BE0002093CC033093CD034093CE035093CF0387
:101BF00084E090E00E94EA0360EA7FE080E090E009
:101C00000E948F048CEF9FEF0E94EA038DE00E94F8
:101C10002B02019709F040C080913A0290913B025B
:101C2000019690933B0280933A020E94530864E627
:101C300070E080E090E00E948F048DE00E942B0213
:101C4000892BD9F7D0923902C09238021092A4039E
:101C50001092A30316E1812F0E942B02019791F4A9
:101C600080913802909139020197909339028093C4
:101C700038028091A3039091A40301969093A4034A
:101C80008093A3031F5F163231F72114310409F446
:101C900090CF0E9400008DCF8CE00E942B02019714
:101CA000B9F480913A0290913B02019790933B02E4
:101CB00080933A020E94530864E670E080E090E06E
:101CC0000E948F048CE00E942B02892BD9F7BACF97
:101CD0008BE00E942B027C0181E0E816F10409F000
:101CE000B1CF80913A0290913B028230910509F484
:101CF00079C08330910509F488C0019709F064C068
:101D000081EB93E00E945C0511E081EB93E00E947F
:101D10005C0561E0812F0E94EA0462E081EB93E0C0
:101D20000E94D704FF24F394F10E61E08F2D0E94EE
:101D3000EA0463E081EB93E00E94D70461E08FEF57
:101D4000810F0E94EA0464E081EB93E00E94D704D3
:101D500068EC70E080E090E00E948F041F2D1E3040
:101D6000A1F681EB93E00E945C0560E080E00E94B8
:101D7000EA0481EB92E00E94460862E080E00E9463
:101D8000EA046091380270913902CE0107960E94F0
:101D90003409BE01695F7F4FCE0101960E9486091A
:101DA000CE0101960E9410090E94BB01CE0101964E
:101DB0000E947E09CE0107960E947E0960EB74E0C6
:101DC00080E090E00E948F040E94530864E670E077
:101DD00080E090E00E948F048BE00E942B02892B10
:101DE000D9F730CF81EB93E00E945C0560E080E0A2
:101DF0000E94EA0482EC92E00E94460862E080E0E1
:101E00000E94EA0470E060E0C0CF81EB93E00E94A2
:101E10005C0510E081EB93E00E945C0561E08E2D93
:101E20000E94EA0462E081EB93E00E94D70461E043
:101E300082E0810F0E94EA0463E081EB93E00E945C
:101E4000D70461E0812F0E94EA0464E081EB93E013
:101E50000E94D70483E0810F61E0E0FC28C00E946B
:101E6000EA0465E081EB93E00E94D70468EC70E03F
:101E700080E090E00E948F048FEFE81AF80A1F5F5D
:101E80001D3041F681EB93E00E945C0560E080E04C
:101E90000E94EA0482ED92E00E94460862E080E03F
:101EA0000E94EA046091A3037091A4036ECF0E9484
:101EB000EA0466E0D7CFBB274A3031F4992322F4F5
:101EC000BDE2909581959F4F0C94670FBB27FB0156
:101ED0005527AA27880F991FAA1FA41710F0A41B23
:101EE00083955051B9F7A05DAA3308F0A95DA1937D
:101EF000009779F7B111B1931192CB010C94800F37
:101F0000DC01FC01672F71917723E1F7329704C060
:101F10007C916D9370836291AE17BF07C8F30895EB
:101F200097FB072E16F4009407D077FD09D00E9486
:101F3000CB0F07FC05D03EF4909581959F4F0895F7
:101F4000709561957F4F0895052E97FB1EF40094C0
:101F50000E94BB0F57FD07D00E94DF0F07FC03D084
:101F60004EF40C94BB0F50954095309521953F4F02
:101F70004F4F5F4F089590958095709561957F4F75
:101F80008F4F9F4F0895EE0FFF1F881F8BBF079045
:101F9000F691E02D1994AA1BBB1B51E107C0AA1FA3
:101FA000BB1FA617B70710F0A61BB70B881F991FFA
:101FB0005A95A9F780959095BC01CD010895A1E2AD
:101FC0001A2EAA1BBB1BFD010DC0AA1FBB1FEE1FB3
:101FD000FF1FA217B307E407F50720F0A21BB30BFE
:101FE000E40BF50B661F771F881F991F1A9469F77A
:101FF00060957095809590959B01AC01BD01CF01D6
:1020000008950F931F93CF93DF938230910510F4BF
:1020100082E090E0E091E603F091E70330E020E019
:10202000B0E0A0E0309799F42115310509F44AC0D9
:10203000281B390B24303105D8F58A819B81611525
:10204000710589F1FB0193838283FE0111C04081F8
:1020500051810281138148175907E0F04817590749
:1020600099F4109761F012960C93129713961C93A3
:102070003296CF01DF91CF911F910F910895009378
:10208000E6031093E703F4CF2115310551F0421711
:10209000530738F0A901DB019A01BD01DF01F80106
:1020A000C1CFEF01F9CF9093E7038093E603CDCF43
:1020B000FE01E20FF31F819391932250310939837E
:1020C0002883D7CF2091E4033091E503232B41F4FB
:1020D00020913E0230913F023093E5032093E403C8
:1020E00020913C0230913D022115310541F42DB77C
:1020F0003EB74091400250914102241B350BE091C4
:10210000E403F091E503E217F307A0F42E1B3F0B65
:102110002817390778F0AC014E5F5F4F2417350759
:1021200048F04E0F5F1F5093E5034093E403819303
:1021300091939FCFF0E0E0E09CCFCF93DF930097A7
:10214000E9F0FC01329713821282A091E603B0916C
:10215000E703ED0130E020E01097A1F42081318108
:10216000820F931F2091E4033091E503281739076C
:1021700009F061C0F093E503E093E403DF91CF91B0
:102180000895EA01CE17DF07E8F54A815B819E01D9
:1021900041155105B1F7E901FB83EA834991599152
:1021A000C40FD51FEC17FD0761F480819181029661
:1021B000840F951FE90199838883828193819B8392
:1021C0008A83F0E0E0E012968D919C91139700973E
:1021D000B9F52D913C911197CD010296820F931F75
:1021E0002091E4033091E5032817390739F6309739
:1021F00051F51092E7031092E603B093E503A09324
:10220000E403BCCFD383C28340815181840F951FE7
:10221000C817D90761F44E5F5F4F88819981480FD5
:10222000591F518340838A819B8193838283211527
:10223000310509F0B0CFF093E703E093E6039ECFBA
:10224000FD01DC01C0CF13821282D7CF4F925F9283
:102250006F927F928F929F92AF92BF92CF92DF92B6
:10226000EF92FF920F931F93CF93DF938C01009710
:1022700099F4CB01DF91CF911F910F91FF90EF90D7
:10228000DF90CF90BF90AF909F908F907F906F9096
:102290005F904F900C940110FC01E60FF71F9C011A
:1022A00022503109E217F30708F4AEC0D901CD91ED
:1022B000DC911197C617D70720F1C530D10578F00A
:1022C000CE0104978617970750F0C61BD70B2297AD
:1022D000C193D1936D937C93CF010E949D10C8014F
:1022E000DF91CF911F910F91FF90EF90DF90CF90F2
:1022F000BF90AF909F908F907F906F905F904F9026
:1023000008955B01AC1ABD0A4C018C0E9D1EA09174
:10231000E603B091E703512C412CF12CE12C1097EE
:1023200031F58091E4039091E5038815990509F052
:102330005CC04616570608F058C080913C02909148
:102340003D02009741F48DB79EB7409140025091F5
:102350004102841B950BE817F90708F055C0F0936C
:10236000E503E093E403F90171836083B8CF8D91B5
:102370009C91119712966C90129713967C901397DC
:10238000A815B90559F56C0142E0C40ED11CCA1458
:10239000DB0420F1AC014A195B09DA0112961597AA
:1023A00080F06282738251834083D9016D937C9364
:1023B000E114F10471F0D7011396FC93EE93129798
:1023C0008ECF22968C0F9D1FF90191838083F3019C
:1023D000EFCFF093E703E093E60381CF4816590669
:1023E00008F42C017D01D3019ACFCB010E9401108A
:1023F0007C01009749F0AE01B8010E940C12C8019F
:102400000E949D1087016BCF10E000E068CF81E053
:1024100090E0F8940C941C12FB01DC0102C00190C6
:102420000D9241505040D8F70895FB01DC01019016
:0C2430000D920020E1F70895F894FFCF12
:10243C000E1915130E00000000000E1915130E00D6
:10244C00000107070F0F020100101E1D1F1F0810AF
:10245C001F1C1C1F1F1F111100000E1F1F0A000044
:10246C000000000E1F1F0A00100001000000E8030E
:10247C008000004014540040105000000000A706DB
:10248C007A064308500673066006510600000000E9
:10249C00D7048E014308E905C009C1042A080B08BA
:1024AC004D656E7520496E666F726D6163696F6EF6
:1024BC00003E20446973706F6E69626C6573003EF8
:1024CC002052657365727661646F73003E204F63B2
:1024DC00757061646F7300207061727175656F73D4
:1024EC0000546F74616C20646973706F6E69626CF8
:1024FC006500546F74616C207265736572766164EB
:10250C006F00546F74616C206F63757061646F0041
:00000001FF
