:100000000C9447010C9478010C9478010C947801BD
:100010000C9478010C9478010C9478010C9478017C
:100020000C9478010C9478010C9478010C9478016C
:100030000C9478010C9478010C9478010C9478015C
:100040000C9478010C9478010C9478010C9478014C
:100050000C9478010C9478010C9478010C943C0970
:100060000C9478010C9478010C9478010C9478012C
:100070000C9478010C9478010C9478010C9478011C
:100080000C9478010C9478010C9478010C9478010C
:100090000C9478010C9478010C9478010C948609E6
:1000A0000C9478010C9478010C9478010C947801EC
:1000B0000C9478010C9478010C9478010C947801DC
:1000C0000C9478010C9478010C9478010C947801CC
:1000D0000C9478010C9478010C9478010C947801BC
:1000E0000C9478010C94F7010C940C030C94CE0141
:1000F0000C9478060C9401020C9405020C94F507FC
:100100000C947A010C94DC040C940B030C94AA0A52
:100110000C94AF040C9495040C94DC010C94E9014C
:100120000C94D8010C9486040C940A030C94D4010A
:100130000C94ED010C9409020C9413020C94FB0135
:100140000C940F020C94A8040C9440060C94E30148
:100150000C94F3010C940E020C9485040C94E001B1
:100160000C945F060C94F6020C941E04000021000F
:10017000240027002A002D00300033000101000078
:10018000040107010A0100002200250028002B00BD
:100190002E003100340002010000050108010B01AE
:1001A000000020002300260029002C002F00320030
:1001B0000001000003010601090105050505070509
:1001C00008080808020202020A0A080804040404D3
:1001D00001010101010101010303030303030303FF
:1001E000040707070C0C0C0C0C0C0C0C020202028E
:1001F00006060606060606060B0B0B0B0B0B0B0B77
:100200000102102020080810204010204080020128
:10021000020108040201010204081020408080400D
:10022000201008040201800402018040201008040C
:1002300002010804020101020408102040800102AA
:1002400004081020408000000A0B02090C0D0E0863
:10025000070304010000000000000000000000008F
:10026000000000000000000000000000000000008E
:10027000000012111000000000000000000000004B
:10028000000000000000000000000000AA0A112485
:100290001FBECFEFD1E2DEBFCDBF00E00CBF23E039
:1002A000AEEDB2E001C01D92A43EB207E1F712E04C
:1002B000A0E0B2E0ECECFEE100E00BBF02C0079072
:1002C0000D92AE3DB107D9F711E0C7E4D1E000E0EF
:1002D00006C021970109802FFE010E94410DC634FE
:1002E000D10780E00807A9F70E94180B0C94640F4F
:1002F0000C940000AF92BF92CF92DF92EF92FF92E8
:100300000F931F93CF93DF936C017B018B01040F3D
:10031000151FEB015E01AE18BF08C017D10759F0D9
:100320006991D601ED91FC910190F081E02DC6011B
:100330001995892B79F7C501DF91CF911F910F9105
:10034000FF90EF90DF90CF90BF90AF900895FC01A9
:1003500044815581608171818DEA93E00C947A012A
:100360008150823108F05AC0E82FF0E08827E45429
:10037000FE4F8F4F0C94410DDC01E001CE01D40102
:10038000D8010E02E301E901ED01F301F701FB01E0
:10039000010205020E0209020F0213028091800081
:1003A0008F77809380000895809180008F7DF9CFB2
:1003B00080918000877FF5CF84B58F7784BD0895C5
:1003C00084B58F7DFBCF8091B0008F778093B00094
:1003D00008958091B0008F7DF9CF809190008F7744
:1003E000809390000895809190008F7DF9CF809147
:1003F0009000877FF5CF8091A0008F778093A00039
:1004000008958091A0008F7DF9CF8091A000877F13
:10041000F5CF809120018F778093200108958091FE
:1004200020018F7DF9CF80912001877FF5CFCF9379
:10043000DF93282F30E0F901EA5BFD4F8491F90149
:10044000E050FE4FD491F901E654FE4FC491CC2305
:10045000A1F081110E94B001EC2FF0E0EE0FFF1F20
:10046000E056FE4FA591B491EC91ED2381E090E030
:1004700009F480E0DF91CF91089580E090E0FACF19
:100480001F93CF93DF93282F30E0F901EA5BFD4FF4
:100490008491F901E050FE4FD491F901E654FE4FEA
:1004A000C491CC23A9F0162F81110E94B001EC2F2A
:1004B000F0E0EE0FFF1FEA57FE4FA591B4918FB702
:1004C000F894EC91111108C0D095DE23DC938FBF16
:1004D000DF91CF911F910895DE2BF8CFCF93DF935B
:1004E00090E0FC01E050FE4F249186549E4FFC01A9
:1004F00084918823D1F090E0880F991FFC01E45982
:10050000FE4FA591B491FC01EA57FE4FC591D491DD
:1005100061110EC09FB7F8948C91E22FE0958E2365
:100520008C932881E223E8839FBFDF91CF910895C8
:100530008FB7F894EC91E22BEC938FBFF6CF3FB7D7
:10054000F89480919D0390919E03A0919F03B09198
:10055000A00326B5A89B05C02F3F19F00196A11D49
:10056000B11D3FBFBA2FA92F982F8827BC01CD01FD
:10057000620F711D811D911D42E0660F771F881F5C
:10058000991F4A95D1F708958F929F92AF92BF928B
:10059000CF92DF92EF92FF924B015C010E949F028B
:1005A0006B017C010E949F026C197D098E099F09D5
:1005B000683E734081059105A8F321E0821A9108F5
:1005C000A108B10888EEC80E83E0D81EE11CF11C1A
:1005D00081149104A104B10429F7FF90EF90DF90FA
:1005E000CF90BF90AF909F908F90089521E001C071
:1005F000220F6A95EAF7DC011C962C931C971A9639
:100600005C934E931997ED91FC910484F585E02D50
:1006100060E0199408950895DC01ED91FC91068441
:10062000F785E02D41E0199581E090E00895DC0127
:10063000ED91FC910684F785E02D40E019940F932D
:100640001F93CF93DF9300D000D01F921F92CDB79E
:10065000DEB7009140021091410220914202309198
:1006600043020D831E832F8338870091440210912B
:100670004502209146023091470209831A832B8359
:100680003C839091B403691710F06FEF690F262F28
:1006900030E04091B5032C0F3D1FF901403199F432
:1006A000943089F46181680F60688DEA93E0289640
:1006B0000FB6F894DEBF0FBECDBFDF91CF911F9173
:1006C0000F910C9417036581EECFEF92FF920F9379
:1006D0001F93CF93DF938B0198E0899FB001112482
:1006E00060648DEA93E00E94170383E790E001972E
:1006F000F1F7E801085F1F4F8BE9E82EF12C6991B3
:100700008DEA93E00E940C03C7010197F1F7C0172F
:10071000D107A9F7DF91CF911F910F91FF90EF9033
:10072000089561E00E9417038BE39FE10197F1F7C1
:1007300008950F931F93CF93DF93EC01423018F08D
:100740008C8188608C834F836887222329F0413015
:1007500019F48C8184608C8364E670E080E090E022
:100760000E94C4026C8164FD50C0E881F981068456
:10077000F785E02D42E063E0CE0119950BE416E425
:10078000C8010197F1F7E881F9810684F785E02D2A
:1007900042E063E0CE011995C8010197F1F7E881C5
:1007A000F9810684F785E02D42E063E0CE011995DA
:1007B00083E592E00197F1F7E881F9810684F785F6
:1007C000E02D42E062E0CE0119956C816062CE01BD
:1007D0000E94170384E08D836CE0CE010E94170312
:1007E000CE010E94910382E08E8366E0CE010E94DA
:1007F0001703E881F9810484F585E02D6FEFCE01C0
:10080000DF91CF911F910F9119946062CE010E94E8
:1008100017038BE496E40197F1F76C816062CE01D7
:100820000E94170383E592E00197F1F76C81606203
:10083000CE010E941703C9CF08950895089520910D
:10084000FF02260F3327331F21323105ECF42091AC
:100850007003FC0190E080E0243069F082E00895AC
:10086000A091FF022191AC0141525D4FA40FB52F21
:10087000B11D2C930196861798F38091FF02680FA3
:100880006093FF0280E0089581E008951092700364
:1008900081E080936F0310926A0361E084E10E941B
:1008A000400261E085E10E944002E9EBF0E08081D6
:1008B0008E7F808380818D7F808388E48093B800E1
:1008C00085E48093BC000895CF93DF9391E09093EB
:1008D000DE028823B9F0C091B800D091BA008091AF
:1008E000BC008A7B8093BC0060E084E10E944002EF
:1008F00060E085E10E9440020E944604D093BA0065
:10090000C093B800DF91CF9108950895E0917703E7
:1009100080917603E81730F4F0E0E858FC4F8081CE
:1009200090E008958FEF9FEF089590917703809165
:1009300076032FEF3FEF981748F4E92FF0E0E858DF
:10094000FC4F208130E09F5F90937703C9010895A9
:100950008091760390917703891B990B0895CF922C
:10096000DF92EF92FF920F931F93CF93DF937C015F
:10097000CB018A0120912203222389F0EB016B0134
:10098000C40ED51ECC15DD0569F06991D701ED9136
:10099000FC910190F081E02DC7011995F3CF642FF0
:1009A0000E941F04C801DF91CF911F910F91FF900A
:1009B000EF90DF90CF900895CF93DF931F92CDB744
:1009C000DEB76983209122032223F9F020914803A6
:1009D000203258F021E030E0FC013383228390E0A4
:1009E00080E00F90DF91CF91089580914903E82F27
:1009F000F0E0ED5DFC4F998190838F5F8093490318
:100A00008093480381E090E0ECCF61E0CE01019655
:100A10000E941F04F7CFCF92DF92EF92FF920F93C5
:100A20001F93CF93DF93FC012381222309F4F1C0AC
:100A3000262F6181609562236083C28181E080936B
:100A40002203C0934303109249031092480381EAA2
:100A500093E00E94DC04D091480321E0D13208F0F9
:100A60009AC00E949F026B017C01809170038111EA
:100A70006CC082E08093700381E080936F038FEFFE
:100A800080936E0310926D03D0936C03A3E2B3E0E6
:100A9000EAE4F3E080E0D81394C010926B038091F5
:100AA0006B03CC0FC82BC0936B0380916A0381301A
:100AB00009F08BC010926A030E949F026B017C01B7
:100AC00080916B038093BB008091720390917303BC
:100AD000A0917403B0917503892B8A2B8B2BA1F005
:100AE0000E949F020091720310917303209174037E
:100AF000309175036C197D098E099F090617170738
:100B00002807390708F442C08091BC0083FDD8CF84
:100B100085EC8093BC000E949F026B017C01809158
:100B20007003823009F453C080916E0320E08F3F40
:100B300091F180916E0322E0803269F180916E0321
:100B400024E0803341F523E026C080917203909128
:100B50007303A0917403B0917503892B8A2B8B2B9F
:100B600009F483CF0E949F020091720310917303D6
:100B700020917403309175036C197D098E099F09CA
:100B8000061717072807390708F06FCF8091710300
:100B90000E94640425E010924903109248031092C9
:100BA000220330E081E090E0232B11F090E080E020
:100BB000DF91CF911F910F91FF90EF90DF90CF9039
:100BC00008959D9191938F5F66CF85EEA2CF80911E
:100BD000720390917303A0917403B0917503892BF4
:100BE0008A2B8B2B09F49BCF0E949F0200917203EA
:100BF0001091730320917403309175036C197D0972
:100C00008E099F09061717072807390708F087CFAD
:100C1000BDCF30E020E0C6CFEF92FF920F931F933D
:100C2000CF938C01FC0184E0C0E0262F30E060FF10
:100C300002C09589C92BB901759567958150319688
:100C40008111F3CF413011F4F8014489F801658531
:100C5000C62BC42B7801FEE0EF0EF11CF80162896F
:100C60006C2BC7010E940B05F801628960956C230B
:100C7000C701CF911F910F91FF90EF900C940B053E
:100C80000F931F93CF93DF93062F0F70423041F4E1
:100C900040E0602FDF91CF911F910F910C940C06D3
:100CA000142FEC0170E084E0759567958A95E1F763
:100CB000CE010E940C06412F602FCE01EBCFFC012C
:100CC00084858823A1F0218532852115310521F401
:100CD000611107C0158606C021303105D9F76111B1
:100CE000F9CF85876585CF010E960C940B05089585
:100CF00090E080E00895FC0101900020E9F7319731
:100D0000AF01481B590BBC018DEA93E00C947A01AA
:100D1000809138029091390282309105C9F12CF40A
:100D2000009759F0019781F008958330910509F4F7
:100D30004AC0049709F46AC0089581E090E0909356
:100D400039028093380208958DEA93E00E9491035E
:100D500060E080E00E941F038EE692E00E947B0626
:100D600061E080E00E941F038FE792E00E947B0613
:100D700062E080E00E941F038FE892E00E947B0601
:100D800063E080E00E941F038CE992E00C947B06F4
:100D90008DEA93E00E94910360E080E00E941F03CF
:100DA0008EE692E00E947B0661E080E00E941F03D5
:100DB00081E892E00E947B0662E080E00E941F03CF
:100DC0008DE892E0DBCF8DEA93E00E94910360E032
:100DD00080E00E941F038EE692E00E947B0661E0A5
:100DE00080E00E941F0381E892E00E947B0662E09F
:100DF00080E00E941F038FE892E00E947B0663E080
:100E000080E00E941F038AE992E0C0CF83E090E077
:100E100096CF0E944F0F0F931F93CF93DF93EC0158
:100E200088819981009759F02A813B8126173707DD
:100E300030F081E0DF91CF911F910F9108958B01E8
:100E40006F5F7F4F0E946E0E009759F099838883E1
:100E50001B830A832C813D81232B59F7FC011082CF
:100E6000E8CF80E0E7CFCF93DF93EC0188819981D1
:100E7000009711F00E94E50D198218821D821C82D4
:100E80001B821A82DF91CF9108950F931F93CF9306
:100E9000DF93EC010C811D81075F1F4FB8010E9499
:100EA0000B07882391F0288139818C819D8165EA27
:100EB00072E0820F931F0E945D0F1D830C83CE0191
:100EC000DF91CF911F910F910895CE010E943307BA
:100ED000F6CFCF92DF92EF92FF920F931F93CF93B3
:100EE000DF93CDB7DEB762970FB6F894DEBF0FBEC3
:100EF000CDBF8C01FC0111821082138212821582F7
:100F000014824AE0CE0101966C01BC0180E290E0BF
:100F10000E940C0DF60101900020E9F731977F0146
:100F2000EC18FD08B701C8010E940B07811112C01F
:100F3000C8010E94330762960FB6F894DEBF0FBE59
:100F4000CDBFDF91CF911F910F91FF90EF90DF9078
:100F5000CF900895F801F582E482B60180819181F5
:100F60000E945D0FE8CFFC0180819181009711F014
:100F70000C94E50D0895EF92FF920F931F93CF937A
:100F8000DF93EC01198218821B821A821D821C8257
:100F90008617970719F1FB010081118101151105D1
:100FA000E9F0E480F580B7010E940B07811109C0C8
:100FB000CE01DF91CF911F910F91FF90EF900C9494
:100FC0003307FD82EC82B80188819981DF91CF914E
:100FD0001F910F91FF90EF900C945D0FDF91CF91D7
:100FE0001F910F91FF90EF9008954F925F926F9233
:100FF0007F928F929F92AF92BF92EF92FF920F9348
:101000001F93CF93DF93EC01062FF42EE22E8B85F6
:10101000888B1092770310927603109249031092F6
:1010200048030E9446048AE093E09093470380932C
:1010300046038BE093E09093450380934403188923
:101040000E949F024B015C0180917003811164C07A
:1010500081E08093700380936F039FEF90936E0302
:1010600010926D0310926C0380936B0380916B035D
:10107000110F182B10936B0380916A03813009F0D4
:101080009DC010926A030E949F024B015C018091F7
:101090006B038093BB008091720390917303A091C6
:1010A0007403B0917503892B8A2B8B2BA1F00E94BE
:1010B0009F0240907203509073036090740370908D
:1010C0007503681979098A099B0946165706680647
:1010D000790608F442C08091BC0083FDD8CF85EC2E
:1010E0008093BC000E949F024B015C0180917003C1
:1010F000813009F465C080916D03811183C08091B6
:101100006D03EAE4F3E0A8E7B3E090E0981751F14B
:1011100021912D939F5FFACF809172039091730379
:10112000A0917403B0917503892B8A2B8B2B09F442
:101130008BCF0E949F024090720350907303609087
:10114000740370907503681979098A099B0946161A
:1011500057066806790608F077CF809171030E94E0
:10116000640480E0109277038093760391E081110C
:1011700001C090E0998B81EA93E00E9495048E87EC
:101180008989882339F01F861C8260E0CE010E9683
:101190000E940B052E2D4F2D602FCE01DF91CF9198
:1011A0001F910F91FF90EF90BF90AF909F908F9005
:1011B0007F906F905F904F900C94990385EE90CF45
:1011C0008091720390917303A0917403B0917503A1
:1011D000892B8A2B8B2B09F489CF0E949F02409088
:1011E00072035090730360907403709075036819D4
:1011F00079098A099B09461657066806790608F098
:1012000075CFABCF81E07DCF85ED8093BC00809121
:10121000720390917303A0917403B09175030796C4
:10122000A11DB11D23E0B695A795979587952A95A1
:10123000D1F72091BC0024FD03C0109270030895E3
:101240004091720350917303609174037091750320
:10125000452B462B472B69F30097A105B10541F0BB
:101260002AE22A95F1F700C00197A109B109E1CF5F
:10127000809171030C9464041F920F920FB60F9229
:1012800011242F933F938F939F93AF93BF9380919C
:10129000990390919A03A0919B03B0919C03309184
:1012A000980323E0230F2D3758F50196A11DB11D9A
:1012B000209398038093990390939A03A0939B03A0
:1012C000B0939C0380919D0390919E03A0919F03F6
:1012D000B091A0030196A11DB11D80939D03909331
:1012E0009E03A0939F03B093A003BF91AF919F91E2
:1012F0008F913F912F910F900FBE0F901F901895D7
:1013000026E8230F0296A11DB11DD2CF1F920F9286
:101310000FB60F9211240BB60F922F933F934F935A
:101320005F936F937F938F939F93AF93BF93EF934D
:10133000FF938091B900887F803609F44DC008F092
:1013400040C0883209F4A9C028F5803109F49DC055
:10135000C8F4882309F4FBC0883009F496C0FF91D3
:10136000EF91BF91AF919F918F917F916F915F911D
:101370004F913F912F910F900BBE0F900FBE0F908A
:101380001F901895883109F488C0803241F7809306
:101390006E0314C0803409F49DC040F48033B9F367
:1013A0008833E9F680936E0385ECB0C0803509F48C
:1013B00085C0883509F496C0883489F60E940409EE
:1013C000CECF883909F48CC038F5883729F050F42D
:1013D000883611F0803719F683E0809370031092FD
:1013E000210357C0883809F47BC0803919F0803850
:1013F00009F0B5CF80912103803208F071C0E091EF
:10140000210381E08E0F809321038091BB00F0E0E7
:10141000EF5FFC4F80833DC0803B39F0E0F4803AC1
:1014200009F479C0883A09F09ACF84E08093700378
:10143000109200031092FF02E0914603F0914703DF
:1014400019958091FF0281110FC081E08093FF0206
:101450001092DF0209C0803C09F4A6CF883C09F451
:10146000A3CF883B09F07BCFE091000381E08E0F92
:1014700080930003F0E0E152FD4F80818093BB0038
:10148000909100038091FF0229C080916B038093AB
:10149000BB0085EC8093BC0062CF90916D0380917E
:1014A0006C03981758F5E0916D0381E08E0F8093DF
:1014B0006D03F0E0E65BFC4F8081E9CFE0916D03C6
:1014C00081E08E0F80936D038091BB00F0E0E65BBE
:1014D000FC4F808390916D0380916C039817C8F244
:1014E00085E8D8CFE0916D0381E08E0F80936D0386
:1014F0008091BB00F0E0E65BFC4F808380916F033E
:1015000081115CCF81E080936A0384EA8093BC0000
:101510001092700324CF85EC8093BC00109270036E
:1015200080912103803230F4E0912103F0E0EF5FFD
:10153000FC4F10826091210370E0E0914403F09130
:10154000450381E093E019951092210308CF109292
:101550006E0334CFCF93DF93E1EAF3E0138212827C
:1015600088EE93E0A0E0B0E084839583A683B78300
:101570008CE492E091838083C6ECD3E01B861A86CC
:10158000198218821E8A1F8A188E198E85E090E0B3
:101590009F838E8387E390E09D878C8788E390E02C
:1015A0009F878E8789E390E0998B888B8AE390E010
:1015B0009B8B8A8B61E087E30E946E0261E08E85DF
:1015C0000E946E0261E088890E946E0261E08A8951
:1015D0000E946E021D8A1C8A84E090E099878887A9
:1015E000EDEAF3E0138212828EE592E0918380832C
:1015F000108A8FEF87871686118A80E28387148688
:1016000015861286118694E0928B92E0938B91E07E
:10161000948B90E1958B868B80E4878B80E8808F1C
:1016200050E040E063E0CF01DF91CF910C94F602EF
:10163000CF93DF93CDB7DEB72C970FB6F894DEBF0C
:101640000FBECDBF789484B5826084BD84B58160BF
:1016500084BD85B5826085BD85B5816085BD80917D
:101660006E00816080936E001092810080918100F5
:1016700082608093810080918100816080938100ED
:10168000809180008160809380008091B1008460AF
:101690008093B1008091B00081608093B000809110
:1016A000910082608093910080919100816080938D
:1016B0009100809190008160809390008091A100C2
:1016C00082608093A1008091A10081608093A1003D
:1016D0008091A00081608093A000809121018260B0
:1016E000809321018091210181608093210180916B
:1016F000200181608093200180917A008460809332
:101700007A0080917A00826080937A0080917A00DA
:10171000816080937A0080917A00806880937A005B
:101720001092C10020E044E060E18DEA93E00E9465
:10173000F5076FEF8DEA93E00E945F0660E080E0BE
:101740000E941F038EE692E00E947B0660E08DE01F
:101750000E946E0260E08CE00E946E0260E08BE00E
:101760000E946E0261E087E30E946E0261E088E3FE
:101770000E946E0261E089E30E946E0261E08AE3EA
:101780000E946E0260E084E30E946E0260E085E3E6
:101790000E946E0260E372E080E00E94650368E2EE
:1017A00072E081E00E94650360E272E082E00E94E4
:1017B000650368E172E083E00E94650360E172E026
:1017C00084E00E94650368E072E085E00E946503A2
:1017D00060E072E086E00E9465030E94880680E077
:1017E000C82E80E0D82E8DE00E9417020197E1F408
:1017F000809138029091390201969093390280933A
:1018000038020E94880664E670E080E090E00E9462
:10181000C4028DE00E941702892BD9F7C114D104AC
:1018200011F30E940000DFCF8CE00E9417020197A5
:10183000B9F480913802909139020197909339025E
:10184000809338020E94880664E670E080E090E0B1
:101850000E94C4028CE00E941702892BD9F7DECFC8
:101860008BE00E9417027C0181E0E816F104B1F6DA
:1018700080913802909139028230910509F475C047
:101880008330910509F47CC0019709F060C08DEAAE
:1018900093E00E94910311E08DEA93E00E9491038E
:1018A00061E0812F0E941F0362E08DEA93E00E94B5
:1018B0000C03FF24F394F10E61E08F2D0E941F03AF
:1018C00063E08DEA93E00E940C0361E08FEF810FEB
:1018D0000E941F0364E08DEA93E00E940C0368EC11
:1018E00070E080E090E00E94C4021F2D1E30A1F63F
:1018F0008DEA93E00E94910360E080E00E941F0364
:101900008FEA92E00E947B0662E080E00E941F0363
:10191000CE0107960E946907BE01695F7F4FCE0125
:1019200001960E94BB07CE0101960E9445070E94C6
:10193000A701CE0101960E94B307CE0107960E942F
:10194000B30760EB74E080E090E00E94C4020E9464
:10195000880664E670E080E090E00E94C4028BE0BC
:101960000E941702892BD9F759CF8DEA93E00E9484
:10197000910360E080E00E941F0380EC92E0C2CF00
:101980008DEA93E00E94910310E08DEA93E00E94BB
:10199000910361E08E2D0E941F0362E08DEA93E0C7
:1019A0000E940C0361E082E0810F0E941F0363E04C
:1019B0008DEA93E00E940C0361E0812F0E941F03D7
:1019C00064E08DEA93E00E940C0383E0810F61E004
:1019D000E0FC1EC00E941F0365E08DEA93E00E94B8
:1019E0000C0368EC70E080E090E00E94C4028FEF8E
:1019F000E81AF80A1F5F1D3041F68DEA93E00E9455
:101A0000910360E080E00E941F0380ED92E07ACFB6
:101A10000E941F0366E0E1CFBB274A3031F49923CF
:101A200022F4BDE2909581959F4F0C94180DBB2731
:101A3000FB015527AA27880F991FAA1FA41710F08A
:101A4000A41B83955051B9F7A05DAA3308F0A95D96
:101A5000A193009779F7B111B1931192CB010C9436
:101A6000310DDC01FC01672F71917723E1F732978B
:101A700004C07C916D9370836291AE17BF07C8F369
:101A80000895EE0FFF1F881F8BBF0790F691E02D82
:101A900019940F931F93CF93DF938230910510F425
:101AA00082E090E0E091E203F091E30330E020E097
:101AB000B0E0A0E0309799F42115310509F44AC04F
:101AC000281B390B24303105D8F58A819B8161159B
:101AD000710589F1FB0193838283FE0111C040816E
:101AE00051810281138148175907E0F048175907BF
:101AF00099F4109761F012960C93129713961C9319
:101B00003296CF01DF91CF911F910F9108950093ED
:101B1000E2031093E303F4CF2115310551F042178E
:101B2000530738F0A901DB019A01BD01DF01F8017B
:101B3000C1CFEF01F9CF9093E3038093E203CDCFC0
:101B4000FE01E20FF31F81939193225031093983F3
:101B50002883D7CF2091E0033091E103232B41F478
:101B600020913C0230913D023093E1032093E00349
:101B700020913A0230913B022115310541F42DB7F5
:101B80003EB740913E0250913F02241B350BE0913D
:101B9000E003F091E103E217F307A0F42E1B3F0BE3
:101BA0002817390778F0AC014E5F5F4F24173507CF
:101BB00048F04E0F5F1F5093E1034093E003819381
:101BC00091939FCFF0E0E0E09CCFCF93DF9300971D
:101BD000E9F0FC01329713821282A091E203B091E6
:101BE000E303ED0130E020E01097A1F42081318182
:101BF000820F931F2091E0033091E10328173907EA
:101C000009F061C0F093E103E093E003DF91CF912D
:101C10000895EA01CE17DF07E8F54A815B819E014E
:101C200041155105B1F7E901FB83EA8349915991C7
:101C3000C40FD51FEC17FD0761F4808191810296D6
:101C4000840F951FE90199838883828193819B8307
:101C50008A83F0E0E0E012968D919C9113970097B3
:101C6000B9F52D913C911197CD010296820F931FEA
:101C70002091E0033091E1032817390739F63097B6
:101C800051F51092E3031092E203B093E103A093A5
:101C9000E003BCCFD383C28340815181840F951F61
:101CA000C817D90761F44E5F5F4F88819981480F4B
:101CB000591F518340838A819B819383828321159D
:101CC000310509F0B0CFF093E303E093E2039ECF38
:101CD000FD01DC01C0CF13821282D7CF4F925F92F9
:101CE0006F927F928F929F92AF92BF92CF92DF922C
:101CF000EF92FF920F931F93CF93DF938C01009786
:101D000099F4CB01DF91CF911F910F91FF90EF904C
:101D1000DF90CF90BF90AF909F908F907F906F900B
:101D20005F904F900C94490DFC01E60FF71F9C014A
:101D300022503109E217F30708F4AEC0D901CD9162
:101D4000DC911197C617D70720F1C530D10578F07F
:101D5000CE0104978617970750F0C61BD70B229722
:101D6000C193D1936D937C93CF010E94E50DC8017F
:101D7000DF91CF911F910F91FF90EF90DF90CF9067
:101D8000BF90AF909F908F907F906F905F904F909B
:101D900008955B01AC1ABD0A4C018C0E9D1EA091EA
:101DA000E203B091E303512C412CF12CE12C10976C
:101DB00031F58091E0039091E1038815990509F0D0
:101DC0005CC04616570608F058C080913A029091C0
:101DD0003B02009741F48DB79EB740913E0250916F
:101DE0003F02841B950BE817F90708F055C0F093E4
:101DF000E103E093E003F90171836083B8CF8D9133
:101E00009C91119712966C90129713967C90139751
:101E1000A815B90559F56C0142E0C40ED11CCA14CD
:101E2000DB0420F1AC014A195B09DA01129615971F
:101E300080F06282738251834083D9016D937C93D9
:101E4000E114F10471F0D7011396FC93EE9312970D
:101E50008ECF22968C0F9D1FF90191838083F30111
:101E6000EFCFF093E303E093E20381CF48165906E6
:101E700008F42C017D01D3019ACFCB010E94490DBA
:101E80007C01009749F0AE01B8010E94540FC801CF
:101E90000E94E50D87016BCF10E000E068CF81E084
:101EA00090E0F8940C94640FFB01DC0102C00190F7
:101EB0000D9241505040D8F70895FB01DC0101908C
:0C1EC0000D920020E1F70895F894FFCF88
:101ECC000E1915130E00000000000E1915130E004C
:101EDC00000107070F0F020100101E1D1F1F081025
:101EEC001F1C1C1F1F1F111100000E1F1F0A0000BA
:101EFC000000000E1F1F0A0001000000E403800018
:101F0C00004014540040105000000000DC04AF04EA
:101F1C0078068504A80495048604000000000C03D0
:101F2C007A0178061E04F507F6025F0640064D6539
:101F3C006E7520496E666F726D6163696F6E003EDF
:101F4C0020446973706F6E69626C6573003E205239
:101F5C00657365727661646F73003E204F637570B4
:101F6C0061646F7300207061727175656F730054DA
:101F7C006F74616C20646973706F6E69626C65005C
:101F8C00546F74616C2072657365727661646F0056
:0E1F9C00546F74616C206F63757061646F0028
:00000001FF
